{
	"Desktop/web3/ERC20/AREVEAToken/AREVEAToken.sol": {
		"AREVEAToken": {
			"abi": [
				{
					"inputs": [],
					"stateMutability": "nonpayable",
					"type": "constructor"
				},
				{
					"anonymous": false,
					"inputs": [
						{
							"indexed": true,
							"internalType": "address",
							"name": "owner",
							"type": "address"
						},
						{
							"indexed": true,
							"internalType": "address",
							"name": "spender",
							"type": "address"
						},
						{
							"indexed": false,
							"internalType": "uint256",
							"name": "value",
							"type": "uint256"
						}
					],
					"name": "Approval",
					"type": "event"
				},
				{
					"anonymous": false,
					"inputs": [
						{
							"indexed": true,
							"internalType": "address",
							"name": "previousOwner",
							"type": "address"
						},
						{
							"indexed": true,
							"internalType": "address",
							"name": "newOwner",
							"type": "address"
						}
					],
					"name": "OwnershipTransferred",
					"type": "event"
				},
				{
					"anonymous": false,
					"inputs": [
						{
							"indexed": true,
							"internalType": "address",
							"name": "from",
							"type": "address"
						},
						{
							"indexed": true,
							"internalType": "address",
							"name": "to",
							"type": "address"
						},
						{
							"indexed": false,
							"internalType": "uint256",
							"name": "value",
							"type": "uint256"
						}
					],
					"name": "Transfer",
					"type": "event"
				},
				{
					"inputs": [],
					"name": "_decimals",
					"outputs": [
						{
							"internalType": "uint8",
							"name": "",
							"type": "uint8"
						}
					],
					"stateMutability": "view",
					"type": "function"
				},
				{
					"inputs": [],
					"name": "_initialSupply",
					"outputs": [
						{
							"internalType": "uint256",
							"name": "",
							"type": "uint256"
						}
					],
					"stateMutability": "view",
					"type": "function"
				},
				{
					"inputs": [
						{
							"internalType": "address",
							"name": "owner",
							"type": "address"
						},
						{
							"internalType": "address",
							"name": "spender",
							"type": "address"
						}
					],
					"name": "allowance",
					"outputs": [
						{
							"internalType": "uint256",
							"name": "",
							"type": "uint256"
						}
					],
					"stateMutability": "view",
					"type": "function"
				},
				{
					"inputs": [
						{
							"internalType": "address",
							"name": "spender",
							"type": "address"
						},
						{
							"internalType": "uint256",
							"name": "amount",
							"type": "uint256"
						}
					],
					"name": "approve",
					"outputs": [
						{
							"internalType": "bool",
							"name": "",
							"type": "bool"
						}
					],
					"stateMutability": "nonpayable",
					"type": "function"
				},
				{
					"inputs": [
						{
							"internalType": "address",
							"name": "account",
							"type": "address"
						}
					],
					"name": "balanceOf",
					"outputs": [
						{
							"internalType": "uint256",
							"name": "",
							"type": "uint256"
						}
					],
					"stateMutability": "view",
					"type": "function"
				},
				{
					"inputs": [
						{
							"internalType": "address",
							"name": "account",
							"type": "address"
						},
						{
							"internalType": "uint256",
							"name": "amount",
							"type": "uint256"
						}
					],
					"name": "burnFrom",
					"outputs": [],
					"stateMutability": "nonpayable",
					"type": "function"
				},
				{
					"inputs": [],
					"name": "decimals",
					"outputs": [
						{
							"internalType": "uint8",
							"name": "",
							"type": "uint8"
						}
					],
					"stateMutability": "view",
					"type": "function"
				},
				{
					"inputs": [
						{
							"internalType": "address",
							"name": "spender",
							"type": "address"
						},
						{
							"internalType": "uint256",
							"name": "subtractedValue",
							"type": "uint256"
						}
					],
					"name": "decreaseAllowance",
					"outputs": [
						{
							"internalType": "bool",
							"name": "",
							"type": "bool"
						}
					],
					"stateMutability": "nonpayable",
					"type": "function"
				},
				{
					"inputs": [
						{
							"internalType": "address",
							"name": "spender",
							"type": "address"
						},
						{
							"internalType": "uint256",
							"name": "addedValue",
							"type": "uint256"
						}
					],
					"name": "increaseAllowance",
					"outputs": [
						{
							"internalType": "bool",
							"name": "",
							"type": "bool"
						}
					],
					"stateMutability": "nonpayable",
					"type": "function"
				},
				{
					"inputs": [],
					"name": "initialSupply",
					"outputs": [
						{
							"internalType": "uint256",
							"name": "",
							"type": "uint256"
						}
					],
					"stateMutability": "view",
					"type": "function"
				},
				{
					"inputs": [],
					"name": "maximusupply",
					"outputs": [
						{
							"internalType": "uint256",
							"name": "",
							"type": "uint256"
						}
					],
					"stateMutability": "view",
					"type": "function"
				},
				{
					"inputs": [
						{
							"internalType": "address",
							"name": "account",
							"type": "address"
						},
						{
							"internalType": "uint256",
							"name": "amount",
							"type": "uint256"
						}
					],
					"name": "mint",
					"outputs": [],
					"stateMutability": "nonpayable",
					"type": "function"
				},
				{
					"inputs": [],
					"name": "name",
					"outputs": [
						{
							"internalType": "string",
							"name": "",
							"type": "string"
						}
					],
					"stateMutability": "view",
					"type": "function"
				},
				{
					"inputs": [],
					"name": "owner",
					"outputs": [
						{
							"internalType": "address",
							"name": "",
							"type": "address"
						}
					],
					"stateMutability": "view",
					"type": "function"
				},
				{
					"inputs": [],
					"name": "symbol",
					"outputs": [
						{
							"internalType": "string",
							"name": "",
							"type": "string"
						}
					],
					"stateMutability": "view",
					"type": "function"
				},
				{
					"inputs": [],
					"name": "totalSupply",
					"outputs": [
						{
							"internalType": "uint256",
							"name": "",
							"type": "uint256"
						}
					],
					"stateMutability": "view",
					"type": "function"
				},
				{
					"inputs": [
						{
							"internalType": "address",
							"name": "to",
							"type": "address"
						},
						{
							"internalType": "uint256",
							"name": "amount",
							"type": "uint256"
						}
					],
					"name": "transfer",
					"outputs": [
						{
							"internalType": "bool",
							"name": "",
							"type": "bool"
						}
					],
					"stateMutability": "nonpayable",
					"type": "function"
				},
				{
					"inputs": [
						{
							"internalType": "address",
							"name": "from",
							"type": "address"
						},
						{
							"internalType": "address",
							"name": "to",
							"type": "address"
						},
						{
							"internalType": "uint256",
							"name": "amount",
							"type": "uint256"
						}
					],
					"name": "transferFrom",
					"outputs": [
						{
							"internalType": "bool",
							"name": "",
							"type": "bool"
						}
					],
					"stateMutability": "nonpayable",
					"type": "function"
				},
				{
					"inputs": [
						{
							"internalType": "address",
							"name": "newOwner",
							"type": "address"
						}
					],
					"name": "transferOwnership",
					"outputs": [],
					"stateMutability": "nonpayable",
					"type": "function"
				}
			],
			"devdoc": {
				"author": "Tapas Mahanandia",
				"details": "its a special token",
				"kind": "dev",
				"methods": {
					"allowance(address,address)": {
						"details": "See {IERC20-allowance}."
					},
					"approve(address,uint256)": {
						"details": "See {IERC20-approve}. NOTE: If `amount` is the maximum `uint256`, the allowance is not updated on `transferFrom`. This is semantically equivalent to an infinite approval. Requirements: - `spender` cannot be the zero address."
					},
					"balanceOf(address)": {
						"details": "See {IERC20-balanceOf}."
					},
					"burnFrom(address,uint256)": {
						"details": "Burn function to reduce excess supply in circulation "
					},
					"constructor": {
						"details": "ERC20 token name and symbol minted with initial supply is total initial supply in circulation balance to check owners initial supplyinitial supply is part of total supply balance to check owners total supply   "
					},
					"decimals()": {
						"details": "Returns the number of decimals used to get its user representation. For example, if `decimals` equals `2`, a balance of `505` tokens should be displayed to a user as `5.05` (`505 / 10 ** 2`). Tokens usually opt for a value of 18, imitating the relationship between Ether and Wei. This is the value {ERC20} uses, unless this function is overridden; NOTE: This information is only used for _display_ purposes: it in no way affects any of the arithmetic of the contract, including {IERC20-balanceOf} and {IERC20-transfer}."
					},
					"decreaseAllowance(address,uint256)": {
						"details": "Atomically decreases the allowance granted to `spender` by the caller. This is an alternative to {approve} that can be used as a mitigation for problems described in {IERC20-approve}. Emits an {Approval} event indicating the updated allowance. Requirements: - `spender` cannot be the zero address. - `spender` must have allowance for the caller of at least `subtractedValue`."
					},
					"increaseAllowance(address,uint256)": {
						"details": "Atomically increases the allowance granted to `spender` by the caller. This is an alternative to {approve} that can be used as a mitigation for problems described in {IERC20-approve}. Emits an {Approval} event indicating the updated allowance. Requirements: - `spender` cannot be the zero address."
					},
					"initialSupply()": {
						"details": "This is the function to give initialsupply in return"
					},
					"maximusupply()": {
						"details": "This is the function to give total maximumsupply in return"
					},
					"mint(address,uint256)": {
						"details": "Mint function to mint token , only owner can mint total supply is the circulating amount  cannot go beyond maximum supply in circulationin mint funcion when amount is minted is added to the total supply and with the owner balance "
					},
					"name()": {
						"details": "Returns the name of the token."
					},
					"owner()": {
						"details": "Returns the address of the current owner."
					},
					"symbol()": {
						"details": "Returns the symbol of the token, usually a shorter version of the name."
					},
					"totalSupply()": {
						"details": "This is the function to give totalsupply in return"
					},
					"transfer(address,uint256)": {
						"details": "See {IERC20-transfer}. Requirements: - `to` cannot be the zero address. - the caller must have a balance of at least `amount`."
					},
					"transferFrom(address,address,uint256)": {
						"details": "See {IERC20-transferFrom}. Emits an {Approval} event indicating the updated allowance. This is not required by the EIP. See the note at the beginning of {ERC20}. NOTE: Does not update the allowance if the current allowance is the maximum `uint256`. Requirements: - `from` and `to` cannot be the zero address. - `from` must have a balance of at least `amount`. - the caller must have allowance for ``from``'s tokens of at least `amount`."
					},
					"transferOwnership(address)": {
						"details": "Transfers ownership of the contract to a new account (`newOwner`). Can only be called by the current owner."
					}
				},
				"stateVariables": {
					"_balances": {
						"details": "private balance is initialized with privat allowance "
					},
					"_owner": {
						"details": "private owner ,total supply maximumsupply variable initialized public constant decimals and initial supply initialized "
					}
				},
				"title": "AREVEA token is a special contract for crypto related services ",
				"version": 1
			},
			"evm": {
				"assembly": "    /* \"Desktop/web3/ERC20/AREVEAToken/AREVEAToken.sol\":339:3934  contract AREVEAToken is ERC20,Ownable{\r... */\n  mstore(0x40, 0x80)\n    /* \"Desktop/web3/ERC20/AREVEAToken/AREVEAToken.sol\":1041:1043  18 */\n  0x12\n    /* \"Desktop/web3/ERC20/AREVEAToken/AREVEAToken.sol\":1243:1261  uint256(_decimals) */\n  0xff\n  and\n    /* \"Desktop/web3/ERC20/AREVEAToken/AREVEAToken.sol\":1237:1239  10 */\n  0x0a\n    /* \"Desktop/web3/ERC20/AREVEAToken/AREVEAToken.sol\":1237:1261  10 ** uint256(_decimals) */\n  tag_1\n  swap2\n  swap1\n  tag_2\n  jump\t// in\ntag_1:\n    /* \"Desktop/web3/ERC20/AREVEAToken/AREVEAToken.sol\":1220:1233  1000000000000 */\n  0xe8d4a51000\n    /* \"Desktop/web3/ERC20/AREVEAToken/AREVEAToken.sol\":1220:1262  1000000000000 * (10 ** uint256(_decimals)) */\n  tag_3\n  swap2\n  swap1\n  tag_4\n  jump\t// in\ntag_3:\n    /* \"Desktop/web3/ERC20/AREVEAToken/AREVEAToken.sol\":1188:1262  uint256 private _maximusupply = 1000000000000 * (10 ** uint256(_decimals)) */\n  0x0a\n  sstore\n    /* \"Desktop/web3/ERC20/AREVEAToken/AREVEAToken.sol\":1601:1878  constructor() ERC20(\"AREVEA\",\"AVA\") {\r... */\n  callvalue\n  dup1\n  iszero\n  tag_5\n  jumpi\n  0x00\n  dup1\n  revert\ntag_5:\n  pop\n    /* \"Desktop/web3/ERC20/AREVEAToken/ERC20.sol\":2010:2126  constructor(string memory name_, string memory symbol_) {\r... */\n  mload(0x40)\n  dup1\n  0x40\n  add\n  0x40\n  mstore\n  dup1\n  0x06\n  dup2\n  mstore\n  0x20\n  add\n  0x4152455645410000000000000000000000000000000000000000000000000000\n  dup2\n  mstore\n  pop\n  mload(0x40)\n  dup1\n  0x40\n  add\n  0x40\n  mstore\n  dup1\n  0x03\n  dup2\n  mstore\n  0x20\n  add\n  0x4156410000000000000000000000000000000000000000000000000000000000\n  dup2\n  mstore\n  pop\n    /* \"Desktop/web3/ERC20/AREVEAToken/ERC20.sol\":2085:2090  name_ */\n  dup2\n    /* \"Desktop/web3/ERC20/AREVEAToken/ERC20.sol\":2077:2082  _name */\n  0x03\n    /* \"Desktop/web3/ERC20/AREVEAToken/ERC20.sol\":2077:2090  _name = name_ */\n  swap1\n  dup1\n  mload\n  swap1\n  0x20\n  add\n  swap1\n  tag_10\n  swap3\n  swap2\n  swap1\n  tag_11\n  jump\t// in\ntag_10:\n  pop\n    /* \"Desktop/web3/ERC20/AREVEAToken/ERC20.sol\":2111:2118  symbol_ */\n  dup1\n    /* \"Desktop/web3/ERC20/AREVEAToken/ERC20.sol\":2101:2108  _symbol */\n  0x04\n    /* \"Desktop/web3/ERC20/AREVEAToken/ERC20.sol\":2101:2118  _symbol = symbol_ */\n  swap1\n  dup1\n  mload\n  swap1\n  0x20\n  add\n  swap1\n  tag_12\n  swap3\n  swap2\n  swap1\n  tag_11\n  jump\t// in\ntag_12:\n  pop\n    /* \"Desktop/web3/ERC20/AREVEAToken/ERC20.sol\":2010:2126  constructor(string memory name_, string memory symbol_) {\r... */\n  pop\n  pop\n    /* \"Desktop/web3/ERC20/AREVEAToken/Ownable.sol\":942:974  _transferOwnership(_msgSender()) */\n  tag_14\n    /* \"Desktop/web3/ERC20/AREVEAToken/Ownable.sol\":961:973  _msgSender() */\n  tag_15\n    /* \"Desktop/web3/ERC20/AREVEAToken/Ownable.sol\":961:971  _msgSender */\n  shl(0x20, tag_16)\n    /* \"Desktop/web3/ERC20/AREVEAToken/Ownable.sol\":961:973  _msgSender() */\n  0x20\n  shr\n  jump\t// in\ntag_15:\n    /* \"Desktop/web3/ERC20/AREVEAToken/Ownable.sol\":942:960  _transferOwnership */\n  shl(0x20, tag_17)\n    /* \"Desktop/web3/ERC20/AREVEAToken/Ownable.sol\":942:974  _transferOwnership(_msgSender()) */\n  0x20\n  shr\n  jump\t// in\ntag_14:\n    /* \"Desktop/web3/ERC20/AREVEAToken/AREVEAToken.sol\":1649:1680  mint(msg.sender,_initialSupply) */\n  tag_19\n    /* \"Desktop/web3/ERC20/AREVEAToken/AREVEAToken.sol\":1654:1664  msg.sender */\n  caller\n    /* \"Desktop/web3/ERC20/AREVEAToken/AREVEAToken.sol\":1041:1043  18 */\n  0x12\n    /* \"Desktop/web3/ERC20/AREVEAToken/AREVEAToken.sol\":1136:1154  uint256(_decimals) */\n  0xff\n  and\n    /* \"Desktop/web3/ERC20/AREVEAToken/AREVEAToken.sol\":1130:1132  10 */\n  0x0a\n    /* \"Desktop/web3/ERC20/AREVEAToken/AREVEAToken.sol\":1130:1154  10 ** uint256(_decimals) */\n  tag_20\n  swap2\n  swap1\n  tag_2\n  jump\t// in\ntag_20:\n    /* \"Desktop/web3/ERC20/AREVEAToken/AREVEAToken.sol\":1119:1126  1000000 */\n  0x0f4240\n    /* \"Desktop/web3/ERC20/AREVEAToken/AREVEAToken.sol\":1119:1155  1000000 * (10 ** uint256(_decimals)) */\n  tag_21\n  swap2\n  swap1\n  tag_4\n  jump\t// in\ntag_21:\n    /* \"Desktop/web3/ERC20/AREVEAToken/AREVEAToken.sol\":1649:1653  mint */\n  shl(0x20, tag_22)\n    /* \"Desktop/web3/ERC20/AREVEAToken/AREVEAToken.sol\":1649:1680  mint(msg.sender,_initialSupply) */\n  0x20\n  shr\n  jump\t// in\ntag_19:\n    /* \"Desktop/web3/ERC20/AREVEAToken/AREVEAToken.sol\":1041:1043  18 */\n  0x12\n    /* \"Desktop/web3/ERC20/AREVEAToken/AREVEAToken.sol\":1136:1154  uint256(_decimals) */\n  0xff\n  and\n    /* \"Desktop/web3/ERC20/AREVEAToken/AREVEAToken.sol\":1130:1132  10 */\n  0x0a\n    /* \"Desktop/web3/ERC20/AREVEAToken/AREVEAToken.sol\":1130:1154  10 ** uint256(_decimals) */\n  tag_23\n  swap2\n  swap1\n  tag_2\n  jump\t// in\ntag_23:\n    /* \"Desktop/web3/ERC20/AREVEAToken/AREVEAToken.sol\":1119:1126  1000000 */\n  0x0f4240\n    /* \"Desktop/web3/ERC20/AREVEAToken/AREVEAToken.sol\":1119:1155  1000000 * (10 ** uint256(_decimals)) */\n  tag_24\n  swap2\n  swap1\n  tag_4\n  jump\t// in\ntag_24:\n    /* \"Desktop/web3/ERC20/AREVEAToken/AREVEAToken.sol\":1691:1700  _balances */\n  0x06\n    /* \"Desktop/web3/ERC20/AREVEAToken/AREVEAToken.sol\":1691:1712  _balances[msg.sender] */\n  0x00\n    /* \"Desktop/web3/ERC20/AREVEAToken/AREVEAToken.sol\":1701:1711  msg.sender */\n  caller\n    /* \"Desktop/web3/ERC20/AREVEAToken/AREVEAToken.sol\":1691:1712  _balances[msg.sender] */\n  0xffffffffffffffffffffffffffffffffffffffff\n  and\n  0xffffffffffffffffffffffffffffffffffffffff\n  and\n  dup2\n  mstore\n  0x20\n  add\n  swap1\n  dup2\n  mstore\n  0x20\n  add\n  0x00\n  keccak256\n    /* \"Desktop/web3/ERC20/AREVEAToken/AREVEAToken.sol\":1691:1727  _balances[msg.sender]=_initialSupply */\n  dup2\n  swap1\n  sstore\n  pop\n    /* \"Desktop/web3/ERC20/AREVEAToken/AREVEAToken.sol\":1041:1043  18 */\n  0x12\n    /* \"Desktop/web3/ERC20/AREVEAToken/AREVEAToken.sol\":1793:1811  uint256(_decimals) */\n  0xff\n  and\n    /* \"Desktop/web3/ERC20/AREVEAToken/AREVEAToken.sol\":1787:1789  10 */\n  0x0a\n    /* \"Desktop/web3/ERC20/AREVEAToken/AREVEAToken.sol\":1787:1811  10 ** uint256(_decimals) */\n  tag_25\n  swap2\n  swap1\n  tag_2\n  jump\t// in\ntag_25:\n    /* \"Desktop/web3/ERC20/AREVEAToken/AREVEAToken.sol\":1771:1783  _totalSupply */\n  sload(0x09)\n    /* \"Desktop/web3/ERC20/AREVEAToken/AREVEAToken.sol\":1771:1812  _totalSupply * (10 ** uint256(_decimals)) */\n  tag_26\n  swap2\n  swap1\n  tag_4\n  jump\t// in\ntag_26:\n    /* \"Desktop/web3/ERC20/AREVEAToken/AREVEAToken.sol\":1041:1043  18 */\n  0x12\n    /* \"Desktop/web3/ERC20/AREVEAToken/AREVEAToken.sol\":1136:1154  uint256(_decimals) */\n  0xff\n  and\n    /* \"Desktop/web3/ERC20/AREVEAToken/AREVEAToken.sol\":1130:1132  10 */\n  0x0a\n    /* \"Desktop/web3/ERC20/AREVEAToken/AREVEAToken.sol\":1130:1154  10 ** uint256(_decimals) */\n  tag_27\n  swap2\n  swap1\n  tag_2\n  jump\t// in\ntag_27:\n    /* \"Desktop/web3/ERC20/AREVEAToken/AREVEAToken.sol\":1119:1126  1000000 */\n  0x0f4240\n    /* \"Desktop/web3/ERC20/AREVEAToken/AREVEAToken.sol\":1119:1155  1000000 * (10 ** uint256(_decimals)) */\n  tag_28\n  swap2\n  swap1\n  tag_4\n  jump\t// in\ntag_28:\n    /* \"Desktop/web3/ERC20/AREVEAToken/AREVEAToken.sol\":1755:1812  _initialSupply +_totalSupply * (10 ** uint256(_decimals)) */\n  tag_29\n  swap2\n  swap1\n  tag_30\n  jump\t// in\ntag_29:\n    /* \"Desktop/web3/ERC20/AREVEAToken/AREVEAToken.sol\":1738:1812  _totalSupply ==  _initialSupply +_totalSupply * (10 ** uint256(_decimals)) */\n  pop\n    /* \"Desktop/web3/ERC20/AREVEAToken/AREVEAToken.sol\":1845:1857  _totalSupply */\n  sload(0x09)\n    /* \"Desktop/web3/ERC20/AREVEAToken/AREVEAToken.sol\":1823:1832  _balances */\n  0x06\n    /* \"Desktop/web3/ERC20/AREVEAToken/AREVEAToken.sol\":1823:1844  _balances[msg.sender] */\n  0x00\n    /* \"Desktop/web3/ERC20/AREVEAToken/AREVEAToken.sol\":1833:1843  msg.sender */\n  caller\n    /* \"Desktop/web3/ERC20/AREVEAToken/AREVEAToken.sol\":1823:1844  _balances[msg.sender] */\n  0xffffffffffffffffffffffffffffffffffffffff\n  and\n  0xffffffffffffffffffffffffffffffffffffffff\n  and\n  dup2\n  mstore\n  0x20\n  add\n  swap1\n  dup2\n  mstore\n  0x20\n  add\n  0x00\n  keccak256\n    /* \"Desktop/web3/ERC20/AREVEAToken/AREVEAToken.sol\":1823:1857  _balances[msg.sender]=_totalSupply */\n  dup2\n  swap1\n  sstore\n  pop\n    /* \"Desktop/web3/ERC20/AREVEAToken/AREVEAToken.sol\":339:3934  contract AREVEAToken is ERC20,Ownable{\r... */\n  jump(tag_31)\n    /* \"Desktop/web3/ERC20/AREVEAToken/Context.sol\":656:754  function _msgSender() internal view virtual returns (address) {\r... */\ntag_16:\n    /* \"Desktop/web3/ERC20/AREVEAToken/Context.sol\":709:716  address */\n  0x00\n    /* \"Desktop/web3/ERC20/AREVEAToken/Context.sol\":736:746  msg.sender */\n  caller\n    /* \"Desktop/web3/ERC20/AREVEAToken/Context.sol\":729:746  return msg.sender */\n  swap1\n  pop\n    /* \"Desktop/web3/ERC20/AREVEAToken/Context.sol\":656:754  function _msgSender() internal view virtual returns (address) {\r... */\n  swap1\n  jump\t// out\n    /* \"Desktop/web3/ERC20/AREVEAToken/Ownable.sol\":2497:2688  function _transferOwnership(address newOwner) internal virtual {\r... */\ntag_17:\n    /* \"Desktop/web3/ERC20/AREVEAToken/Ownable.sol\":2571:2587  address oldOwner */\n  0x00\n    /* \"Desktop/web3/ERC20/AREVEAToken/Ownable.sol\":2590:2596  _owner */\n  0x05\n  0x00\n  swap1\n  sload\n  swap1\n  0x0100\n  exp\n  swap1\n  div\n  0xffffffffffffffffffffffffffffffffffffffff\n  and\n    /* \"Desktop/web3/ERC20/AREVEAToken/Ownable.sol\":2571:2596  address oldOwner = _owner */\n  swap1\n  pop\n    /* \"Desktop/web3/ERC20/AREVEAToken/Ownable.sol\":2616:2624  newOwner */\n  dup2\n    /* \"Desktop/web3/ERC20/AREVEAToken/Ownable.sol\":2607:2613  _owner */\n  0x05\n  0x00\n    /* \"Desktop/web3/ERC20/AREVEAToken/Ownable.sol\":2607:2624  _owner = newOwner */\n  0x0100\n  exp\n  dup2\n  sload\n  dup2\n  0xffffffffffffffffffffffffffffffffffffffff\n  mul\n  not\n  and\n  swap1\n  dup4\n  0xffffffffffffffffffffffffffffffffffffffff\n  and\n  mul\n  or\n  swap1\n  sstore\n  pop\n    /* \"Desktop/web3/ERC20/AREVEAToken/Ownable.sol\":2671:2679  newOwner */\n  dup2\n    /* \"Desktop/web3/ERC20/AREVEAToken/Ownable.sol\":2640:2680  OwnershipTransferred(oldOwner, newOwner) */\n  0xffffffffffffffffffffffffffffffffffffffff\n  and\n    /* \"Desktop/web3/ERC20/AREVEAToken/Ownable.sol\":2661:2669  oldOwner */\n  dup2\n    /* \"Desktop/web3/ERC20/AREVEAToken/Ownable.sol\":2640:2680  OwnershipTransferred(oldOwner, newOwner) */\n  0xffffffffffffffffffffffffffffffffffffffff\n  and\n  0x8be0079c531659141344cd1fd0a4f28419497f9722a3daafe3b4186f6b6457e0\n  mload(0x40)\n  mload(0x40)\n  dup1\n  swap2\n  sub\n  swap1\n  log3\n    /* \"Desktop/web3/ERC20/AREVEAToken/Ownable.sol\":2560:2688  {\r... */\n  pop\n    /* \"Desktop/web3/ERC20/AREVEAToken/Ownable.sol\":2497:2688  function _transferOwnership(address newOwner) internal virtual {\r... */\n  pop\n  jump\t// out\n    /* \"Desktop/web3/ERC20/AREVEAToken/AREVEAToken.sol\":2771:3325  function mint(address account, uint256 amount) public  onlyOwner  {\r... */\ntag_22:\n    /* \"Desktop/web3/ERC20/AREVEAToken/Ownable.sol\":1107:1120  _checkOwner() */\n  tag_35\n    /* \"Desktop/web3/ERC20/AREVEAToken/Ownable.sol\":1107:1118  _checkOwner */\n  shl(0x20, tag_36)\n    /* \"Desktop/web3/ERC20/AREVEAToken/Ownable.sol\":1107:1120  _checkOwner() */\n  0x20\n  shr\n  jump\t// in\ntag_35:\n    /* \"Desktop/web3/ERC20/AREVEAToken/AREVEAToken.sol\":2875:2876  0 */\n  0x00\n    /* \"Desktop/web3/ERC20/AREVEAToken/AREVEAToken.sol\":2856:2877  account != address(0) */\n  0xffffffffffffffffffffffffffffffffffffffff\n  and\n    /* \"Desktop/web3/ERC20/AREVEAToken/AREVEAToken.sol\":2856:2863  account */\n  dup3\n    /* \"Desktop/web3/ERC20/AREVEAToken/AREVEAToken.sol\":2856:2877  account != address(0) */\n  0xffffffffffffffffffffffffffffffffffffffff\n  and\n  eq\n  iszero\n    /* \"Desktop/web3/ERC20/AREVEAToken/AREVEAToken.sol\":2848:2913  require(account != address(0), \"ERC20: mint to the zero address\") */\n  tag_38\n  jumpi\n  mload(0x40)\n  0x08c379a000000000000000000000000000000000000000000000000000000000\n  dup2\n  mstore\n  0x04\n  add\n  tag_39\n  swap1\n  tag_40\n  jump\t// in\ntag_39:\n  mload(0x40)\n  dup1\n  swap2\n  sub\n  swap1\n  revert\ntag_38:\n    /* \"Desktop/web3/ERC20/AREVEAToken/AREVEAToken.sol\":2961:2974  _maximusupply */\n  sload(0x0a)\n    /* \"Desktop/web3/ERC20/AREVEAToken/AREVEAToken.sol\":2932:2957  totalSupply().add(amount) */\n  tag_41\n    /* \"Desktop/web3/ERC20/AREVEAToken/AREVEAToken.sol\":2950:2956  amount */\n  dup3\n    /* \"Desktop/web3/ERC20/AREVEAToken/AREVEAToken.sol\":2932:2945  totalSupply() */\n  tag_42\n    /* \"Desktop/web3/ERC20/AREVEAToken/AREVEAToken.sol\":2932:2943  totalSupply */\n  shl(0x20, tag_43)\n    /* \"Desktop/web3/ERC20/AREVEAToken/AREVEAToken.sol\":2932:2945  totalSupply() */\n  0x20\n  shr\n  jump\t// in\ntag_42:\n    /* \"Desktop/web3/ERC20/AREVEAToken/AREVEAToken.sol\":2932:2949  totalSupply().add */\n  or(tag_0_98, shl(0x20, tag_44))\n  swap1\n    /* \"Desktop/web3/ERC20/AREVEAToken/AREVEAToken.sol\":2932:2957  totalSupply().add(amount) */\n  swap2\n  swap1\n  0x20\n  shr\n  jump\t// in\ntag_41:\n    /* \"Desktop/web3/ERC20/AREVEAToken/AREVEAToken.sol\":2932:2974  totalSupply().add(amount) <= _maximusupply */\n  gt\n  iszero\n    /* \"Desktop/web3/ERC20/AREVEAToken/AREVEAToken.sol\":2924:3000  require(totalSupply().add(amount) <= _maximusupply,\"Maximum supply reached\") */\n  tag_45\n  jumpi\n  mload(0x40)\n  0x08c379a000000000000000000000000000000000000000000000000000000000\n  dup2\n  mstore\n  0x04\n  add\n  tag_46\n  swap1\n  tag_47\n  jump\t// in\ntag_46:\n  mload(0x40)\n  dup1\n  swap2\n  sub\n  swap1\n  revert\ntag_45:\n    /* \"Desktop/web3/ERC20/AREVEAToken/AREVEAToken.sol\":3011:3033  _mint(account, amount) */\n  tag_48\n    /* \"Desktop/web3/ERC20/AREVEAToken/AREVEAToken.sol\":3017:3024  account */\n  dup3\n    /* \"Desktop/web3/ERC20/AREVEAToken/AREVEAToken.sol\":3026:3032  amount */\n  dup3\n    /* \"Desktop/web3/ERC20/AREVEAToken/AREVEAToken.sol\":3011:3016  _mint */\n  shl(0x20, tag_49)\n    /* \"Desktop/web3/ERC20/AREVEAToken/AREVEAToken.sol\":3011:3033  _mint(account, amount) */\n  0x20\n  shr\n  jump\t// in\ntag_48:\n    /* \"Desktop/web3/ERC20/AREVEAToken/AREVEAToken.sol\":3044:3093  _beforeTokenTransfer(address(0), account, amount) */\n  tag_50\n    /* \"Desktop/web3/ERC20/AREVEAToken/AREVEAToken.sol\":3073:3074  0 */\n  0x00\n    /* \"Desktop/web3/ERC20/AREVEAToken/AREVEAToken.sol\":3077:3084  account */\n  dup4\n    /* \"Desktop/web3/ERC20/AREVEAToken/AREVEAToken.sol\":3086:3092  amount */\n  dup4\n    /* \"Desktop/web3/ERC20/AREVEAToken/AREVEAToken.sol\":3044:3064  _beforeTokenTransfer */\n  shl(0x20, tag_51)\n    /* \"Desktop/web3/ERC20/AREVEAToken/AREVEAToken.sol\":3044:3093  _beforeTokenTransfer(address(0), account, amount) */\n  0x20\n  shr\n  jump\t// in\ntag_50:\n    /* \"Desktop/web3/ERC20/AREVEAToken/AREVEAToken.sol\":3119:3143  _totalSupply.add(amount) */\n  tag_52\n    /* \"Desktop/web3/ERC20/AREVEAToken/AREVEAToken.sol\":3136:3142  amount */\n  dup2\n    /* \"Desktop/web3/ERC20/AREVEAToken/AREVEAToken.sol\":3119:3131  _totalSupply */\n  sload(0x09)\n    /* \"Desktop/web3/ERC20/AREVEAToken/AREVEAToken.sol\":3119:3135  _totalSupply.add */\n  or(tag_0_98, shl(0x20, tag_44))\n  swap1\n    /* \"Desktop/web3/ERC20/AREVEAToken/AREVEAToken.sol\":3119:3143  _totalSupply.add(amount) */\n  swap2\n  swap1\n  0x20\n  shr\n  jump\t// in\ntag_52:\n    /* \"Desktop/web3/ERC20/AREVEAToken/AREVEAToken.sol\":3104:3116  _totalSupply */\n  0x09\n    /* \"Desktop/web3/ERC20/AREVEAToken/AREVEAToken.sol\":3104:3143  _totalSupply = _totalSupply.add(amount) */\n  dup2\n  swap1\n  sstore\n  pop\n    /* \"Desktop/web3/ERC20/AREVEAToken/AREVEAToken.sol\":3175:3205  _balances[account].add(amount) */\n  tag_53\n    /* \"Desktop/web3/ERC20/AREVEAToken/AREVEAToken.sol\":3198:3204  amount */\n  dup2\n    /* \"Desktop/web3/ERC20/AREVEAToken/AREVEAToken.sol\":3175:3184  _balances */\n  0x06\n    /* \"Desktop/web3/ERC20/AREVEAToken/AREVEAToken.sol\":3175:3193  _balances[account] */\n  0x00\n    /* \"Desktop/web3/ERC20/AREVEAToken/AREVEAToken.sol\":3185:3192  account */\n  dup6\n    /* \"Desktop/web3/ERC20/AREVEAToken/AREVEAToken.sol\":3175:3193  _balances[account] */\n  0xffffffffffffffffffffffffffffffffffffffff\n  and\n  0xffffffffffffffffffffffffffffffffffffffff\n  and\n  dup2\n  mstore\n  0x20\n  add\n  swap1\n  dup2\n  mstore\n  0x20\n  add\n  0x00\n  keccak256\n  sload\n    /* \"Desktop/web3/ERC20/AREVEAToken/AREVEAToken.sol\":3175:3197  _balances[account].add */\n  or(tag_0_98, shl(0x20, tag_44))\n  swap1\n    /* \"Desktop/web3/ERC20/AREVEAToken/AREVEAToken.sol\":3175:3205  _balances[account].add(amount) */\n  swap2\n  swap1\n  0x20\n  shr\n  jump\t// in\ntag_53:\n    /* \"Desktop/web3/ERC20/AREVEAToken/AREVEAToken.sol\":3154:3163  _balances */\n  0x06\n    /* \"Desktop/web3/ERC20/AREVEAToken/AREVEAToken.sol\":3154:3172  _balances[account] */\n  0x00\n    /* \"Desktop/web3/ERC20/AREVEAToken/AREVEAToken.sol\":3164:3171  account */\n  dup5\n    /* \"Desktop/web3/ERC20/AREVEAToken/AREVEAToken.sol\":3154:3172  _balances[account] */\n  0xffffffffffffffffffffffffffffffffffffffff\n  and\n  0xffffffffffffffffffffffffffffffffffffffff\n  and\n  dup2\n  mstore\n  0x20\n  add\n  swap1\n  dup2\n  mstore\n  0x20\n  add\n  0x00\n  keccak256\n    /* \"Desktop/web3/ERC20/AREVEAToken/AREVEAToken.sol\":3154:3205  _balances[account] = _balances[account].add(amount) */\n  dup2\n  swap1\n  sstore\n  pop\n    /* \"Desktop/web3/ERC20/AREVEAToken/AREVEAToken.sol\":3242:3249  account */\n  dup2\n    /* \"Desktop/web3/ERC20/AREVEAToken/AREVEAToken.sol\":3221:3258  Transfer(address(0), account, amount) */\n  0xffffffffffffffffffffffffffffffffffffffff\n  and\n    /* \"Desktop/web3/ERC20/AREVEAToken/AREVEAToken.sol\":3238:3239  0 */\n  0x00\n    /* \"Desktop/web3/ERC20/AREVEAToken/AREVEAToken.sol\":3221:3258  Transfer(address(0), account, amount) */\n  0xffffffffffffffffffffffffffffffffffffffff\n  and\n  0xddf252ad1be2c89b69c2b068fc378daa952ba7f163c4a11628f55a4df523b3ef\n    /* \"Desktop/web3/ERC20/AREVEAToken/AREVEAToken.sol\":3251:3257  amount */\n  dup4\n    /* \"Desktop/web3/ERC20/AREVEAToken/AREVEAToken.sol\":3221:3258  Transfer(address(0), account, amount) */\n  mload(0x40)\n  tag_54\n  swap2\n  swap1\n  tag_55\n  jump\t// in\ntag_54:\n  mload(0x40)\n  dup1\n  swap2\n  sub\n  swap1\n  log3\n    /* \"Desktop/web3/ERC20/AREVEAToken/AREVEAToken.sol\":3269:3317  _afterTokenTransfer(address(0), account, amount) */\n  tag_56\n    /* \"Desktop/web3/ERC20/AREVEAToken/AREVEAToken.sol\":3297:3298  0 */\n  0x00\n    /* \"Desktop/web3/ERC20/AREVEAToken/AREVEAToken.sol\":3301:3308  account */\n  dup4\n    /* \"Desktop/web3/ERC20/AREVEAToken/AREVEAToken.sol\":3310:3316  amount */\n  dup4\n    /* \"Desktop/web3/ERC20/AREVEAToken/AREVEAToken.sol\":3269:3288  _afterTokenTransfer */\n  shl(0x20, tag_57)\n    /* \"Desktop/web3/ERC20/AREVEAToken/AREVEAToken.sol\":3269:3317  _afterTokenTransfer(address(0), account, amount) */\n  0x20\n  shr\n  jump\t// in\ntag_56:\n    /* \"Desktop/web3/ERC20/AREVEAToken/AREVEAToken.sol\":2771:3325  function mint(address account, uint256 amount) public  onlyOwner  {\r... */\n  pop\n  pop\n  jump\t// out\n    /* \"Desktop/web3/ERC20/AREVEAToken/Ownable.sol\":1386:1518  function _checkOwner() internal view virtual {\r... */\ntag_36:\n    /* \"Desktop/web3/ERC20/AREVEAToken/Ownable.sol\":1461:1473  _msgSender() */\n  tag_59\n    /* \"Desktop/web3/ERC20/AREVEAToken/Ownable.sol\":1461:1471  _msgSender */\n  shl(0x20, tag_16)\n    /* \"Desktop/web3/ERC20/AREVEAToken/Ownable.sol\":1461:1473  _msgSender() */\n  0x20\n  shr\n  jump\t// in\ntag_59:\n    /* \"Desktop/web3/ERC20/AREVEAToken/Ownable.sol\":1450:1473  owner() == _msgSender() */\n  0xffffffffffffffffffffffffffffffffffffffff\n  and\n    /* \"Desktop/web3/ERC20/AREVEAToken/Ownable.sol\":1450:1457  owner() */\n  tag_60\n    /* \"Desktop/web3/ERC20/AREVEAToken/Ownable.sol\":1450:1455  owner */\n  shl(0x20, tag_61)\n    /* \"Desktop/web3/ERC20/AREVEAToken/Ownable.sol\":1450:1457  owner() */\n  0x20\n  shr\n  jump\t// in\ntag_60:\n    /* \"Desktop/web3/ERC20/AREVEAToken/Ownable.sol\":1450:1473  owner() == _msgSender() */\n  0xffffffffffffffffffffffffffffffffffffffff\n  and\n  eq\n    /* \"Desktop/web3/ERC20/AREVEAToken/Ownable.sol\":1442:1510  require(owner() == _msgSender(), \"Ownable: caller is not the owner\") */\n  tag_62\n  jumpi\n  mload(0x40)\n  0x08c379a000000000000000000000000000000000000000000000000000000000\n  dup2\n  mstore\n  0x04\n  add\n  tag_63\n  swap1\n  tag_64\n  jump\t// in\ntag_63:\n  mload(0x40)\n  dup1\n  swap2\n  sub\n  swap1\n  revert\ntag_62:\n    /* \"Desktop/web3/ERC20/AREVEAToken/Ownable.sol\":1386:1518  function _checkOwner() internal view virtual {\r... */\n  jump\t// out\n    /* \"Desktop/web3/ERC20/AREVEAToken/AREVEAToken.sol\":2164:2272  function totalSupply() public view virtual override returns (uint256) {\r... */\ntag_43:\n    /* \"Desktop/web3/ERC20/AREVEAToken/AREVEAToken.sol\":2225:2232  uint256 */\n  0x00\n    /* \"Desktop/web3/ERC20/AREVEAToken/AREVEAToken.sol\":2252:2264  _totalSupply */\n  sload(0x09)\n    /* \"Desktop/web3/ERC20/AREVEAToken/AREVEAToken.sol\":2245:2264  return _totalSupply */\n  swap1\n  pop\n    /* \"Desktop/web3/ERC20/AREVEAToken/AREVEAToken.sol\":2164:2272  function totalSupply() public view virtual override returns (uint256) {\r... */\n  swap1\n  jump\t// out\n    /* \"Desktop/web3/ERC20/AREVEAToken/SafeMath.sol\":2847:2945  function add(uint256 a, uint256 b) internal pure returns (uint256) {\r... */\ntag_44:\n    /* \"Desktop/web3/ERC20/AREVEAToken/SafeMath.sol\":2905:2912  uint256 */\n  0x00\n    /* \"Desktop/web3/ERC20/AREVEAToken/SafeMath.sol\":2936:2937  b */\n  dup2\n    /* \"Desktop/web3/ERC20/AREVEAToken/SafeMath.sol\":2932:2933  a */\n  dup4\n    /* \"Desktop/web3/ERC20/AREVEAToken/SafeMath.sol\":2932:2937  a + b */\n  tag_67\n  swap2\n  swap1\n  tag_30\n  jump\t// in\ntag_67:\n    /* \"Desktop/web3/ERC20/AREVEAToken/SafeMath.sol\":2925:2937  return a + b */\n  swap1\n  pop\n    /* \"Desktop/web3/ERC20/AREVEAToken/SafeMath.sol\":2847:2945  function add(uint256 a, uint256 b) internal pure returns (uint256) {\r... */\n  swap3\n  swap2\n  pop\n  pop\n  jump\t// out\n    /* \"Desktop/web3/ERC20/AREVEAToken/ERC20.sol\":8637:9036  function _mint(address account, uint256 amount) internal virtual {\r... */\ntag_49:\n    /* \"Desktop/web3/ERC20/AREVEAToken/ERC20.sol\":8740:8741  0 */\n  0x00\n    /* \"Desktop/web3/ERC20/AREVEAToken/ERC20.sol\":8721:8742  account != address(0) */\n  0xffffffffffffffffffffffffffffffffffffffff\n  and\n    /* \"Desktop/web3/ERC20/AREVEAToken/ERC20.sol\":8721:8728  account */\n  dup3\n    /* \"Desktop/web3/ERC20/AREVEAToken/ERC20.sol\":8721:8742  account != address(0) */\n  0xffffffffffffffffffffffffffffffffffffffff\n  and\n  eq\n  iszero\n    /* \"Desktop/web3/ERC20/AREVEAToken/ERC20.sol\":8713:8778  require(account != address(0), \"ERC20: mint to the zero address\") */\n  tag_69\n  jumpi\n  mload(0x40)\n  0x08c379a000000000000000000000000000000000000000000000000000000000\n  dup2\n  mstore\n  0x04\n  add\n  tag_70\n  swap1\n  tag_40\n  jump\t// in\ntag_70:\n  mload(0x40)\n  dup1\n  swap2\n  sub\n  swap1\n  revert\ntag_69:\n    /* \"Desktop/web3/ERC20/AREVEAToken/ERC20.sol\":8791:8840  _beforeTokenTransfer(address(0), account, amount) */\n  tag_71\n    /* \"Desktop/web3/ERC20/AREVEAToken/ERC20.sol\":8820:8821  0 */\n  0x00\n    /* \"Desktop/web3/ERC20/AREVEAToken/ERC20.sol\":8824:8831  account */\n  dup4\n    /* \"Desktop/web3/ERC20/AREVEAToken/ERC20.sol\":8833:8839  amount */\n  dup4\n    /* \"Desktop/web3/ERC20/AREVEAToken/ERC20.sol\":8791:8811  _beforeTokenTransfer */\n  shl(0x20, tag_51)\n    /* \"Desktop/web3/ERC20/AREVEAToken/ERC20.sol\":8791:8840  _beforeTokenTransfer(address(0), account, amount) */\n  0x20\n  shr\n  jump\t// in\ntag_71:\n    /* \"Desktop/web3/ERC20/AREVEAToken/ERC20.sol\":8869:8875  amount */\n  dup1\n    /* \"Desktop/web3/ERC20/AREVEAToken/ERC20.sol\":8853:8865  _totalSupply */\n  0x02\n  0x00\n    /* \"Desktop/web3/ERC20/AREVEAToken/ERC20.sol\":8853:8875  _totalSupply += amount */\n  dup3\n  dup3\n  sload\n  tag_72\n  swap2\n  swap1\n  tag_30\n  jump\t// in\ntag_72:\n  swap3\n  pop\n  pop\n  dup2\n  swap1\n  sstore\n  pop\n    /* \"Desktop/web3/ERC20/AREVEAToken/ERC20.sol\":8908:8914  amount */\n  dup1\n    /* \"Desktop/web3/ERC20/AREVEAToken/ERC20.sol\":8886:8895  _balances */\n  0x00\n    /* \"Desktop/web3/ERC20/AREVEAToken/ERC20.sol\":8886:8904  _balances[account] */\n  dup1\n    /* \"Desktop/web3/ERC20/AREVEAToken/ERC20.sol\":8896:8903  account */\n  dup5\n    /* \"Desktop/web3/ERC20/AREVEAToken/ERC20.sol\":8886:8904  _balances[account] */\n  0xffffffffffffffffffffffffffffffffffffffff\n  and\n  0xffffffffffffffffffffffffffffffffffffffff\n  and\n  dup2\n  mstore\n  0x20\n  add\n  swap1\n  dup2\n  mstore\n  0x20\n  add\n  0x00\n  keccak256\n  0x00\n    /* \"Desktop/web3/ERC20/AREVEAToken/ERC20.sol\":8886:8914  _balances[account] += amount */\n  dup3\n  dup3\n  sload\n  tag_73\n  swap2\n  swap1\n  tag_30\n  jump\t// in\ntag_73:\n  swap3\n  pop\n  pop\n  dup2\n  swap1\n  sstore\n  pop\n    /* \"Desktop/web3/ERC20/AREVEAToken/ERC20.sol\":8951:8958  account */\n  dup2\n    /* \"Desktop/web3/ERC20/AREVEAToken/ERC20.sol\":8930:8967  Transfer(address(0), account, amount) */\n  0xffffffffffffffffffffffffffffffffffffffff\n  and\n    /* \"Desktop/web3/ERC20/AREVEAToken/ERC20.sol\":8947:8948  0 */\n  0x00\n    /* \"Desktop/web3/ERC20/AREVEAToken/ERC20.sol\":8930:8967  Transfer(address(0), account, amount) */\n  0xffffffffffffffffffffffffffffffffffffffff\n  and\n  0xddf252ad1be2c89b69c2b068fc378daa952ba7f163c4a11628f55a4df523b3ef\n    /* \"Desktop/web3/ERC20/AREVEAToken/ERC20.sol\":8960:8966  amount */\n  dup4\n    /* \"Desktop/web3/ERC20/AREVEAToken/ERC20.sol\":8930:8967  Transfer(address(0), account, amount) */\n  mload(0x40)\n  tag_74\n  swap2\n  swap1\n  tag_55\n  jump\t// in\ntag_74:\n  mload(0x40)\n  dup1\n  swap2\n  sub\n  swap1\n  log3\n    /* \"Desktop/web3/ERC20/AREVEAToken/ERC20.sol\":8980:9028  _afterTokenTransfer(address(0), account, amount) */\n  tag_75\n    /* \"Desktop/web3/ERC20/AREVEAToken/ERC20.sol\":9008:9009  0 */\n  0x00\n    /* \"Desktop/web3/ERC20/AREVEAToken/ERC20.sol\":9012:9019  account */\n  dup4\n    /* \"Desktop/web3/ERC20/AREVEAToken/ERC20.sol\":9021:9027  amount */\n  dup4\n    /* \"Desktop/web3/ERC20/AREVEAToken/ERC20.sol\":8980:8999  _afterTokenTransfer */\n  shl(0x20, tag_57)\n    /* \"Desktop/web3/ERC20/AREVEAToken/ERC20.sol\":8980:9028  _afterTokenTransfer(address(0), account, amount) */\n  0x20\n  shr\n  jump\t// in\ntag_75:\n    /* \"Desktop/web3/ERC20/AREVEAToken/ERC20.sol\":8637:9036  function _mint(address account, uint256 amount) internal virtual {\r... */\n  pop\n  pop\n  jump\t// out\n    /* \"Desktop/web3/ERC20/AREVEAToken/ERC20.sol\":12122:12247  function _beforeTokenTransfer(\r... */\ntag_51:\n  pop\n  pop\n  pop\n  jump\t// out\n    /* \"Desktop/web3/ERC20/AREVEAToken/ERC20.sol\":12851:12975  function _afterTokenTransfer(\r... */\ntag_57:\n  pop\n  pop\n  pop\n  jump\t// out\n    /* \"Desktop/web3/ERC20/AREVEAToken/Ownable.sol\":1221:1308  function owner() public view virtual returns (address) {\r... */\ntag_61:\n    /* \"Desktop/web3/ERC20/AREVEAToken/Ownable.sol\":1267:1274  address */\n  0x00\n    /* \"Desktop/web3/ERC20/AREVEAToken/Ownable.sol\":1294:1300  _owner */\n  0x05\n  0x00\n  swap1\n  sload\n  swap1\n  0x0100\n  exp\n  swap1\n  div\n  0xffffffffffffffffffffffffffffffffffffffff\n  and\n    /* \"Desktop/web3/ERC20/AREVEAToken/Ownable.sol\":1287:1300  return _owner */\n  swap1\n  pop\n    /* \"Desktop/web3/ERC20/AREVEAToken/Ownable.sol\":1221:1308  function owner() public view virtual returns (address) {\r... */\n  swap1\n  jump\t// out\n    /* \"Desktop/web3/ERC20/AREVEAToken/AREVEAToken.sol\":339:3934  contract AREVEAToken is ERC20,Ownable{\r... */\ntag_11:\n  dup3\n  dup1\n  sload\n  tag_79\n  swap1\n  tag_80\n  jump\t// in\ntag_79:\n  swap1\n  0x00\n  mstore\n  keccak256(0x00, 0x20)\n  swap1\n  0x1f\n  add\n  0x20\n  swap1\n  div\n  dup2\n  add\n  swap3\n  dup3\n  tag_82\n  jumpi\n  0x00\n  dup6\n  sstore\n  jump(tag_81)\ntag_82:\n  dup3\n  0x1f\n  lt\n  tag_83\n  jumpi\n  dup1\n  mload\n  not(0xff)\n  and\n  dup4\n  dup1\n  add\n  or\n  dup6\n  sstore\n  jump(tag_81)\ntag_83:\n  dup3\n  dup1\n  add\n  0x01\n  add\n  dup6\n  sstore\n  dup3\n  iszero\n  tag_81\n  jumpi\n  swap2\n  dup3\n  add\ntag_84:\n  dup3\n  dup2\n  gt\n  iszero\n  tag_85\n  jumpi\n  dup3\n  mload\n  dup3\n  sstore\n  swap2\n  0x20\n  add\n  swap2\n  swap1\n  0x01\n  add\n  swap1\n  jump(tag_84)\ntag_85:\ntag_81:\n  pop\n  swap1\n  pop\n  tag_86\n  swap2\n  swap1\n  tag_87\n  jump\t// in\ntag_86:\n  pop\n  swap1\n  jump\t// out\ntag_87:\ntag_88:\n  dup1\n  dup3\n  gt\n  iszero\n  tag_89\n  jumpi\n  0x00\n  dup2\n  0x00\n  swap1\n  sstore\n  pop\n  0x01\n  add\n  jump(tag_88)\ntag_89:\n  pop\n  swap1\n  jump\t// out\n    /* \"#utility.yul\":7:373   */\ntag_91:\n    /* \"#utility.yul\":149:152   */\n  0x00\n    /* \"#utility.yul\":170:237   */\n  tag_93\n    /* \"#utility.yul\":234:236   */\n  0x16\n    /* \"#utility.yul\":229:232   */\n  dup4\n    /* \"#utility.yul\":170:237   */\n  tag_94\n  jump\t// in\ntag_93:\n    /* \"#utility.yul\":163:237   */\n  swap2\n  pop\n    /* \"#utility.yul\":246:339   */\n  tag_95\n    /* \"#utility.yul\":335:338   */\n  dup3\n    /* \"#utility.yul\":246:339   */\n  tag_96\n  jump\t// in\ntag_95:\n    /* \"#utility.yul\":364:366   */\n  0x20\n    /* \"#utility.yul\":359:362   */\n  dup3\n    /* \"#utility.yul\":355:367   */\n  add\n    /* \"#utility.yul\":348:367   */\n  swap1\n  pop\n    /* \"#utility.yul\":7:373   */\n  swap2\n  swap1\n  pop\n  jump\t// out\n    /* \"#utility.yul\":379:745   */\ntag_97:\n    /* \"#utility.yul\":521:524   */\n  0x00\n    /* \"#utility.yul\":542:609   */\n  tag_99\n    /* \"#utility.yul\":606:608   */\n  0x20\n    /* \"#utility.yul\":601:604   */\n  dup4\n    /* \"#utility.yul\":542:609   */\n  tag_94\n  jump\t// in\ntag_99:\n    /* \"#utility.yul\":535:609   */\n  swap2\n  pop\n    /* \"#utility.yul\":618:711   */\n  tag_100\n    /* \"#utility.yul\":707:710   */\n  dup3\n    /* \"#utility.yul\":618:711   */\n  tag_101\n  jump\t// in\ntag_100:\n    /* \"#utility.yul\":736:738   */\n  0x20\n    /* \"#utility.yul\":731:734   */\n  dup3\n    /* \"#utility.yul\":727:739   */\n  add\n    /* \"#utility.yul\":720:739   */\n  swap1\n  pop\n    /* \"#utility.yul\":379:745   */\n  swap2\n  swap1\n  pop\n  jump\t// out\n    /* \"#utility.yul\":751:1117   */\ntag_102:\n    /* \"#utility.yul\":893:896   */\n  0x00\n    /* \"#utility.yul\":914:981   */\n  tag_104\n    /* \"#utility.yul\":978:980   */\n  0x1f\n    /* \"#utility.yul\":973:976   */\n  dup4\n    /* \"#utility.yul\":914:981   */\n  tag_94\n  jump\t// in\ntag_104:\n    /* \"#utility.yul\":907:981   */\n  swap2\n  pop\n    /* \"#utility.yul\":990:1083   */\n  tag_105\n    /* \"#utility.yul\":1079:1082   */\n  dup3\n    /* \"#utility.yul\":990:1083   */\n  tag_106\n  jump\t// in\ntag_105:\n    /* \"#utility.yul\":1108:1110   */\n  0x20\n    /* \"#utility.yul\":1103:1106   */\n  dup3\n    /* \"#utility.yul\":1099:1111   */\n  add\n    /* \"#utility.yul\":1092:1111   */\n  swap1\n  pop\n    /* \"#utility.yul\":751:1117   */\n  swap2\n  swap1\n  pop\n  jump\t// out\n    /* \"#utility.yul\":1123:1241   */\ntag_107:\n    /* \"#utility.yul\":1210:1234   */\n  tag_109\n    /* \"#utility.yul\":1228:1233   */\n  dup2\n    /* \"#utility.yul\":1210:1234   */\n  tag_110\n  jump\t// in\ntag_109:\n    /* \"#utility.yul\":1205:1208   */\n  dup3\n    /* \"#utility.yul\":1198:1235   */\n  mstore\n    /* \"#utility.yul\":1123:1241   */\n  pop\n  pop\n  jump\t// out\n    /* \"#utility.yul\":1247:1666   */\ntag_47:\n    /* \"#utility.yul\":1413:1417   */\n  0x00\n    /* \"#utility.yul\":1451:1453   */\n  0x20\n    /* \"#utility.yul\":1440:1449   */\n  dup3\n    /* \"#utility.yul\":1436:1454   */\n  add\n    /* \"#utility.yul\":1428:1454   */\n  swap1\n  pop\n    /* \"#utility.yul\":1500:1509   */\n  dup2\n    /* \"#utility.yul\":1494:1498   */\n  dup2\n    /* \"#utility.yul\":1490:1510   */\n  sub\n    /* \"#utility.yul\":1486:1487   */\n  0x00\n    /* \"#utility.yul\":1475:1484   */\n  dup4\n    /* \"#utility.yul\":1471:1488   */\n  add\n    /* \"#utility.yul\":1464:1511   */\n  mstore\n    /* \"#utility.yul\":1528:1659   */\n  tag_112\n    /* \"#utility.yul\":1654:1658   */\n  dup2\n    /* \"#utility.yul\":1528:1659   */\n  tag_91\n  jump\t// in\ntag_112:\n    /* \"#utility.yul\":1520:1659   */\n  swap1\n  pop\n    /* \"#utility.yul\":1247:1666   */\n  swap2\n  swap1\n  pop\n  jump\t// out\n    /* \"#utility.yul\":1672:2091   */\ntag_64:\n    /* \"#utility.yul\":1838:1842   */\n  0x00\n    /* \"#utility.yul\":1876:1878   */\n  0x20\n    /* \"#utility.yul\":1865:1874   */\n  dup3\n    /* \"#utility.yul\":1861:1879   */\n  add\n    /* \"#utility.yul\":1853:1879   */\n  swap1\n  pop\n    /* \"#utility.yul\":1925:1934   */\n  dup2\n    /* \"#utility.yul\":1919:1923   */\n  dup2\n    /* \"#utility.yul\":1915:1935   */\n  sub\n    /* \"#utility.yul\":1911:1912   */\n  0x00\n    /* \"#utility.yul\":1900:1909   */\n  dup4\n    /* \"#utility.yul\":1896:1913   */\n  add\n    /* \"#utility.yul\":1889:1936   */\n  mstore\n    /* \"#utility.yul\":1953:2084   */\n  tag_114\n    /* \"#utility.yul\":2079:2083   */\n  dup2\n    /* \"#utility.yul\":1953:2084   */\n  tag_97\n  jump\t// in\ntag_114:\n    /* \"#utility.yul\":1945:2084   */\n  swap1\n  pop\n    /* \"#utility.yul\":1672:2091   */\n  swap2\n  swap1\n  pop\n  jump\t// out\n    /* \"#utility.yul\":2097:2516   */\ntag_40:\n    /* \"#utility.yul\":2263:2267   */\n  0x00\n    /* \"#utility.yul\":2301:2303   */\n  0x20\n    /* \"#utility.yul\":2290:2299   */\n  dup3\n    /* \"#utility.yul\":2286:2304   */\n  add\n    /* \"#utility.yul\":2278:2304   */\n  swap1\n  pop\n    /* \"#utility.yul\":2350:2359   */\n  dup2\n    /* \"#utility.yul\":2344:2348   */\n  dup2\n    /* \"#utility.yul\":2340:2360   */\n  sub\n    /* \"#utility.yul\":2336:2337   */\n  0x00\n    /* \"#utility.yul\":2325:2334   */\n  dup4\n    /* \"#utility.yul\":2321:2338   */\n  add\n    /* \"#utility.yul\":2314:2361   */\n  mstore\n    /* \"#utility.yul\":2378:2509   */\n  tag_116\n    /* \"#utility.yul\":2504:2508   */\n  dup2\n    /* \"#utility.yul\":2378:2509   */\n  tag_102\n  jump\t// in\ntag_116:\n    /* \"#utility.yul\":2370:2509   */\n  swap1\n  pop\n    /* \"#utility.yul\":2097:2516   */\n  swap2\n  swap1\n  pop\n  jump\t// out\n    /* \"#utility.yul\":2522:2744   */\ntag_55:\n    /* \"#utility.yul\":2615:2619   */\n  0x00\n    /* \"#utility.yul\":2653:2655   */\n  0x20\n    /* \"#utility.yul\":2642:2651   */\n  dup3\n    /* \"#utility.yul\":2638:2656   */\n  add\n    /* \"#utility.yul\":2630:2656   */\n  swap1\n  pop\n    /* \"#utility.yul\":2666:2737   */\n  tag_118\n    /* \"#utility.yul\":2734:2735   */\n  0x00\n    /* \"#utility.yul\":2723:2732   */\n  dup4\n    /* \"#utility.yul\":2719:2736   */\n  add\n    /* \"#utility.yul\":2710:2716   */\n  dup5\n    /* \"#utility.yul\":2666:2737   */\n  tag_107\n  jump\t// in\ntag_118:\n    /* \"#utility.yul\":2522:2744   */\n  swap3\n  swap2\n  pop\n  pop\n  jump\t// out\n    /* \"#utility.yul\":2750:2919   */\ntag_94:\n    /* \"#utility.yul\":2834:2845   */\n  0x00\n    /* \"#utility.yul\":2868:2874   */\n  dup3\n    /* \"#utility.yul\":2863:2866   */\n  dup3\n    /* \"#utility.yul\":2856:2875   */\n  mstore\n    /* \"#utility.yul\":2908:2912   */\n  0x20\n    /* \"#utility.yul\":2903:2906   */\n  dup3\n    /* \"#utility.yul\":2899:2913   */\n  add\n    /* \"#utility.yul\":2884:2913   */\n  swap1\n  pop\n    /* \"#utility.yul\":2750:2919   */\n  swap3\n  swap2\n  pop\n  pop\n  jump\t// out\n    /* \"#utility.yul\":2925:3230   */\ntag_30:\n    /* \"#utility.yul\":2965:2968   */\n  0x00\n    /* \"#utility.yul\":2984:3004   */\n  tag_121\n    /* \"#utility.yul\":3002:3003   */\n  dup3\n    /* \"#utility.yul\":2984:3004   */\n  tag_110\n  jump\t// in\ntag_121:\n    /* \"#utility.yul\":2979:3004   */\n  swap2\n  pop\n    /* \"#utility.yul\":3018:3038   */\n  tag_122\n    /* \"#utility.yul\":3036:3037   */\n  dup4\n    /* \"#utility.yul\":3018:3038   */\n  tag_110\n  jump\t// in\ntag_122:\n    /* \"#utility.yul\":3013:3038   */\n  swap3\n  pop\n    /* \"#utility.yul\":3172:3173   */\n  dup3\n    /* \"#utility.yul\":3104:3170   */\n  0xffffffffffffffffffffffffffffffffffffffffffffffffffffffffffffffff\n    /* \"#utility.yul\":3100:3174   */\n  sub\n    /* \"#utility.yul\":3097:3098   */\n  dup3\n    /* \"#utility.yul\":3094:3175   */\n  gt\n    /* \"#utility.yul\":3091:3198   */\n  iszero\n  tag_123\n  jumpi\n    /* \"#utility.yul\":3178:3196   */\n  tag_124\n  tag_125\n  jump\t// in\ntag_124:\n    /* \"#utility.yul\":3091:3198   */\ntag_123:\n    /* \"#utility.yul\":3222:3223   */\n  dup3\n    /* \"#utility.yul\":3219:3220   */\n  dup3\n    /* \"#utility.yul\":3215:3224   */\n  add\n    /* \"#utility.yul\":3208:3224   */\n  swap1\n  pop\n    /* \"#utility.yul\":2925:3230   */\n  swap3\n  swap2\n  pop\n  pop\n  jump\t// out\n    /* \"#utility.yul\":3236:4084   */\ntag_126:\n    /* \"#utility.yul\":3297:3302   */\n  0x00\n    /* \"#utility.yul\":3304:3308   */\n  dup1\n    /* \"#utility.yul\":3328:3334   */\n  dup3\n    /* \"#utility.yul\":3319:3334   */\n  swap2\n  pop\n    /* \"#utility.yul\":3352:3357   */\n  dup4\n    /* \"#utility.yul\":3343:3357   */\n  swap1\n  pop\n    /* \"#utility.yul\":3366:4078   */\ntag_128:\n    /* \"#utility.yul\":3387:3388   */\n  0x01\n    /* \"#utility.yul\":3377:3385   */\n  dup6\n    /* \"#utility.yul\":3374:3389   */\n  gt\n    /* \"#utility.yul\":3366:4078   */\n  iszero\n  tag_130\n  jumpi\n    /* \"#utility.yul\":3482:3486   */\n  dup1\n    /* \"#utility.yul\":3477:3480   */\n  dup7\n    /* \"#utility.yul\":3473:3487   */\n  div\n    /* \"#utility.yul\":3467:3471   */\n  dup2\n    /* \"#utility.yul\":3464:3488   */\n  gt\n    /* \"#utility.yul\":3461:3511   */\n  iszero\n  tag_131\n  jumpi\n    /* \"#utility.yul\":3491:3509   */\n  tag_132\n  tag_125\n  jump\t// in\ntag_132:\n    /* \"#utility.yul\":3461:3511   */\ntag_131:\n    /* \"#utility.yul\":3541:3542   */\n  0x01\n    /* \"#utility.yul\":3531:3539   */\n  dup6\n    /* \"#utility.yul\":3527:3543   */\n  and\n    /* \"#utility.yul\":3524:3975   */\n  iszero\n  tag_133\n  jumpi\n    /* \"#utility.yul\":3956:3960   */\n  dup1\n    /* \"#utility.yul\":3949:3954   */\n  dup3\n    /* \"#utility.yul\":3945:3961   */\n  mul\n    /* \"#utility.yul\":3936:3961   */\n  swap2\n  pop\n    /* \"#utility.yul\":3524:3975   */\ntag_133:\n    /* \"#utility.yul\":4006:4010   */\n  dup1\n    /* \"#utility.yul\":4000:4004   */\n  dup2\n    /* \"#utility.yul\":3996:4011   */\n  mul\n    /* \"#utility.yul\":3988:4011   */\n  swap1\n  pop\n    /* \"#utility.yul\":4036:4068   */\n  tag_134\n    /* \"#utility.yul\":4059:4067   */\n  dup6\n    /* \"#utility.yul\":4036:4068   */\n  tag_135\n  jump\t// in\ntag_134:\n    /* \"#utility.yul\":4024:4068   */\n  swap5\n  pop\n    /* \"#utility.yul\":3366:4078   */\n  jump(tag_128)\ntag_130:\n    /* \"#utility.yul\":3236:4084   */\n  swap5\n  pop\n  swap5\n  swap3\n  pop\n  pop\n  pop\n  jump\t// out\n    /* \"#utility.yul\":4090:4375   */\ntag_2:\n    /* \"#utility.yul\":4150:4155   */\n  0x00\n    /* \"#utility.yul\":4174:4197   */\n  tag_137\n    /* \"#utility.yul\":4192:4196   */\n  dup3\n    /* \"#utility.yul\":4174:4197   */\n  tag_110\n  jump\t// in\ntag_137:\n    /* \"#utility.yul\":4166:4197   */\n  swap2\n  pop\n    /* \"#utility.yul\":4218:4245   */\n  tag_138\n    /* \"#utility.yul\":4236:4244   */\n  dup4\n    /* \"#utility.yul\":4218:4245   */\n  tag_110\n  jump\t// in\ntag_138:\n    /* \"#utility.yul\":4206:4245   */\n  swap3\n  pop\n    /* \"#utility.yul\":4264:4368   */\n  tag_139\n    /* \"#utility.yul\":4301:4367   */\n  0xffffffffffffffffffffffffffffffffffffffffffffffffffffffffffffffff\n    /* \"#utility.yul\":4291:4299   */\n  dup5\n    /* \"#utility.yul\":4285:4289   */\n  dup5\n    /* \"#utility.yul\":4264:4368   */\n  tag_140\n  jump\t// in\ntag_139:\n    /* \"#utility.yul\":4255:4368   */\n  swap1\n  pop\n    /* \"#utility.yul\":4090:4375   */\n  swap3\n  swap2\n  pop\n  pop\n  jump\t// out\n    /* \"#utility.yul\":4381:5454   */\ntag_140:\n    /* \"#utility.yul\":4435:4440   */\n  0x00\n    /* \"#utility.yul\":4626:4634   */\n  dup3\n    /* \"#utility.yul\":4616:4656   */\n  tag_142\n  jumpi\n    /* \"#utility.yul\":4647:4648   */\n  0x01\n    /* \"#utility.yul\":4638:4648   */\n  swap1\n  pop\n    /* \"#utility.yul\":4649:4654   */\n  jump(tag_141)\n    /* \"#utility.yul\":4616:4656   */\ntag_142:\n    /* \"#utility.yul\":4675:4679   */\n  dup2\n    /* \"#utility.yul\":4665:4701   */\n  tag_143\n  jumpi\n    /* \"#utility.yul\":4692:4693   */\n  0x00\n    /* \"#utility.yul\":4683:4693   */\n  swap1\n  pop\n    /* \"#utility.yul\":4694:4699   */\n  jump(tag_141)\n    /* \"#utility.yul\":4665:4701   */\ntag_143:\n    /* \"#utility.yul\":4761:4765   */\n  dup2\n    /* \"#utility.yul\":4809:4810   */\n  0x01\n    /* \"#utility.yul\":4804:4831   */\n  dup2\n  eq\n  tag_145\n  jumpi\n    /* \"#utility.yul\":4845:4846   */\n  0x02\n    /* \"#utility.yul\":4840:5031   */\n  dup2\n  eq\n  tag_146\n  jumpi\n    /* \"#utility.yul\":4754:5031   */\n  jump(tag_144)\n    /* \"#utility.yul\":4804:4831   */\ntag_145:\n    /* \"#utility.yul\":4822:4823   */\n  0x01\n    /* \"#utility.yul\":4813:4823   */\n  swap2\n  pop\n    /* \"#utility.yul\":4824:4829   */\n  pop\n  jump(tag_141)\n    /* \"#utility.yul\":4840:5031   */\ntag_146:\n    /* \"#utility.yul\":4885:4888   */\n  0xff\n    /* \"#utility.yul\":4875:4883   */\n  dup5\n    /* \"#utility.yul\":4872:4889   */\n  gt\n    /* \"#utility.yul\":4869:4912   */\n  iszero\n  tag_147\n  jumpi\n    /* \"#utility.yul\":4892:4910   */\n  tag_148\n  tag_125\n  jump\t// in\ntag_148:\n    /* \"#utility.yul\":4869:4912   */\ntag_147:\n    /* \"#utility.yul\":4941:4949   */\n  dup4\n    /* \"#utility.yul\":4938:4939   */\n  0x02\n    /* \"#utility.yul\":4934:4950   */\n  exp\n    /* \"#utility.yul\":4925:4950   */\n  swap2\n  pop\n    /* \"#utility.yul\":4976:4979   */\n  dup5\n    /* \"#utility.yul\":4969:4974   */\n  dup3\n    /* \"#utility.yul\":4966:4980   */\n  gt\n    /* \"#utility.yul\":4963:5003   */\n  iszero\n  tag_149\n  jumpi\n    /* \"#utility.yul\":4983:5001   */\n  tag_150\n  tag_125\n  jump\t// in\ntag_150:\n    /* \"#utility.yul\":4963:5003   */\ntag_149:\n    /* \"#utility.yul\":5016:5021   */\n  pop\n  jump(tag_141)\n    /* \"#utility.yul\":4754:5031   */\ntag_144:\n  pop\n    /* \"#utility.yul\":5140:5142   */\n  0x20\n    /* \"#utility.yul\":5130:5138   */\n  dup4\n    /* \"#utility.yul\":5127:5143   */\n  lt\n    /* \"#utility.yul\":5121:5124   */\n  0x0133\n    /* \"#utility.yul\":5115:5119   */\n  dup4\n    /* \"#utility.yul\":5112:5125   */\n  lt\n    /* \"#utility.yul\":5108:5144   */\n  and\n    /* \"#utility.yul\":5090:5092   */\n  0x4e\n    /* \"#utility.yul\":5080:5088   */\n  dup5\n    /* \"#utility.yul\":5077:5093   */\n  lt\n    /* \"#utility.yul\":5072:5074   */\n  0x0b\n    /* \"#utility.yul\":5066:5070   */\n  dup5\n    /* \"#utility.yul\":5063:5075   */\n  lt\n    /* \"#utility.yul\":5059:5094   */\n  and\n    /* \"#utility.yul\":5043:5154   */\n  or\n    /* \"#utility.yul\":5040:5286   */\n  iszero\n  tag_151\n  jumpi\n    /* \"#utility.yul\":5196:5204   */\n  dup3\n    /* \"#utility.yul\":5190:5194   */\n  dup3\n    /* \"#utility.yul\":5186:5205   */\n  exp\n    /* \"#utility.yul\":5177:5205   */\n  swap1\n  pop\n    /* \"#utility.yul\":5231:5234   */\n  dup4\n    /* \"#utility.yul\":5224:5229   */\n  dup2\n    /* \"#utility.yul\":5221:5235   */\n  gt\n    /* \"#utility.yul\":5218:5258   */\n  iszero\n  tag_152\n  jumpi\n    /* \"#utility.yul\":5238:5256   */\n  tag_153\n  tag_125\n  jump\t// in\ntag_153:\n    /* \"#utility.yul\":5218:5258   */\ntag_152:\n    /* \"#utility.yul\":5271:5276   */\n  jump(tag_141)\n    /* \"#utility.yul\":5040:5286   */\ntag_151:\n    /* \"#utility.yul\":5311:5353   */\n  tag_154\n    /* \"#utility.yul\":5349:5352   */\n  dup5\n    /* \"#utility.yul\":5339:5347   */\n  dup5\n    /* \"#utility.yul\":5333:5337   */\n  dup5\n    /* \"#utility.yul\":5330:5331   */\n  0x01\n    /* \"#utility.yul\":5311:5353   */\n  tag_126\n  jump\t// in\ntag_154:\n    /* \"#utility.yul\":5296:5353   */\n  swap3\n  pop\n  swap1\n  pop\n    /* \"#utility.yul\":5385:5389   */\n  dup2\n    /* \"#utility.yul\":5380:5383   */\n  dup5\n    /* \"#utility.yul\":5376:5390   */\n  div\n    /* \"#utility.yul\":5369:5374   */\n  dup2\n    /* \"#utility.yul\":5366:5391   */\n  gt\n    /* \"#utility.yul\":5363:5414   */\n  iszero\n  tag_155\n  jumpi\n    /* \"#utility.yul\":5394:5412   */\n  tag_156\n  tag_125\n  jump\t// in\ntag_156:\n    /* \"#utility.yul\":5363:5414   */\ntag_155:\n    /* \"#utility.yul\":5443:5447   */\n  dup2\n    /* \"#utility.yul\":5436:5441   */\n  dup2\n    /* \"#utility.yul\":5432:5448   */\n  mul\n    /* \"#utility.yul\":5423:5448   */\n  swap1\n  pop\n    /* \"#utility.yul\":4381:5454   */\ntag_141:\n  swap4\n  swap3\n  pop\n  pop\n  pop\n  jump\t// out\n    /* \"#utility.yul\":5460:5808   */\ntag_4:\n    /* \"#utility.yul\":5500:5507   */\n  0x00\n    /* \"#utility.yul\":5523:5543   */\n  tag_158\n    /* \"#utility.yul\":5541:5542   */\n  dup3\n    /* \"#utility.yul\":5523:5543   */\n  tag_110\n  jump\t// in\ntag_158:\n    /* \"#utility.yul\":5518:5543   */\n  swap2\n  pop\n    /* \"#utility.yul\":5557:5577   */\n  tag_159\n    /* \"#utility.yul\":5575:5576   */\n  dup4\n    /* \"#utility.yul\":5557:5577   */\n  tag_110\n  jump\t// in\ntag_159:\n    /* \"#utility.yul\":5552:5577   */\n  swap3\n  pop\n    /* \"#utility.yul\":5745:5746   */\n  dup2\n    /* \"#utility.yul\":5677:5743   */\n  0xffffffffffffffffffffffffffffffffffffffffffffffffffffffffffffffff\n    /* \"#utility.yul\":5673:5747   */\n  div\n    /* \"#utility.yul\":5670:5671   */\n  dup4\n    /* \"#utility.yul\":5667:5748   */\n  gt\n    /* \"#utility.yul\":5662:5663   */\n  dup3\n    /* \"#utility.yul\":5655:5664   */\n  iszero\n    /* \"#utility.yul\":5648:5665   */\n  iszero\n    /* \"#utility.yul\":5644:5749   */\n  and\n    /* \"#utility.yul\":5641:5772   */\n  iszero\n  tag_160\n  jumpi\n    /* \"#utility.yul\":5752:5770   */\n  tag_161\n  tag_125\n  jump\t// in\ntag_161:\n    /* \"#utility.yul\":5641:5772   */\ntag_160:\n    /* \"#utility.yul\":5800:5801   */\n  dup3\n    /* \"#utility.yul\":5797:5798   */\n  dup3\n    /* \"#utility.yul\":5793:5802   */\n  mul\n    /* \"#utility.yul\":5782:5802   */\n  swap1\n  pop\n    /* \"#utility.yul\":5460:5808   */\n  swap3\n  swap2\n  pop\n  pop\n  jump\t// out\n    /* \"#utility.yul\":5814:5891   */\ntag_110:\n    /* \"#utility.yul\":5851:5858   */\n  0x00\n    /* \"#utility.yul\":5880:5885   */\n  dup2\n    /* \"#utility.yul\":5869:5885   */\n  swap1\n  pop\n    /* \"#utility.yul\":5814:5891   */\n  swap2\n  swap1\n  pop\n  jump\t// out\n    /* \"#utility.yul\":5897:6217   */\ntag_80:\n    /* \"#utility.yul\":5941:5947   */\n  0x00\n    /* \"#utility.yul\":5978:5979   */\n  0x02\n    /* \"#utility.yul\":5972:5976   */\n  dup3\n    /* \"#utility.yul\":5968:5980   */\n  div\n    /* \"#utility.yul\":5958:5980   */\n  swap1\n  pop\n    /* \"#utility.yul\":6025:6026   */\n  0x01\n    /* \"#utility.yul\":6019:6023   */\n  dup3\n    /* \"#utility.yul\":6015:6027   */\n  and\n    /* \"#utility.yul\":6046:6064   */\n  dup1\n    /* \"#utility.yul\":6036:6117   */\n  tag_164\n  jumpi\n    /* \"#utility.yul\":6102:6106   */\n  0x7f\n    /* \"#utility.yul\":6094:6100   */\n  dup3\n    /* \"#utility.yul\":6090:6107   */\n  and\n    /* \"#utility.yul\":6080:6107   */\n  swap2\n  pop\n    /* \"#utility.yul\":6036:6117   */\ntag_164:\n    /* \"#utility.yul\":6164:6166   */\n  0x20\n    /* \"#utility.yul\":6156:6162   */\n  dup3\n    /* \"#utility.yul\":6153:6167   */\n  lt\n    /* \"#utility.yul\":6133:6151   */\n  dup2\n    /* \"#utility.yul\":6130:6168   */\n  eq\n    /* \"#utility.yul\":6127:6211   */\n  iszero\n  tag_165\n  jumpi\n    /* \"#utility.yul\":6183:6201   */\n  tag_166\n  tag_167\n  jump\t// in\ntag_166:\n    /* \"#utility.yul\":6127:6211   */\ntag_165:\n    /* \"#utility.yul\":5948:6217   */\n  pop\n    /* \"#utility.yul\":5897:6217   */\n  swap2\n  swap1\n  pop\n  jump\t// out\n    /* \"#utility.yul\":6223:6403   */\ntag_125:\n    /* \"#utility.yul\":6271:6348   */\n  0x4e487b7100000000000000000000000000000000000000000000000000000000\n    /* \"#utility.yul\":6268:6269   */\n  0x00\n    /* \"#utility.yul\":6261:6349   */\n  mstore\n    /* \"#utility.yul\":6368:6372   */\n  0x11\n    /* \"#utility.yul\":6365:6366   */\n  0x04\n    /* \"#utility.yul\":6358:6373   */\n  mstore\n    /* \"#utility.yul\":6392:6396   */\n  0x24\n    /* \"#utility.yul\":6389:6390   */\n  0x00\n    /* \"#utility.yul\":6382:6397   */\n  revert\n    /* \"#utility.yul\":6409:6589   */\ntag_167:\n    /* \"#utility.yul\":6457:6534   */\n  0x4e487b7100000000000000000000000000000000000000000000000000000000\n    /* \"#utility.yul\":6454:6455   */\n  0x00\n    /* \"#utility.yul\":6447:6535   */\n  mstore\n    /* \"#utility.yul\":6554:6558   */\n  0x22\n    /* \"#utility.yul\":6551:6552   */\n  0x04\n    /* \"#utility.yul\":6544:6559   */\n  mstore\n    /* \"#utility.yul\":6578:6582   */\n  0x24\n    /* \"#utility.yul\":6575:6576   */\n  0x00\n    /* \"#utility.yul\":6568:6583   */\n  revert\n    /* \"#utility.yul\":6595:6697   */\ntag_135:\n    /* \"#utility.yul\":6637:6645   */\n  0x00\n    /* \"#utility.yul\":6684:6689   */\n  dup2\n    /* \"#utility.yul\":6681:6682   */\n  0x01\n    /* \"#utility.yul\":6677:6690   */\n  shr\n    /* \"#utility.yul\":6656:6690   */\n  swap1\n  pop\n    /* \"#utility.yul\":6595:6697   */\n  swap2\n  swap1\n  pop\n  jump\t// out\n    /* \"#utility.yul\":6703:6875   */\ntag_96:\n    /* \"#utility.yul\":6843:6867   */\n  0x4d6178696d756d20737570706c79207265616368656400000000000000000000\n    /* \"#utility.yul\":6839:6840   */\n  0x00\n    /* \"#utility.yul\":6831:6837   */\n  dup3\n    /* \"#utility.yul\":6827:6841   */\n  add\n    /* \"#utility.yul\":6820:6868   */\n  mstore\n    /* \"#utility.yul\":6703:6875   */\n  pop\n  jump\t// out\n    /* \"#utility.yul\":6881:7063   */\ntag_101:\n    /* \"#utility.yul\":7021:7055   */\n  0x4f776e61626c653a2063616c6c6572206973206e6f7420746865206f776e6572\n    /* \"#utility.yul\":7017:7018   */\n  0x00\n    /* \"#utility.yul\":7009:7015   */\n  dup3\n    /* \"#utility.yul\":7005:7019   */\n  add\n    /* \"#utility.yul\":6998:7056   */\n  mstore\n    /* \"#utility.yul\":6881:7063   */\n  pop\n  jump\t// out\n    /* \"#utility.yul\":7069:7250   */\ntag_106:\n    /* \"#utility.yul\":7209:7242   */\n  0x45524332303a206d696e7420746f20746865207a65726f206164647265737300\n    /* \"#utility.yul\":7205:7206   */\n  0x00\n    /* \"#utility.yul\":7197:7203   */\n  dup3\n    /* \"#utility.yul\":7193:7207   */\n  add\n    /* \"#utility.yul\":7186:7243   */\n  mstore\n    /* \"#utility.yul\":7069:7250   */\n  pop\n  jump\t// out\n    /* \"Desktop/web3/ERC20/AREVEAToken/AREVEAToken.sol\":339:3934  contract AREVEAToken is ERC20,Ownable{\r... */\ntag_31:\n  dataSize(sub_0)\n  dup1\n  dataOffset(sub_0)\n  0x00\n  codecopy\n  0x00\n  return\nstop\n\nsub_0: assembly {\n        /* \"Desktop/web3/ERC20/AREVEAToken/AREVEAToken.sol\":339:3934  contract AREVEAToken is ERC20,Ownable{\r... */\n      mstore(0x40, 0x80)\n      callvalue\n      dup1\n      iszero\n      tag_1\n      jumpi\n      0x00\n      dup1\n      revert\n    tag_1:\n      pop\n      jumpi(tag_2, lt(calldatasize, 0x04))\n      shr(0xe0, calldataload(0x00))\n      dup1\n      0x40c10f19\n      gt\n      tag_22\n      jumpi\n      dup1\n      0xa457c2d7\n      gt\n      tag_23\n      jumpi\n      dup1\n      0xa457c2d7\n      eq\n      tag_17\n      jumpi\n      dup1\n      0xa9059cbb\n      eq\n      tag_18\n      jumpi\n      dup1\n      0xc3b2d337\n      eq\n      tag_19\n      jumpi\n      dup1\n      0xdd62ed3e\n      eq\n      tag_20\n      jumpi\n      dup1\n      0xf2fde38b\n      eq\n      tag_21\n      jumpi\n      jump(tag_2)\n    tag_23:\n      dup1\n      0x40c10f19\n      eq\n      tag_12\n      jumpi\n      dup1\n      0x70a08231\n      eq\n      tag_13\n      jumpi\n      dup1\n      0x79cc6790\n      eq\n      tag_14\n      jumpi\n      dup1\n      0x8da5cb5b\n      eq\n      tag_15\n      jumpi\n      dup1\n      0x95d89b41\n      eq\n      tag_16\n      jumpi\n      jump(tag_2)\n    tag_22:\n      dup1\n      0x313ce567\n      gt\n      tag_24\n      jumpi\n      dup1\n      0x313ce567\n      eq\n      tag_7\n      jumpi\n      dup1\n      0x32424aa3\n      eq\n      tag_8\n      jumpi\n      dup1\n      0x378dc3dc\n      eq\n      tag_9\n      jumpi\n      dup1\n      0x39509351\n      eq\n      tag_10\n      jumpi\n      dup1\n      0x3ee8dd7b\n      eq\n      tag_11\n      jumpi\n      jump(tag_2)\n    tag_24:\n      dup1\n      0x06fdde03\n      eq\n      tag_3\n      jumpi\n      dup1\n      0x095ea7b3\n      eq\n      tag_4\n      jumpi\n      dup1\n      0x18160ddd\n      eq\n      tag_5\n      jumpi\n      dup1\n      0x23b872dd\n      eq\n      tag_6\n      jumpi\n    tag_2:\n      0x00\n      dup1\n      revert\n        /* \"Desktop/web3/ERC20/AREVEAToken/ERC20.sol\":2196:2296  function name() public view virtual override returns (string memory) {\r... */\n    tag_3:\n      tag_25\n      tag_26\n      jump\t// in\n    tag_25:\n      mload(0x40)\n      tag_27\n      swap2\n      swap1\n      tag_28\n      jump\t// in\n    tag_27:\n      mload(0x40)\n      dup1\n      swap2\n      sub\n      swap1\n      return\n        /* \"Desktop/web3/ERC20/AREVEAToken/ERC20.sol\":4547:4748  function approve(address spender, uint256 amount) public virtual override returns (bool) {\r... */\n    tag_4:\n      tag_29\n      0x04\n      dup1\n      calldatasize\n      sub\n      dup2\n      add\n      swap1\n      tag_30\n      swap2\n      swap1\n      tag_31\n      jump\t// in\n    tag_30:\n      tag_32\n      jump\t// in\n    tag_29:\n      mload(0x40)\n      tag_33\n      swap2\n      swap1\n      tag_34\n      jump\t// in\n    tag_33:\n      mload(0x40)\n      dup1\n      swap2\n      sub\n      swap1\n      return\n        /* \"Desktop/web3/ERC20/AREVEAToken/AREVEAToken.sol\":2164:2272  function totalSupply() public view virtual override returns (uint256) {\r... */\n    tag_5:\n      tag_35\n      tag_36\n      jump\t// in\n    tag_35:\n      mload(0x40)\n      tag_37\n      swap2\n      swap1\n      tag_38\n      jump\t// in\n    tag_37:\n      mload(0x40)\n      dup1\n      swap2\n      sub\n      swap1\n      return\n        /* \"Desktop/web3/ERC20/AREVEAToken/ERC20.sol\":5328:5623  function transferFrom(\r... */\n    tag_6:\n      tag_39\n      0x04\n      dup1\n      calldatasize\n      sub\n      dup2\n      add\n      swap1\n      tag_40\n      swap2\n      swap1\n      tag_41\n      jump\t// in\n    tag_40:\n      tag_42\n      jump\t// in\n    tag_39:\n      mload(0x40)\n      tag_43\n      swap2\n      swap1\n      tag_34\n      jump\t// in\n    tag_43:\n      mload(0x40)\n      dup1\n      swap2\n      sub\n      swap1\n      return\n        /* \"Desktop/web3/ERC20/AREVEAToken/ERC20.sol\":3158:3251  function decimals() public view virtual override returns (uint8) {\r... */\n    tag_7:\n      tag_44\n      tag_45\n      jump\t// in\n    tag_44:\n      mload(0x40)\n      tag_46\n      swap2\n      swap1\n      tag_47\n      jump\t// in\n    tag_46:\n      mload(0x40)\n      dup1\n      swap2\n      sub\n      swap1\n      return\n        /* \"Desktop/web3/ERC20/AREVEAToken/AREVEAToken.sol\":1007:1043  uint8 public constant _decimals = 18 */\n    tag_8:\n      tag_48\n      tag_49\n      jump\t// in\n    tag_48:\n      mload(0x40)\n      tag_50\n      swap2\n      swap1\n      tag_47\n      jump\t// in\n    tag_50:\n      mload(0x40)\n      dup1\n      swap2\n      sub\n      swap1\n      return\n        /* \"Desktop/web3/ERC20/AREVEAToken/AREVEAToken.sol\":2362:2465  function initialSupply() public view virtual returns (uint256) {\r... */\n    tag_9:\n      tag_51\n      tag_52\n      jump\t// in\n    tag_51:\n      mload(0x40)\n      tag_53\n      swap2\n      swap1\n      tag_38\n      jump\t// in\n    tag_53:\n      mload(0x40)\n      dup1\n      swap2\n      sub\n      swap1\n      return\n        /* \"Desktop/web3/ERC20/AREVEAToken/ERC20.sol\":6032:6270  function increaseAllowance(address spender, uint256 addedValue) public virtual returns (bool) {\r... */\n    tag_10:\n      tag_54\n      0x04\n      dup1\n      calldatasize\n      sub\n      dup2\n      add\n      swap1\n      tag_55\n      swap2\n      swap1\n      tag_31\n      jump\t// in\n    tag_55:\n      tag_56\n      jump\t// in\n    tag_54:\n      mload(0x40)\n      tag_57\n      swap2\n      swap1\n      tag_34\n      jump\t// in\n    tag_57:\n      mload(0x40)\n      dup1\n      swap2\n      sub\n      swap1\n      return\n        /* \"Desktop/web3/ERC20/AREVEAToken/AREVEAToken.sol\":1980:2077  function maximusupply() public view virtual returns (uint256) {\r... */\n    tag_11:\n      tag_58\n      tag_59\n      jump\t// in\n    tag_58:\n      mload(0x40)\n      tag_60\n      swap2\n      swap1\n      tag_38\n      jump\t// in\n    tag_60:\n      mload(0x40)\n      dup1\n      swap2\n      sub\n      swap1\n      return\n        /* \"Desktop/web3/ERC20/AREVEAToken/AREVEAToken.sol\":2771:3325  function mint(address account, uint256 amount) public  onlyOwner  {\r... */\n    tag_12:\n      tag_61\n      0x04\n      dup1\n      calldatasize\n      sub\n      dup2\n      add\n      swap1\n      tag_62\n      swap2\n      swap1\n      tag_31\n      jump\t// in\n    tag_62:\n      tag_63\n      jump\t// in\n    tag_61:\n      stop\n        /* \"Desktop/web3/ERC20/AREVEAToken/ERC20.sol\":3487:3614  function balanceOf(address account) public view virtual override returns (uint256) {\r... */\n    tag_13:\n      tag_64\n      0x04\n      dup1\n      calldatasize\n      sub\n      dup2\n      add\n      swap1\n      tag_65\n      swap2\n      swap1\n      tag_66\n      jump\t// in\n    tag_65:\n      tag_67\n      jump\t// in\n    tag_64:\n      mload(0x40)\n      tag_68\n      swap2\n      swap1\n      tag_38\n      jump\t// in\n    tag_68:\n      mload(0x40)\n      dup1\n      swap2\n      sub\n      swap1\n      return\n        /* \"Desktop/web3/ERC20/AREVEAToken/AREVEAToken.sol\":3434:3927  function burnFrom(address account, uint256 amount) public virtual    {\r... */\n    tag_14:\n      tag_69\n      0x04\n      dup1\n      calldatasize\n      sub\n      dup2\n      add\n      swap1\n      tag_70\n      swap2\n      swap1\n      tag_31\n      jump\t// in\n    tag_70:\n      tag_71\n      jump\t// in\n    tag_69:\n      stop\n        /* \"Desktop/web3/ERC20/AREVEAToken/Ownable.sol\":1221:1308  function owner() public view virtual returns (address) {\r... */\n    tag_15:\n      tag_72\n      tag_73\n      jump\t// in\n    tag_72:\n      mload(0x40)\n      tag_74\n      swap2\n      swap1\n      tag_75\n      jump\t// in\n    tag_74:\n      mload(0x40)\n      dup1\n      swap2\n      sub\n      swap1\n      return\n        /* \"Desktop/web3/ERC20/AREVEAToken/ERC20.sol\":2415:2519  function symbol() public view virtual override returns (string memory) {\r... */\n    tag_16:\n      tag_76\n      tag_77\n      jump\t// in\n    tag_76:\n      mload(0x40)\n      tag_78\n      swap2\n      swap1\n      tag_28\n      jump\t// in\n    tag_78:\n      mload(0x40)\n      dup1\n      swap2\n      sub\n      swap1\n      return\n        /* \"Desktop/web3/ERC20/AREVEAToken/ERC20.sol\":6773:7209  function decreaseAllowance(address spender, uint256 subtractedValue) public virtual returns (bool) {\r... */\n    tag_17:\n      tag_79\n      0x04\n      dup1\n      calldatasize\n      sub\n      dup2\n      add\n      swap1\n      tag_80\n      swap2\n      swap1\n      tag_31\n      jump\t// in\n    tag_80:\n      tag_81\n      jump\t// in\n    tag_79:\n      mload(0x40)\n      tag_82\n      swap2\n      swap1\n      tag_34\n      jump\t// in\n    tag_82:\n      mload(0x40)\n      dup1\n      swap2\n      sub\n      swap1\n      return\n        /* \"Desktop/web3/ERC20/AREVEAToken/ERC20.sol\":3820:4013  function transfer(address to, uint256 amount) public virtual override returns (bool) {\r... */\n    tag_18:\n      tag_83\n      0x04\n      dup1\n      calldatasize\n      sub\n      dup2\n      add\n      swap1\n      tag_84\n      swap2\n      swap1\n      tag_31\n      jump\t// in\n    tag_84:\n      tag_85\n      jump\t// in\n    tag_83:\n      mload(0x40)\n      tag_86\n      swap2\n      swap1\n      tag_34\n      jump\t// in\n    tag_86:\n      mload(0x40)\n      dup1\n      swap2\n      sub\n      swap1\n      return\n        /* \"Desktop/web3/ERC20/AREVEAToken/AREVEAToken.sol\":1078:1155  uint256 public constant _initialSupply = 1000000 * (10 ** uint256(_decimals)) */\n    tag_19:\n      tag_87\n      tag_88\n      jump\t// in\n    tag_87:\n      mload(0x40)\n      tag_89\n      swap2\n      swap1\n      tag_38\n      jump\t// in\n    tag_89:\n      mload(0x40)\n      dup1\n      swap2\n      sub\n      swap1\n      return\n        /* \"Desktop/web3/ERC20/AREVEAToken/ERC20.sol\":4076:4227  function allowance(address owner, address spender) public view virtual override returns (uint256) {\r... */\n    tag_20:\n      tag_90\n      0x04\n      dup1\n      calldatasize\n      sub\n      dup2\n      add\n      swap1\n      tag_91\n      swap2\n      swap1\n      tag_92\n      jump\t// in\n    tag_91:\n      tag_93\n      jump\t// in\n    tag_90:\n      mload(0x40)\n      tag_94\n      swap2\n      swap1\n      tag_38\n      jump\t// in\n    tag_94:\n      mload(0x40)\n      dup1\n      swap2\n      sub\n      swap1\n      return\n        /* \"Desktop/web3/ERC20/AREVEAToken/Ownable.sol\":2136:2337  function transferOwnership(address newOwner) public virtual onlyOwner {\r... */\n    tag_21:\n      tag_95\n      0x04\n      dup1\n      calldatasize\n      sub\n      dup2\n      add\n      swap1\n      tag_96\n      swap2\n      swap1\n      tag_66\n      jump\t// in\n    tag_96:\n      tag_97\n      jump\t// in\n    tag_95:\n      stop\n        /* \"Desktop/web3/ERC20/AREVEAToken/ERC20.sol\":2196:2296  function name() public view virtual override returns (string memory) {\r... */\n    tag_26:\n        /* \"Desktop/web3/ERC20/AREVEAToken/ERC20.sol\":2250:2263  string memory */\n      0x60\n        /* \"Desktop/web3/ERC20/AREVEAToken/ERC20.sol\":2283:2288  _name */\n      0x03\n        /* \"Desktop/web3/ERC20/AREVEAToken/ERC20.sol\":2276:2288  return _name */\n      dup1\n      sload\n      tag_100\n      swap1\n      tag_101\n      jump\t// in\n    tag_100:\n      dup1\n      0x1f\n      add\n      0x20\n      dup1\n      swap2\n      div\n      mul\n      0x20\n      add\n      mload(0x40)\n      swap1\n      dup2\n      add\n      0x40\n      mstore\n      dup1\n      swap3\n      swap2\n      swap1\n      dup2\n      dup2\n      mstore\n      0x20\n      add\n      dup3\n      dup1\n      sload\n      tag_102\n      swap1\n      tag_101\n      jump\t// in\n    tag_102:\n      dup1\n      iszero\n      tag_103\n      jumpi\n      dup1\n      0x1f\n      lt\n      tag_104\n      jumpi\n      0x0100\n      dup1\n      dup4\n      sload\n      div\n      mul\n      dup4\n      mstore\n      swap2\n      0x20\n      add\n      swap2\n      jump(tag_103)\n    tag_104:\n      dup3\n      add\n      swap2\n      swap1\n      0x00\n      mstore\n      keccak256(0x00, 0x20)\n      swap1\n    tag_105:\n      dup2\n      sload\n      dup2\n      mstore\n      swap1\n      0x01\n      add\n      swap1\n      0x20\n      add\n      dup1\n      dup4\n      gt\n      tag_105\n      jumpi\n      dup3\n      swap1\n      sub\n      0x1f\n      and\n      dup3\n      add\n      swap2\n    tag_103:\n      pop\n      pop\n      pop\n      pop\n      pop\n      swap1\n      pop\n        /* \"Desktop/web3/ERC20/AREVEAToken/ERC20.sol\":2196:2296  function name() public view virtual override returns (string memory) {\r... */\n      swap1\n      jump\t// out\n        /* \"Desktop/web3/ERC20/AREVEAToken/ERC20.sol\":4547:4748  function approve(address spender, uint256 amount) public virtual override returns (bool) {\r... */\n    tag_32:\n        /* \"Desktop/web3/ERC20/AREVEAToken/ERC20.sol\":4630:4634  bool */\n      0x00\n        /* \"Desktop/web3/ERC20/AREVEAToken/ERC20.sol\":4647:4660  address owner */\n      dup1\n        /* \"Desktop/web3/ERC20/AREVEAToken/ERC20.sol\":4663:4675  _msgSender() */\n      tag_107\n        /* \"Desktop/web3/ERC20/AREVEAToken/ERC20.sol\":4663:4673  _msgSender */\n      tag_108\n        /* \"Desktop/web3/ERC20/AREVEAToken/ERC20.sol\":4663:4675  _msgSender() */\n      jump\t// in\n    tag_107:\n        /* \"Desktop/web3/ERC20/AREVEAToken/ERC20.sol\":4647:4675  address owner = _msgSender() */\n      swap1\n      pop\n        /* \"Desktop/web3/ERC20/AREVEAToken/ERC20.sol\":4686:4718  _approve(owner, spender, amount) */\n      tag_109\n        /* \"Desktop/web3/ERC20/AREVEAToken/ERC20.sol\":4695:4700  owner */\n      dup2\n        /* \"Desktop/web3/ERC20/AREVEAToken/ERC20.sol\":4702:4709  spender */\n      dup6\n        /* \"Desktop/web3/ERC20/AREVEAToken/ERC20.sol\":4711:4717  amount */\n      dup6\n        /* \"Desktop/web3/ERC20/AREVEAToken/ERC20.sol\":4686:4694  _approve */\n      tag_110\n        /* \"Desktop/web3/ERC20/AREVEAToken/ERC20.sol\":4686:4718  _approve(owner, spender, amount) */\n      jump\t// in\n    tag_109:\n        /* \"Desktop/web3/ERC20/AREVEAToken/ERC20.sol\":4736:4740  true */\n      0x01\n        /* \"Desktop/web3/ERC20/AREVEAToken/ERC20.sol\":4729:4740  return true */\n      swap2\n      pop\n      pop\n        /* \"Desktop/web3/ERC20/AREVEAToken/ERC20.sol\":4547:4748  function approve(address spender, uint256 amount) public virtual override returns (bool) {\r... */\n      swap3\n      swap2\n      pop\n      pop\n      jump\t// out\n        /* \"Desktop/web3/ERC20/AREVEAToken/AREVEAToken.sol\":2164:2272  function totalSupply() public view virtual override returns (uint256) {\r... */\n    tag_36:\n        /* \"Desktop/web3/ERC20/AREVEAToken/AREVEAToken.sol\":2225:2232  uint256 */\n      0x00\n        /* \"Desktop/web3/ERC20/AREVEAToken/AREVEAToken.sol\":2252:2264  _totalSupply */\n      sload(0x09)\n        /* \"Desktop/web3/ERC20/AREVEAToken/AREVEAToken.sol\":2245:2264  return _totalSupply */\n      swap1\n      pop\n        /* \"Desktop/web3/ERC20/AREVEAToken/AREVEAToken.sol\":2164:2272  function totalSupply() public view virtual override returns (uint256) {\r... */\n      swap1\n      jump\t// out\n        /* \"Desktop/web3/ERC20/AREVEAToken/ERC20.sol\":5328:5623  function transferFrom(\r... */\n    tag_42:\n        /* \"Desktop/web3/ERC20/AREVEAToken/ERC20.sol\":5459:5463  bool */\n      0x00\n        /* \"Desktop/web3/ERC20/AREVEAToken/ERC20.sol\":5476:5491  address spender */\n      dup1\n        /* \"Desktop/web3/ERC20/AREVEAToken/ERC20.sol\":5494:5506  _msgSender() */\n      tag_113\n        /* \"Desktop/web3/ERC20/AREVEAToken/ERC20.sol\":5494:5504  _msgSender */\n      tag_108\n        /* \"Desktop/web3/ERC20/AREVEAToken/ERC20.sol\":5494:5506  _msgSender() */\n      jump\t// in\n    tag_113:\n        /* \"Desktop/web3/ERC20/AREVEAToken/ERC20.sol\":5476:5506  address spender = _msgSender() */\n      swap1\n      pop\n        /* \"Desktop/web3/ERC20/AREVEAToken/ERC20.sol\":5517:5555  _spendAllowance(from, spender, amount) */\n      tag_114\n        /* \"Desktop/web3/ERC20/AREVEAToken/ERC20.sol\":5533:5537  from */\n      dup6\n        /* \"Desktop/web3/ERC20/AREVEAToken/ERC20.sol\":5539:5546  spender */\n      dup3\n        /* \"Desktop/web3/ERC20/AREVEAToken/ERC20.sol\":5548:5554  amount */\n      dup6\n        /* \"Desktop/web3/ERC20/AREVEAToken/ERC20.sol\":5517:5532  _spendAllowance */\n      tag_115\n        /* \"Desktop/web3/ERC20/AREVEAToken/ERC20.sol\":5517:5555  _spendAllowance(from, spender, amount) */\n      jump\t// in\n    tag_114:\n        /* \"Desktop/web3/ERC20/AREVEAToken/ERC20.sol\":5566:5593  _transfer(from, to, amount) */\n      tag_116\n        /* \"Desktop/web3/ERC20/AREVEAToken/ERC20.sol\":5576:5580  from */\n      dup6\n        /* \"Desktop/web3/ERC20/AREVEAToken/ERC20.sol\":5582:5584  to */\n      dup6\n        /* \"Desktop/web3/ERC20/AREVEAToken/ERC20.sol\":5586:5592  amount */\n      dup6\n        /* \"Desktop/web3/ERC20/AREVEAToken/ERC20.sol\":5566:5575  _transfer */\n      tag_117\n        /* \"Desktop/web3/ERC20/AREVEAToken/ERC20.sol\":5566:5593  _transfer(from, to, amount) */\n      jump\t// in\n    tag_116:\n        /* \"Desktop/web3/ERC20/AREVEAToken/ERC20.sol\":5611:5615  true */\n      0x01\n        /* \"Desktop/web3/ERC20/AREVEAToken/ERC20.sol\":5604:5615  return true */\n      swap2\n      pop\n      pop\n        /* \"Desktop/web3/ERC20/AREVEAToken/ERC20.sol\":5328:5623  function transferFrom(\r... */\n      swap4\n      swap3\n      pop\n      pop\n      pop\n      jump\t// out\n        /* \"Desktop/web3/ERC20/AREVEAToken/ERC20.sol\":3158:3251  function decimals() public view virtual override returns (uint8) {\r... */\n    tag_45:\n        /* \"Desktop/web3/ERC20/AREVEAToken/ERC20.sol\":3216:3221  uint8 */\n      0x00\n        /* \"Desktop/web3/ERC20/AREVEAToken/ERC20.sol\":3241:3243  18 */\n      0x12\n        /* \"Desktop/web3/ERC20/AREVEAToken/ERC20.sol\":3234:3243  return 18 */\n      swap1\n      pop\n        /* \"Desktop/web3/ERC20/AREVEAToken/ERC20.sol\":3158:3251  function decimals() public view virtual override returns (uint8) {\r... */\n      swap1\n      jump\t// out\n        /* \"Desktop/web3/ERC20/AREVEAToken/AREVEAToken.sol\":1007:1043  uint8 public constant _decimals = 18 */\n    tag_49:\n        /* \"Desktop/web3/ERC20/AREVEAToken/AREVEAToken.sol\":1041:1043  18 */\n      0x12\n        /* \"Desktop/web3/ERC20/AREVEAToken/AREVEAToken.sol\":1007:1043  uint8 public constant _decimals = 18 */\n      dup2\n      jump\t// out\n        /* \"Desktop/web3/ERC20/AREVEAToken/AREVEAToken.sol\":2362:2465  function initialSupply() public view virtual returns (uint256) {\r... */\n    tag_52:\n        /* \"Desktop/web3/ERC20/AREVEAToken/AREVEAToken.sol\":2416:2423  uint256 */\n      0x00\n        /* \"Desktop/web3/ERC20/AREVEAToken/AREVEAToken.sol\":1041:1043  18 */\n      0x12\n        /* \"Desktop/web3/ERC20/AREVEAToken/AREVEAToken.sol\":1136:1154  uint256(_decimals) */\n      0xff\n      and\n        /* \"Desktop/web3/ERC20/AREVEAToken/AREVEAToken.sol\":1130:1132  10 */\n      0x0a\n        /* \"Desktop/web3/ERC20/AREVEAToken/AREVEAToken.sol\":1130:1154  10 ** uint256(_decimals) */\n      tag_120\n      swap2\n      swap1\n      tag_121\n      jump\t// in\n    tag_120:\n        /* \"Desktop/web3/ERC20/AREVEAToken/AREVEAToken.sol\":1119:1126  1000000 */\n      0x0f4240\n        /* \"Desktop/web3/ERC20/AREVEAToken/AREVEAToken.sol\":1119:1155  1000000 * (10 ** uint256(_decimals)) */\n      tag_122\n      swap2\n      swap1\n      tag_123\n      jump\t// in\n    tag_122:\n        /* \"Desktop/web3/ERC20/AREVEAToken/AREVEAToken.sol\":2436:2457  return _initialSupply */\n      swap1\n      pop\n        /* \"Desktop/web3/ERC20/AREVEAToken/AREVEAToken.sol\":2362:2465  function initialSupply() public view virtual returns (uint256) {\r... */\n      swap1\n      jump\t// out\n        /* \"Desktop/web3/ERC20/AREVEAToken/ERC20.sol\":6032:6270  function increaseAllowance(address spender, uint256 addedValue) public virtual returns (bool) {\r... */\n    tag_56:\n        /* \"Desktop/web3/ERC20/AREVEAToken/ERC20.sol\":6120:6124  bool */\n      0x00\n        /* \"Desktop/web3/ERC20/AREVEAToken/ERC20.sol\":6137:6150  address owner */\n      dup1\n        /* \"Desktop/web3/ERC20/AREVEAToken/ERC20.sol\":6153:6165  _msgSender() */\n      tag_125\n        /* \"Desktop/web3/ERC20/AREVEAToken/ERC20.sol\":6153:6163  _msgSender */\n      tag_108\n        /* \"Desktop/web3/ERC20/AREVEAToken/ERC20.sol\":6153:6165  _msgSender() */\n      jump\t// in\n    tag_125:\n        /* \"Desktop/web3/ERC20/AREVEAToken/ERC20.sol\":6137:6165  address owner = _msgSender() */\n      swap1\n      pop\n        /* \"Desktop/web3/ERC20/AREVEAToken/ERC20.sol\":6176:6240  _approve(owner, spender, allowance(owner, spender) + addedValue) */\n      tag_126\n        /* \"Desktop/web3/ERC20/AREVEAToken/ERC20.sol\":6185:6190  owner */\n      dup2\n        /* \"Desktop/web3/ERC20/AREVEAToken/ERC20.sol\":6192:6199  spender */\n      dup6\n        /* \"Desktop/web3/ERC20/AREVEAToken/ERC20.sol\":6229:6239  addedValue */\n      dup6\n        /* \"Desktop/web3/ERC20/AREVEAToken/ERC20.sol\":6201:6226  allowance(owner, spender) */\n      tag_127\n        /* \"Desktop/web3/ERC20/AREVEAToken/ERC20.sol\":6211:6216  owner */\n      dup6\n        /* \"Desktop/web3/ERC20/AREVEAToken/ERC20.sol\":6218:6225  spender */\n      dup10\n        /* \"Desktop/web3/ERC20/AREVEAToken/ERC20.sol\":6201:6210  allowance */\n      tag_93\n        /* \"Desktop/web3/ERC20/AREVEAToken/ERC20.sol\":6201:6226  allowance(owner, spender) */\n      jump\t// in\n    tag_127:\n        /* \"Desktop/web3/ERC20/AREVEAToken/ERC20.sol\":6201:6239  allowance(owner, spender) + addedValue */\n      tag_128\n      swap2\n      swap1\n      tag_129\n      jump\t// in\n    tag_128:\n        /* \"Desktop/web3/ERC20/AREVEAToken/ERC20.sol\":6176:6184  _approve */\n      tag_110\n        /* \"Desktop/web3/ERC20/AREVEAToken/ERC20.sol\":6176:6240  _approve(owner, spender, allowance(owner, spender) + addedValue) */\n      jump\t// in\n    tag_126:\n        /* \"Desktop/web3/ERC20/AREVEAToken/ERC20.sol\":6258:6262  true */\n      0x01\n        /* \"Desktop/web3/ERC20/AREVEAToken/ERC20.sol\":6251:6262  return true */\n      swap2\n      pop\n      pop\n        /* \"Desktop/web3/ERC20/AREVEAToken/ERC20.sol\":6032:6270  function increaseAllowance(address spender, uint256 addedValue) public virtual returns (bool) {\r... */\n      swap3\n      swap2\n      pop\n      pop\n      jump\t// out\n        /* \"Desktop/web3/ERC20/AREVEAToken/AREVEAToken.sol\":1980:2077  function maximusupply() public view virtual returns (uint256) {\r... */\n    tag_59:\n        /* \"Desktop/web3/ERC20/AREVEAToken/AREVEAToken.sol\":2033:2040  uint256 */\n      0x00\n        /* \"Desktop/web3/ERC20/AREVEAToken/AREVEAToken.sol\":2056:2069  _maximusupply */\n      sload(0x0a)\n        /* \"Desktop/web3/ERC20/AREVEAToken/AREVEAToken.sol\":2049:2069  return _maximusupply */\n      swap1\n      pop\n        /* \"Desktop/web3/ERC20/AREVEAToken/AREVEAToken.sol\":1980:2077  function maximusupply() public view virtual returns (uint256) {\r... */\n      swap1\n      jump\t// out\n        /* \"Desktop/web3/ERC20/AREVEAToken/AREVEAToken.sol\":2771:3325  function mint(address account, uint256 amount) public  onlyOwner  {\r... */\n    tag_63:\n        /* \"Desktop/web3/ERC20/AREVEAToken/Ownable.sol\":1107:1120  _checkOwner() */\n      tag_132\n        /* \"Desktop/web3/ERC20/AREVEAToken/Ownable.sol\":1107:1118  _checkOwner */\n      tag_133\n        /* \"Desktop/web3/ERC20/AREVEAToken/Ownable.sol\":1107:1120  _checkOwner() */\n      jump\t// in\n    tag_132:\n        /* \"Desktop/web3/ERC20/AREVEAToken/AREVEAToken.sol\":2875:2876  0 */\n      0x00\n        /* \"Desktop/web3/ERC20/AREVEAToken/AREVEAToken.sol\":2856:2877  account != address(0) */\n      0xffffffffffffffffffffffffffffffffffffffff\n      and\n        /* \"Desktop/web3/ERC20/AREVEAToken/AREVEAToken.sol\":2856:2863  account */\n      dup3\n        /* \"Desktop/web3/ERC20/AREVEAToken/AREVEAToken.sol\":2856:2877  account != address(0) */\n      0xffffffffffffffffffffffffffffffffffffffff\n      and\n      eq\n      iszero\n        /* \"Desktop/web3/ERC20/AREVEAToken/AREVEAToken.sol\":2848:2913  require(account != address(0), \"ERC20: mint to the zero address\") */\n      tag_135\n      jumpi\n      mload(0x40)\n      0x08c379a000000000000000000000000000000000000000000000000000000000\n      dup2\n      mstore\n      0x04\n      add\n      tag_136\n      swap1\n      tag_137\n      jump\t// in\n    tag_136:\n      mload(0x40)\n      dup1\n      swap2\n      sub\n      swap1\n      revert\n    tag_135:\n        /* \"Desktop/web3/ERC20/AREVEAToken/AREVEAToken.sol\":2961:2974  _maximusupply */\n      sload(0x0a)\n        /* \"Desktop/web3/ERC20/AREVEAToken/AREVEAToken.sol\":2932:2957  totalSupply().add(amount) */\n      tag_138\n        /* \"Desktop/web3/ERC20/AREVEAToken/AREVEAToken.sol\":2950:2956  amount */\n      dup3\n        /* \"Desktop/web3/ERC20/AREVEAToken/AREVEAToken.sol\":2932:2945  totalSupply() */\n      tag_139\n        /* \"Desktop/web3/ERC20/AREVEAToken/AREVEAToken.sol\":2932:2943  totalSupply */\n      tag_36\n        /* \"Desktop/web3/ERC20/AREVEAToken/AREVEAToken.sol\":2932:2945  totalSupply() */\n      jump\t// in\n    tag_139:\n        /* \"Desktop/web3/ERC20/AREVEAToken/AREVEAToken.sol\":2932:2949  totalSupply().add */\n      tag_98\n      swap1\n        /* \"Desktop/web3/ERC20/AREVEAToken/AREVEAToken.sol\":2932:2957  totalSupply().add(amount) */\n      swap2\n      swap1\n      0xffffffff\n      and\n      jump\t// in\n    tag_138:\n        /* \"Desktop/web3/ERC20/AREVEAToken/AREVEAToken.sol\":2932:2974  totalSupply().add(amount) <= _maximusupply */\n      gt\n      iszero\n        /* \"Desktop/web3/ERC20/AREVEAToken/AREVEAToken.sol\":2924:3000  require(totalSupply().add(amount) <= _maximusupply,\"Maximum supply reached\") */\n      tag_140\n      jumpi\n      mload(0x40)\n      0x08c379a000000000000000000000000000000000000000000000000000000000\n      dup2\n      mstore\n      0x04\n      add\n      tag_141\n      swap1\n      tag_142\n      jump\t// in\n    tag_141:\n      mload(0x40)\n      dup1\n      swap2\n      sub\n      swap1\n      revert\n    tag_140:\n        /* \"Desktop/web3/ERC20/AREVEAToken/AREVEAToken.sol\":3011:3033  _mint(account, amount) */\n      tag_143\n        /* \"Desktop/web3/ERC20/AREVEAToken/AREVEAToken.sol\":3017:3024  account */\n      dup3\n        /* \"Desktop/web3/ERC20/AREVEAToken/AREVEAToken.sol\":3026:3032  amount */\n      dup3\n        /* \"Desktop/web3/ERC20/AREVEAToken/AREVEAToken.sol\":3011:3016  _mint */\n      tag_144\n        /* \"Desktop/web3/ERC20/AREVEAToken/AREVEAToken.sol\":3011:3033  _mint(account, amount) */\n      jump\t// in\n    tag_143:\n        /* \"Desktop/web3/ERC20/AREVEAToken/AREVEAToken.sol\":3044:3093  _beforeTokenTransfer(address(0), account, amount) */\n      tag_145\n        /* \"Desktop/web3/ERC20/AREVEAToken/AREVEAToken.sol\":3073:3074  0 */\n      0x00\n        /* \"Desktop/web3/ERC20/AREVEAToken/AREVEAToken.sol\":3077:3084  account */\n      dup4\n        /* \"Desktop/web3/ERC20/AREVEAToken/AREVEAToken.sol\":3086:3092  amount */\n      dup4\n        /* \"Desktop/web3/ERC20/AREVEAToken/AREVEAToken.sol\":3044:3064  _beforeTokenTransfer */\n      tag_146\n        /* \"Desktop/web3/ERC20/AREVEAToken/AREVEAToken.sol\":3044:3093  _beforeTokenTransfer(address(0), account, amount) */\n      jump\t// in\n    tag_145:\n        /* \"Desktop/web3/ERC20/AREVEAToken/AREVEAToken.sol\":3119:3143  _totalSupply.add(amount) */\n      tag_147\n        /* \"Desktop/web3/ERC20/AREVEAToken/AREVEAToken.sol\":3136:3142  amount */\n      dup2\n        /* \"Desktop/web3/ERC20/AREVEAToken/AREVEAToken.sol\":3119:3131  _totalSupply */\n      sload(0x09)\n        /* \"Desktop/web3/ERC20/AREVEAToken/AREVEAToken.sol\":3119:3135  _totalSupply.add */\n      tag_98\n      swap1\n        /* \"Desktop/web3/ERC20/AREVEAToken/AREVEAToken.sol\":3119:3143  _totalSupply.add(amount) */\n      swap2\n      swap1\n      0xffffffff\n      and\n      jump\t// in\n    tag_147:\n        /* \"Desktop/web3/ERC20/AREVEAToken/AREVEAToken.sol\":3104:3116  _totalSupply */\n      0x09\n        /* \"Desktop/web3/ERC20/AREVEAToken/AREVEAToken.sol\":3104:3143  _totalSupply = _totalSupply.add(amount) */\n      dup2\n      swap1\n      sstore\n      pop\n        /* \"Desktop/web3/ERC20/AREVEAToken/AREVEAToken.sol\":3175:3205  _balances[account].add(amount) */\n      tag_148\n        /* \"Desktop/web3/ERC20/AREVEAToken/AREVEAToken.sol\":3198:3204  amount */\n      dup2\n        /* \"Desktop/web3/ERC20/AREVEAToken/AREVEAToken.sol\":3175:3184  _balances */\n      0x06\n        /* \"Desktop/web3/ERC20/AREVEAToken/AREVEAToken.sol\":3175:3193  _balances[account] */\n      0x00\n        /* \"Desktop/web3/ERC20/AREVEAToken/AREVEAToken.sol\":3185:3192  account */\n      dup6\n        /* \"Desktop/web3/ERC20/AREVEAToken/AREVEAToken.sol\":3175:3193  _balances[account] */\n      0xffffffffffffffffffffffffffffffffffffffff\n      and\n      0xffffffffffffffffffffffffffffffffffffffff\n      and\n      dup2\n      mstore\n      0x20\n      add\n      swap1\n      dup2\n      mstore\n      0x20\n      add\n      0x00\n      keccak256\n      sload\n        /* \"Desktop/web3/ERC20/AREVEAToken/AREVEAToken.sol\":3175:3197  _balances[account].add */\n      tag_98\n      swap1\n        /* \"Desktop/web3/ERC20/AREVEAToken/AREVEAToken.sol\":3175:3205  _balances[account].add(amount) */\n      swap2\n      swap1\n      0xffffffff\n      and\n      jump\t// in\n    tag_148:\n        /* \"Desktop/web3/ERC20/AREVEAToken/AREVEAToken.sol\":3154:3163  _balances */\n      0x06\n        /* \"Desktop/web3/ERC20/AREVEAToken/AREVEAToken.sol\":3154:3172  _balances[account] */\n      0x00\n        /* \"Desktop/web3/ERC20/AREVEAToken/AREVEAToken.sol\":3164:3171  account */\n      dup5\n        /* \"Desktop/web3/ERC20/AREVEAToken/AREVEAToken.sol\":3154:3172  _balances[account] */\n      0xffffffffffffffffffffffffffffffffffffffff\n      and\n      0xffffffffffffffffffffffffffffffffffffffff\n      and\n      dup2\n      mstore\n      0x20\n      add\n      swap1\n      dup2\n      mstore\n      0x20\n      add\n      0x00\n      keccak256\n        /* \"Desktop/web3/ERC20/AREVEAToken/AREVEAToken.sol\":3154:3205  _balances[account] = _balances[account].add(amount) */\n      dup2\n      swap1\n      sstore\n      pop\n        /* \"Desktop/web3/ERC20/AREVEAToken/AREVEAToken.sol\":3242:3249  account */\n      dup2\n        /* \"Desktop/web3/ERC20/AREVEAToken/AREVEAToken.sol\":3221:3258  Transfer(address(0), account, amount) */\n      0xffffffffffffffffffffffffffffffffffffffff\n      and\n        /* \"Desktop/web3/ERC20/AREVEAToken/AREVEAToken.sol\":3238:3239  0 */\n      0x00\n        /* \"Desktop/web3/ERC20/AREVEAToken/AREVEAToken.sol\":3221:3258  Transfer(address(0), account, amount) */\n      0xffffffffffffffffffffffffffffffffffffffff\n      and\n      0xddf252ad1be2c89b69c2b068fc378daa952ba7f163c4a11628f55a4df523b3ef\n        /* \"Desktop/web3/ERC20/AREVEAToken/AREVEAToken.sol\":3251:3257  amount */\n      dup4\n        /* \"Desktop/web3/ERC20/AREVEAToken/AREVEAToken.sol\":3221:3258  Transfer(address(0), account, amount) */\n      mload(0x40)\n      tag_149\n      swap2\n      swap1\n      tag_38\n      jump\t// in\n    tag_149:\n      mload(0x40)\n      dup1\n      swap2\n      sub\n      swap1\n      log3\n        /* \"Desktop/web3/ERC20/AREVEAToken/AREVEAToken.sol\":3269:3317  _afterTokenTransfer(address(0), account, amount) */\n      tag_150\n        /* \"Desktop/web3/ERC20/AREVEAToken/AREVEAToken.sol\":3297:3298  0 */\n      0x00\n        /* \"Desktop/web3/ERC20/AREVEAToken/AREVEAToken.sol\":3301:3308  account */\n      dup4\n        /* \"Desktop/web3/ERC20/AREVEAToken/AREVEAToken.sol\":3310:3316  amount */\n      dup4\n        /* \"Desktop/web3/ERC20/AREVEAToken/AREVEAToken.sol\":3269:3288  _afterTokenTransfer */\n      tag_151\n        /* \"Desktop/web3/ERC20/AREVEAToken/AREVEAToken.sol\":3269:3317  _afterTokenTransfer(address(0), account, amount) */\n      jump\t// in\n    tag_150:\n        /* \"Desktop/web3/ERC20/AREVEAToken/AREVEAToken.sol\":2771:3325  function mint(address account, uint256 amount) public  onlyOwner  {\r... */\n      pop\n      pop\n      jump\t// out\n        /* \"Desktop/web3/ERC20/AREVEAToken/ERC20.sol\":3487:3614  function balanceOf(address account) public view virtual override returns (uint256) {\r... */\n    tag_67:\n        /* \"Desktop/web3/ERC20/AREVEAToken/ERC20.sol\":3561:3568  uint256 */\n      0x00\n        /* \"Desktop/web3/ERC20/AREVEAToken/ERC20.sol\":3588:3597  _balances */\n      dup1\n        /* \"Desktop/web3/ERC20/AREVEAToken/ERC20.sol\":3588:3606  _balances[account] */\n      0x00\n        /* \"Desktop/web3/ERC20/AREVEAToken/ERC20.sol\":3598:3605  account */\n      dup4\n        /* \"Desktop/web3/ERC20/AREVEAToken/ERC20.sol\":3588:3606  _balances[account] */\n      0xffffffffffffffffffffffffffffffffffffffff\n      and\n      0xffffffffffffffffffffffffffffffffffffffff\n      and\n      dup2\n      mstore\n      0x20\n      add\n      swap1\n      dup2\n      mstore\n      0x20\n      add\n      0x00\n      keccak256\n      sload\n        /* \"Desktop/web3/ERC20/AREVEAToken/ERC20.sol\":3581:3606  return _balances[account] */\n      swap1\n      pop\n        /* \"Desktop/web3/ERC20/AREVEAToken/ERC20.sol\":3487:3614  function balanceOf(address account) public view virtual override returns (uint256) {\r... */\n      swap2\n      swap1\n      pop\n      jump\t// out\n        /* \"Desktop/web3/ERC20/AREVEAToken/AREVEAToken.sol\":3434:3927  function burnFrom(address account, uint256 amount) public virtual    {\r... */\n    tag_71:\n        /* \"Desktop/web3/ERC20/AREVEAToken/AREVEAToken.sol\":3541:3542  0 */\n      0x00\n        /* \"Desktop/web3/ERC20/AREVEAToken/AREVEAToken.sol\":3522:3543  account != address(0) */\n      0xffffffffffffffffffffffffffffffffffffffff\n      and\n        /* \"Desktop/web3/ERC20/AREVEAToken/AREVEAToken.sol\":3522:3529  account */\n      dup3\n        /* \"Desktop/web3/ERC20/AREVEAToken/AREVEAToken.sol\":3522:3543  account != address(0) */\n      0xffffffffffffffffffffffffffffffffffffffff\n      and\n      eq\n      iszero\n        /* \"Desktop/web3/ERC20/AREVEAToken/AREVEAToken.sol\":3514:3579  require(account != address(0), \"ERC20: mint to the zero address\") */\n      tag_154\n      jumpi\n      mload(0x40)\n      0x08c379a000000000000000000000000000000000000000000000000000000000\n      dup2\n      mstore\n      0x04\n      add\n      tag_155\n      swap1\n      tag_137\n      jump\t// in\n    tag_155:\n      mload(0x40)\n      dup1\n      swap2\n      sub\n      swap1\n      revert\n    tag_154:\n        /* \"Desktop/web3/ERC20/AREVEAToken/AREVEAToken.sol\":3652:3674  _burn(account, amount) */\n      tag_156\n        /* \"Desktop/web3/ERC20/AREVEAToken/AREVEAToken.sol\":3658:3665  account */\n      dup3\n        /* \"Desktop/web3/ERC20/AREVEAToken/AREVEAToken.sol\":3667:3673  amount */\n      dup3\n        /* \"Desktop/web3/ERC20/AREVEAToken/AREVEAToken.sol\":3652:3657  _burn */\n      tag_157\n        /* \"Desktop/web3/ERC20/AREVEAToken/AREVEAToken.sol\":3652:3674  _burn(account, amount) */\n      jump\t// in\n    tag_156:\n        /* \"Desktop/web3/ERC20/AREVEAToken/AREVEAToken.sol\":3685:3734  _beforeTokenTransfer(address(0), account, amount) */\n      tag_158\n        /* \"Desktop/web3/ERC20/AREVEAToken/AREVEAToken.sol\":3714:3715  0 */\n      0x00\n        /* \"Desktop/web3/ERC20/AREVEAToken/AREVEAToken.sol\":3718:3725  account */\n      dup4\n        /* \"Desktop/web3/ERC20/AREVEAToken/AREVEAToken.sol\":3727:3733  amount */\n      dup4\n        /* \"Desktop/web3/ERC20/AREVEAToken/AREVEAToken.sol\":3685:3705  _beforeTokenTransfer */\n      tag_146\n        /* \"Desktop/web3/ERC20/AREVEAToken/AREVEAToken.sol\":3685:3734  _beforeTokenTransfer(address(0), account, amount) */\n      jump\t// in\n    tag_158:\n        /* \"Desktop/web3/ERC20/AREVEAToken/AREVEAToken.sol\":3761:3767  amount */\n      dup1\n        /* \"Desktop/web3/ERC20/AREVEAToken/AREVEAToken.sol\":3745:3757  _totalSupply */\n      0x09\n      0x00\n        /* \"Desktop/web3/ERC20/AREVEAToken/AREVEAToken.sol\":3745:3767  _totalSupply -= amount */\n      dup3\n      dup3\n      sload\n      tag_159\n      swap2\n      swap1\n      tag_160\n      jump\t// in\n    tag_159:\n      swap3\n      pop\n      pop\n      dup2\n      swap1\n      sstore\n      pop\n        /* \"Desktop/web3/ERC20/AREVEAToken/AREVEAToken.sol\":3800:3806  amount */\n      dup1\n        /* \"Desktop/web3/ERC20/AREVEAToken/AREVEAToken.sol\":3778:3787  _balances */\n      0x06\n        /* \"Desktop/web3/ERC20/AREVEAToken/AREVEAToken.sol\":3778:3796  _balances[account] */\n      0x00\n        /* \"Desktop/web3/ERC20/AREVEAToken/AREVEAToken.sol\":3788:3795  account */\n      dup5\n        /* \"Desktop/web3/ERC20/AREVEAToken/AREVEAToken.sol\":3778:3796  _balances[account] */\n      0xffffffffffffffffffffffffffffffffffffffff\n      and\n      0xffffffffffffffffffffffffffffffffffffffff\n      and\n      dup2\n      mstore\n      0x20\n      add\n      swap1\n      dup2\n      mstore\n      0x20\n      add\n      0x00\n      keccak256\n      0x00\n        /* \"Desktop/web3/ERC20/AREVEAToken/AREVEAToken.sol\":3778:3806  _balances[account] -= amount */\n      dup3\n      dup3\n      sload\n      tag_161\n      swap2\n      swap1\n      tag_160\n      jump\t// in\n    tag_161:\n      swap3\n      pop\n      pop\n      dup2\n      swap1\n      sstore\n      pop\n        /* \"Desktop/web3/ERC20/AREVEAToken/AREVEAToken.sol\":3843:3850  account */\n      dup2\n        /* \"Desktop/web3/ERC20/AREVEAToken/AREVEAToken.sol\":3822:3859  Transfer(address(0), account, amount) */\n      0xffffffffffffffffffffffffffffffffffffffff\n      and\n        /* \"Desktop/web3/ERC20/AREVEAToken/AREVEAToken.sol\":3839:3840  0 */\n      0x00\n        /* \"Desktop/web3/ERC20/AREVEAToken/AREVEAToken.sol\":3822:3859  Transfer(address(0), account, amount) */\n      0xffffffffffffffffffffffffffffffffffffffff\n      and\n      0xddf252ad1be2c89b69c2b068fc378daa952ba7f163c4a11628f55a4df523b3ef\n        /* \"Desktop/web3/ERC20/AREVEAToken/AREVEAToken.sol\":3852:3858  amount */\n      dup4\n        /* \"Desktop/web3/ERC20/AREVEAToken/AREVEAToken.sol\":3822:3859  Transfer(address(0), account, amount) */\n      mload(0x40)\n      tag_162\n      swap2\n      swap1\n      tag_38\n      jump\t// in\n    tag_162:\n      mload(0x40)\n      dup1\n      swap2\n      sub\n      swap1\n      log3\n        /* \"Desktop/web3/ERC20/AREVEAToken/AREVEAToken.sol\":3870:3918  _afterTokenTransfer(address(0), account, amount) */\n      tag_163\n        /* \"Desktop/web3/ERC20/AREVEAToken/AREVEAToken.sol\":3898:3899  0 */\n      0x00\n        /* \"Desktop/web3/ERC20/AREVEAToken/AREVEAToken.sol\":3902:3909  account */\n      dup4\n        /* \"Desktop/web3/ERC20/AREVEAToken/AREVEAToken.sol\":3911:3917  amount */\n      dup4\n        /* \"Desktop/web3/ERC20/AREVEAToken/AREVEAToken.sol\":3870:3889  _afterTokenTransfer */\n      tag_151\n        /* \"Desktop/web3/ERC20/AREVEAToken/AREVEAToken.sol\":3870:3918  _afterTokenTransfer(address(0), account, amount) */\n      jump\t// in\n    tag_163:\n        /* \"Desktop/web3/ERC20/AREVEAToken/AREVEAToken.sol\":3434:3927  function burnFrom(address account, uint256 amount) public virtual    {\r... */\n      pop\n      pop\n      jump\t// out\n        /* \"Desktop/web3/ERC20/AREVEAToken/Ownable.sol\":1221:1308  function owner() public view virtual returns (address) {\r... */\n    tag_73:\n        /* \"Desktop/web3/ERC20/AREVEAToken/Ownable.sol\":1267:1274  address */\n      0x00\n        /* \"Desktop/web3/ERC20/AREVEAToken/Ownable.sol\":1294:1300  _owner */\n      0x05\n      0x00\n      swap1\n      sload\n      swap1\n      0x0100\n      exp\n      swap1\n      div\n      0xffffffffffffffffffffffffffffffffffffffff\n      and\n        /* \"Desktop/web3/ERC20/AREVEAToken/Ownable.sol\":1287:1300  return _owner */\n      swap1\n      pop\n        /* \"Desktop/web3/ERC20/AREVEAToken/Ownable.sol\":1221:1308  function owner() public view virtual returns (address) {\r... */\n      swap1\n      jump\t// out\n        /* \"Desktop/web3/ERC20/AREVEAToken/ERC20.sol\":2415:2519  function symbol() public view virtual override returns (string memory) {\r... */\n    tag_77:\n        /* \"Desktop/web3/ERC20/AREVEAToken/ERC20.sol\":2471:2484  string memory */\n      0x60\n        /* \"Desktop/web3/ERC20/AREVEAToken/ERC20.sol\":2504:2511  _symbol */\n      0x04\n        /* \"Desktop/web3/ERC20/AREVEAToken/ERC20.sol\":2497:2511  return _symbol */\n      dup1\n      sload\n      tag_166\n      swap1\n      tag_101\n      jump\t// in\n    tag_166:\n      dup1\n      0x1f\n      add\n      0x20\n      dup1\n      swap2\n      div\n      mul\n      0x20\n      add\n      mload(0x40)\n      swap1\n      dup2\n      add\n      0x40\n      mstore\n      dup1\n      swap3\n      swap2\n      swap1\n      dup2\n      dup2\n      mstore\n      0x20\n      add\n      dup3\n      dup1\n      sload\n      tag_167\n      swap1\n      tag_101\n      jump\t// in\n    tag_167:\n      dup1\n      iszero\n      tag_168\n      jumpi\n      dup1\n      0x1f\n      lt\n      tag_169\n      jumpi\n      0x0100\n      dup1\n      dup4\n      sload\n      div\n      mul\n      dup4\n      mstore\n      swap2\n      0x20\n      add\n      swap2\n      jump(tag_168)\n    tag_169:\n      dup3\n      add\n      swap2\n      swap1\n      0x00\n      mstore\n      keccak256(0x00, 0x20)\n      swap1\n    tag_170:\n      dup2\n      sload\n      dup2\n      mstore\n      swap1\n      0x01\n      add\n      swap1\n      0x20\n      add\n      dup1\n      dup4\n      gt\n      tag_170\n      jumpi\n      dup3\n      swap1\n      sub\n      0x1f\n      and\n      dup3\n      add\n      swap2\n    tag_168:\n      pop\n      pop\n      pop\n      pop\n      pop\n      swap1\n      pop\n        /* \"Desktop/web3/ERC20/AREVEAToken/ERC20.sol\":2415:2519  function symbol() public view virtual override returns (string memory) {\r... */\n      swap1\n      jump\t// out\n        /* \"Desktop/web3/ERC20/AREVEAToken/ERC20.sol\":6773:7209  function decreaseAllowance(address spender, uint256 subtractedValue) public virtual returns (bool) {\r... */\n    tag_81:\n        /* \"Desktop/web3/ERC20/AREVEAToken/ERC20.sol\":6866:6870  bool */\n      0x00\n        /* \"Desktop/web3/ERC20/AREVEAToken/ERC20.sol\":6883:6896  address owner */\n      dup1\n        /* \"Desktop/web3/ERC20/AREVEAToken/ERC20.sol\":6899:6911  _msgSender() */\n      tag_172\n        /* \"Desktop/web3/ERC20/AREVEAToken/ERC20.sol\":6899:6909  _msgSender */\n      tag_108\n        /* \"Desktop/web3/ERC20/AREVEAToken/ERC20.sol\":6899:6911  _msgSender() */\n      jump\t// in\n    tag_172:\n        /* \"Desktop/web3/ERC20/AREVEAToken/ERC20.sol\":6883:6911  address owner = _msgSender() */\n      swap1\n      pop\n        /* \"Desktop/web3/ERC20/AREVEAToken/ERC20.sol\":6922:6946  uint256 currentAllowance */\n      0x00\n        /* \"Desktop/web3/ERC20/AREVEAToken/ERC20.sol\":6949:6974  allowance(owner, spender) */\n      tag_173\n        /* \"Desktop/web3/ERC20/AREVEAToken/ERC20.sol\":6959:6964  owner */\n      dup3\n        /* \"Desktop/web3/ERC20/AREVEAToken/ERC20.sol\":6966:6973  spender */\n      dup7\n        /* \"Desktop/web3/ERC20/AREVEAToken/ERC20.sol\":6949:6958  allowance */\n      tag_93\n        /* \"Desktop/web3/ERC20/AREVEAToken/ERC20.sol\":6949:6974  allowance(owner, spender) */\n      jump\t// in\n    tag_173:\n        /* \"Desktop/web3/ERC20/AREVEAToken/ERC20.sol\":6922:6974  uint256 currentAllowance = allowance(owner, spender) */\n      swap1\n      pop\n        /* \"Desktop/web3/ERC20/AREVEAToken/ERC20.sol\":7013:7028  subtractedValue */\n      dup4\n        /* \"Desktop/web3/ERC20/AREVEAToken/ERC20.sol\":6993:7009  currentAllowance */\n      dup2\n        /* \"Desktop/web3/ERC20/AREVEAToken/ERC20.sol\":6993:7028  currentAllowance >= subtractedValue */\n      lt\n      iszero\n        /* \"Desktop/web3/ERC20/AREVEAToken/ERC20.sol\":6985:7070  require(currentAllowance >= subtractedValue, \"ERC20: decreased allowance below zero\") */\n      tag_174\n      jumpi\n      mload(0x40)\n      0x08c379a000000000000000000000000000000000000000000000000000000000\n      dup2\n      mstore\n      0x04\n      add\n      tag_175\n      swap1\n      tag_176\n      jump\t// in\n    tag_175:\n      mload(0x40)\n      dup1\n      swap2\n      sub\n      swap1\n      revert\n    tag_174:\n        /* \"Desktop/web3/ERC20/AREVEAToken/ERC20.sol\":7106:7166  _approve(owner, spender, currentAllowance - subtractedValue) */\n      tag_177\n        /* \"Desktop/web3/ERC20/AREVEAToken/ERC20.sol\":7115:7120  owner */\n      dup3\n        /* \"Desktop/web3/ERC20/AREVEAToken/ERC20.sol\":7122:7129  spender */\n      dup7\n        /* \"Desktop/web3/ERC20/AREVEAToken/ERC20.sol\":7150:7165  subtractedValue */\n      dup7\n        /* \"Desktop/web3/ERC20/AREVEAToken/ERC20.sol\":7131:7147  currentAllowance */\n      dup5\n        /* \"Desktop/web3/ERC20/AREVEAToken/ERC20.sol\":7131:7165  currentAllowance - subtractedValue */\n      sub\n        /* \"Desktop/web3/ERC20/AREVEAToken/ERC20.sol\":7106:7114  _approve */\n      tag_110\n        /* \"Desktop/web3/ERC20/AREVEAToken/ERC20.sol\":7106:7166  _approve(owner, spender, currentAllowance - subtractedValue) */\n      jump\t// in\n    tag_177:\n        /* \"Desktop/web3/ERC20/AREVEAToken/ERC20.sol\":7197:7201  true */\n      0x01\n        /* \"Desktop/web3/ERC20/AREVEAToken/ERC20.sol\":7190:7201  return true */\n      swap3\n      pop\n      pop\n      pop\n        /* \"Desktop/web3/ERC20/AREVEAToken/ERC20.sol\":6773:7209  function decreaseAllowance(address spender, uint256 subtractedValue) public virtual returns (bool) {\r... */\n      swap3\n      swap2\n      pop\n      pop\n      jump\t// out\n        /* \"Desktop/web3/ERC20/AREVEAToken/ERC20.sol\":3820:4013  function transfer(address to, uint256 amount) public virtual override returns (bool) {\r... */\n    tag_85:\n        /* \"Desktop/web3/ERC20/AREVEAToken/ERC20.sol\":3899:3903  bool */\n      0x00\n        /* \"Desktop/web3/ERC20/AREVEAToken/ERC20.sol\":3916:3929  address owner */\n      dup1\n        /* \"Desktop/web3/ERC20/AREVEAToken/ERC20.sol\":3932:3944  _msgSender() */\n      tag_179\n        /* \"Desktop/web3/ERC20/AREVEAToken/ERC20.sol\":3932:3942  _msgSender */\n      tag_108\n        /* \"Desktop/web3/ERC20/AREVEAToken/ERC20.sol\":3932:3944  _msgSender() */\n      jump\t// in\n    tag_179:\n        /* \"Desktop/web3/ERC20/AREVEAToken/ERC20.sol\":3916:3944  address owner = _msgSender() */\n      swap1\n      pop\n        /* \"Desktop/web3/ERC20/AREVEAToken/ERC20.sol\":3955:3983  _transfer(owner, to, amount) */\n      tag_180\n        /* \"Desktop/web3/ERC20/AREVEAToken/ERC20.sol\":3965:3970  owner */\n      dup2\n        /* \"Desktop/web3/ERC20/AREVEAToken/ERC20.sol\":3972:3974  to */\n      dup6\n        /* \"Desktop/web3/ERC20/AREVEAToken/ERC20.sol\":3976:3982  amount */\n      dup6\n        /* \"Desktop/web3/ERC20/AREVEAToken/ERC20.sol\":3955:3964  _transfer */\n      tag_117\n        /* \"Desktop/web3/ERC20/AREVEAToken/ERC20.sol\":3955:3983  _transfer(owner, to, amount) */\n      jump\t// in\n    tag_180:\n        /* \"Desktop/web3/ERC20/AREVEAToken/ERC20.sol\":4001:4005  true */\n      0x01\n        /* \"Desktop/web3/ERC20/AREVEAToken/ERC20.sol\":3994:4005  return true */\n      swap2\n      pop\n      pop\n        /* \"Desktop/web3/ERC20/AREVEAToken/ERC20.sol\":3820:4013  function transfer(address to, uint256 amount) public virtual override returns (bool) {\r... */\n      swap3\n      swap2\n      pop\n      pop\n      jump\t// out\n        /* \"Desktop/web3/ERC20/AREVEAToken/AREVEAToken.sol\":1078:1155  uint256 public constant _initialSupply = 1000000 * (10 ** uint256(_decimals)) */\n    tag_88:\n        /* \"Desktop/web3/ERC20/AREVEAToken/AREVEAToken.sol\":1041:1043  18 */\n      0x12\n        /* \"Desktop/web3/ERC20/AREVEAToken/AREVEAToken.sol\":1136:1154  uint256(_decimals) */\n      0xff\n      and\n        /* \"Desktop/web3/ERC20/AREVEAToken/AREVEAToken.sol\":1130:1132  10 */\n      0x0a\n        /* \"Desktop/web3/ERC20/AREVEAToken/AREVEAToken.sol\":1130:1154  10 ** uint256(_decimals) */\n      tag_181\n      swap2\n      swap1\n      tag_121\n      jump\t// in\n    tag_181:\n        /* \"Desktop/web3/ERC20/AREVEAToken/AREVEAToken.sol\":1119:1126  1000000 */\n      0x0f4240\n        /* \"Desktop/web3/ERC20/AREVEAToken/AREVEAToken.sol\":1119:1155  1000000 * (10 ** uint256(_decimals)) */\n      tag_182\n      swap2\n      swap1\n      tag_123\n      jump\t// in\n    tag_182:\n        /* \"Desktop/web3/ERC20/AREVEAToken/AREVEAToken.sol\":1078:1155  uint256 public constant _initialSupply = 1000000 * (10 ** uint256(_decimals)) */\n      dup2\n      jump\t// out\n        /* \"Desktop/web3/ERC20/AREVEAToken/ERC20.sol\":4076:4227  function allowance(address owner, address spender) public view virtual override returns (uint256) {\r... */\n    tag_93:\n        /* \"Desktop/web3/ERC20/AREVEAToken/ERC20.sol\":4165:4172  uint256 */\n      0x00\n        /* \"Desktop/web3/ERC20/AREVEAToken/ERC20.sol\":4192:4203  _allowances */\n      0x01\n        /* \"Desktop/web3/ERC20/AREVEAToken/ERC20.sol\":4192:4210  _allowances[owner] */\n      0x00\n        /* \"Desktop/web3/ERC20/AREVEAToken/ERC20.sol\":4204:4209  owner */\n      dup5\n        /* \"Desktop/web3/ERC20/AREVEAToken/ERC20.sol\":4192:4210  _allowances[owner] */\n      0xffffffffffffffffffffffffffffffffffffffff\n      and\n      0xffffffffffffffffffffffffffffffffffffffff\n      and\n      dup2\n      mstore\n      0x20\n      add\n      swap1\n      dup2\n      mstore\n      0x20\n      add\n      0x00\n      keccak256\n        /* \"Desktop/web3/ERC20/AREVEAToken/ERC20.sol\":4192:4219  _allowances[owner][spender] */\n      0x00\n        /* \"Desktop/web3/ERC20/AREVEAToken/ERC20.sol\":4211:4218  spender */\n      dup4\n        /* \"Desktop/web3/ERC20/AREVEAToken/ERC20.sol\":4192:4219  _allowances[owner][spender] */\n      0xffffffffffffffffffffffffffffffffffffffff\n      and\n      0xffffffffffffffffffffffffffffffffffffffff\n      and\n      dup2\n      mstore\n      0x20\n      add\n      swap1\n      dup2\n      mstore\n      0x20\n      add\n      0x00\n      keccak256\n      sload\n        /* \"Desktop/web3/ERC20/AREVEAToken/ERC20.sol\":4185:4219  return _allowances[owner][spender] */\n      swap1\n      pop\n        /* \"Desktop/web3/ERC20/AREVEAToken/ERC20.sol\":4076:4227  function allowance(address owner, address spender) public view virtual override returns (uint256) {\r... */\n      swap3\n      swap2\n      pop\n      pop\n      jump\t// out\n        /* \"Desktop/web3/ERC20/AREVEAToken/Ownable.sol\":2136:2337  function transferOwnership(address newOwner) public virtual onlyOwner {\r... */\n    tag_97:\n        /* \"Desktop/web3/ERC20/AREVEAToken/Ownable.sol\":1107:1120  _checkOwner() */\n      tag_185\n        /* \"Desktop/web3/ERC20/AREVEAToken/Ownable.sol\":1107:1118  _checkOwner */\n      tag_133\n        /* \"Desktop/web3/ERC20/AREVEAToken/Ownable.sol\":1107:1120  _checkOwner() */\n      jump\t// in\n    tag_185:\n        /* \"Desktop/web3/ERC20/AREVEAToken/Ownable.sol\":2245:2246  0 */\n      0x00\n        /* \"Desktop/web3/ERC20/AREVEAToken/Ownable.sol\":2225:2247  newOwner != address(0) */\n      0xffffffffffffffffffffffffffffffffffffffff\n      and\n        /* \"Desktop/web3/ERC20/AREVEAToken/Ownable.sol\":2225:2233  newOwner */\n      dup2\n        /* \"Desktop/web3/ERC20/AREVEAToken/Ownable.sol\":2225:2247  newOwner != address(0) */\n      0xffffffffffffffffffffffffffffffffffffffff\n      and\n      eq\n      iszero\n        /* \"Desktop/web3/ERC20/AREVEAToken/Ownable.sol\":2217:2290  require(newOwner != address(0), \"Ownable: new owner is the zero address\") */\n      tag_187\n      jumpi\n      mload(0x40)\n      0x08c379a000000000000000000000000000000000000000000000000000000000\n      dup2\n      mstore\n      0x04\n      add\n      tag_188\n      swap1\n      tag_189\n      jump\t// in\n    tag_188:\n      mload(0x40)\n      dup1\n      swap2\n      sub\n      swap1\n      revert\n    tag_187:\n        /* \"Desktop/web3/ERC20/AREVEAToken/Ownable.sol\":2301:2329  _transferOwnership(newOwner) */\n      tag_190\n        /* \"Desktop/web3/ERC20/AREVEAToken/Ownable.sol\":2320:2328  newOwner */\n      dup2\n        /* \"Desktop/web3/ERC20/AREVEAToken/Ownable.sol\":2301:2319  _transferOwnership */\n      tag_191\n        /* \"Desktop/web3/ERC20/AREVEAToken/Ownable.sol\":2301:2329  _transferOwnership(newOwner) */\n      jump\t// in\n    tag_190:\n        /* \"Desktop/web3/ERC20/AREVEAToken/Ownable.sol\":2136:2337  function transferOwnership(address newOwner) public virtual onlyOwner {\r... */\n      pop\n      jump\t// out\n        /* \"Desktop/web3/ERC20/AREVEAToken/SafeMath.sol\":2847:2945  function add(uint256 a, uint256 b) internal pure returns (uint256) {\r... */\n    tag_98:\n        /* \"Desktop/web3/ERC20/AREVEAToken/SafeMath.sol\":2905:2912  uint256 */\n      0x00\n        /* \"Desktop/web3/ERC20/AREVEAToken/SafeMath.sol\":2936:2937  b */\n      dup2\n        /* \"Desktop/web3/ERC20/AREVEAToken/SafeMath.sol\":2932:2933  a */\n      dup4\n        /* \"Desktop/web3/ERC20/AREVEAToken/SafeMath.sol\":2932:2937  a + b */\n      tag_193\n      swap2\n      swap1\n      tag_129\n      jump\t// in\n    tag_193:\n        /* \"Desktop/web3/ERC20/AREVEAToken/SafeMath.sol\":2925:2937  return a + b */\n      swap1\n      pop\n        /* \"Desktop/web3/ERC20/AREVEAToken/SafeMath.sol\":2847:2945  function add(uint256 a, uint256 b) internal pure returns (uint256) {\r... */\n      swap3\n      swap2\n      pop\n      pop\n      jump\t// out\n        /* \"Desktop/web3/ERC20/AREVEAToken/Context.sol\":656:754  function _msgSender() internal view virtual returns (address) {\r... */\n    tag_108:\n        /* \"Desktop/web3/ERC20/AREVEAToken/Context.sol\":709:716  address */\n      0x00\n        /* \"Desktop/web3/ERC20/AREVEAToken/Context.sol\":736:746  msg.sender */\n      caller\n        /* \"Desktop/web3/ERC20/AREVEAToken/Context.sol\":729:746  return msg.sender */\n      swap1\n      pop\n        /* \"Desktop/web3/ERC20/AREVEAToken/Context.sol\":656:754  function _msgSender() internal view virtual returns (address) {\r... */\n      swap1\n      jump\t// out\n        /* \"Desktop/web3/ERC20/AREVEAToken/ERC20.sol\":10398:10778  function _approve(\r... */\n    tag_110:\n        /* \"Desktop/web3/ERC20/AREVEAToken/ERC20.sol\":10551:10552  0 */\n      0x00\n        /* \"Desktop/web3/ERC20/AREVEAToken/ERC20.sol\":10534:10553  owner != address(0) */\n      0xffffffffffffffffffffffffffffffffffffffff\n      and\n        /* \"Desktop/web3/ERC20/AREVEAToken/ERC20.sol\":10534:10539  owner */\n      dup4\n        /* \"Desktop/web3/ERC20/AREVEAToken/ERC20.sol\":10534:10553  owner != address(0) */\n      0xffffffffffffffffffffffffffffffffffffffff\n      and\n      eq\n      iszero\n        /* \"Desktop/web3/ERC20/AREVEAToken/ERC20.sol\":10526:10594  require(owner != address(0), \"ERC20: approve from the zero address\") */\n      tag_196\n      jumpi\n      mload(0x40)\n      0x08c379a000000000000000000000000000000000000000000000000000000000\n      dup2\n      mstore\n      0x04\n      add\n      tag_197\n      swap1\n      tag_198\n      jump\t// in\n    tag_197:\n      mload(0x40)\n      dup1\n      swap2\n      sub\n      swap1\n      revert\n    tag_196:\n        /* \"Desktop/web3/ERC20/AREVEAToken/ERC20.sol\":10632:10633  0 */\n      0x00\n        /* \"Desktop/web3/ERC20/AREVEAToken/ERC20.sol\":10613:10634  spender != address(0) */\n      0xffffffffffffffffffffffffffffffffffffffff\n      and\n        /* \"Desktop/web3/ERC20/AREVEAToken/ERC20.sol\":10613:10620  spender */\n      dup3\n        /* \"Desktop/web3/ERC20/AREVEAToken/ERC20.sol\":10613:10634  spender != address(0) */\n      0xffffffffffffffffffffffffffffffffffffffff\n      and\n      eq\n      iszero\n        /* \"Desktop/web3/ERC20/AREVEAToken/ERC20.sol\":10605:10673  require(spender != address(0), \"ERC20: approve to the zero address\") */\n      tag_199\n      jumpi\n      mload(0x40)\n      0x08c379a000000000000000000000000000000000000000000000000000000000\n      dup2\n      mstore\n      0x04\n      add\n      tag_200\n      swap1\n      tag_201\n      jump\t// in\n    tag_200:\n      mload(0x40)\n      dup1\n      swap2\n      sub\n      swap1\n      revert\n    tag_199:\n        /* \"Desktop/web3/ERC20/AREVEAToken/ERC20.sol\":10716:10722  amount */\n      dup1\n        /* \"Desktop/web3/ERC20/AREVEAToken/ERC20.sol\":10686:10697  _allowances */\n      0x01\n        /* \"Desktop/web3/ERC20/AREVEAToken/ERC20.sol\":10686:10704  _allowances[owner] */\n      0x00\n        /* \"Desktop/web3/ERC20/AREVEAToken/ERC20.sol\":10698:10703  owner */\n      dup6\n        /* \"Desktop/web3/ERC20/AREVEAToken/ERC20.sol\":10686:10704  _allowances[owner] */\n      0xffffffffffffffffffffffffffffffffffffffff\n      and\n      0xffffffffffffffffffffffffffffffffffffffff\n      and\n      dup2\n      mstore\n      0x20\n      add\n      swap1\n      dup2\n      mstore\n      0x20\n      add\n      0x00\n      keccak256\n        /* \"Desktop/web3/ERC20/AREVEAToken/ERC20.sol\":10686:10713  _allowances[owner][spender] */\n      0x00\n        /* \"Desktop/web3/ERC20/AREVEAToken/ERC20.sol\":10705:10712  spender */\n      dup5\n        /* \"Desktop/web3/ERC20/AREVEAToken/ERC20.sol\":10686:10713  _allowances[owner][spender] */\n      0xffffffffffffffffffffffffffffffffffffffff\n      and\n      0xffffffffffffffffffffffffffffffffffffffff\n      and\n      dup2\n      mstore\n      0x20\n      add\n      swap1\n      dup2\n      mstore\n      0x20\n      add\n      0x00\n      keccak256\n        /* \"Desktop/web3/ERC20/AREVEAToken/ERC20.sol\":10686:10722  _allowances[owner][spender] = amount */\n      dup2\n      swap1\n      sstore\n      pop\n        /* \"Desktop/web3/ERC20/AREVEAToken/ERC20.sol\":10754:10761  spender */\n      dup2\n        /* \"Desktop/web3/ERC20/AREVEAToken/ERC20.sol\":10738:10770  Approval(owner, spender, amount) */\n      0xffffffffffffffffffffffffffffffffffffffff\n      and\n        /* \"Desktop/web3/ERC20/AREVEAToken/ERC20.sol\":10747:10752  owner */\n      dup4\n        /* \"Desktop/web3/ERC20/AREVEAToken/ERC20.sol\":10738:10770  Approval(owner, spender, amount) */\n      0xffffffffffffffffffffffffffffffffffffffff\n      and\n      0x8c5be1e5ebec7d5bd14f71427d1e84f3dd0314c0f7b2291e5b200ac8c7c3b925\n        /* \"Desktop/web3/ERC20/AREVEAToken/ERC20.sol\":10763:10769  amount */\n      dup4\n        /* \"Desktop/web3/ERC20/AREVEAToken/ERC20.sol\":10738:10770  Approval(owner, spender, amount) */\n      mload(0x40)\n      tag_202\n      swap2\n      swap1\n      tag_38\n      jump\t// in\n    tag_202:\n      mload(0x40)\n      dup1\n      swap2\n      sub\n      swap1\n      log3\n        /* \"Desktop/web3/ERC20/AREVEAToken/ERC20.sol\":10398:10778  function _approve(\r... */\n      pop\n      pop\n      pop\n      jump\t// out\n        /* \"Desktop/web3/ERC20/AREVEAToken/ERC20.sol\":11069:11522  function _spendAllowance(\r... */\n    tag_115:\n        /* \"Desktop/web3/ERC20/AREVEAToken/ERC20.sol\":11204:11228  uint256 currentAllowance */\n      0x00\n        /* \"Desktop/web3/ERC20/AREVEAToken/ERC20.sol\":11231:11256  allowance(owner, spender) */\n      tag_204\n        /* \"Desktop/web3/ERC20/AREVEAToken/ERC20.sol\":11241:11246  owner */\n      dup5\n        /* \"Desktop/web3/ERC20/AREVEAToken/ERC20.sol\":11248:11255  spender */\n      dup5\n        /* \"Desktop/web3/ERC20/AREVEAToken/ERC20.sol\":11231:11240  allowance */\n      tag_93\n        /* \"Desktop/web3/ERC20/AREVEAToken/ERC20.sol\":11231:11256  allowance(owner, spender) */\n      jump\t// in\n    tag_204:\n        /* \"Desktop/web3/ERC20/AREVEAToken/ERC20.sol\":11204:11256  uint256 currentAllowance = allowance(owner, spender) */\n      swap1\n      pop\n        /* \"Desktop/web3/ERC20/AREVEAToken/ERC20.sol\":11291:11308  type(uint256).max */\n      0xffffffffffffffffffffffffffffffffffffffffffffffffffffffffffffffff\n        /* \"Desktop/web3/ERC20/AREVEAToken/ERC20.sol\":11271:11287  currentAllowance */\n      dup2\n        /* \"Desktop/web3/ERC20/AREVEAToken/ERC20.sol\":11271:11308  currentAllowance != type(uint256).max */\n      eq\n        /* \"Desktop/web3/ERC20/AREVEAToken/ERC20.sol\":11267:11515  if (currentAllowance != type(uint256).max) {\r... */\n      tag_205\n      jumpi\n        /* \"Desktop/web3/ERC20/AREVEAToken/ERC20.sol\":11353:11359  amount */\n      dup2\n        /* \"Desktop/web3/ERC20/AREVEAToken/ERC20.sol\":11333:11349  currentAllowance */\n      dup2\n        /* \"Desktop/web3/ERC20/AREVEAToken/ERC20.sol\":11333:11359  currentAllowance >= amount */\n      lt\n      iszero\n        /* \"Desktop/web3/ERC20/AREVEAToken/ERC20.sol\":11325:11393  require(currentAllowance >= amount, \"ERC20: insufficient allowance\") */\n      tag_206\n      jumpi\n      mload(0x40)\n      0x08c379a000000000000000000000000000000000000000000000000000000000\n      dup2\n      mstore\n      0x04\n      add\n      tag_207\n      swap1\n      tag_208\n      jump\t// in\n    tag_207:\n      mload(0x40)\n      dup1\n      swap2\n      sub\n      swap1\n      revert\n    tag_206:\n        /* \"Desktop/web3/ERC20/AREVEAToken/ERC20.sol\":11437:11488  _approve(owner, spender, currentAllowance - amount) */\n      tag_209\n        /* \"Desktop/web3/ERC20/AREVEAToken/ERC20.sol\":11446:11451  owner */\n      dup5\n        /* \"Desktop/web3/ERC20/AREVEAToken/ERC20.sol\":11453:11460  spender */\n      dup5\n        /* \"Desktop/web3/ERC20/AREVEAToken/ERC20.sol\":11481:11487  amount */\n      dup5\n        /* \"Desktop/web3/ERC20/AREVEAToken/ERC20.sol\":11462:11478  currentAllowance */\n      dup5\n        /* \"Desktop/web3/ERC20/AREVEAToken/ERC20.sol\":11462:11487  currentAllowance - amount */\n      sub\n        /* \"Desktop/web3/ERC20/AREVEAToken/ERC20.sol\":11437:11445  _approve */\n      tag_110\n        /* \"Desktop/web3/ERC20/AREVEAToken/ERC20.sol\":11437:11488  _approve(owner, spender, currentAllowance - amount) */\n      jump\t// in\n    tag_209:\n        /* \"Desktop/web3/ERC20/AREVEAToken/ERC20.sol\":11267:11515  if (currentAllowance != type(uint256).max) {\r... */\n    tag_205:\n        /* \"Desktop/web3/ERC20/AREVEAToken/ERC20.sol\":11193:11522  {\r... */\n      pop\n        /* \"Desktop/web3/ERC20/AREVEAToken/ERC20.sol\":11069:11522  function _spendAllowance(\r... */\n      pop\n      pop\n      pop\n      jump\t// out\n        /* \"Desktop/web3/ERC20/AREVEAToken/ERC20.sol\":7679:8350  function _transfer(\r... */\n    tag_117:\n        /* \"Desktop/web3/ERC20/AREVEAToken/ERC20.sol\":7826:7827  0 */\n      0x00\n        /* \"Desktop/web3/ERC20/AREVEAToken/ERC20.sol\":7810:7828  from != address(0) */\n      0xffffffffffffffffffffffffffffffffffffffff\n      and\n        /* \"Desktop/web3/ERC20/AREVEAToken/ERC20.sol\":7810:7814  from */\n      dup4\n        /* \"Desktop/web3/ERC20/AREVEAToken/ERC20.sol\":7810:7828  from != address(0) */\n      0xffffffffffffffffffffffffffffffffffffffff\n      and\n      eq\n      iszero\n        /* \"Desktop/web3/ERC20/AREVEAToken/ERC20.sol\":7802:7870  require(from != address(0), \"ERC20: transfer from the zero address\") */\n      tag_211\n      jumpi\n      mload(0x40)\n      0x08c379a000000000000000000000000000000000000000000000000000000000\n      dup2\n      mstore\n      0x04\n      add\n      tag_212\n      swap1\n      tag_213\n      jump\t// in\n    tag_212:\n      mload(0x40)\n      dup1\n      swap2\n      sub\n      swap1\n      revert\n    tag_211:\n        /* \"Desktop/web3/ERC20/AREVEAToken/ERC20.sol\":7903:7904  0 */\n      0x00\n        /* \"Desktop/web3/ERC20/AREVEAToken/ERC20.sol\":7889:7905  to != address(0) */\n      0xffffffffffffffffffffffffffffffffffffffff\n      and\n        /* \"Desktop/web3/ERC20/AREVEAToken/ERC20.sol\":7889:7891  to */\n      dup3\n        /* \"Desktop/web3/ERC20/AREVEAToken/ERC20.sol\":7889:7905  to != address(0) */\n      0xffffffffffffffffffffffffffffffffffffffff\n      and\n      eq\n      iszero\n        /* \"Desktop/web3/ERC20/AREVEAToken/ERC20.sol\":7881:7945  require(to != address(0), \"ERC20: transfer to the zero address\") */\n      tag_214\n      jumpi\n      mload(0x40)\n      0x08c379a000000000000000000000000000000000000000000000000000000000\n      dup2\n      mstore\n      0x04\n      add\n      tag_215\n      swap1\n      tag_216\n      jump\t// in\n    tag_215:\n      mload(0x40)\n      dup1\n      swap2\n      sub\n      swap1\n      revert\n    tag_214:\n        /* \"Desktop/web3/ERC20/AREVEAToken/ERC20.sol\":7958:7996  _beforeTokenTransfer(from, to, amount) */\n      tag_217\n        /* \"Desktop/web3/ERC20/AREVEAToken/ERC20.sol\":7979:7983  from */\n      dup4\n        /* \"Desktop/web3/ERC20/AREVEAToken/ERC20.sol\":7985:7987  to */\n      dup4\n        /* \"Desktop/web3/ERC20/AREVEAToken/ERC20.sol\":7989:7995  amount */\n      dup4\n        /* \"Desktop/web3/ERC20/AREVEAToken/ERC20.sol\":7958:7978  _beforeTokenTransfer */\n      tag_146\n        /* \"Desktop/web3/ERC20/AREVEAToken/ERC20.sol\":7958:7996  _beforeTokenTransfer(from, to, amount) */\n      jump\t// in\n    tag_217:\n        /* \"Desktop/web3/ERC20/AREVEAToken/ERC20.sol\":8009:8028  uint256 fromBalance */\n      0x00\n        /* \"Desktop/web3/ERC20/AREVEAToken/ERC20.sol\":8031:8040  _balances */\n      dup1\n        /* \"Desktop/web3/ERC20/AREVEAToken/ERC20.sol\":8031:8046  _balances[from] */\n      0x00\n        /* \"Desktop/web3/ERC20/AREVEAToken/ERC20.sol\":8041:8045  from */\n      dup6\n        /* \"Desktop/web3/ERC20/AREVEAToken/ERC20.sol\":8031:8046  _balances[from] */\n      0xffffffffffffffffffffffffffffffffffffffff\n      and\n      0xffffffffffffffffffffffffffffffffffffffff\n      and\n      dup2\n      mstore\n      0x20\n      add\n      swap1\n      dup2\n      mstore\n      0x20\n      add\n      0x00\n      keccak256\n      sload\n        /* \"Desktop/web3/ERC20/AREVEAToken/ERC20.sol\":8009:8046  uint256 fromBalance = _balances[from] */\n      swap1\n      pop\n        /* \"Desktop/web3/ERC20/AREVEAToken/ERC20.sol\":8080:8086  amount */\n      dup2\n        /* \"Desktop/web3/ERC20/AREVEAToken/ERC20.sol\":8065:8076  fromBalance */\n      dup2\n        /* \"Desktop/web3/ERC20/AREVEAToken/ERC20.sol\":8065:8086  fromBalance >= amount */\n      lt\n      iszero\n        /* \"Desktop/web3/ERC20/AREVEAToken/ERC20.sol\":8057:8129  require(fromBalance >= amount, \"ERC20: transfer amount exceeds balance\") */\n      tag_218\n      jumpi\n      mload(0x40)\n      0x08c379a000000000000000000000000000000000000000000000000000000000\n      dup2\n      mstore\n      0x04\n      add\n      tag_219\n      swap1\n      tag_220\n      jump\t// in\n    tag_219:\n      mload(0x40)\n      dup1\n      swap2\n      sub\n      swap1\n      revert\n    tag_218:\n        /* \"Desktop/web3/ERC20/AREVEAToken/ERC20.sol\":8197:8203  amount */\n      dup2\n        /* \"Desktop/web3/ERC20/AREVEAToken/ERC20.sol\":8183:8194  fromBalance */\n      dup2\n        /* \"Desktop/web3/ERC20/AREVEAToken/ERC20.sol\":8183:8203  fromBalance - amount */\n      sub\n        /* \"Desktop/web3/ERC20/AREVEAToken/ERC20.sol\":8165:8174  _balances */\n      0x00\n        /* \"Desktop/web3/ERC20/AREVEAToken/ERC20.sol\":8165:8180  _balances[from] */\n      dup1\n        /* \"Desktop/web3/ERC20/AREVEAToken/ERC20.sol\":8175:8179  from */\n      dup7\n        /* \"Desktop/web3/ERC20/AREVEAToken/ERC20.sol\":8165:8180  _balances[from] */\n      0xffffffffffffffffffffffffffffffffffffffff\n      and\n      0xffffffffffffffffffffffffffffffffffffffff\n      and\n      dup2\n      mstore\n      0x20\n      add\n      swap1\n      dup2\n      mstore\n      0x20\n      add\n      0x00\n      keccak256\n        /* \"Desktop/web3/ERC20/AREVEAToken/ERC20.sol\":8165:8203  _balances[from] = fromBalance - amount */\n      dup2\n      swap1\n      sstore\n      pop\n        /* \"Desktop/web3/ERC20/AREVEAToken/ERC20.sol\":8242:8248  amount */\n      dup2\n        /* \"Desktop/web3/ERC20/AREVEAToken/ERC20.sol\":8225:8234  _balances */\n      0x00\n        /* \"Desktop/web3/ERC20/AREVEAToken/ERC20.sol\":8225:8238  _balances[to] */\n      dup1\n        /* \"Desktop/web3/ERC20/AREVEAToken/ERC20.sol\":8235:8237  to */\n      dup6\n        /* \"Desktop/web3/ERC20/AREVEAToken/ERC20.sol\":8225:8238  _balances[to] */\n      0xffffffffffffffffffffffffffffffffffffffff\n      and\n      0xffffffffffffffffffffffffffffffffffffffff\n      and\n      dup2\n      mstore\n      0x20\n      add\n      swap1\n      dup2\n      mstore\n      0x20\n      add\n      0x00\n      keccak256\n      0x00\n        /* \"Desktop/web3/ERC20/AREVEAToken/ERC20.sol\":8225:8248  _balances[to] += amount */\n      dup3\n      dup3\n      sload\n      tag_221\n      swap2\n      swap1\n      tag_129\n      jump\t// in\n    tag_221:\n      swap3\n      pop\n      pop\n      dup2\n      swap1\n      sstore\n      pop\n        /* \"Desktop/web3/ERC20/AREVEAToken/ERC20.sol\":8281:8283  to */\n      dup3\n        /* \"Desktop/web3/ERC20/AREVEAToken/ERC20.sol\":8266:8292  Transfer(from, to, amount) */\n      0xffffffffffffffffffffffffffffffffffffffff\n      and\n        /* \"Desktop/web3/ERC20/AREVEAToken/ERC20.sol\":8275:8279  from */\n      dup5\n        /* \"Desktop/web3/ERC20/AREVEAToken/ERC20.sol\":8266:8292  Transfer(from, to, amount) */\n      0xffffffffffffffffffffffffffffffffffffffff\n      and\n      0xddf252ad1be2c89b69c2b068fc378daa952ba7f163c4a11628f55a4df523b3ef\n        /* \"Desktop/web3/ERC20/AREVEAToken/ERC20.sol\":8285:8291  amount */\n      dup5\n        /* \"Desktop/web3/ERC20/AREVEAToken/ERC20.sol\":8266:8292  Transfer(from, to, amount) */\n      mload(0x40)\n      tag_222\n      swap2\n      swap1\n      tag_38\n      jump\t// in\n    tag_222:\n      mload(0x40)\n      dup1\n      swap2\n      sub\n      swap1\n      log3\n        /* \"Desktop/web3/ERC20/AREVEAToken/ERC20.sol\":8305:8342  _afterTokenTransfer(from, to, amount) */\n      tag_223\n        /* \"Desktop/web3/ERC20/AREVEAToken/ERC20.sol\":8325:8329  from */\n      dup5\n        /* \"Desktop/web3/ERC20/AREVEAToken/ERC20.sol\":8331:8333  to */\n      dup5\n        /* \"Desktop/web3/ERC20/AREVEAToken/ERC20.sol\":8335:8341  amount */\n      dup5\n        /* \"Desktop/web3/ERC20/AREVEAToken/ERC20.sol\":8305:8324  _afterTokenTransfer */\n      tag_151\n        /* \"Desktop/web3/ERC20/AREVEAToken/ERC20.sol\":8305:8342  _afterTokenTransfer(from, to, amount) */\n      jump\t// in\n    tag_223:\n        /* \"Desktop/web3/ERC20/AREVEAToken/ERC20.sol\":7791:8350  {\r... */\n      pop\n        /* \"Desktop/web3/ERC20/AREVEAToken/ERC20.sol\":7679:8350  function _transfer(\r... */\n      pop\n      pop\n      pop\n      jump\t// out\n        /* \"Desktop/web3/ERC20/AREVEAToken/Ownable.sol\":1386:1518  function _checkOwner() internal view virtual {\r... */\n    tag_133:\n        /* \"Desktop/web3/ERC20/AREVEAToken/Ownable.sol\":1461:1473  _msgSender() */\n      tag_225\n        /* \"Desktop/web3/ERC20/AREVEAToken/Ownable.sol\":1461:1471  _msgSender */\n      tag_108\n        /* \"Desktop/web3/ERC20/AREVEAToken/Ownable.sol\":1461:1473  _msgSender() */\n      jump\t// in\n    tag_225:\n        /* \"Desktop/web3/ERC20/AREVEAToken/Ownable.sol\":1450:1473  owner() == _msgSender() */\n      0xffffffffffffffffffffffffffffffffffffffff\n      and\n        /* \"Desktop/web3/ERC20/AREVEAToken/Ownable.sol\":1450:1457  owner() */\n      tag_226\n        /* \"Desktop/web3/ERC20/AREVEAToken/Ownable.sol\":1450:1455  owner */\n      tag_73\n        /* \"Desktop/web3/ERC20/AREVEAToken/Ownable.sol\":1450:1457  owner() */\n      jump\t// in\n    tag_226:\n        /* \"Desktop/web3/ERC20/AREVEAToken/Ownable.sol\":1450:1473  owner() == _msgSender() */\n      0xffffffffffffffffffffffffffffffffffffffff\n      and\n      eq\n        /* \"Desktop/web3/ERC20/AREVEAToken/Ownable.sol\":1442:1510  require(owner() == _msgSender(), \"Ownable: caller is not the owner\") */\n      tag_227\n      jumpi\n      mload(0x40)\n      0x08c379a000000000000000000000000000000000000000000000000000000000\n      dup2\n      mstore\n      0x04\n      add\n      tag_228\n      swap1\n      tag_229\n      jump\t// in\n    tag_228:\n      mload(0x40)\n      dup1\n      swap2\n      sub\n      swap1\n      revert\n    tag_227:\n        /* \"Desktop/web3/ERC20/AREVEAToken/Ownable.sol\":1386:1518  function _checkOwner() internal view virtual {\r... */\n      jump\t// out\n        /* \"Desktop/web3/ERC20/AREVEAToken/ERC20.sol\":8637:9036  function _mint(address account, uint256 amount) internal virtual {\r... */\n    tag_144:\n        /* \"Desktop/web3/ERC20/AREVEAToken/ERC20.sol\":8740:8741  0 */\n      0x00\n        /* \"Desktop/web3/ERC20/AREVEAToken/ERC20.sol\":8721:8742  account != address(0) */\n      0xffffffffffffffffffffffffffffffffffffffff\n      and\n        /* \"Desktop/web3/ERC20/AREVEAToken/ERC20.sol\":8721:8728  account */\n      dup3\n        /* \"Desktop/web3/ERC20/AREVEAToken/ERC20.sol\":8721:8742  account != address(0) */\n      0xffffffffffffffffffffffffffffffffffffffff\n      and\n      eq\n      iszero\n        /* \"Desktop/web3/ERC20/AREVEAToken/ERC20.sol\":8713:8778  require(account != address(0), \"ERC20: mint to the zero address\") */\n      tag_231\n      jumpi\n      mload(0x40)\n      0x08c379a000000000000000000000000000000000000000000000000000000000\n      dup2\n      mstore\n      0x04\n      add\n      tag_232\n      swap1\n      tag_137\n      jump\t// in\n    tag_232:\n      mload(0x40)\n      dup1\n      swap2\n      sub\n      swap1\n      revert\n    tag_231:\n        /* \"Desktop/web3/ERC20/AREVEAToken/ERC20.sol\":8791:8840  _beforeTokenTransfer(address(0), account, amount) */\n      tag_233\n        /* \"Desktop/web3/ERC20/AREVEAToken/ERC20.sol\":8820:8821  0 */\n      0x00\n        /* \"Desktop/web3/ERC20/AREVEAToken/ERC20.sol\":8824:8831  account */\n      dup4\n        /* \"Desktop/web3/ERC20/AREVEAToken/ERC20.sol\":8833:8839  amount */\n      dup4\n        /* \"Desktop/web3/ERC20/AREVEAToken/ERC20.sol\":8791:8811  _beforeTokenTransfer */\n      tag_146\n        /* \"Desktop/web3/ERC20/AREVEAToken/ERC20.sol\":8791:8840  _beforeTokenTransfer(address(0), account, amount) */\n      jump\t// in\n    tag_233:\n        /* \"Desktop/web3/ERC20/AREVEAToken/ERC20.sol\":8869:8875  amount */\n      dup1\n        /* \"Desktop/web3/ERC20/AREVEAToken/ERC20.sol\":8853:8865  _totalSupply */\n      0x02\n      0x00\n        /* \"Desktop/web3/ERC20/AREVEAToken/ERC20.sol\":8853:8875  _totalSupply += amount */\n      dup3\n      dup3\n      sload\n      tag_234\n      swap2\n      swap1\n      tag_129\n      jump\t// in\n    tag_234:\n      swap3\n      pop\n      pop\n      dup2\n      swap1\n      sstore\n      pop\n        /* \"Desktop/web3/ERC20/AREVEAToken/ERC20.sol\":8908:8914  amount */\n      dup1\n        /* \"Desktop/web3/ERC20/AREVEAToken/ERC20.sol\":8886:8895  _balances */\n      0x00\n        /* \"Desktop/web3/ERC20/AREVEAToken/ERC20.sol\":8886:8904  _balances[account] */\n      dup1\n        /* \"Desktop/web3/ERC20/AREVEAToken/ERC20.sol\":8896:8903  account */\n      dup5\n        /* \"Desktop/web3/ERC20/AREVEAToken/ERC20.sol\":8886:8904  _balances[account] */\n      0xffffffffffffffffffffffffffffffffffffffff\n      and\n      0xffffffffffffffffffffffffffffffffffffffff\n      and\n      dup2\n      mstore\n      0x20\n      add\n      swap1\n      dup2\n      mstore\n      0x20\n      add\n      0x00\n      keccak256\n      0x00\n        /* \"Desktop/web3/ERC20/AREVEAToken/ERC20.sol\":8886:8914  _balances[account] += amount */\n      dup3\n      dup3\n      sload\n      tag_235\n      swap2\n      swap1\n      tag_129\n      jump\t// in\n    tag_235:\n      swap3\n      pop\n      pop\n      dup2\n      swap1\n      sstore\n      pop\n        /* \"Desktop/web3/ERC20/AREVEAToken/ERC20.sol\":8951:8958  account */\n      dup2\n        /* \"Desktop/web3/ERC20/AREVEAToken/ERC20.sol\":8930:8967  Transfer(address(0), account, amount) */\n      0xffffffffffffffffffffffffffffffffffffffff\n      and\n        /* \"Desktop/web3/ERC20/AREVEAToken/ERC20.sol\":8947:8948  0 */\n      0x00\n        /* \"Desktop/web3/ERC20/AREVEAToken/ERC20.sol\":8930:8967  Transfer(address(0), account, amount) */\n      0xffffffffffffffffffffffffffffffffffffffff\n      and\n      0xddf252ad1be2c89b69c2b068fc378daa952ba7f163c4a11628f55a4df523b3ef\n        /* \"Desktop/web3/ERC20/AREVEAToken/ERC20.sol\":8960:8966  amount */\n      dup4\n        /* \"Desktop/web3/ERC20/AREVEAToken/ERC20.sol\":8930:8967  Transfer(address(0), account, amount) */\n      mload(0x40)\n      tag_236\n      swap2\n      swap1\n      tag_38\n      jump\t// in\n    tag_236:\n      mload(0x40)\n      dup1\n      swap2\n      sub\n      swap1\n      log3\n        /* \"Desktop/web3/ERC20/AREVEAToken/ERC20.sol\":8980:9028  _afterTokenTransfer(address(0), account, amount) */\n      tag_237\n        /* \"Desktop/web3/ERC20/AREVEAToken/ERC20.sol\":9008:9009  0 */\n      0x00\n        /* \"Desktop/web3/ERC20/AREVEAToken/ERC20.sol\":9012:9019  account */\n      dup4\n        /* \"Desktop/web3/ERC20/AREVEAToken/ERC20.sol\":9021:9027  amount */\n      dup4\n        /* \"Desktop/web3/ERC20/AREVEAToken/ERC20.sol\":8980:8999  _afterTokenTransfer */\n      tag_151\n        /* \"Desktop/web3/ERC20/AREVEAToken/ERC20.sol\":8980:9028  _afterTokenTransfer(address(0), account, amount) */\n      jump\t// in\n    tag_237:\n        /* \"Desktop/web3/ERC20/AREVEAToken/ERC20.sol\":8637:9036  function _mint(address account, uint256 amount) internal virtual {\r... */\n      pop\n      pop\n      jump\t// out\n        /* \"Desktop/web3/ERC20/AREVEAToken/ERC20.sol\":12122:12247  function _beforeTokenTransfer(\r... */\n    tag_146:\n      pop\n      pop\n      pop\n      jump\t// out\n        /* \"Desktop/web3/ERC20/AREVEAToken/ERC20.sol\":12851:12975  function _afterTokenTransfer(\r... */\n    tag_151:\n      pop\n      pop\n      pop\n      jump\t// out\n        /* \"Desktop/web3/ERC20/AREVEAToken/ERC20.sol\":9369:9960  function _burn(address account, uint256 amount) internal virtual {\r... */\n    tag_157:\n        /* \"Desktop/web3/ERC20/AREVEAToken/ERC20.sol\":9472:9473  0 */\n      0x00\n        /* \"Desktop/web3/ERC20/AREVEAToken/ERC20.sol\":9453:9474  account != address(0) */\n      0xffffffffffffffffffffffffffffffffffffffff\n      and\n        /* \"Desktop/web3/ERC20/AREVEAToken/ERC20.sol\":9453:9460  account */\n      dup3\n        /* \"Desktop/web3/ERC20/AREVEAToken/ERC20.sol\":9453:9474  account != address(0) */\n      0xffffffffffffffffffffffffffffffffffffffff\n      and\n      eq\n      iszero\n        /* \"Desktop/web3/ERC20/AREVEAToken/ERC20.sol\":9445:9512  require(account != address(0), \"ERC20: burn from the zero address\") */\n      tag_241\n      jumpi\n      mload(0x40)\n      0x08c379a000000000000000000000000000000000000000000000000000000000\n      dup2\n      mstore\n      0x04\n      add\n      tag_242\n      swap1\n      tag_243\n      jump\t// in\n    tag_242:\n      mload(0x40)\n      dup1\n      swap2\n      sub\n      swap1\n      revert\n    tag_241:\n        /* \"Desktop/web3/ERC20/AREVEAToken/ERC20.sol\":9525:9574  _beforeTokenTransfer(account, address(0), amount) */\n      tag_244\n        /* \"Desktop/web3/ERC20/AREVEAToken/ERC20.sol\":9546:9553  account */\n      dup3\n        /* \"Desktop/web3/ERC20/AREVEAToken/ERC20.sol\":9563:9564  0 */\n      0x00\n        /* \"Desktop/web3/ERC20/AREVEAToken/ERC20.sol\":9567:9573  amount */\n      dup4\n        /* \"Desktop/web3/ERC20/AREVEAToken/ERC20.sol\":9525:9545  _beforeTokenTransfer */\n      tag_146\n        /* \"Desktop/web3/ERC20/AREVEAToken/ERC20.sol\":9525:9574  _beforeTokenTransfer(account, address(0), amount) */\n      jump\t// in\n    tag_244:\n        /* \"Desktop/web3/ERC20/AREVEAToken/ERC20.sol\":9587:9609  uint256 accountBalance */\n      0x00\n        /* \"Desktop/web3/ERC20/AREVEAToken/ERC20.sol\":9612:9621  _balances */\n      dup1\n        /* \"Desktop/web3/ERC20/AREVEAToken/ERC20.sol\":9612:9630  _balances[account] */\n      0x00\n        /* \"Desktop/web3/ERC20/AREVEAToken/ERC20.sol\":9622:9629  account */\n      dup5\n        /* \"Desktop/web3/ERC20/AREVEAToken/ERC20.sol\":9612:9630  _balances[account] */\n      0xffffffffffffffffffffffffffffffffffffffff\n      and\n      0xffffffffffffffffffffffffffffffffffffffff\n      and\n      dup2\n      mstore\n      0x20\n      add\n      swap1\n      dup2\n      mstore\n      0x20\n      add\n      0x00\n      keccak256\n      sload\n        /* \"Desktop/web3/ERC20/AREVEAToken/ERC20.sol\":9587:9630  uint256 accountBalance = _balances[account] */\n      swap1\n      pop\n        /* \"Desktop/web3/ERC20/AREVEAToken/ERC20.sol\":9667:9673  amount */\n      dup2\n        /* \"Desktop/web3/ERC20/AREVEAToken/ERC20.sol\":9649:9663  accountBalance */\n      dup2\n        /* \"Desktop/web3/ERC20/AREVEAToken/ERC20.sol\":9649:9673  accountBalance >= amount */\n      lt\n      iszero\n        /* \"Desktop/web3/ERC20/AREVEAToken/ERC20.sol\":9641:9712  require(accountBalance >= amount, \"ERC20: burn amount exceeds balance\") */\n      tag_245\n      jumpi\n      mload(0x40)\n      0x08c379a000000000000000000000000000000000000000000000000000000000\n      dup2\n      mstore\n      0x04\n      add\n      tag_246\n      swap1\n      tag_247\n      jump\t// in\n    tag_246:\n      mload(0x40)\n      dup1\n      swap2\n      sub\n      swap1\n      revert\n    tag_245:\n        /* \"Desktop/web3/ERC20/AREVEAToken/ERC20.sol\":9786:9792  amount */\n      dup2\n        /* \"Desktop/web3/ERC20/AREVEAToken/ERC20.sol\":9769:9783  accountBalance */\n      dup2\n        /* \"Desktop/web3/ERC20/AREVEAToken/ERC20.sol\":9769:9792  accountBalance - amount */\n      sub\n        /* \"Desktop/web3/ERC20/AREVEAToken/ERC20.sol\":9748:9757  _balances */\n      0x00\n        /* \"Desktop/web3/ERC20/AREVEAToken/ERC20.sol\":9748:9766  _balances[account] */\n      dup1\n        /* \"Desktop/web3/ERC20/AREVEAToken/ERC20.sol\":9758:9765  account */\n      dup6\n        /* \"Desktop/web3/ERC20/AREVEAToken/ERC20.sol\":9748:9766  _balances[account] */\n      0xffffffffffffffffffffffffffffffffffffffff\n      and\n      0xffffffffffffffffffffffffffffffffffffffff\n      and\n      dup2\n      mstore\n      0x20\n      add\n      swap1\n      dup2\n      mstore\n      0x20\n      add\n      0x00\n      keccak256\n        /* \"Desktop/web3/ERC20/AREVEAToken/ERC20.sol\":9748:9792  _balances[account] = accountBalance - amount */\n      dup2\n      swap1\n      sstore\n      pop\n        /* \"Desktop/web3/ERC20/AREVEAToken/ERC20.sol\":9830:9836  amount */\n      dup2\n        /* \"Desktop/web3/ERC20/AREVEAToken/ERC20.sol\":9814:9826  _totalSupply */\n      0x02\n      0x00\n        /* \"Desktop/web3/ERC20/AREVEAToken/ERC20.sol\":9814:9836  _totalSupply -= amount */\n      dup3\n      dup3\n      sload\n      tag_248\n      swap2\n      swap1\n      tag_160\n      jump\t// in\n    tag_248:\n      swap3\n      pop\n      pop\n      dup2\n      swap1\n      sstore\n      pop\n        /* \"Desktop/web3/ERC20/AREVEAToken/ERC20.sol\":9880:9881  0 */\n      0x00\n        /* \"Desktop/web3/ERC20/AREVEAToken/ERC20.sol\":9854:9891  Transfer(account, address(0), amount) */\n      0xffffffffffffffffffffffffffffffffffffffff\n      and\n        /* \"Desktop/web3/ERC20/AREVEAToken/ERC20.sol\":9863:9870  account */\n      dup4\n        /* \"Desktop/web3/ERC20/AREVEAToken/ERC20.sol\":9854:9891  Transfer(account, address(0), amount) */\n      0xffffffffffffffffffffffffffffffffffffffff\n      and\n      0xddf252ad1be2c89b69c2b068fc378daa952ba7f163c4a11628f55a4df523b3ef\n        /* \"Desktop/web3/ERC20/AREVEAToken/ERC20.sol\":9884:9890  amount */\n      dup5\n        /* \"Desktop/web3/ERC20/AREVEAToken/ERC20.sol\":9854:9891  Transfer(account, address(0), amount) */\n      mload(0x40)\n      tag_249\n      swap2\n      swap1\n      tag_38\n      jump\t// in\n    tag_249:\n      mload(0x40)\n      dup1\n      swap2\n      sub\n      swap1\n      log3\n        /* \"Desktop/web3/ERC20/AREVEAToken/ERC20.sol\":9904:9952  _afterTokenTransfer(account, address(0), amount) */\n      tag_250\n        /* \"Desktop/web3/ERC20/AREVEAToken/ERC20.sol\":9924:9931  account */\n      dup4\n        /* \"Desktop/web3/ERC20/AREVEAToken/ERC20.sol\":9941:9942  0 */\n      0x00\n        /* \"Desktop/web3/ERC20/AREVEAToken/ERC20.sol\":9945:9951  amount */\n      dup5\n        /* \"Desktop/web3/ERC20/AREVEAToken/ERC20.sol\":9904:9923  _afterTokenTransfer */\n      tag_151\n        /* \"Desktop/web3/ERC20/AREVEAToken/ERC20.sol\":9904:9952  _afterTokenTransfer(account, address(0), amount) */\n      jump\t// in\n    tag_250:\n        /* \"Desktop/web3/ERC20/AREVEAToken/ERC20.sol\":9434:9960  {\r... */\n      pop\n        /* \"Desktop/web3/ERC20/AREVEAToken/ERC20.sol\":9369:9960  function _burn(address account, uint256 amount) internal virtual {\r... */\n      pop\n      pop\n      jump\t// out\n        /* \"Desktop/web3/ERC20/AREVEAToken/Ownable.sol\":2497:2688  function _transferOwnership(address newOwner) internal virtual {\r... */\n    tag_191:\n        /* \"Desktop/web3/ERC20/AREVEAToken/Ownable.sol\":2571:2587  address oldOwner */\n      0x00\n        /* \"Desktop/web3/ERC20/AREVEAToken/Ownable.sol\":2590:2596  _owner */\n      0x05\n      0x00\n      swap1\n      sload\n      swap1\n      0x0100\n      exp\n      swap1\n      div\n      0xffffffffffffffffffffffffffffffffffffffff\n      and\n        /* \"Desktop/web3/ERC20/AREVEAToken/Ownable.sol\":2571:2596  address oldOwner = _owner */\n      swap1\n      pop\n        /* \"Desktop/web3/ERC20/AREVEAToken/Ownable.sol\":2616:2624  newOwner */\n      dup2\n        /* \"Desktop/web3/ERC20/AREVEAToken/Ownable.sol\":2607:2613  _owner */\n      0x05\n      0x00\n        /* \"Desktop/web3/ERC20/AREVEAToken/Ownable.sol\":2607:2624  _owner = newOwner */\n      0x0100\n      exp\n      dup2\n      sload\n      dup2\n      0xffffffffffffffffffffffffffffffffffffffff\n      mul\n      not\n      and\n      swap1\n      dup4\n      0xffffffffffffffffffffffffffffffffffffffff\n      and\n      mul\n      or\n      swap1\n      sstore\n      pop\n        /* \"Desktop/web3/ERC20/AREVEAToken/Ownable.sol\":2671:2679  newOwner */\n      dup2\n        /* \"Desktop/web3/ERC20/AREVEAToken/Ownable.sol\":2640:2680  OwnershipTransferred(oldOwner, newOwner) */\n      0xffffffffffffffffffffffffffffffffffffffff\n      and\n        /* \"Desktop/web3/ERC20/AREVEAToken/Ownable.sol\":2661:2669  oldOwner */\n      dup2\n        /* \"Desktop/web3/ERC20/AREVEAToken/Ownable.sol\":2640:2680  OwnershipTransferred(oldOwner, newOwner) */\n      0xffffffffffffffffffffffffffffffffffffffff\n      and\n      0x8be0079c531659141344cd1fd0a4f28419497f9722a3daafe3b4186f6b6457e0\n      mload(0x40)\n      mload(0x40)\n      dup1\n      swap2\n      sub\n      swap1\n      log3\n        /* \"Desktop/web3/ERC20/AREVEAToken/Ownable.sol\":2560:2688  {\r... */\n      pop\n        /* \"Desktop/web3/ERC20/AREVEAToken/Ownable.sol\":2497:2688  function _transferOwnership(address newOwner) internal virtual {\r... */\n      pop\n      jump\t// out\n        /* \"#utility.yul\":7:146   */\n    tag_253:\n        /* \"#utility.yul\":53:58   */\n      0x00\n        /* \"#utility.yul\":91:97   */\n      dup2\n        /* \"#utility.yul\":78:98   */\n      calldataload\n        /* \"#utility.yul\":69:98   */\n      swap1\n      pop\n        /* \"#utility.yul\":107:140   */\n      tag_255\n        /* \"#utility.yul\":134:139   */\n      dup2\n        /* \"#utility.yul\":107:140   */\n      tag_256\n      jump\t// in\n    tag_255:\n        /* \"#utility.yul\":7:146   */\n      swap3\n      swap2\n      pop\n      pop\n      jump\t// out\n        /* \"#utility.yul\":152:291   */\n    tag_257:\n        /* \"#utility.yul\":198:203   */\n      0x00\n        /* \"#utility.yul\":236:242   */\n      dup2\n        /* \"#utility.yul\":223:243   */\n      calldataload\n        /* \"#utility.yul\":214:243   */\n      swap1\n      pop\n        /* \"#utility.yul\":252:285   */\n      tag_259\n        /* \"#utility.yul\":279:284   */\n      dup2\n        /* \"#utility.yul\":252:285   */\n      tag_260\n      jump\t// in\n    tag_259:\n        /* \"#utility.yul\":152:291   */\n      swap3\n      swap2\n      pop\n      pop\n      jump\t// out\n        /* \"#utility.yul\":297:626   */\n    tag_66:\n        /* \"#utility.yul\":356:362   */\n      0x00\n        /* \"#utility.yul\":405:407   */\n      0x20\n        /* \"#utility.yul\":393:402   */\n      dup3\n        /* \"#utility.yul\":384:391   */\n      dup5\n        /* \"#utility.yul\":380:403   */\n      sub\n        /* \"#utility.yul\":376:408   */\n      slt\n        /* \"#utility.yul\":373:492   */\n      iszero\n      tag_262\n      jumpi\n        /* \"#utility.yul\":411:490   */\n      tag_263\n      tag_264\n      jump\t// in\n    tag_263:\n        /* \"#utility.yul\":373:492   */\n    tag_262:\n        /* \"#utility.yul\":531:532   */\n      0x00\n        /* \"#utility.yul\":556:609   */\n      tag_265\n        /* \"#utility.yul\":601:608   */\n      dup5\n        /* \"#utility.yul\":592:598   */\n      dup3\n        /* \"#utility.yul\":581:590   */\n      dup6\n        /* \"#utility.yul\":577:599   */\n      add\n        /* \"#utility.yul\":556:609   */\n      tag_253\n      jump\t// in\n    tag_265:\n        /* \"#utility.yul\":546:609   */\n      swap2\n      pop\n        /* \"#utility.yul\":502:619   */\n      pop\n        /* \"#utility.yul\":297:626   */\n      swap3\n      swap2\n      pop\n      pop\n      jump\t// out\n        /* \"#utility.yul\":632:1106   */\n    tag_92:\n        /* \"#utility.yul\":700:706   */\n      0x00\n        /* \"#utility.yul\":708:714   */\n      dup1\n        /* \"#utility.yul\":757:759   */\n      0x40\n        /* \"#utility.yul\":745:754   */\n      dup4\n        /* \"#utility.yul\":736:743   */\n      dup6\n        /* \"#utility.yul\":732:755   */\n      sub\n        /* \"#utility.yul\":728:760   */\n      slt\n        /* \"#utility.yul\":725:844   */\n      iszero\n      tag_267\n      jumpi\n        /* \"#utility.yul\":763:842   */\n      tag_268\n      tag_264\n      jump\t// in\n    tag_268:\n        /* \"#utility.yul\":725:844   */\n    tag_267:\n        /* \"#utility.yul\":883:884   */\n      0x00\n        /* \"#utility.yul\":908:961   */\n      tag_269\n        /* \"#utility.yul\":953:960   */\n      dup6\n        /* \"#utility.yul\":944:950   */\n      dup3\n        /* \"#utility.yul\":933:942   */\n      dup7\n        /* \"#utility.yul\":929:951   */\n      add\n        /* \"#utility.yul\":908:961   */\n      tag_253\n      jump\t// in\n    tag_269:\n        /* \"#utility.yul\":898:961   */\n      swap3\n      pop\n        /* \"#utility.yul\":854:971   */\n      pop\n        /* \"#utility.yul\":1010:1012   */\n      0x20\n        /* \"#utility.yul\":1036:1089   */\n      tag_270\n        /* \"#utility.yul\":1081:1088   */\n      dup6\n        /* \"#utility.yul\":1072:1078   */\n      dup3\n        /* \"#utility.yul\":1061:1070   */\n      dup7\n        /* \"#utility.yul\":1057:1079   */\n      add\n        /* \"#utility.yul\":1036:1089   */\n      tag_253\n      jump\t// in\n    tag_270:\n        /* \"#utility.yul\":1026:1089   */\n      swap2\n      pop\n        /* \"#utility.yul\":981:1099   */\n      pop\n        /* \"#utility.yul\":632:1106   */\n      swap3\n      pop\n      swap3\n      swap1\n      pop\n      jump\t// out\n        /* \"#utility.yul\":1112:1731   */\n    tag_41:\n        /* \"#utility.yul\":1189:1195   */\n      0x00\n        /* \"#utility.yul\":1197:1203   */\n      dup1\n        /* \"#utility.yul\":1205:1211   */\n      0x00\n        /* \"#utility.yul\":1254:1256   */\n      0x60\n        /* \"#utility.yul\":1242:1251   */\n      dup5\n        /* \"#utility.yul\":1233:1240   */\n      dup7\n        /* \"#utility.yul\":1229:1252   */\n      sub\n        /* \"#utility.yul\":1225:1257   */\n      slt\n        /* \"#utility.yul\":1222:1341   */\n      iszero\n      tag_272\n      jumpi\n        /* \"#utility.yul\":1260:1339   */\n      tag_273\n      tag_264\n      jump\t// in\n    tag_273:\n        /* \"#utility.yul\":1222:1341   */\n    tag_272:\n        /* \"#utility.yul\":1380:1381   */\n      0x00\n        /* \"#utility.yul\":1405:1458   */\n      tag_274\n        /* \"#utility.yul\":1450:1457   */\n      dup7\n        /* \"#utility.yul\":1441:1447   */\n      dup3\n        /* \"#utility.yul\":1430:1439   */\n      dup8\n        /* \"#utility.yul\":1426:1448   */\n      add\n        /* \"#utility.yul\":1405:1458   */\n      tag_253\n      jump\t// in\n    tag_274:\n        /* \"#utility.yul\":1395:1458   */\n      swap4\n      pop\n        /* \"#utility.yul\":1351:1468   */\n      pop\n        /* \"#utility.yul\":1507:1509   */\n      0x20\n        /* \"#utility.yul\":1533:1586   */\n      tag_275\n        /* \"#utility.yul\":1578:1585   */\n      dup7\n        /* \"#utility.yul\":1569:1575   */\n      dup3\n        /* \"#utility.yul\":1558:1567   */\n      dup8\n        /* \"#utility.yul\":1554:1576   */\n      add\n        /* \"#utility.yul\":1533:1586   */\n      tag_253\n      jump\t// in\n    tag_275:\n        /* \"#utility.yul\":1523:1586   */\n      swap3\n      pop\n        /* \"#utility.yul\":1478:1596   */\n      pop\n        /* \"#utility.yul\":1635:1637   */\n      0x40\n        /* \"#utility.yul\":1661:1714   */\n      tag_276\n        /* \"#utility.yul\":1706:1713   */\n      dup7\n        /* \"#utility.yul\":1697:1703   */\n      dup3\n        /* \"#utility.yul\":1686:1695   */\n      dup8\n        /* \"#utility.yul\":1682:1704   */\n      add\n        /* \"#utility.yul\":1661:1714   */\n      tag_257\n      jump\t// in\n    tag_276:\n        /* \"#utility.yul\":1651:1714   */\n      swap2\n      pop\n        /* \"#utility.yul\":1606:1724   */\n      pop\n        /* \"#utility.yul\":1112:1731   */\n      swap3\n      pop\n      swap3\n      pop\n      swap3\n      jump\t// out\n        /* \"#utility.yul\":1737:2211   */\n    tag_31:\n        /* \"#utility.yul\":1805:1811   */\n      0x00\n        /* \"#utility.yul\":1813:1819   */\n      dup1\n        /* \"#utility.yul\":1862:1864   */\n      0x40\n        /* \"#utility.yul\":1850:1859   */\n      dup4\n        /* \"#utility.yul\":1841:1848   */\n      dup6\n        /* \"#utility.yul\":1837:1860   */\n      sub\n        /* \"#utility.yul\":1833:1865   */\n      slt\n        /* \"#utility.yul\":1830:1949   */\n      iszero\n      tag_278\n      jumpi\n        /* \"#utility.yul\":1868:1947   */\n      tag_279\n      tag_264\n      jump\t// in\n    tag_279:\n        /* \"#utility.yul\":1830:1949   */\n    tag_278:\n        /* \"#utility.yul\":1988:1989   */\n      0x00\n        /* \"#utility.yul\":2013:2066   */\n      tag_280\n        /* \"#utility.yul\":2058:2065   */\n      dup6\n        /* \"#utility.yul\":2049:2055   */\n      dup3\n        /* \"#utility.yul\":2038:2047   */\n      dup7\n        /* \"#utility.yul\":2034:2056   */\n      add\n        /* \"#utility.yul\":2013:2066   */\n      tag_253\n      jump\t// in\n    tag_280:\n        /* \"#utility.yul\":2003:2066   */\n      swap3\n      pop\n        /* \"#utility.yul\":1959:2076   */\n      pop\n        /* \"#utility.yul\":2115:2117   */\n      0x20\n        /* \"#utility.yul\":2141:2194   */\n      tag_281\n        /* \"#utility.yul\":2186:2193   */\n      dup6\n        /* \"#utility.yul\":2177:2183   */\n      dup3\n        /* \"#utility.yul\":2166:2175   */\n      dup7\n        /* \"#utility.yul\":2162:2184   */\n      add\n        /* \"#utility.yul\":2141:2194   */\n      tag_257\n      jump\t// in\n    tag_281:\n        /* \"#utility.yul\":2131:2194   */\n      swap2\n      pop\n        /* \"#utility.yul\":2086:2204   */\n      pop\n        /* \"#utility.yul\":1737:2211   */\n      swap3\n      pop\n      swap3\n      swap1\n      pop\n      jump\t// out\n        /* \"#utility.yul\":2217:2335   */\n    tag_282:\n        /* \"#utility.yul\":2304:2328   */\n      tag_284\n        /* \"#utility.yul\":2322:2327   */\n      dup2\n        /* \"#utility.yul\":2304:2328   */\n      tag_285\n      jump\t// in\n    tag_284:\n        /* \"#utility.yul\":2299:2302   */\n      dup3\n        /* \"#utility.yul\":2292:2329   */\n      mstore\n        /* \"#utility.yul\":2217:2335   */\n      pop\n      pop\n      jump\t// out\n        /* \"#utility.yul\":2341:2450   */\n    tag_286:\n        /* \"#utility.yul\":2422:2443   */\n      tag_288\n        /* \"#utility.yul\":2437:2442   */\n      dup2\n        /* \"#utility.yul\":2422:2443   */\n      tag_289\n      jump\t// in\n    tag_288:\n        /* \"#utility.yul\":2417:2420   */\n      dup3\n        /* \"#utility.yul\":2410:2444   */\n      mstore\n        /* \"#utility.yul\":2341:2450   */\n      pop\n      pop\n      jump\t// out\n        /* \"#utility.yul\":2456:2820   */\n    tag_290:\n        /* \"#utility.yul\":2544:2547   */\n      0x00\n        /* \"#utility.yul\":2572:2611   */\n      tag_292\n        /* \"#utility.yul\":2605:2610   */\n      dup3\n        /* \"#utility.yul\":2572:2611   */\n      tag_293\n      jump\t// in\n    tag_292:\n        /* \"#utility.yul\":2627:2698   */\n      tag_294\n        /* \"#utility.yul\":2691:2697   */\n      dup2\n        /* \"#utility.yul\":2686:2689   */\n      dup6\n        /* \"#utility.yul\":2627:2698   */\n      tag_295\n      jump\t// in\n    tag_294:\n        /* \"#utility.yul\":2620:2698   */\n      swap4\n      pop\n        /* \"#utility.yul\":2707:2759   */\n      tag_296\n        /* \"#utility.yul\":2752:2758   */\n      dup2\n        /* \"#utility.yul\":2747:2750   */\n      dup6\n        /* \"#utility.yul\":2740:2744   */\n      0x20\n        /* \"#utility.yul\":2733:2738   */\n      dup7\n        /* \"#utility.yul\":2729:2745   */\n      add\n        /* \"#utility.yul\":2707:2759   */\n      tag_297\n      jump\t// in\n    tag_296:\n        /* \"#utility.yul\":2784:2813   */\n      tag_298\n        /* \"#utility.yul\":2806:2812   */\n      dup2\n        /* \"#utility.yul\":2784:2813   */\n      tag_299\n      jump\t// in\n    tag_298:\n        /* \"#utility.yul\":2779:2782   */\n      dup5\n        /* \"#utility.yul\":2775:2814   */\n      add\n        /* \"#utility.yul\":2768:2814   */\n      swap2\n      pop\n        /* \"#utility.yul\":2548:2820   */\n      pop\n        /* \"#utility.yul\":2456:2820   */\n      swap3\n      swap2\n      pop\n      pop\n      jump\t// out\n        /* \"#utility.yul\":2826:3192   */\n    tag_300:\n        /* \"#utility.yul\":2968:2971   */\n      0x00\n        /* \"#utility.yul\":2989:3056   */\n      tag_302\n        /* \"#utility.yul\":3053:3055   */\n      0x23\n        /* \"#utility.yul\":3048:3051   */\n      dup4\n        /* \"#utility.yul\":2989:3056   */\n      tag_295\n      jump\t// in\n    tag_302:\n        /* \"#utility.yul\":2982:3056   */\n      swap2\n      pop\n        /* \"#utility.yul\":3065:3158   */\n      tag_303\n        /* \"#utility.yul\":3154:3157   */\n      dup3\n        /* \"#utility.yul\":3065:3158   */\n      tag_304\n      jump\t// in\n    tag_303:\n        /* \"#utility.yul\":3183:3185   */\n      0x40\n        /* \"#utility.yul\":3178:3181   */\n      dup3\n        /* \"#utility.yul\":3174:3186   */\n      add\n        /* \"#utility.yul\":3167:3186   */\n      swap1\n      pop\n        /* \"#utility.yul\":2826:3192   */\n      swap2\n      swap1\n      pop\n      jump\t// out\n        /* \"#utility.yul\":3198:3564   */\n    tag_305:\n        /* \"#utility.yul\":3340:3343   */\n      0x00\n        /* \"#utility.yul\":3361:3428   */\n      tag_307\n        /* \"#utility.yul\":3425:3427   */\n      0x22\n        /* \"#utility.yul\":3420:3423   */\n      dup4\n        /* \"#utility.yul\":3361:3428   */\n      tag_295\n      jump\t// in\n    tag_307:\n        /* \"#utility.yul\":3354:3428   */\n      swap2\n      pop\n        /* \"#utility.yul\":3437:3530   */\n      tag_308\n        /* \"#utility.yul\":3526:3529   */\n      dup3\n        /* \"#utility.yul\":3437:3530   */\n      tag_309\n      jump\t// in\n    tag_308:\n        /* \"#utility.yul\":3555:3557   */\n      0x40\n        /* \"#utility.yul\":3550:3553   */\n      dup3\n        /* \"#utility.yul\":3546:3558   */\n      add\n        /* \"#utility.yul\":3539:3558   */\n      swap1\n      pop\n        /* \"#utility.yul\":3198:3564   */\n      swap2\n      swap1\n      pop\n      jump\t// out\n        /* \"#utility.yul\":3570:3936   */\n    tag_310:\n        /* \"#utility.yul\":3712:3715   */\n      0x00\n        /* \"#utility.yul\":3733:3800   */\n      tag_312\n        /* \"#utility.yul\":3797:3799   */\n      0x26\n        /* \"#utility.yul\":3792:3795   */\n      dup4\n        /* \"#utility.yul\":3733:3800   */\n      tag_295\n      jump\t// in\n    tag_312:\n        /* \"#utility.yul\":3726:3800   */\n      swap2\n      pop\n        /* \"#utility.yul\":3809:3902   */\n      tag_313\n        /* \"#utility.yul\":3898:3901   */\n      dup3\n        /* \"#utility.yul\":3809:3902   */\n      tag_314\n      jump\t// in\n    tag_313:\n        /* \"#utility.yul\":3927:3929   */\n      0x40\n        /* \"#utility.yul\":3922:3925   */\n      dup3\n        /* \"#utility.yul\":3918:3930   */\n      add\n        /* \"#utility.yul\":3911:3930   */\n      swap1\n      pop\n        /* \"#utility.yul\":3570:3936   */\n      swap2\n      swap1\n      pop\n      jump\t// out\n        /* \"#utility.yul\":3942:4308   */\n    tag_315:\n        /* \"#utility.yul\":4084:4087   */\n      0x00\n        /* \"#utility.yul\":4105:4172   */\n      tag_317\n        /* \"#utility.yul\":4169:4171   */\n      0x22\n        /* \"#utility.yul\":4164:4167   */\n      dup4\n        /* \"#utility.yul\":4105:4172   */\n      tag_295\n      jump\t// in\n    tag_317:\n        /* \"#utility.yul\":4098:4172   */\n      swap2\n      pop\n        /* \"#utility.yul\":4181:4274   */\n      tag_318\n        /* \"#utility.yul\":4270:4273   */\n      dup3\n        /* \"#utility.yul\":4181:4274   */\n      tag_319\n      jump\t// in\n    tag_318:\n        /* \"#utility.yul\":4299:4301   */\n      0x40\n        /* \"#utility.yul\":4294:4297   */\n      dup3\n        /* \"#utility.yul\":4290:4302   */\n      add\n        /* \"#utility.yul\":4283:4302   */\n      swap1\n      pop\n        /* \"#utility.yul\":3942:4308   */\n      swap2\n      swap1\n      pop\n      jump\t// out\n        /* \"#utility.yul\":4314:4680   */\n    tag_320:\n        /* \"#utility.yul\":4456:4459   */\n      0x00\n        /* \"#utility.yul\":4477:4544   */\n      tag_322\n        /* \"#utility.yul\":4541:4543   */\n      0x1d\n        /* \"#utility.yul\":4536:4539   */\n      dup4\n        /* \"#utility.yul\":4477:4544   */\n      tag_295\n      jump\t// in\n    tag_322:\n        /* \"#utility.yul\":4470:4544   */\n      swap2\n      pop\n        /* \"#utility.yul\":4553:4646   */\n      tag_323\n        /* \"#utility.yul\":4642:4645   */\n      dup3\n        /* \"#utility.yul\":4553:4646   */\n      tag_324\n      jump\t// in\n    tag_323:\n        /* \"#utility.yul\":4671:4673   */\n      0x20\n        /* \"#utility.yul\":4666:4669   */\n      dup3\n        /* \"#utility.yul\":4662:4674   */\n      add\n        /* \"#utility.yul\":4655:4674   */\n      swap1\n      pop\n        /* \"#utility.yul\":4314:4680   */\n      swap2\n      swap1\n      pop\n      jump\t// out\n        /* \"#utility.yul\":4686:5052   */\n    tag_325:\n        /* \"#utility.yul\":4828:4831   */\n      0x00\n        /* \"#utility.yul\":4849:4916   */\n      tag_327\n        /* \"#utility.yul\":4913:4915   */\n      0x26\n        /* \"#utility.yul\":4908:4911   */\n      dup4\n        /* \"#utility.yul\":4849:4916   */\n      tag_295\n      jump\t// in\n    tag_327:\n        /* \"#utility.yul\":4842:4916   */\n      swap2\n      pop\n        /* \"#utility.yul\":4925:5018   */\n      tag_328\n        /* \"#utility.yul\":5014:5017   */\n      dup3\n        /* \"#utility.yul\":4925:5018   */\n      tag_329\n      jump\t// in\n    tag_328:\n        /* \"#utility.yul\":5043:5045   */\n      0x40\n        /* \"#utility.yul\":5038:5041   */\n      dup3\n        /* \"#utility.yul\":5034:5046   */\n      add\n        /* \"#utility.yul\":5027:5046   */\n      swap1\n      pop\n        /* \"#utility.yul\":4686:5052   */\n      swap2\n      swap1\n      pop\n      jump\t// out\n        /* \"#utility.yul\":5058:5424   */\n    tag_330:\n        /* \"#utility.yul\":5200:5203   */\n      0x00\n        /* \"#utility.yul\":5221:5288   */\n      tag_332\n        /* \"#utility.yul\":5285:5287   */\n      0x16\n        /* \"#utility.yul\":5280:5283   */\n      dup4\n        /* \"#utility.yul\":5221:5288   */\n      tag_295\n      jump\t// in\n    tag_332:\n        /* \"#utility.yul\":5214:5288   */\n      swap2\n      pop\n        /* \"#utility.yul\":5297:5390   */\n      tag_333\n        /* \"#utility.yul\":5386:5389   */\n      dup3\n        /* \"#utility.yul\":5297:5390   */\n      tag_334\n      jump\t// in\n    tag_333:\n        /* \"#utility.yul\":5415:5417   */\n      0x20\n        /* \"#utility.yul\":5410:5413   */\n      dup3\n        /* \"#utility.yul\":5406:5418   */\n      add\n        /* \"#utility.yul\":5399:5418   */\n      swap1\n      pop\n        /* \"#utility.yul\":5058:5424   */\n      swap2\n      swap1\n      pop\n      jump\t// out\n        /* \"#utility.yul\":5430:5796   */\n    tag_335:\n        /* \"#utility.yul\":5572:5575   */\n      0x00\n        /* \"#utility.yul\":5593:5660   */\n      tag_337\n        /* \"#utility.yul\":5657:5659   */\n      0x20\n        /* \"#utility.yul\":5652:5655   */\n      dup4\n        /* \"#utility.yul\":5593:5660   */\n      tag_295\n      jump\t// in\n    tag_337:\n        /* \"#utility.yul\":5586:5660   */\n      swap2\n      pop\n        /* \"#utility.yul\":5669:5762   */\n      tag_338\n        /* \"#utility.yul\":5758:5761   */\n      dup3\n        /* \"#utility.yul\":5669:5762   */\n      tag_339\n      jump\t// in\n    tag_338:\n        /* \"#utility.yul\":5787:5789   */\n      0x20\n        /* \"#utility.yul\":5782:5785   */\n      dup3\n        /* \"#utility.yul\":5778:5790   */\n      add\n        /* \"#utility.yul\":5771:5790   */\n      swap1\n      pop\n        /* \"#utility.yul\":5430:5796   */\n      swap2\n      swap1\n      pop\n      jump\t// out\n        /* \"#utility.yul\":5802:6168   */\n    tag_340:\n        /* \"#utility.yul\":5944:5947   */\n      0x00\n        /* \"#utility.yul\":5965:6032   */\n      tag_342\n        /* \"#utility.yul\":6029:6031   */\n      0x21\n        /* \"#utility.yul\":6024:6027   */\n      dup4\n        /* \"#utility.yul\":5965:6032   */\n      tag_295\n      jump\t// in\n    tag_342:\n        /* \"#utility.yul\":5958:6032   */\n      swap2\n      pop\n        /* \"#utility.yul\":6041:6134   */\n      tag_343\n        /* \"#utility.yul\":6130:6133   */\n      dup3\n        /* \"#utility.yul\":6041:6134   */\n      tag_344\n      jump\t// in\n    tag_343:\n        /* \"#utility.yul\":6159:6161   */\n      0x40\n        /* \"#utility.yul\":6154:6157   */\n      dup3\n        /* \"#utility.yul\":6150:6162   */\n      add\n        /* \"#utility.yul\":6143:6162   */\n      swap1\n      pop\n        /* \"#utility.yul\":5802:6168   */\n      swap2\n      swap1\n      pop\n      jump\t// out\n        /* \"#utility.yul\":6174:6540   */\n    tag_345:\n        /* \"#utility.yul\":6316:6319   */\n      0x00\n        /* \"#utility.yul\":6337:6404   */\n      tag_347\n        /* \"#utility.yul\":6401:6403   */\n      0x25\n        /* \"#utility.yul\":6396:6399   */\n      dup4\n        /* \"#utility.yul\":6337:6404   */\n      tag_295\n      jump\t// in\n    tag_347:\n        /* \"#utility.yul\":6330:6404   */\n      swap2\n      pop\n        /* \"#utility.yul\":6413:6506   */\n      tag_348\n        /* \"#utility.yul\":6502:6505   */\n      dup3\n        /* \"#utility.yul\":6413:6506   */\n      tag_349\n      jump\t// in\n    tag_348:\n        /* \"#utility.yul\":6531:6533   */\n      0x40\n        /* \"#utility.yul\":6526:6529   */\n      dup3\n        /* \"#utility.yul\":6522:6534   */\n      add\n        /* \"#utility.yul\":6515:6534   */\n      swap1\n      pop\n        /* \"#utility.yul\":6174:6540   */\n      swap2\n      swap1\n      pop\n      jump\t// out\n        /* \"#utility.yul\":6546:6912   */\n    tag_350:\n        /* \"#utility.yul\":6688:6691   */\n      0x00\n        /* \"#utility.yul\":6709:6776   */\n      tag_352\n        /* \"#utility.yul\":6773:6775   */\n      0x24\n        /* \"#utility.yul\":6768:6771   */\n      dup4\n        /* \"#utility.yul\":6709:6776   */\n      tag_295\n      jump\t// in\n    tag_352:\n        /* \"#utility.yul\":6702:6776   */\n      swap2\n      pop\n        /* \"#utility.yul\":6785:6878   */\n      tag_353\n        /* \"#utility.yul\":6874:6877   */\n      dup3\n        /* \"#utility.yul\":6785:6878   */\n      tag_354\n      jump\t// in\n    tag_353:\n        /* \"#utility.yul\":6903:6905   */\n      0x40\n        /* \"#utility.yul\":6898:6901   */\n      dup3\n        /* \"#utility.yul\":6894:6906   */\n      add\n        /* \"#utility.yul\":6887:6906   */\n      swap1\n      pop\n        /* \"#utility.yul\":6546:6912   */\n      swap2\n      swap1\n      pop\n      jump\t// out\n        /* \"#utility.yul\":6918:7284   */\n    tag_355:\n        /* \"#utility.yul\":7060:7063   */\n      0x00\n        /* \"#utility.yul\":7081:7148   */\n      tag_357\n        /* \"#utility.yul\":7145:7147   */\n      0x25\n        /* \"#utility.yul\":7140:7143   */\n      dup4\n        /* \"#utility.yul\":7081:7148   */\n      tag_295\n      jump\t// in\n    tag_357:\n        /* \"#utility.yul\":7074:7148   */\n      swap2\n      pop\n        /* \"#utility.yul\":7157:7250   */\n      tag_358\n        /* \"#utility.yul\":7246:7249   */\n      dup3\n        /* \"#utility.yul\":7157:7250   */\n      tag_359\n      jump\t// in\n    tag_358:\n        /* \"#utility.yul\":7275:7277   */\n      0x40\n        /* \"#utility.yul\":7270:7273   */\n      dup3\n        /* \"#utility.yul\":7266:7278   */\n      add\n        /* \"#utility.yul\":7259:7278   */\n      swap1\n      pop\n        /* \"#utility.yul\":6918:7284   */\n      swap2\n      swap1\n      pop\n      jump\t// out\n        /* \"#utility.yul\":7290:7656   */\n    tag_360:\n        /* \"#utility.yul\":7432:7435   */\n      0x00\n        /* \"#utility.yul\":7453:7520   */\n      tag_362\n        /* \"#utility.yul\":7517:7519   */\n      0x1f\n        /* \"#utility.yul\":7512:7515   */\n      dup4\n        /* \"#utility.yul\":7453:7520   */\n      tag_295\n      jump\t// in\n    tag_362:\n        /* \"#utility.yul\":7446:7520   */\n      swap2\n      pop\n        /* \"#utility.yul\":7529:7622   */\n      tag_363\n        /* \"#utility.yul\":7618:7621   */\n      dup3\n        /* \"#utility.yul\":7529:7622   */\n      tag_364\n      jump\t// in\n    tag_363:\n        /* \"#utility.yul\":7647:7649   */\n      0x20\n        /* \"#utility.yul\":7642:7645   */\n      dup3\n        /* \"#utility.yul\":7638:7650   */\n      add\n        /* \"#utility.yul\":7631:7650   */\n      swap1\n      pop\n        /* \"#utility.yul\":7290:7656   */\n      swap2\n      swap1\n      pop\n      jump\t// out\n        /* \"#utility.yul\":7662:7780   */\n    tag_365:\n        /* \"#utility.yul\":7749:7773   */\n      tag_367\n        /* \"#utility.yul\":7767:7772   */\n      dup2\n        /* \"#utility.yul\":7749:7773   */\n      tag_368\n      jump\t// in\n    tag_367:\n        /* \"#utility.yul\":7744:7747   */\n      dup3\n        /* \"#utility.yul\":7737:7774   */\n      mstore\n        /* \"#utility.yul\":7662:7780   */\n      pop\n      pop\n      jump\t// out\n        /* \"#utility.yul\":7786:7898   */\n    tag_369:\n        /* \"#utility.yul\":7869:7891   */\n      tag_371\n        /* \"#utility.yul\":7885:7890   */\n      dup2\n        /* \"#utility.yul\":7869:7891   */\n      tag_372\n      jump\t// in\n    tag_371:\n        /* \"#utility.yul\":7864:7867   */\n      dup3\n        /* \"#utility.yul\":7857:7892   */\n      mstore\n        /* \"#utility.yul\":7786:7898   */\n      pop\n      pop\n      jump\t// out\n        /* \"#utility.yul\":7904:8126   */\n    tag_75:\n        /* \"#utility.yul\":7997:8001   */\n      0x00\n        /* \"#utility.yul\":8035:8037   */\n      0x20\n        /* \"#utility.yul\":8024:8033   */\n      dup3\n        /* \"#utility.yul\":8020:8038   */\n      add\n        /* \"#utility.yul\":8012:8038   */\n      swap1\n      pop\n        /* \"#utility.yul\":8048:8119   */\n      tag_374\n        /* \"#utility.yul\":8116:8117   */\n      0x00\n        /* \"#utility.yul\":8105:8114   */\n      dup4\n        /* \"#utility.yul\":8101:8118   */\n      add\n        /* \"#utility.yul\":8092:8098   */\n      dup5\n        /* \"#utility.yul\":8048:8119   */\n      tag_282\n      jump\t// in\n    tag_374:\n        /* \"#utility.yul\":7904:8126   */\n      swap3\n      swap2\n      pop\n      pop\n      jump\t// out\n        /* \"#utility.yul\":8132:8342   */\n    tag_34:\n        /* \"#utility.yul\":8219:8223   */\n      0x00\n        /* \"#utility.yul\":8257:8259   */\n      0x20\n        /* \"#utility.yul\":8246:8255   */\n      dup3\n        /* \"#utility.yul\":8242:8260   */\n      add\n        /* \"#utility.yul\":8234:8260   */\n      swap1\n      pop\n        /* \"#utility.yul\":8270:8335   */\n      tag_376\n        /* \"#utility.yul\":8332:8333   */\n      0x00\n        /* \"#utility.yul\":8321:8330   */\n      dup4\n        /* \"#utility.yul\":8317:8334   */\n      add\n        /* \"#utility.yul\":8308:8314   */\n      dup5\n        /* \"#utility.yul\":8270:8335   */\n      tag_286\n      jump\t// in\n    tag_376:\n        /* \"#utility.yul\":8132:8342   */\n      swap3\n      swap2\n      pop\n      pop\n      jump\t// out\n        /* \"#utility.yul\":8348:8661   */\n    tag_28:\n        /* \"#utility.yul\":8461:8465   */\n      0x00\n        /* \"#utility.yul\":8499:8501   */\n      0x20\n        /* \"#utility.yul\":8488:8497   */\n      dup3\n        /* \"#utility.yul\":8484:8502   */\n      add\n        /* \"#utility.yul\":8476:8502   */\n      swap1\n      pop\n        /* \"#utility.yul\":8548:8557   */\n      dup2\n        /* \"#utility.yul\":8542:8546   */\n      dup2\n        /* \"#utility.yul\":8538:8558   */\n      sub\n        /* \"#utility.yul\":8534:8535   */\n      0x00\n        /* \"#utility.yul\":8523:8532   */\n      dup4\n        /* \"#utility.yul\":8519:8536   */\n      add\n        /* \"#utility.yul\":8512:8559   */\n      mstore\n        /* \"#utility.yul\":8576:8654   */\n      tag_378\n        /* \"#utility.yul\":8649:8653   */\n      dup2\n        /* \"#utility.yul\":8640:8646   */\n      dup5\n        /* \"#utility.yul\":8576:8654   */\n      tag_290\n      jump\t// in\n    tag_378:\n        /* \"#utility.yul\":8568:8654   */\n      swap1\n      pop\n        /* \"#utility.yul\":8348:8661   */\n      swap3\n      swap2\n      pop\n      pop\n      jump\t// out\n        /* \"#utility.yul\":8667:9086   */\n    tag_216:\n        /* \"#utility.yul\":8833:8837   */\n      0x00\n        /* \"#utility.yul\":8871:8873   */\n      0x20\n        /* \"#utility.yul\":8860:8869   */\n      dup3\n        /* \"#utility.yul\":8856:8874   */\n      add\n        /* \"#utility.yul\":8848:8874   */\n      swap1\n      pop\n        /* \"#utility.yul\":8920:8929   */\n      dup2\n        /* \"#utility.yul\":8914:8918   */\n      dup2\n        /* \"#utility.yul\":8910:8930   */\n      sub\n        /* \"#utility.yul\":8906:8907   */\n      0x00\n        /* \"#utility.yul\":8895:8904   */\n      dup4\n        /* \"#utility.yul\":8891:8908   */\n      add\n        /* \"#utility.yul\":8884:8931   */\n      mstore\n        /* \"#utility.yul\":8948:9079   */\n      tag_380\n        /* \"#utility.yul\":9074:9078   */\n      dup2\n        /* \"#utility.yul\":8948:9079   */\n      tag_300\n      jump\t// in\n    tag_380:\n        /* \"#utility.yul\":8940:9079   */\n      swap1\n      pop\n        /* \"#utility.yul\":8667:9086   */\n      swap2\n      swap1\n      pop\n      jump\t// out\n        /* \"#utility.yul\":9092:9511   */\n    tag_247:\n        /* \"#utility.yul\":9258:9262   */\n      0x00\n        /* \"#utility.yul\":9296:9298   */\n      0x20\n        /* \"#utility.yul\":9285:9294   */\n      dup3\n        /* \"#utility.yul\":9281:9299   */\n      add\n        /* \"#utility.yul\":9273:9299   */\n      swap1\n      pop\n        /* \"#utility.yul\":9345:9354   */\n      dup2\n        /* \"#utility.yul\":9339:9343   */\n      dup2\n        /* \"#utility.yul\":9335:9355   */\n      sub\n        /* \"#utility.yul\":9331:9332   */\n      0x00\n        /* \"#utility.yul\":9320:9329   */\n      dup4\n        /* \"#utility.yul\":9316:9333   */\n      add\n        /* \"#utility.yul\":9309:9356   */\n      mstore\n        /* \"#utility.yul\":9373:9504   */\n      tag_382\n        /* \"#utility.yul\":9499:9503   */\n      dup2\n        /* \"#utility.yul\":9373:9504   */\n      tag_305\n      jump\t// in\n    tag_382:\n        /* \"#utility.yul\":9365:9504   */\n      swap1\n      pop\n        /* \"#utility.yul\":9092:9511   */\n      swap2\n      swap1\n      pop\n      jump\t// out\n        /* \"#utility.yul\":9517:9936   */\n    tag_189:\n        /* \"#utility.yul\":9683:9687   */\n      0x00\n        /* \"#utility.yul\":9721:9723   */\n      0x20\n        /* \"#utility.yul\":9710:9719   */\n      dup3\n        /* \"#utility.yul\":9706:9724   */\n      add\n        /* \"#utility.yul\":9698:9724   */\n      swap1\n      pop\n        /* \"#utility.yul\":9770:9779   */\n      dup2\n        /* \"#utility.yul\":9764:9768   */\n      dup2\n        /* \"#utility.yul\":9760:9780   */\n      sub\n        /* \"#utility.yul\":9756:9757   */\n      0x00\n        /* \"#utility.yul\":9745:9754   */\n      dup4\n        /* \"#utility.yul\":9741:9758   */\n      add\n        /* \"#utility.yul\":9734:9781   */\n      mstore\n        /* \"#utility.yul\":9798:9929   */\n      tag_384\n        /* \"#utility.yul\":9924:9928   */\n      dup2\n        /* \"#utility.yul\":9798:9929   */\n      tag_310\n      jump\t// in\n    tag_384:\n        /* \"#utility.yul\":9790:9929   */\n      swap1\n      pop\n        /* \"#utility.yul\":9517:9936   */\n      swap2\n      swap1\n      pop\n      jump\t// out\n        /* \"#utility.yul\":9942:10361   */\n    tag_201:\n        /* \"#utility.yul\":10108:10112   */\n      0x00\n        /* \"#utility.yul\":10146:10148   */\n      0x20\n        /* \"#utility.yul\":10135:10144   */\n      dup3\n        /* \"#utility.yul\":10131:10149   */\n      add\n        /* \"#utility.yul\":10123:10149   */\n      swap1\n      pop\n        /* \"#utility.yul\":10195:10204   */\n      dup2\n        /* \"#utility.yul\":10189:10193   */\n      dup2\n        /* \"#utility.yul\":10185:10205   */\n      sub\n        /* \"#utility.yul\":10181:10182   */\n      0x00\n        /* \"#utility.yul\":10170:10179   */\n      dup4\n        /* \"#utility.yul\":10166:10183   */\n      add\n        /* \"#utility.yul\":10159:10206   */\n      mstore\n        /* \"#utility.yul\":10223:10354   */\n      tag_386\n        /* \"#utility.yul\":10349:10353   */\n      dup2\n        /* \"#utility.yul\":10223:10354   */\n      tag_315\n      jump\t// in\n    tag_386:\n        /* \"#utility.yul\":10215:10354   */\n      swap1\n      pop\n        /* \"#utility.yul\":9942:10361   */\n      swap2\n      swap1\n      pop\n      jump\t// out\n        /* \"#utility.yul\":10367:10786   */\n    tag_208:\n        /* \"#utility.yul\":10533:10537   */\n      0x00\n        /* \"#utility.yul\":10571:10573   */\n      0x20\n        /* \"#utility.yul\":10560:10569   */\n      dup3\n        /* \"#utility.yul\":10556:10574   */\n      add\n        /* \"#utility.yul\":10548:10574   */\n      swap1\n      pop\n        /* \"#utility.yul\":10620:10629   */\n      dup2\n        /* \"#utility.yul\":10614:10618   */\n      dup2\n        /* \"#utility.yul\":10610:10630   */\n      sub\n        /* \"#utility.yul\":10606:10607   */\n      0x00\n        /* \"#utility.yul\":10595:10604   */\n      dup4\n        /* \"#utility.yul\":10591:10608   */\n      add\n        /* \"#utility.yul\":10584:10631   */\n      mstore\n        /* \"#utility.yul\":10648:10779   */\n      tag_388\n        /* \"#utility.yul\":10774:10778   */\n      dup2\n        /* \"#utility.yul\":10648:10779   */\n      tag_320\n      jump\t// in\n    tag_388:\n        /* \"#utility.yul\":10640:10779   */\n      swap1\n      pop\n        /* \"#utility.yul\":10367:10786   */\n      swap2\n      swap1\n      pop\n      jump\t// out\n        /* \"#utility.yul\":10792:11211   */\n    tag_220:\n        /* \"#utility.yul\":10958:10962   */\n      0x00\n        /* \"#utility.yul\":10996:10998   */\n      0x20\n        /* \"#utility.yul\":10985:10994   */\n      dup3\n        /* \"#utility.yul\":10981:10999   */\n      add\n        /* \"#utility.yul\":10973:10999   */\n      swap1\n      pop\n        /* \"#utility.yul\":11045:11054   */\n      dup2\n        /* \"#utility.yul\":11039:11043   */\n      dup2\n        /* \"#utility.yul\":11035:11055   */\n      sub\n        /* \"#utility.yul\":11031:11032   */\n      0x00\n        /* \"#utility.yul\":11020:11029   */\n      dup4\n        /* \"#utility.yul\":11016:11033   */\n      add\n        /* \"#utility.yul\":11009:11056   */\n      mstore\n        /* \"#utility.yul\":11073:11204   */\n      tag_390\n        /* \"#utility.yul\":11199:11203   */\n      dup2\n        /* \"#utility.yul\":11073:11204   */\n      tag_325\n      jump\t// in\n    tag_390:\n        /* \"#utility.yul\":11065:11204   */\n      swap1\n      pop\n        /* \"#utility.yul\":10792:11211   */\n      swap2\n      swap1\n      pop\n      jump\t// out\n        /* \"#utility.yul\":11217:11636   */\n    tag_142:\n        /* \"#utility.yul\":11383:11387   */\n      0x00\n        /* \"#utility.yul\":11421:11423   */\n      0x20\n        /* \"#utility.yul\":11410:11419   */\n      dup3\n        /* \"#utility.yul\":11406:11424   */\n      add\n        /* \"#utility.yul\":11398:11424   */\n      swap1\n      pop\n        /* \"#utility.yul\":11470:11479   */\n      dup2\n        /* \"#utility.yul\":11464:11468   */\n      dup2\n        /* \"#utility.yul\":11460:11480   */\n      sub\n        /* \"#utility.yul\":11456:11457   */\n      0x00\n        /* \"#utility.yul\":11445:11454   */\n      dup4\n        /* \"#utility.yul\":11441:11458   */\n      add\n        /* \"#utility.yul\":11434:11481   */\n      mstore\n        /* \"#utility.yul\":11498:11629   */\n      tag_392\n        /* \"#utility.yul\":11624:11628   */\n      dup2\n        /* \"#utility.yul\":11498:11629   */\n      tag_330\n      jump\t// in\n    tag_392:\n        /* \"#utility.yul\":11490:11629   */\n      swap1\n      pop\n        /* \"#utility.yul\":11217:11636   */\n      swap2\n      swap1\n      pop\n      jump\t// out\n        /* \"#utility.yul\":11642:12061   */\n    tag_229:\n        /* \"#utility.yul\":11808:11812   */\n      0x00\n        /* \"#utility.yul\":11846:11848   */\n      0x20\n        /* \"#utility.yul\":11835:11844   */\n      dup3\n        /* \"#utility.yul\":11831:11849   */\n      add\n        /* \"#utility.yul\":11823:11849   */\n      swap1\n      pop\n        /* \"#utility.yul\":11895:11904   */\n      dup2\n        /* \"#utility.yul\":11889:11893   */\n      dup2\n        /* \"#utility.yul\":11885:11905   */\n      sub\n        /* \"#utility.yul\":11881:11882   */\n      0x00\n        /* \"#utility.yul\":11870:11879   */\n      dup4\n        /* \"#utility.yul\":11866:11883   */\n      add\n        /* \"#utility.yul\":11859:11906   */\n      mstore\n        /* \"#utility.yul\":11923:12054   */\n      tag_394\n        /* \"#utility.yul\":12049:12053   */\n      dup2\n        /* \"#utility.yul\":11923:12054   */\n      tag_335\n      jump\t// in\n    tag_394:\n        /* \"#utility.yul\":11915:12054   */\n      swap1\n      pop\n        /* \"#utility.yul\":11642:12061   */\n      swap2\n      swap1\n      pop\n      jump\t// out\n        /* \"#utility.yul\":12067:12486   */\n    tag_243:\n        /* \"#utility.yul\":12233:12237   */\n      0x00\n        /* \"#utility.yul\":12271:12273   */\n      0x20\n        /* \"#utility.yul\":12260:12269   */\n      dup3\n        /* \"#utility.yul\":12256:12274   */\n      add\n        /* \"#utility.yul\":12248:12274   */\n      swap1\n      pop\n        /* \"#utility.yul\":12320:12329   */\n      dup2\n        /* \"#utility.yul\":12314:12318   */\n      dup2\n        /* \"#utility.yul\":12310:12330   */\n      sub\n        /* \"#utility.yul\":12306:12307   */\n      0x00\n        /* \"#utility.yul\":12295:12304   */\n      dup4\n        /* \"#utility.yul\":12291:12308   */\n      add\n        /* \"#utility.yul\":12284:12331   */\n      mstore\n        /* \"#utility.yul\":12348:12479   */\n      tag_396\n        /* \"#utility.yul\":12474:12478   */\n      dup2\n        /* \"#utility.yul\":12348:12479   */\n      tag_340\n      jump\t// in\n    tag_396:\n        /* \"#utility.yul\":12340:12479   */\n      swap1\n      pop\n        /* \"#utility.yul\":12067:12486   */\n      swap2\n      swap1\n      pop\n      jump\t// out\n        /* \"#utility.yul\":12492:12911   */\n    tag_213:\n        /* \"#utility.yul\":12658:12662   */\n      0x00\n        /* \"#utility.yul\":12696:12698   */\n      0x20\n        /* \"#utility.yul\":12685:12694   */\n      dup3\n        /* \"#utility.yul\":12681:12699   */\n      add\n        /* \"#utility.yul\":12673:12699   */\n      swap1\n      pop\n        /* \"#utility.yul\":12745:12754   */\n      dup2\n        /* \"#utility.yul\":12739:12743   */\n      dup2\n        /* \"#utility.yul\":12735:12755   */\n      sub\n        /* \"#utility.yul\":12731:12732   */\n      0x00\n        /* \"#utility.yul\":12720:12729   */\n      dup4\n        /* \"#utility.yul\":12716:12733   */\n      add\n        /* \"#utility.yul\":12709:12756   */\n      mstore\n        /* \"#utility.yul\":12773:12904   */\n      tag_398\n        /* \"#utility.yul\":12899:12903   */\n      dup2\n        /* \"#utility.yul\":12773:12904   */\n      tag_345\n      jump\t// in\n    tag_398:\n        /* \"#utility.yul\":12765:12904   */\n      swap1\n      pop\n        /* \"#utility.yul\":12492:12911   */\n      swap2\n      swap1\n      pop\n      jump\t// out\n        /* \"#utility.yul\":12917:13336   */\n    tag_198:\n        /* \"#utility.yul\":13083:13087   */\n      0x00\n        /* \"#utility.yul\":13121:13123   */\n      0x20\n        /* \"#utility.yul\":13110:13119   */\n      dup3\n        /* \"#utility.yul\":13106:13124   */\n      add\n        /* \"#utility.yul\":13098:13124   */\n      swap1\n      pop\n        /* \"#utility.yul\":13170:13179   */\n      dup2\n        /* \"#utility.yul\":13164:13168   */\n      dup2\n        /* \"#utility.yul\":13160:13180   */\n      sub\n        /* \"#utility.yul\":13156:13157   */\n      0x00\n        /* \"#utility.yul\":13145:13154   */\n      dup4\n        /* \"#utility.yul\":13141:13158   */\n      add\n        /* \"#utility.yul\":13134:13181   */\n      mstore\n        /* \"#utility.yul\":13198:13329   */\n      tag_400\n        /* \"#utility.yul\":13324:13328   */\n      dup2\n        /* \"#utility.yul\":13198:13329   */\n      tag_350\n      jump\t// in\n    tag_400:\n        /* \"#utility.yul\":13190:13329   */\n      swap1\n      pop\n        /* \"#utility.yul\":12917:13336   */\n      swap2\n      swap1\n      pop\n      jump\t// out\n        /* \"#utility.yul\":13342:13761   */\n    tag_176:\n        /* \"#utility.yul\":13508:13512   */\n      0x00\n        /* \"#utility.yul\":13546:13548   */\n      0x20\n        /* \"#utility.yul\":13535:13544   */\n      dup3\n        /* \"#utility.yul\":13531:13549   */\n      add\n        /* \"#utility.yul\":13523:13549   */\n      swap1\n      pop\n        /* \"#utility.yul\":13595:13604   */\n      dup2\n        /* \"#utility.yul\":13589:13593   */\n      dup2\n        /* \"#utility.yul\":13585:13605   */\n      sub\n        /* \"#utility.yul\":13581:13582   */\n      0x00\n        /* \"#utility.yul\":13570:13579   */\n      dup4\n        /* \"#utility.yul\":13566:13583   */\n      add\n        /* \"#utility.yul\":13559:13606   */\n      mstore\n        /* \"#utility.yul\":13623:13754   */\n      tag_402\n        /* \"#utility.yul\":13749:13753   */\n      dup2\n        /* \"#utility.yul\":13623:13754   */\n      tag_355\n      jump\t// in\n    tag_402:\n        /* \"#utility.yul\":13615:13754   */\n      swap1\n      pop\n        /* \"#utility.yul\":13342:13761   */\n      swap2\n      swap1\n      pop\n      jump\t// out\n        /* \"#utility.yul\":13767:14186   */\n    tag_137:\n        /* \"#utility.yul\":13933:13937   */\n      0x00\n        /* \"#utility.yul\":13971:13973   */\n      0x20\n        /* \"#utility.yul\":13960:13969   */\n      dup3\n        /* \"#utility.yul\":13956:13974   */\n      add\n        /* \"#utility.yul\":13948:13974   */\n      swap1\n      pop\n        /* \"#utility.yul\":14020:14029   */\n      dup2\n        /* \"#utility.yul\":14014:14018   */\n      dup2\n        /* \"#utility.yul\":14010:14030   */\n      sub\n        /* \"#utility.yul\":14006:14007   */\n      0x00\n        /* \"#utility.yul\":13995:14004   */\n      dup4\n        /* \"#utility.yul\":13991:14008   */\n      add\n        /* \"#utility.yul\":13984:14031   */\n      mstore\n        /* \"#utility.yul\":14048:14179   */\n      tag_404\n        /* \"#utility.yul\":14174:14178   */\n      dup2\n        /* \"#utility.yul\":14048:14179   */\n      tag_360\n      jump\t// in\n    tag_404:\n        /* \"#utility.yul\":14040:14179   */\n      swap1\n      pop\n        /* \"#utility.yul\":13767:14186   */\n      swap2\n      swap1\n      pop\n      jump\t// out\n        /* \"#utility.yul\":14192:14414   */\n    tag_38:\n        /* \"#utility.yul\":14285:14289   */\n      0x00\n        /* \"#utility.yul\":14323:14325   */\n      0x20\n        /* \"#utility.yul\":14312:14321   */\n      dup3\n        /* \"#utility.yul\":14308:14326   */\n      add\n        /* \"#utility.yul\":14300:14326   */\n      swap1\n      pop\n        /* \"#utility.yul\":14336:14407   */\n      tag_406\n        /* \"#utility.yul\":14404:14405   */\n      0x00\n        /* \"#utility.yul\":14393:14402   */\n      dup4\n        /* \"#utility.yul\":14389:14406   */\n      add\n        /* \"#utility.yul\":14380:14386   */\n      dup5\n        /* \"#utility.yul\":14336:14407   */\n      tag_365\n      jump\t// in\n    tag_406:\n        /* \"#utility.yul\":14192:14414   */\n      swap3\n      swap2\n      pop\n      pop\n      jump\t// out\n        /* \"#utility.yul\":14420:14634   */\n    tag_47:\n        /* \"#utility.yul\":14509:14513   */\n      0x00\n        /* \"#utility.yul\":14547:14549   */\n      0x20\n        /* \"#utility.yul\":14536:14545   */\n      dup3\n        /* \"#utility.yul\":14532:14550   */\n      add\n        /* \"#utility.yul\":14524:14550   */\n      swap1\n      pop\n        /* \"#utility.yul\":14560:14627   */\n      tag_408\n        /* \"#utility.yul\":14624:14625   */\n      0x00\n        /* \"#utility.yul\":14613:14622   */\n      dup4\n        /* \"#utility.yul\":14609:14626   */\n      add\n        /* \"#utility.yul\":14600:14606   */\n      dup5\n        /* \"#utility.yul\":14560:14627   */\n      tag_369\n      jump\t// in\n    tag_408:\n        /* \"#utility.yul\":14420:14634   */\n      swap3\n      swap2\n      pop\n      pop\n      jump\t// out\n        /* \"#utility.yul\":14721:14820   */\n    tag_293:\n        /* \"#utility.yul\":14773:14779   */\n      0x00\n        /* \"#utility.yul\":14807:14812   */\n      dup2\n        /* \"#utility.yul\":14801:14813   */\n      mload\n        /* \"#utility.yul\":14791:14813   */\n      swap1\n      pop\n        /* \"#utility.yul\":14721:14820   */\n      swap2\n      swap1\n      pop\n      jump\t// out\n        /* \"#utility.yul\":14826:14995   */\n    tag_295:\n        /* \"#utility.yul\":14910:14921   */\n      0x00\n        /* \"#utility.yul\":14944:14950   */\n      dup3\n        /* \"#utility.yul\":14939:14942   */\n      dup3\n        /* \"#utility.yul\":14932:14951   */\n      mstore\n        /* \"#utility.yul\":14984:14988   */\n      0x20\n        /* \"#utility.yul\":14979:14982   */\n      dup3\n        /* \"#utility.yul\":14975:14989   */\n      add\n        /* \"#utility.yul\":14960:14989   */\n      swap1\n      pop\n        /* \"#utility.yul\":14826:14995   */\n      swap3\n      swap2\n      pop\n      pop\n      jump\t// out\n        /* \"#utility.yul\":15001:15306   */\n    tag_129:\n        /* \"#utility.yul\":15041:15044   */\n      0x00\n        /* \"#utility.yul\":15060:15080   */\n      tag_414\n        /* \"#utility.yul\":15078:15079   */\n      dup3\n        /* \"#utility.yul\":15060:15080   */\n      tag_368\n      jump\t// in\n    tag_414:\n        /* \"#utility.yul\":15055:15080   */\n      swap2\n      pop\n        /* \"#utility.yul\":15094:15114   */\n      tag_415\n        /* \"#utility.yul\":15112:15113   */\n      dup4\n        /* \"#utility.yul\":15094:15114   */\n      tag_368\n      jump\t// in\n    tag_415:\n        /* \"#utility.yul\":15089:15114   */\n      swap3\n      pop\n        /* \"#utility.yul\":15248:15249   */\n      dup3\n        /* \"#utility.yul\":15180:15246   */\n      0xffffffffffffffffffffffffffffffffffffffffffffffffffffffffffffffff\n        /* \"#utility.yul\":15176:15250   */\n      sub\n        /* \"#utility.yul\":15173:15174   */\n      dup3\n        /* \"#utility.yul\":15170:15251   */\n      gt\n        /* \"#utility.yul\":15167:15274   */\n      iszero\n      tag_416\n      jumpi\n        /* \"#utility.yul\":15254:15272   */\n      tag_417\n      tag_418\n      jump\t// in\n    tag_417:\n        /* \"#utility.yul\":15167:15274   */\n    tag_416:\n        /* \"#utility.yul\":15298:15299   */\n      dup3\n        /* \"#utility.yul\":15295:15296   */\n      dup3\n        /* \"#utility.yul\":15291:15300   */\n      add\n        /* \"#utility.yul\":15284:15300   */\n      swap1\n      pop\n        /* \"#utility.yul\":15001:15306   */\n      swap3\n      swap2\n      pop\n      pop\n      jump\t// out\n        /* \"#utility.yul\":15312:16160   */\n    tag_419:\n        /* \"#utility.yul\":15373:15378   */\n      0x00\n        /* \"#utility.yul\":15380:15384   */\n      dup1\n        /* \"#utility.yul\":15404:15410   */\n      dup3\n        /* \"#utility.yul\":15395:15410   */\n      swap2\n      pop\n        /* \"#utility.yul\":15428:15433   */\n      dup4\n        /* \"#utility.yul\":15419:15433   */\n      swap1\n      pop\n        /* \"#utility.yul\":15442:16154   */\n    tag_421:\n        /* \"#utility.yul\":15463:15464   */\n      0x01\n        /* \"#utility.yul\":15453:15461   */\n      dup6\n        /* \"#utility.yul\":15450:15465   */\n      gt\n        /* \"#utility.yul\":15442:16154   */\n      iszero\n      tag_423\n      jumpi\n        /* \"#utility.yul\":15558:15562   */\n      dup1\n        /* \"#utility.yul\":15553:15556   */\n      dup7\n        /* \"#utility.yul\":15549:15563   */\n      div\n        /* \"#utility.yul\":15543:15547   */\n      dup2\n        /* \"#utility.yul\":15540:15564   */\n      gt\n        /* \"#utility.yul\":15537:15587   */\n      iszero\n      tag_424\n      jumpi\n        /* \"#utility.yul\":15567:15585   */\n      tag_425\n      tag_418\n      jump\t// in\n    tag_425:\n        /* \"#utility.yul\":15537:15587   */\n    tag_424:\n        /* \"#utility.yul\":15617:15618   */\n      0x01\n        /* \"#utility.yul\":15607:15615   */\n      dup6\n        /* \"#utility.yul\":15603:15619   */\n      and\n        /* \"#utility.yul\":15600:16051   */\n      iszero\n      tag_426\n      jumpi\n        /* \"#utility.yul\":16032:16036   */\n      dup1\n        /* \"#utility.yul\":16025:16030   */\n      dup3\n        /* \"#utility.yul\":16021:16037   */\n      mul\n        /* \"#utility.yul\":16012:16037   */\n      swap2\n      pop\n        /* \"#utility.yul\":15600:16051   */\n    tag_426:\n        /* \"#utility.yul\":16082:16086   */\n      dup1\n        /* \"#utility.yul\":16076:16080   */\n      dup2\n        /* \"#utility.yul\":16072:16087   */\n      mul\n        /* \"#utility.yul\":16064:16087   */\n      swap1\n      pop\n        /* \"#utility.yul\":16112:16144   */\n      tag_427\n        /* \"#utility.yul\":16135:16143   */\n      dup6\n        /* \"#utility.yul\":16112:16144   */\n      tag_428\n      jump\t// in\n    tag_427:\n        /* \"#utility.yul\":16100:16144   */\n      swap5\n      pop\n        /* \"#utility.yul\":15442:16154   */\n      jump(tag_421)\n    tag_423:\n        /* \"#utility.yul\":15312:16160   */\n      swap5\n      pop\n      swap5\n      swap3\n      pop\n      pop\n      pop\n      jump\t// out\n        /* \"#utility.yul\":16166:16451   */\n    tag_121:\n        /* \"#utility.yul\":16226:16231   */\n      0x00\n        /* \"#utility.yul\":16250:16273   */\n      tag_430\n        /* \"#utility.yul\":16268:16272   */\n      dup3\n        /* \"#utility.yul\":16250:16273   */\n      tag_368\n      jump\t// in\n    tag_430:\n        /* \"#utility.yul\":16242:16273   */\n      swap2\n      pop\n        /* \"#utility.yul\":16294:16321   */\n      tag_431\n        /* \"#utility.yul\":16312:16320   */\n      dup4\n        /* \"#utility.yul\":16294:16321   */\n      tag_368\n      jump\t// in\n    tag_431:\n        /* \"#utility.yul\":16282:16321   */\n      swap3\n      pop\n        /* \"#utility.yul\":16340:16444   */\n      tag_432\n        /* \"#utility.yul\":16377:16443   */\n      0xffffffffffffffffffffffffffffffffffffffffffffffffffffffffffffffff\n        /* \"#utility.yul\":16367:16375   */\n      dup5\n        /* \"#utility.yul\":16361:16365   */\n      dup5\n        /* \"#utility.yul\":16340:16444   */\n      tag_433\n      jump\t// in\n    tag_432:\n        /* \"#utility.yul\":16331:16444   */\n      swap1\n      pop\n        /* \"#utility.yul\":16166:16451   */\n      swap3\n      swap2\n      pop\n      pop\n      jump\t// out\n        /* \"#utility.yul\":16457:17530   */\n    tag_433:\n        /* \"#utility.yul\":16511:16516   */\n      0x00\n        /* \"#utility.yul\":16702:16710   */\n      dup3\n        /* \"#utility.yul\":16692:16732   */\n      tag_435\n      jumpi\n        /* \"#utility.yul\":16723:16724   */\n      0x01\n        /* \"#utility.yul\":16714:16724   */\n      swap1\n      pop\n        /* \"#utility.yul\":16725:16730   */\n      jump(tag_434)\n        /* \"#utility.yul\":16692:16732   */\n    tag_435:\n        /* \"#utility.yul\":16751:16755   */\n      dup2\n        /* \"#utility.yul\":16741:16777   */\n      tag_436\n      jumpi\n        /* \"#utility.yul\":16768:16769   */\n      0x00\n        /* \"#utility.yul\":16759:16769   */\n      swap1\n      pop\n        /* \"#utility.yul\":16770:16775   */\n      jump(tag_434)\n        /* \"#utility.yul\":16741:16777   */\n    tag_436:\n        /* \"#utility.yul\":16837:16841   */\n      dup2\n        /* \"#utility.yul\":16885:16886   */\n      0x01\n        /* \"#utility.yul\":16880:16907   */\n      dup2\n      eq\n      tag_438\n      jumpi\n        /* \"#utility.yul\":16921:16922   */\n      0x02\n        /* \"#utility.yul\":16916:17107   */\n      dup2\n      eq\n      tag_439\n      jumpi\n        /* \"#utility.yul\":16830:17107   */\n      jump(tag_437)\n        /* \"#utility.yul\":16880:16907   */\n    tag_438:\n        /* \"#utility.yul\":16898:16899   */\n      0x01\n        /* \"#utility.yul\":16889:16899   */\n      swap2\n      pop\n        /* \"#utility.yul\":16900:16905   */\n      pop\n      jump(tag_434)\n        /* \"#utility.yul\":16916:17107   */\n    tag_439:\n        /* \"#utility.yul\":16961:16964   */\n      0xff\n        /* \"#utility.yul\":16951:16959   */\n      dup5\n        /* \"#utility.yul\":16948:16965   */\n      gt\n        /* \"#utility.yul\":16945:16988   */\n      iszero\n      tag_440\n      jumpi\n        /* \"#utility.yul\":16968:16986   */\n      tag_441\n      tag_418\n      jump\t// in\n    tag_441:\n        /* \"#utility.yul\":16945:16988   */\n    tag_440:\n        /* \"#utility.yul\":17017:17025   */\n      dup4\n        /* \"#utility.yul\":17014:17015   */\n      0x02\n        /* \"#utility.yul\":17010:17026   */\n      exp\n        /* \"#utility.yul\":17001:17026   */\n      swap2\n      pop\n        /* \"#utility.yul\":17052:17055   */\n      dup5\n        /* \"#utility.yul\":17045:17050   */\n      dup3\n        /* \"#utility.yul\":17042:17056   */\n      gt\n        /* \"#utility.yul\":17039:17079   */\n      iszero\n      tag_442\n      jumpi\n        /* \"#utility.yul\":17059:17077   */\n      tag_443\n      tag_418\n      jump\t// in\n    tag_443:\n        /* \"#utility.yul\":17039:17079   */\n    tag_442:\n        /* \"#utility.yul\":17092:17097   */\n      pop\n      jump(tag_434)\n        /* \"#utility.yul\":16830:17107   */\n    tag_437:\n      pop\n        /* \"#utility.yul\":17216:17218   */\n      0x20\n        /* \"#utility.yul\":17206:17214   */\n      dup4\n        /* \"#utility.yul\":17203:17219   */\n      lt\n        /* \"#utility.yul\":17197:17200   */\n      0x0133\n        /* \"#utility.yul\":17191:17195   */\n      dup4\n        /* \"#utility.yul\":17188:17201   */\n      lt\n        /* \"#utility.yul\":17184:17220   */\n      and\n        /* \"#utility.yul\":17166:17168   */\n      0x4e\n        /* \"#utility.yul\":17156:17164   */\n      dup5\n        /* \"#utility.yul\":17153:17169   */\n      lt\n        /* \"#utility.yul\":17148:17150   */\n      0x0b\n        /* \"#utility.yul\":17142:17146   */\n      dup5\n        /* \"#utility.yul\":17139:17151   */\n      lt\n        /* \"#utility.yul\":17135:17170   */\n      and\n        /* \"#utility.yul\":17119:17230   */\n      or\n        /* \"#utility.yul\":17116:17362   */\n      iszero\n      tag_444\n      jumpi\n        /* \"#utility.yul\":17272:17280   */\n      dup3\n        /* \"#utility.yul\":17266:17270   */\n      dup3\n        /* \"#utility.yul\":17262:17281   */\n      exp\n        /* \"#utility.yul\":17253:17281   */\n      swap1\n      pop\n        /* \"#utility.yul\":17307:17310   */\n      dup4\n        /* \"#utility.yul\":17300:17305   */\n      dup2\n        /* \"#utility.yul\":17297:17311   */\n      gt\n        /* \"#utility.yul\":17294:17334   */\n      iszero\n      tag_445\n      jumpi\n        /* \"#utility.yul\":17314:17332   */\n      tag_446\n      tag_418\n      jump\t// in\n    tag_446:\n        /* \"#utility.yul\":17294:17334   */\n    tag_445:\n        /* \"#utility.yul\":17347:17352   */\n      jump(tag_434)\n        /* \"#utility.yul\":17116:17362   */\n    tag_444:\n        /* \"#utility.yul\":17387:17429   */\n      tag_447\n        /* \"#utility.yul\":17425:17428   */\n      dup5\n        /* \"#utility.yul\":17415:17423   */\n      dup5\n        /* \"#utility.yul\":17409:17413   */\n      dup5\n        /* \"#utility.yul\":17406:17407   */\n      0x01\n        /* \"#utility.yul\":17387:17429   */\n      tag_419\n      jump\t// in\n    tag_447:\n        /* \"#utility.yul\":17372:17429   */\n      swap3\n      pop\n      swap1\n      pop\n        /* \"#utility.yul\":17461:17465   */\n      dup2\n        /* \"#utility.yul\":17456:17459   */\n      dup5\n        /* \"#utility.yul\":17452:17466   */\n      div\n        /* \"#utility.yul\":17445:17450   */\n      dup2\n        /* \"#utility.yul\":17442:17467   */\n      gt\n        /* \"#utility.yul\":17439:17490   */\n      iszero\n      tag_448\n      jumpi\n        /* \"#utility.yul\":17470:17488   */\n      tag_449\n      tag_418\n      jump\t// in\n    tag_449:\n        /* \"#utility.yul\":17439:17490   */\n    tag_448:\n        /* \"#utility.yul\":17519:17523   */\n      dup2\n        /* \"#utility.yul\":17512:17517   */\n      dup2\n        /* \"#utility.yul\":17508:17524   */\n      mul\n        /* \"#utility.yul\":17499:17524   */\n      swap1\n      pop\n        /* \"#utility.yul\":16457:17530   */\n    tag_434:\n      swap4\n      swap3\n      pop\n      pop\n      pop\n      jump\t// out\n        /* \"#utility.yul\":17536:17884   */\n    tag_123:\n        /* \"#utility.yul\":17576:17583   */\n      0x00\n        /* \"#utility.yul\":17599:17619   */\n      tag_451\n        /* \"#utility.yul\":17617:17618   */\n      dup3\n        /* \"#utility.yul\":17599:17619   */\n      tag_368\n      jump\t// in\n    tag_451:\n        /* \"#utility.yul\":17594:17619   */\n      swap2\n      pop\n        /* \"#utility.yul\":17633:17653   */\n      tag_452\n        /* \"#utility.yul\":17651:17652   */\n      dup4\n        /* \"#utility.yul\":17633:17653   */\n      tag_368\n      jump\t// in\n    tag_452:\n        /* \"#utility.yul\":17628:17653   */\n      swap3\n      pop\n        /* \"#utility.yul\":17821:17822   */\n      dup2\n        /* \"#utility.yul\":17753:17819   */\n      0xffffffffffffffffffffffffffffffffffffffffffffffffffffffffffffffff\n        /* \"#utility.yul\":17749:17823   */\n      div\n        /* \"#utility.yul\":17746:17747   */\n      dup4\n        /* \"#utility.yul\":17743:17824   */\n      gt\n        /* \"#utility.yul\":17738:17739   */\n      dup3\n        /* \"#utility.yul\":17731:17740   */\n      iszero\n        /* \"#utility.yul\":17724:17741   */\n      iszero\n        /* \"#utility.yul\":17720:17825   */\n      and\n        /* \"#utility.yul\":17717:17848   */\n      iszero\n      tag_453\n      jumpi\n        /* \"#utility.yul\":17828:17846   */\n      tag_454\n      tag_418\n      jump\t// in\n    tag_454:\n        /* \"#utility.yul\":17717:17848   */\n    tag_453:\n        /* \"#utility.yul\":17876:17877   */\n      dup3\n        /* \"#utility.yul\":17873:17874   */\n      dup3\n        /* \"#utility.yul\":17869:17878   */\n      mul\n        /* \"#utility.yul\":17858:17878   */\n      swap1\n      pop\n        /* \"#utility.yul\":17536:17884   */\n      swap3\n      swap2\n      pop\n      pop\n      jump\t// out\n        /* \"#utility.yul\":17890:18081   */\n    tag_160:\n        /* \"#utility.yul\":17930:17934   */\n      0x00\n        /* \"#utility.yul\":17950:17970   */\n      tag_456\n        /* \"#utility.yul\":17968:17969   */\n      dup3\n        /* \"#utility.yul\":17950:17970   */\n      tag_368\n      jump\t// in\n    tag_456:\n        /* \"#utility.yul\":17945:17970   */\n      swap2\n      pop\n        /* \"#utility.yul\":17984:18004   */\n      tag_457\n        /* \"#utility.yul\":18002:18003   */\n      dup4\n        /* \"#utility.yul\":17984:18004   */\n      tag_368\n      jump\t// in\n    tag_457:\n        /* \"#utility.yul\":17979:18004   */\n      swap3\n      pop\n        /* \"#utility.yul\":18023:18024   */\n      dup3\n        /* \"#utility.yul\":18020:18021   */\n      dup3\n        /* \"#utility.yul\":18017:18025   */\n      lt\n        /* \"#utility.yul\":18014:18048   */\n      iszero\n      tag_458\n      jumpi\n        /* \"#utility.yul\":18028:18046   */\n      tag_459\n      tag_418\n      jump\t// in\n    tag_459:\n        /* \"#utility.yul\":18014:18048   */\n    tag_458:\n        /* \"#utility.yul\":18073:18074   */\n      dup3\n        /* \"#utility.yul\":18070:18071   */\n      dup3\n        /* \"#utility.yul\":18066:18075   */\n      sub\n        /* \"#utility.yul\":18058:18075   */\n      swap1\n      pop\n        /* \"#utility.yul\":17890:18081   */\n      swap3\n      swap2\n      pop\n      pop\n      jump\t// out\n        /* \"#utility.yul\":18087:18183   */\n    tag_285:\n        /* \"#utility.yul\":18124:18131   */\n      0x00\n        /* \"#utility.yul\":18153:18177   */\n      tag_461\n        /* \"#utility.yul\":18171:18176   */\n      dup3\n        /* \"#utility.yul\":18153:18177   */\n      tag_462\n      jump\t// in\n    tag_461:\n        /* \"#utility.yul\":18142:18177   */\n      swap1\n      pop\n        /* \"#utility.yul\":18087:18183   */\n      swap2\n      swap1\n      pop\n      jump\t// out\n        /* \"#utility.yul\":18189:18279   */\n    tag_289:\n        /* \"#utility.yul\":18223:18230   */\n      0x00\n        /* \"#utility.yul\":18266:18271   */\n      dup2\n        /* \"#utility.yul\":18259:18272   */\n      iszero\n        /* \"#utility.yul\":18252:18273   */\n      iszero\n        /* \"#utility.yul\":18241:18273   */\n      swap1\n      pop\n        /* \"#utility.yul\":18189:18279   */\n      swap2\n      swap1\n      pop\n      jump\t// out\n        /* \"#utility.yul\":18285:18411   */\n    tag_462:\n        /* \"#utility.yul\":18322:18329   */\n      0x00\n        /* \"#utility.yul\":18362:18404   */\n      0xffffffffffffffffffffffffffffffffffffffff\n        /* \"#utility.yul\":18355:18360   */\n      dup3\n        /* \"#utility.yul\":18351:18405   */\n      and\n        /* \"#utility.yul\":18340:18405   */\n      swap1\n      pop\n        /* \"#utility.yul\":18285:18411   */\n      swap2\n      swap1\n      pop\n      jump\t// out\n        /* \"#utility.yul\":18417:18494   */\n    tag_368:\n        /* \"#utility.yul\":18454:18461   */\n      0x00\n        /* \"#utility.yul\":18483:18488   */\n      dup2\n        /* \"#utility.yul\":18472:18488   */\n      swap1\n      pop\n        /* \"#utility.yul\":18417:18494   */\n      swap2\n      swap1\n      pop\n      jump\t// out\n        /* \"#utility.yul\":18500:18586   */\n    tag_372:\n        /* \"#utility.yul\":18535:18542   */\n      0x00\n        /* \"#utility.yul\":18575:18579   */\n      0xff\n        /* \"#utility.yul\":18568:18573   */\n      dup3\n        /* \"#utility.yul\":18564:18580   */\n      and\n        /* \"#utility.yul\":18553:18580   */\n      swap1\n      pop\n        /* \"#utility.yul\":18500:18586   */\n      swap2\n      swap1\n      pop\n      jump\t// out\n        /* \"#utility.yul\":18592:18899   */\n    tag_297:\n        /* \"#utility.yul\":18660:18661   */\n      0x00\n        /* \"#utility.yul\":18670:18783   */\n    tag_468:\n        /* \"#utility.yul\":18684:18690   */\n      dup4\n        /* \"#utility.yul\":18681:18682   */\n      dup2\n        /* \"#utility.yul\":18678:18691   */\n      lt\n        /* \"#utility.yul\":18670:18783   */\n      iszero\n      tag_470\n      jumpi\n        /* \"#utility.yul\":18769:18770   */\n      dup1\n        /* \"#utility.yul\":18764:18767   */\n      dup3\n        /* \"#utility.yul\":18760:18771   */\n      add\n        /* \"#utility.yul\":18754:18772   */\n      mload\n        /* \"#utility.yul\":18750:18751   */\n      dup2\n        /* \"#utility.yul\":18745:18748   */\n      dup5\n        /* \"#utility.yul\":18741:18752   */\n      add\n        /* \"#utility.yul\":18734:18773   */\n      mstore\n        /* \"#utility.yul\":18706:18708   */\n      0x20\n        /* \"#utility.yul\":18703:18704   */\n      dup2\n        /* \"#utility.yul\":18699:18709   */\n      add\n        /* \"#utility.yul\":18694:18709   */\n      swap1\n      pop\n        /* \"#utility.yul\":18670:18783   */\n      jump(tag_468)\n    tag_470:\n        /* \"#utility.yul\":18801:18807   */\n      dup4\n        /* \"#utility.yul\":18798:18799   */\n      dup2\n        /* \"#utility.yul\":18795:18808   */\n      gt\n        /* \"#utility.yul\":18792:18893   */\n      iszero\n      tag_471\n      jumpi\n        /* \"#utility.yul\":18881:18882   */\n      0x00\n        /* \"#utility.yul\":18872:18878   */\n      dup5\n        /* \"#utility.yul\":18867:18870   */\n      dup5\n        /* \"#utility.yul\":18863:18879   */\n      add\n        /* \"#utility.yul\":18856:18883   */\n      mstore\n        /* \"#utility.yul\":18792:18893   */\n    tag_471:\n        /* \"#utility.yul\":18641:18899   */\n      pop\n        /* \"#utility.yul\":18592:18899   */\n      pop\n      pop\n      pop\n      jump\t// out\n        /* \"#utility.yul\":18905:19225   */\n    tag_101:\n        /* \"#utility.yul\":18949:18955   */\n      0x00\n        /* \"#utility.yul\":18986:18987   */\n      0x02\n        /* \"#utility.yul\":18980:18984   */\n      dup3\n        /* \"#utility.yul\":18976:18988   */\n      div\n        /* \"#utility.yul\":18966:18988   */\n      swap1\n      pop\n        /* \"#utility.yul\":19033:19034   */\n      0x01\n        /* \"#utility.yul\":19027:19031   */\n      dup3\n        /* \"#utility.yul\":19023:19035   */\n      and\n        /* \"#utility.yul\":19054:19072   */\n      dup1\n        /* \"#utility.yul\":19044:19125   */\n      tag_473\n      jumpi\n        /* \"#utility.yul\":19110:19114   */\n      0x7f\n        /* \"#utility.yul\":19102:19108   */\n      dup3\n        /* \"#utility.yul\":19098:19115   */\n      and\n        /* \"#utility.yul\":19088:19115   */\n      swap2\n      pop\n        /* \"#utility.yul\":19044:19125   */\n    tag_473:\n        /* \"#utility.yul\":19172:19174   */\n      0x20\n        /* \"#utility.yul\":19164:19170   */\n      dup3\n        /* \"#utility.yul\":19161:19175   */\n      lt\n        /* \"#utility.yul\":19141:19159   */\n      dup2\n        /* \"#utility.yul\":19138:19176   */\n      eq\n        /* \"#utility.yul\":19135:19219   */\n      iszero\n      tag_474\n      jumpi\n        /* \"#utility.yul\":19191:19209   */\n      tag_475\n      tag_476\n      jump\t// in\n    tag_475:\n        /* \"#utility.yul\":19135:19219   */\n    tag_474:\n        /* \"#utility.yul\":18956:19225   */\n      pop\n        /* \"#utility.yul\":18905:19225   */\n      swap2\n      swap1\n      pop\n      jump\t// out\n        /* \"#utility.yul\":19231:19411   */\n    tag_418:\n        /* \"#utility.yul\":19279:19356   */\n      0x4e487b7100000000000000000000000000000000000000000000000000000000\n        /* \"#utility.yul\":19276:19277   */\n      0x00\n        /* \"#utility.yul\":19269:19357   */\n      mstore\n        /* \"#utility.yul\":19376:19380   */\n      0x11\n        /* \"#utility.yul\":19373:19374   */\n      0x04\n        /* \"#utility.yul\":19366:19381   */\n      mstore\n        /* \"#utility.yul\":19400:19404   */\n      0x24\n        /* \"#utility.yul\":19397:19398   */\n      0x00\n        /* \"#utility.yul\":19390:19405   */\n      revert\n        /* \"#utility.yul\":19417:19597   */\n    tag_476:\n        /* \"#utility.yul\":19465:19542   */\n      0x4e487b7100000000000000000000000000000000000000000000000000000000\n        /* \"#utility.yul\":19462:19463   */\n      0x00\n        /* \"#utility.yul\":19455:19543   */\n      mstore\n        /* \"#utility.yul\":19562:19566   */\n      0x22\n        /* \"#utility.yul\":19559:19560   */\n      0x04\n        /* \"#utility.yul\":19552:19567   */\n      mstore\n        /* \"#utility.yul\":19586:19590   */\n      0x24\n        /* \"#utility.yul\":19583:19584   */\n      0x00\n        /* \"#utility.yul\":19576:19591   */\n      revert\n        /* \"#utility.yul\":19726:19843   */\n    tag_264:\n        /* \"#utility.yul\":19835:19836   */\n      0x00\n        /* \"#utility.yul\":19832:19833   */\n      dup1\n        /* \"#utility.yul\":19825:19837   */\n      revert\n        /* \"#utility.yul\":19849:19951   */\n    tag_299:\n        /* \"#utility.yul\":19890:19896   */\n      0x00\n        /* \"#utility.yul\":19941:19943   */\n      0x1f\n        /* \"#utility.yul\":19937:19944   */\n      not\n        /* \"#utility.yul\":19932:19934   */\n      0x1f\n        /* \"#utility.yul\":19925:19930   */\n      dup4\n        /* \"#utility.yul\":19921:19935   */\n      add\n        /* \"#utility.yul\":19917:19945   */\n      and\n        /* \"#utility.yul\":19907:19945   */\n      swap1\n      pop\n        /* \"#utility.yul\":19849:19951   */\n      swap2\n      swap1\n      pop\n      jump\t// out\n        /* \"#utility.yul\":19957:20059   */\n    tag_428:\n        /* \"#utility.yul\":19999:20007   */\n      0x00\n        /* \"#utility.yul\":20046:20051   */\n      dup2\n        /* \"#utility.yul\":20043:20044   */\n      0x01\n        /* \"#utility.yul\":20039:20052   */\n      shr\n        /* \"#utility.yul\":20018:20052   */\n      swap1\n      pop\n        /* \"#utility.yul\":19957:20059   */\n      swap2\n      swap1\n      pop\n      jump\t// out\n        /* \"#utility.yul\":20065:20287   */\n    tag_304:\n        /* \"#utility.yul\":20205:20239   */\n      0x45524332303a207472616e7366657220746f20746865207a65726f2061646472\n        /* \"#utility.yul\":20201:20202   */\n      0x00\n        /* \"#utility.yul\":20193:20199   */\n      dup3\n        /* \"#utility.yul\":20189:20203   */\n      add\n        /* \"#utility.yul\":20182:20240   */\n      mstore\n        /* \"#utility.yul\":20274:20279   */\n      0x6573730000000000000000000000000000000000000000000000000000000000\n        /* \"#utility.yul\":20269:20271   */\n      0x20\n        /* \"#utility.yul\":20261:20267   */\n      dup3\n        /* \"#utility.yul\":20257:20272   */\n      add\n        /* \"#utility.yul\":20250:20280   */\n      mstore\n        /* \"#utility.yul\":20065:20287   */\n      pop\n      jump\t// out\n        /* \"#utility.yul\":20293:20514   */\n    tag_309:\n        /* \"#utility.yul\":20433:20467   */\n      0x45524332303a206275726e20616d6f756e7420657863656564732062616c616e\n        /* \"#utility.yul\":20429:20430   */\n      0x00\n        /* \"#utility.yul\":20421:20427   */\n      dup3\n        /* \"#utility.yul\":20417:20431   */\n      add\n        /* \"#utility.yul\":20410:20468   */\n      mstore\n        /* \"#utility.yul\":20502:20506   */\n      0x6365000000000000000000000000000000000000000000000000000000000000\n        /* \"#utility.yul\":20497:20499   */\n      0x20\n        /* \"#utility.yul\":20489:20495   */\n      dup3\n        /* \"#utility.yul\":20485:20500   */\n      add\n        /* \"#utility.yul\":20478:20507   */\n      mstore\n        /* \"#utility.yul\":20293:20514   */\n      pop\n      jump\t// out\n        /* \"#utility.yul\":20520:20745   */\n    tag_314:\n        /* \"#utility.yul\":20660:20694   */\n      0x4f776e61626c653a206e6577206f776e657220697320746865207a65726f2061\n        /* \"#utility.yul\":20656:20657   */\n      0x00\n        /* \"#utility.yul\":20648:20654   */\n      dup3\n        /* \"#utility.yul\":20644:20658   */\n      add\n        /* \"#utility.yul\":20637:20695   */\n      mstore\n        /* \"#utility.yul\":20729:20737   */\n      0x6464726573730000000000000000000000000000000000000000000000000000\n        /* \"#utility.yul\":20724:20726   */\n      0x20\n        /* \"#utility.yul\":20716:20722   */\n      dup3\n        /* \"#utility.yul\":20712:20727   */\n      add\n        /* \"#utility.yul\":20705:20738   */\n      mstore\n        /* \"#utility.yul\":20520:20745   */\n      pop\n      jump\t// out\n        /* \"#utility.yul\":20751:20972   */\n    tag_319:\n        /* \"#utility.yul\":20891:20925   */\n      0x45524332303a20617070726f766520746f20746865207a65726f206164647265\n        /* \"#utility.yul\":20887:20888   */\n      0x00\n        /* \"#utility.yul\":20879:20885   */\n      dup3\n        /* \"#utility.yul\":20875:20889   */\n      add\n        /* \"#utility.yul\":20868:20926   */\n      mstore\n        /* \"#utility.yul\":20960:20964   */\n      0x7373000000000000000000000000000000000000000000000000000000000000\n        /* \"#utility.yul\":20955:20957   */\n      0x20\n        /* \"#utility.yul\":20947:20953   */\n      dup3\n        /* \"#utility.yul\":20943:20958   */\n      add\n        /* \"#utility.yul\":20936:20965   */\n      mstore\n        /* \"#utility.yul\":20751:20972   */\n      pop\n      jump\t// out\n        /* \"#utility.yul\":20978:21157   */\n    tag_324:\n        /* \"#utility.yul\":21118:21149   */\n      0x45524332303a20696e73756666696369656e7420616c6c6f77616e6365000000\n        /* \"#utility.yul\":21114:21115   */\n      0x00\n        /* \"#utility.yul\":21106:21112   */\n      dup3\n        /* \"#utility.yul\":21102:21116   */\n      add\n        /* \"#utility.yul\":21095:21150   */\n      mstore\n        /* \"#utility.yul\":20978:21157   */\n      pop\n      jump\t// out\n        /* \"#utility.yul\":21163:21388   */\n    tag_329:\n        /* \"#utility.yul\":21303:21337   */\n      0x45524332303a207472616e7366657220616d6f756e7420657863656564732062\n        /* \"#utility.yul\":21299:21300   */\n      0x00\n        /* \"#utility.yul\":21291:21297   */\n      dup3\n        /* \"#utility.yul\":21287:21301   */\n      add\n        /* \"#utility.yul\":21280:21338   */\n      mstore\n        /* \"#utility.yul\":21372:21380   */\n      0x616c616e63650000000000000000000000000000000000000000000000000000\n        /* \"#utility.yul\":21367:21369   */\n      0x20\n        /* \"#utility.yul\":21359:21365   */\n      dup3\n        /* \"#utility.yul\":21355:21370   */\n      add\n        /* \"#utility.yul\":21348:21381   */\n      mstore\n        /* \"#utility.yul\":21163:21388   */\n      pop\n      jump\t// out\n        /* \"#utility.yul\":21394:21566   */\n    tag_334:\n        /* \"#utility.yul\":21534:21558   */\n      0x4d6178696d756d20737570706c79207265616368656400000000000000000000\n        /* \"#utility.yul\":21530:21531   */\n      0x00\n        /* \"#utility.yul\":21522:21528   */\n      dup3\n        /* \"#utility.yul\":21518:21532   */\n      add\n        /* \"#utility.yul\":21511:21559   */\n      mstore\n        /* \"#utility.yul\":21394:21566   */\n      pop\n      jump\t// out\n        /* \"#utility.yul\":21572:21754   */\n    tag_339:\n        /* \"#utility.yul\":21712:21746   */\n      0x4f776e61626c653a2063616c6c6572206973206e6f7420746865206f776e6572\n        /* \"#utility.yul\":21708:21709   */\n      0x00\n        /* \"#utility.yul\":21700:21706   */\n      dup3\n        /* \"#utility.yul\":21696:21710   */\n      add\n        /* \"#utility.yul\":21689:21747   */\n      mstore\n        /* \"#utility.yul\":21572:21754   */\n      pop\n      jump\t// out\n        /* \"#utility.yul\":21760:21980   */\n    tag_344:\n        /* \"#utility.yul\":21900:21934   */\n      0x45524332303a206275726e2066726f6d20746865207a65726f20616464726573\n        /* \"#utility.yul\":21896:21897   */\n      0x00\n        /* \"#utility.yul\":21888:21894   */\n      dup3\n        /* \"#utility.yul\":21884:21898   */\n      add\n        /* \"#utility.yul\":21877:21935   */\n      mstore\n        /* \"#utility.yul\":21969:21972   */\n      0x7300000000000000000000000000000000000000000000000000000000000000\n        /* \"#utility.yul\":21964:21966   */\n      0x20\n        /* \"#utility.yul\":21956:21962   */\n      dup3\n        /* \"#utility.yul\":21952:21967   */\n      add\n        /* \"#utility.yul\":21945:21973   */\n      mstore\n        /* \"#utility.yul\":21760:21980   */\n      pop\n      jump\t// out\n        /* \"#utility.yul\":21986:22210   */\n    tag_349:\n        /* \"#utility.yul\":22126:22160   */\n      0x45524332303a207472616e736665722066726f6d20746865207a65726f206164\n        /* \"#utility.yul\":22122:22123   */\n      0x00\n        /* \"#utility.yul\":22114:22120   */\n      dup3\n        /* \"#utility.yul\":22110:22124   */\n      add\n        /* \"#utility.yul\":22103:22161   */\n      mstore\n        /* \"#utility.yul\":22195:22202   */\n      0x6472657373000000000000000000000000000000000000000000000000000000\n        /* \"#utility.yul\":22190:22192   */\n      0x20\n        /* \"#utility.yul\":22182:22188   */\n      dup3\n        /* \"#utility.yul\":22178:22193   */\n      add\n        /* \"#utility.yul\":22171:22203   */\n      mstore\n        /* \"#utility.yul\":21986:22210   */\n      pop\n      jump\t// out\n        /* \"#utility.yul\":22216:22439   */\n    tag_354:\n        /* \"#utility.yul\":22356:22390   */\n      0x45524332303a20617070726f76652066726f6d20746865207a65726f20616464\n        /* \"#utility.yul\":22352:22353   */\n      0x00\n        /* \"#utility.yul\":22344:22350   */\n      dup3\n        /* \"#utility.yul\":22340:22354   */\n      add\n        /* \"#utility.yul\":22333:22391   */\n      mstore\n        /* \"#utility.yul\":22425:22431   */\n      0x7265737300000000000000000000000000000000000000000000000000000000\n        /* \"#utility.yul\":22420:22422   */\n      0x20\n        /* \"#utility.yul\":22412:22418   */\n      dup3\n        /* \"#utility.yul\":22408:22423   */\n      add\n        /* \"#utility.yul\":22401:22432   */\n      mstore\n        /* \"#utility.yul\":22216:22439   */\n      pop\n      jump\t// out\n        /* \"#utility.yul\":22445:22669   */\n    tag_359:\n        /* \"#utility.yul\":22585:22619   */\n      0x45524332303a2064656372656173656420616c6c6f77616e63652062656c6f77\n        /* \"#utility.yul\":22581:22582   */\n      0x00\n        /* \"#utility.yul\":22573:22579   */\n      dup3\n        /* \"#utility.yul\":22569:22583   */\n      add\n        /* \"#utility.yul\":22562:22620   */\n      mstore\n        /* \"#utility.yul\":22654:22661   */\n      0x207a65726f000000000000000000000000000000000000000000000000000000\n        /* \"#utility.yul\":22649:22651   */\n      0x20\n        /* \"#utility.yul\":22641:22647   */\n      dup3\n        /* \"#utility.yul\":22637:22652   */\n      add\n        /* \"#utility.yul\":22630:22662   */\n      mstore\n        /* \"#utility.yul\":22445:22669   */\n      pop\n      jump\t// out\n        /* \"#utility.yul\":22675:22856   */\n    tag_364:\n        /* \"#utility.yul\":22815:22848   */\n      0x45524332303a206d696e7420746f20746865207a65726f206164647265737300\n        /* \"#utility.yul\":22811:22812   */\n      0x00\n        /* \"#utility.yul\":22803:22809   */\n      dup3\n        /* \"#utility.yul\":22799:22813   */\n      add\n        /* \"#utility.yul\":22792:22849   */\n      mstore\n        /* \"#utility.yul\":22675:22856   */\n      pop\n      jump\t// out\n        /* \"#utility.yul\":22862:22984   */\n    tag_256:\n        /* \"#utility.yul\":22935:22959   */\n      tag_498\n        /* \"#utility.yul\":22953:22958   */\n      dup2\n        /* \"#utility.yul\":22935:22959   */\n      tag_285\n      jump\t// in\n    tag_498:\n        /* \"#utility.yul\":22928:22933   */\n      dup2\n        /* \"#utility.yul\":22925:22960   */\n      eq\n        /* \"#utility.yul\":22915:22978   */\n      tag_499\n      jumpi\n        /* \"#utility.yul\":22974:22975   */\n      0x00\n        /* \"#utility.yul\":22971:22972   */\n      dup1\n        /* \"#utility.yul\":22964:22976   */\n      revert\n        /* \"#utility.yul\":22915:22978   */\n    tag_499:\n        /* \"#utility.yul\":22862:22984   */\n      pop\n      jump\t// out\n        /* \"#utility.yul\":22990:23112   */\n    tag_260:\n        /* \"#utility.yul\":23063:23087   */\n      tag_501\n        /* \"#utility.yul\":23081:23086   */\n      dup2\n        /* \"#utility.yul\":23063:23087   */\n      tag_368\n      jump\t// in\n    tag_501:\n        /* \"#utility.yul\":23056:23061   */\n      dup2\n        /* \"#utility.yul\":23053:23088   */\n      eq\n        /* \"#utility.yul\":23043:23106   */\n      tag_502\n      jumpi\n        /* \"#utility.yul\":23102:23103   */\n      0x00\n        /* \"#utility.yul\":23099:23100   */\n      dup1\n        /* \"#utility.yul\":23092:23104   */\n      revert\n        /* \"#utility.yul\":23043:23106   */\n    tag_502:\n        /* \"#utility.yul\":22990:23112   */\n      pop\n      jump\t// out\n\n    auxdata: 0xa2646970667358221220a5b8456e78e8daeda9f7d41ed62a17c7e0a0ea50439b11f15041cd13d94604c364736f6c63430008070033\n}\n",
				"bytecode": {
					"linkReferences": {},
					"object": "6080604052601260ff16600a62000017919062000a39565b64e8d4a5100062000029919062000b76565b600a553480156200003957600080fd5b506040518060400160405280600681526020017f41524556454100000000000000000000000000000000000000000000000000008152506040518060400160405280600381526020017f41564100000000000000000000000000000000000000000000000000000000008152508160039080519060200190620000be929190620007b7565b508060049080519060200190620000d7929190620007b7565b505050620000fa620000ee6200023260201b60201c565b6200023a60201b60201c565b6200012e33601260ff16600a62000112919062000a39565b620f424062000122919062000b76565b6200030060201b60201c565b601260ff16600a62000141919062000a39565b620f424062000151919062000b76565b600660003373ffffffffffffffffffffffffffffffffffffffff1673ffffffffffffffffffffffffffffffffffffffff16815260200190815260200160002081905550601260ff16600a620001a7919062000a39565b600954620001b6919062000b76565b601260ff16600a620001c9919062000a39565b620f4240620001d9919062000b76565b620001e5919062000981565b50600954600660003373ffffffffffffffffffffffffffffffffffffffff1673ffffffffffffffffffffffffffffffffffffffff1681526020019081526020016000208190555062000cfd565b600033905090565b6000600560009054906101000a900473ffffffffffffffffffffffffffffffffffffffff16905081600560006101000a81548173ffffffffffffffffffffffffffffffffffffffff021916908373ffffffffffffffffffffffffffffffffffffffff1602179055508173ffffffffffffffffffffffffffffffffffffffff168173ffffffffffffffffffffffffffffffffffffffff167f8be0079c531659141344cd1fd0a4f28419497f9722a3daafe3b4186f6b6457e060405160405180910390a35050565b620003106200055760201b60201c565b600073ffffffffffffffffffffffffffffffffffffffff168273ffffffffffffffffffffffffffffffffffffffff16141562000383576040517f08c379a00000000000000000000000000000000000000000000000000000000081526004016200037a9062000931565b60405180910390fd5b600a54620003af826200039b620005e860201b60201c565b620005f260201b62000b831790919060201c565b1115620003f3576040517f08c379a0000000000000000000000000000000000000000000000000000000008152600401620003ea90620008ed565b60405180910390fd5b6200040582826200060a60201b60201c565b62000419600083836200078360201b60201c565b6200043581600954620005f260201b62000b831790919060201c565b6009819055506200049481600660008573ffffffffffffffffffffffffffffffffffffffff1673ffffffffffffffffffffffffffffffffffffffff16815260200190815260200160002054620005f260201b62000b831790919060201c565b600660008473ffffffffffffffffffffffffffffffffffffffff1673ffffffffffffffffffffffffffffffffffffffff168152602001908152602001600020819055508173ffffffffffffffffffffffffffffffffffffffff16600073ffffffffffffffffffffffffffffffffffffffff167fddf252ad1be2c89b69c2b068fc378daa952ba7f163c4a11628f55a4df523b3ef8360405162000537919062000953565b60405180910390a362000553600083836200078860201b60201c565b5050565b620005676200023260201b60201c565b73ffffffffffffffffffffffffffffffffffffffff166200058d6200078d60201b60201c565b73ffffffffffffffffffffffffffffffffffffffff1614620005e6576040517f08c379a0000000000000000000000000000000000000000000000000000000008152600401620005dd906200090f565b60405180910390fd5b565b6000600954905090565b6000818362000602919062000981565b905092915050565b600073ffffffffffffffffffffffffffffffffffffffff168273ffffffffffffffffffffffffffffffffffffffff1614156200067d576040517f08c379a0000000000000000000000000000000000000000000000000000000008152600401620006749062000931565b60405180910390fd5b62000691600083836200078360201b60201c565b8060026000828254620006a5919062000981565b92505081905550806000808473ffffffffffffffffffffffffffffffffffffffff1673ffffffffffffffffffffffffffffffffffffffff1681526020019081526020016000206000828254620006fc919062000981565b925050819055508173ffffffffffffffffffffffffffffffffffffffff16600073ffffffffffffffffffffffffffffffffffffffff167fddf252ad1be2c89b69c2b068fc378daa952ba7f163c4a11628f55a4df523b3ef8360405162000763919062000953565b60405180910390a36200077f600083836200078860201b60201c565b5050565b505050565b505050565b6000600560009054906101000a900473ffffffffffffffffffffffffffffffffffffffff16905090565b828054620007c59062000be1565b90600052602060002090601f016020900481019282620007e9576000855562000835565b82601f106200080457805160ff191683800117855562000835565b8280016001018555821562000835579182015b828111156200083457825182559160200191906001019062000817565b5b50905062000844919062000848565b5090565b5b808211156200086357600081600090555060010162000849565b5090565b60006200087660168362000970565b9150620008838262000c82565b602082019050919050565b60006200089d60208362000970565b9150620008aa8262000cab565b602082019050919050565b6000620008c4601f8362000970565b9150620008d18262000cd4565b602082019050919050565b620008e78162000bd7565b82525050565b60006020820190508181036000830152620009088162000867565b9050919050565b600060208201905081810360008301526200092a816200088e565b9050919050565b600060208201905081810360008301526200094c81620008b5565b9050919050565b60006020820190506200096a6000830184620008dc565b92915050565b600082825260208201905092915050565b60006200098e8262000bd7565b91506200099b8362000bd7565b9250827fffffffffffffffffffffffffffffffffffffffffffffffffffffffffffffffff03821115620009d357620009d262000c17565b5b828201905092915050565b6000808291508390505b600185111562000a305780860481111562000a085762000a0762000c17565b5b600185161562000a185780820291505b808102905062000a288562000c75565b9450620009e8565b94509492505050565b600062000a468262000bd7565b915062000a538362000bd7565b925062000a827fffffffffffffffffffffffffffffffffffffffffffffffffffffffffffffffff848462000a8a565b905092915050565b60008262000a9c576001905062000b6f565b8162000aac576000905062000b6f565b816001811462000ac5576002811462000ad05762000b06565b600191505062000b6f565b60ff84111562000ae55762000ae462000c17565b5b8360020a91508482111562000aff5762000afe62000c17565b5b5062000b6f565b5060208310610133831016604e8410600b841016171562000b405782820a90508381111562000b3a5762000b3962000c17565b5b62000b6f565b62000b4f8484846001620009de565b9250905081840481111562000b695762000b6862000c17565b5b81810290505b9392505050565b600062000b838262000bd7565b915062000b908362000bd7565b9250817fffffffffffffffffffffffffffffffffffffffffffffffffffffffffffffffff048311821515161562000bcc5762000bcb62000c17565b5b828202905092915050565b6000819050919050565b6000600282049050600182168062000bfa57607f821691505b6020821081141562000c115762000c1062000c46565b5b50919050565b7f4e487b7100000000000000000000000000000000000000000000000000000000600052601160045260246000fd5b7f4e487b7100000000000000000000000000000000000000000000000000000000600052602260045260246000fd5b60008160011c9050919050565b7f4d6178696d756d20737570706c79207265616368656400000000000000000000600082015250565b7f4f776e61626c653a2063616c6c6572206973206e6f7420746865206f776e6572600082015250565b7f45524332303a206d696e7420746f20746865207a65726f206164647265737300600082015250565b61220d8062000d0d6000396000f3fe608060405234801561001057600080fd5b50600436106101215760003560e01c806340c10f19116100ad578063a457c2d711610071578063a457c2d71461030e578063a9059cbb1461033e578063c3b2d3371461036e578063dd62ed3e1461038c578063f2fde38b146103bc57610121565b806340c10f191461026a57806370a082311461028657806379cc6790146102b65780638da5cb5b146102d257806395d89b41146102f057610121565b8063313ce567116100f4578063313ce567146101c257806332424aa3146101e0578063378dc3dc146101fe578063395093511461021c5780633ee8dd7b1461024c57610121565b806306fdde0314610126578063095ea7b31461014457806318160ddd1461017457806323b872dd14610192575b600080fd5b61012e6103d8565b60405161013b919061189a565b60405180910390f35b61015e600480360381019061015991906115e8565b61046a565b60405161016b919061187f565b60405180910390f35b61017c61048d565b6040516101899190611a5c565b60405180910390f35b6101ac60048036038101906101a79190611595565b610497565b6040516101b9919061187f565b60405180910390f35b6101ca6104c6565b6040516101d79190611a77565b60405180910390f35b6101e86104cf565b6040516101f59190611a77565b60405180910390f35b6102066104d4565b6040516102139190611a5c565b60405180910390f35b610236600480360381019061023191906115e8565b6104fa565b604051610243919061187f565b60405180910390f35b610254610531565b6040516102619190611a5c565b60405180910390f35b610284600480360381019061027f91906115e8565b61053b565b005b6102a0600480360381019061029b9190611528565b61074d565b6040516102ad9190611a5c565b60405180910390f35b6102d060048036038101906102cb91906115e8565b610795565b005b6102da610900565b6040516102e79190611864565b60405180910390f35b6102f861092a565b604051610305919061189a565b60405180910390f35b610328600480360381019061032391906115e8565b6109bc565b604051610335919061187f565b60405180910390f35b610358600480360381019061035391906115e8565b610a33565b604051610365919061187f565b60405180910390f35b610376610a56565b6040516103839190611a5c565b60405180910390f35b6103a660048036038101906103a19190611555565b610a78565b6040516103b39190611a5c565b60405180910390f35b6103d660048036038101906103d19190611528565b610aff565b005b6060600380546103e790611d8b565b80601f016020809104026020016040519081016040528092919081815260200182805461041390611d8b565b80156104605780601f1061043557610100808354040283529160200191610460565b820191906000526020600020905b81548152906001019060200180831161044357829003601f168201915b5050505050905090565b600080610475610b99565b9050610482818585610ba1565b600191505092915050565b6000600954905090565b6000806104a2610b99565b90506104af858285610d6c565b6104ba858585610df8565b60019150509392505050565b60006012905090565b601281565b6000601260ff16600a6104e79190611b57565b620f42406104f59190611c75565b905090565b600080610505610b99565b90506105268185856105178589610a78565b6105219190611aae565b610ba1565b600191505092915050565b6000600a54905090565b610543611079565b600073ffffffffffffffffffffffffffffffffffffffff168273ffffffffffffffffffffffffffffffffffffffff1614156105b3576040517f08c379a00000000000000000000000000000000000000000000000000000000081526004016105aa90611a3c565b60405180910390fd5b600a546105d0826105c261048d565b610b8390919063ffffffff16565b1115610611576040517f08c379a00000000000000000000000000000000000000000000000000000000081526004016106089061197c565b60405180910390fd5b61061b82826110f7565b61062760008383611257565b61063c81600954610b8390919063ffffffff16565b60098190555061069481600660008573ffffffffffffffffffffffffffffffffffffffff1673ffffffffffffffffffffffffffffffffffffffff16815260200190815260200160002054610b8390919063ffffffff16565b600660008473ffffffffffffffffffffffffffffffffffffffff1673ffffffffffffffffffffffffffffffffffffffff168152602001908152602001600020819055508173ffffffffffffffffffffffffffffffffffffffff16600073ffffffffffffffffffffffffffffffffffffffff167fddf252ad1be2c89b69c2b068fc378daa952ba7f163c4a11628f55a4df523b3ef836040516107359190611a5c565b60405180910390a36107496000838361125c565b5050565b60008060008373ffffffffffffffffffffffffffffffffffffffff1673ffffffffffffffffffffffffffffffffffffffff168152602001908152602001600020549050919050565b600073ffffffffffffffffffffffffffffffffffffffff168273ffffffffffffffffffffffffffffffffffffffff161415610805576040517f08c379a00000000000000000000000000000000000000000000000000000000081526004016107fc90611a3c565b60405180910390fd5b61080f8282611261565b61081b60008383611257565b806009600082825461082d9190611ccf565b9250508190555080600660008473ffffffffffffffffffffffffffffffffffffffff1673ffffffffffffffffffffffffffffffffffffffff16815260200190815260200160002060008282546108839190611ccf565b925050819055508173ffffffffffffffffffffffffffffffffffffffff16600073ffffffffffffffffffffffffffffffffffffffff167fddf252ad1be2c89b69c2b068fc378daa952ba7f163c4a11628f55a4df523b3ef836040516108e89190611a5c565b60405180910390a36108fc6000838361125c565b5050565b6000600560009054906101000a900473ffffffffffffffffffffffffffffffffffffffff16905090565b60606004805461093990611d8b565b80601f016020809104026020016040519081016040528092919081815260200182805461096590611d8b565b80156109b25780601f10610987576101008083540402835291602001916109b2565b820191906000526020600020905b81548152906001019060200180831161099557829003601f168201915b5050505050905090565b6000806109c7610b99565b905060006109d58286610a78565b905083811015610a1a576040517f08c379a0000000000000000000000000000000000000000000000000000000008152600401610a1190611a1c565b60405180910390fd5b610a278286868403610ba1565b60019250505092915050565b600080610a3e610b99565b9050610a4b818585610df8565b600191505092915050565b601260ff16600a610a679190611b57565b620f4240610a759190611c75565b81565b6000600160008473ffffffffffffffffffffffffffffffffffffffff1673ffffffffffffffffffffffffffffffffffffffff16815260200190815260200160002060008373ffffffffffffffffffffffffffffffffffffffff1673ffffffffffffffffffffffffffffffffffffffff16815260200190815260200160002054905092915050565b610b07611079565b600073ffffffffffffffffffffffffffffffffffffffff168173ffffffffffffffffffffffffffffffffffffffff161415610b77576040517f08c379a0000000000000000000000000000000000000000000000000000000008152600401610b6e906118fc565b60405180910390fd5b610b8081611438565b50565b60008183610b919190611aae565b905092915050565b600033905090565b600073ffffffffffffffffffffffffffffffffffffffff168373ffffffffffffffffffffffffffffffffffffffff161415610c11576040517f08c379a0000000000000000000000000000000000000000000000000000000008152600401610c08906119fc565b60405180910390fd5b600073ffffffffffffffffffffffffffffffffffffffff168273ffffffffffffffffffffffffffffffffffffffff161415610c81576040517f08c379a0000000000000000000000000000000000000000000000000000000008152600401610c789061191c565b60405180910390fd5b80600160008573ffffffffffffffffffffffffffffffffffffffff1673ffffffffffffffffffffffffffffffffffffffff16815260200190815260200160002060008473ffffffffffffffffffffffffffffffffffffffff1673ffffffffffffffffffffffffffffffffffffffff168152602001908152602001600020819055508173ffffffffffffffffffffffffffffffffffffffff168373ffffffffffffffffffffffffffffffffffffffff167f8c5be1e5ebec7d5bd14f71427d1e84f3dd0314c0f7b2291e5b200ac8c7c3b92583604051610d5f9190611a5c565b60405180910390a3505050565b6000610d788484610a78565b90507fffffffffffffffffffffffffffffffffffffffffffffffffffffffffffffffff8114610df25781811015610de4576040517f08c379a0000000000000000000000000000000000000000000000000000000008152600401610ddb9061193c565b60405180910390fd5b610df18484848403610ba1565b5b50505050565b600073ffffffffffffffffffffffffffffffffffffffff168373ffffffffffffffffffffffffffffffffffffffff161415610e68576040517f08c379a0000000000000000000000000000000000000000000000000000000008152600401610e5f906119dc565b60405180910390fd5b600073ffffffffffffffffffffffffffffffffffffffff168273ffffffffffffffffffffffffffffffffffffffff161415610ed8576040517f08c379a0000000000000000000000000000000000000000000000000000000008152600401610ecf906118bc565b60405180910390fd5b610ee3838383611257565b60008060008573ffffffffffffffffffffffffffffffffffffffff1673ffffffffffffffffffffffffffffffffffffffff16815260200190815260200160002054905081811015610f69576040517f08c379a0000000000000000000000000000000000000000000000000000000008152600401610f609061195c565b60405180910390fd5b8181036000808673ffffffffffffffffffffffffffffffffffffffff1673ffffffffffffffffffffffffffffffffffffffff16815260200190815260200160002081905550816000808573ffffffffffffffffffffffffffffffffffffffff1673ffffffffffffffffffffffffffffffffffffffff1681526020019081526020016000206000828254610ffc9190611aae565b925050819055508273ffffffffffffffffffffffffffffffffffffffff168473ffffffffffffffffffffffffffffffffffffffff167fddf252ad1be2c89b69c2b068fc378daa952ba7f163c4a11628f55a4df523b3ef846040516110609190611a5c565b60405180910390a361107384848461125c565b50505050565b611081610b99565b73ffffffffffffffffffffffffffffffffffffffff1661109f610900565b73ffffffffffffffffffffffffffffffffffffffff16146110f5576040517f08c379a00000000000000000000000000000000000000000000000000000000081526004016110ec9061199c565b60405180910390fd5b565b600073ffffffffffffffffffffffffffffffffffffffff168273ffffffffffffffffffffffffffffffffffffffff161415611167576040517f08c379a000000000000000000000000000000000000000000000000000000000815260040161115e90611a3c565b60405180910390fd5b61117360008383611257565b80600260008282546111859190611aae565b92505081905550806000808473ffffffffffffffffffffffffffffffffffffffff1673ffffffffffffffffffffffffffffffffffffffff16815260200190815260200160002060008282546111da9190611aae565b925050819055508173ffffffffffffffffffffffffffffffffffffffff16600073ffffffffffffffffffffffffffffffffffffffff167fddf252ad1be2c89b69c2b068fc378daa952ba7f163c4a11628f55a4df523b3ef8360405161123f9190611a5c565b60405180910390a36112536000838361125c565b5050565b505050565b505050565b600073ffffffffffffffffffffffffffffffffffffffff168273ffffffffffffffffffffffffffffffffffffffff1614156112d1576040517f08c379a00000000000000000000000000000000000000000000000000000000081526004016112c8906119bc565b60405180910390fd5b6112dd82600083611257565b60008060008473ffffffffffffffffffffffffffffffffffffffff1673ffffffffffffffffffffffffffffffffffffffff16815260200190815260200160002054905081811015611363576040517f08c379a000000000000000000000000000000000000000000000000000000000815260040161135a906118dc565b60405180910390fd5b8181036000808573ffffffffffffffffffffffffffffffffffffffff1673ffffffffffffffffffffffffffffffffffffffff1681526020019081526020016000208190555081600260008282546113ba9190611ccf565b92505081905550600073ffffffffffffffffffffffffffffffffffffffff168373ffffffffffffffffffffffffffffffffffffffff167fddf252ad1be2c89b69c2b068fc378daa952ba7f163c4a11628f55a4df523b3ef8460405161141f9190611a5c565b60405180910390a36114338360008461125c565b505050565b6000600560009054906101000a900473ffffffffffffffffffffffffffffffffffffffff16905081600560006101000a81548173ffffffffffffffffffffffffffffffffffffffff021916908373ffffffffffffffffffffffffffffffffffffffff1602179055508173ffffffffffffffffffffffffffffffffffffffff168173ffffffffffffffffffffffffffffffffffffffff167f8be0079c531659141344cd1fd0a4f28419497f9722a3daafe3b4186f6b6457e060405160405180910390a35050565b60008135905061150d816121a9565b92915050565b600081359050611522816121c0565b92915050565b60006020828403121561153e5761153d611e1b565b5b600061154c848285016114fe565b91505092915050565b6000806040838503121561156c5761156b611e1b565b5b600061157a858286016114fe565b925050602061158b858286016114fe565b9150509250929050565b6000806000606084860312156115ae576115ad611e1b565b5b60006115bc868287016114fe565b93505060206115cd868287016114fe565b92505060406115de86828701611513565b9150509250925092565b600080604083850312156115ff576115fe611e1b565b5b600061160d858286016114fe565b925050602061161e85828601611513565b9150509250929050565b61163181611d03565b82525050565b61164081611d15565b82525050565b600061165182611a92565b61165b8185611a9d565b935061166b818560208601611d58565b61167481611e20565b840191505092915050565b600061168c602383611a9d565b915061169782611e3e565b604082019050919050565b60006116af602283611a9d565b91506116ba82611e8d565b604082019050919050565b60006116d2602683611a9d565b91506116dd82611edc565b604082019050919050565b60006116f5602283611a9d565b915061170082611f2b565b604082019050919050565b6000611718601d83611a9d565b915061172382611f7a565b602082019050919050565b600061173b602683611a9d565b915061174682611fa3565b604082019050919050565b600061175e601683611a9d565b915061176982611ff2565b602082019050919050565b6000611781602083611a9d565b915061178c8261201b565b602082019050919050565b60006117a4602183611a9d565b91506117af82612044565b604082019050919050565b60006117c7602583611a9d565b91506117d282612093565b604082019050919050565b60006117ea602483611a9d565b91506117f5826120e2565b604082019050919050565b600061180d602583611a9d565b915061181882612131565b604082019050919050565b6000611830601f83611a9d565b915061183b82612180565b602082019050919050565b61184f81611d41565b82525050565b61185e81611d4b565b82525050565b60006020820190506118796000830184611628565b92915050565b60006020820190506118946000830184611637565b92915050565b600060208201905081810360008301526118b48184611646565b905092915050565b600060208201905081810360008301526118d58161167f565b9050919050565b600060208201905081810360008301526118f5816116a2565b9050919050565b60006020820190508181036000830152611915816116c5565b9050919050565b60006020820190508181036000830152611935816116e8565b9050919050565b600060208201905081810360008301526119558161170b565b9050919050565b600060208201905081810360008301526119758161172e565b9050919050565b6000602082019050818103600083015261199581611751565b9050919050565b600060208201905081810360008301526119b581611774565b9050919050565b600060208201905081810360008301526119d581611797565b9050919050565b600060208201905081810360008301526119f5816117ba565b9050919050565b60006020820190508181036000830152611a15816117dd565b9050919050565b60006020820190508181036000830152611a3581611800565b9050919050565b60006020820190508181036000830152611a5581611823565b9050919050565b6000602082019050611a716000830184611846565b92915050565b6000602082019050611a8c6000830184611855565b92915050565b600081519050919050565b600082825260208201905092915050565b6000611ab982611d41565b9150611ac483611d41565b9250827fffffffffffffffffffffffffffffffffffffffffffffffffffffffffffffffff03821115611af957611af8611dbd565b5b828201905092915050565b6000808291508390505b6001851115611b4e57808604811115611b2a57611b29611dbd565b5b6001851615611b395780820291505b8081029050611b4785611e31565b9450611b0e565b94509492505050565b6000611b6282611d41565b9150611b6d83611d41565b9250611b9a7fffffffffffffffffffffffffffffffffffffffffffffffffffffffffffffffff8484611ba2565b905092915050565b600082611bb25760019050611c6e565b81611bc05760009050611c6e565b8160018114611bd65760028114611be057611c0f565b6001915050611c6e565b60ff841115611bf257611bf1611dbd565b5b8360020a915084821115611c0957611c08611dbd565b5b50611c6e565b5060208310610133831016604e8410600b8410161715611c445782820a905083811115611c3f57611c3e611dbd565b5b611c6e565b611c518484846001611b04565b92509050818404811115611c6857611c67611dbd565b5b81810290505b9392505050565b6000611c8082611d41565b9150611c8b83611d41565b9250817fffffffffffffffffffffffffffffffffffffffffffffffffffffffffffffffff0483118215151615611cc457611cc3611dbd565b5b828202905092915050565b6000611cda82611d41565b9150611ce583611d41565b925082821015611cf857611cf7611dbd565b5b828203905092915050565b6000611d0e82611d21565b9050919050565b60008115159050919050565b600073ffffffffffffffffffffffffffffffffffffffff82169050919050565b6000819050919050565b600060ff82169050919050565b60005b83811015611d76578082015181840152602081019050611d5b565b83811115611d85576000848401525b50505050565b60006002820490506001821680611da357607f821691505b60208210811415611db757611db6611dec565b5b50919050565b7f4e487b7100000000000000000000000000000000000000000000000000000000600052601160045260246000fd5b7f4e487b7100000000000000000000000000000000000000000000000000000000600052602260045260246000fd5b600080fd5b6000601f19601f8301169050919050565b60008160011c9050919050565b7f45524332303a207472616e7366657220746f20746865207a65726f206164647260008201527f6573730000000000000000000000000000000000000000000000000000000000602082015250565b7f45524332303a206275726e20616d6f756e7420657863656564732062616c616e60008201527f6365000000000000000000000000000000000000000000000000000000000000602082015250565b7f4f776e61626c653a206e6577206f776e657220697320746865207a65726f206160008201527f6464726573730000000000000000000000000000000000000000000000000000602082015250565b7f45524332303a20617070726f766520746f20746865207a65726f20616464726560008201527f7373000000000000000000000000000000000000000000000000000000000000602082015250565b7f45524332303a20696e73756666696369656e7420616c6c6f77616e6365000000600082015250565b7f45524332303a207472616e7366657220616d6f756e742065786365656473206260008201527f616c616e63650000000000000000000000000000000000000000000000000000602082015250565b7f4d6178696d756d20737570706c79207265616368656400000000000000000000600082015250565b7f4f776e61626c653a2063616c6c6572206973206e6f7420746865206f776e6572600082015250565b7f45524332303a206275726e2066726f6d20746865207a65726f2061646472657360008201527f7300000000000000000000000000000000000000000000000000000000000000602082015250565b7f45524332303a207472616e736665722066726f6d20746865207a65726f20616460008201527f6472657373000000000000000000000000000000000000000000000000000000602082015250565b7f45524332303a20617070726f76652066726f6d20746865207a65726f2061646460008201527f7265737300000000000000000000000000000000000000000000000000000000602082015250565b7f45524332303a2064656372656173656420616c6c6f77616e63652062656c6f7760008201527f207a65726f000000000000000000000000000000000000000000000000000000602082015250565b7f45524332303a206d696e7420746f20746865207a65726f206164647265737300600082015250565b6121b281611d03565b81146121bd57600080fd5b50565b6121c981611d41565b81146121d457600080fd5b5056fea2646970667358221220a5b8456e78e8daeda9f7d41ed62a17c7e0a0ea50439b11f15041cd13d94604c364736f6c63430008070033",
					"opcodes": "PUSH1 0x80 PUSH1 0x40 MSTORE PUSH1 0x12 PUSH1 0xFF AND PUSH1 0xA PUSH3 0x17 SWAP2 SWAP1 PUSH3 0xA39 JUMP JUMPDEST PUSH5 0xE8D4A51000 PUSH3 0x29 SWAP2 SWAP1 PUSH3 0xB76 JUMP JUMPDEST PUSH1 0xA SSTORE CALLVALUE DUP1 ISZERO PUSH3 0x39 JUMPI PUSH1 0x0 DUP1 REVERT JUMPDEST POP PUSH1 0x40 MLOAD DUP1 PUSH1 0x40 ADD PUSH1 0x40 MSTORE DUP1 PUSH1 0x6 DUP2 MSTORE PUSH1 0x20 ADD PUSH32 0x4152455645410000000000000000000000000000000000000000000000000000 DUP2 MSTORE POP PUSH1 0x40 MLOAD DUP1 PUSH1 0x40 ADD PUSH1 0x40 MSTORE DUP1 PUSH1 0x3 DUP2 MSTORE PUSH1 0x20 ADD PUSH32 0x4156410000000000000000000000000000000000000000000000000000000000 DUP2 MSTORE POP DUP2 PUSH1 0x3 SWAP1 DUP1 MLOAD SWAP1 PUSH1 0x20 ADD SWAP1 PUSH3 0xBE SWAP3 SWAP2 SWAP1 PUSH3 0x7B7 JUMP JUMPDEST POP DUP1 PUSH1 0x4 SWAP1 DUP1 MLOAD SWAP1 PUSH1 0x20 ADD SWAP1 PUSH3 0xD7 SWAP3 SWAP2 SWAP1 PUSH3 0x7B7 JUMP JUMPDEST POP POP POP PUSH3 0xFA PUSH3 0xEE PUSH3 0x232 PUSH1 0x20 SHL PUSH1 0x20 SHR JUMP JUMPDEST PUSH3 0x23A PUSH1 0x20 SHL PUSH1 0x20 SHR JUMP JUMPDEST PUSH3 0x12E CALLER PUSH1 0x12 PUSH1 0xFF AND PUSH1 0xA PUSH3 0x112 SWAP2 SWAP1 PUSH3 0xA39 JUMP JUMPDEST PUSH3 0xF4240 PUSH3 0x122 SWAP2 SWAP1 PUSH3 0xB76 JUMP JUMPDEST PUSH3 0x300 PUSH1 0x20 SHL PUSH1 0x20 SHR JUMP JUMPDEST PUSH1 0x12 PUSH1 0xFF AND PUSH1 0xA PUSH3 0x141 SWAP2 SWAP1 PUSH3 0xA39 JUMP JUMPDEST PUSH3 0xF4240 PUSH3 0x151 SWAP2 SWAP1 PUSH3 0xB76 JUMP JUMPDEST PUSH1 0x6 PUSH1 0x0 CALLER PUSH20 0xFFFFFFFFFFFFFFFFFFFFFFFFFFFFFFFFFFFFFFFF AND PUSH20 0xFFFFFFFFFFFFFFFFFFFFFFFFFFFFFFFFFFFFFFFF AND DUP2 MSTORE PUSH1 0x20 ADD SWAP1 DUP2 MSTORE PUSH1 0x20 ADD PUSH1 0x0 KECCAK256 DUP2 SWAP1 SSTORE POP PUSH1 0x12 PUSH1 0xFF AND PUSH1 0xA PUSH3 0x1A7 SWAP2 SWAP1 PUSH3 0xA39 JUMP JUMPDEST PUSH1 0x9 SLOAD PUSH3 0x1B6 SWAP2 SWAP1 PUSH3 0xB76 JUMP JUMPDEST PUSH1 0x12 PUSH1 0xFF AND PUSH1 0xA PUSH3 0x1C9 SWAP2 SWAP1 PUSH3 0xA39 JUMP JUMPDEST PUSH3 0xF4240 PUSH3 0x1D9 SWAP2 SWAP1 PUSH3 0xB76 JUMP JUMPDEST PUSH3 0x1E5 SWAP2 SWAP1 PUSH3 0x981 JUMP JUMPDEST POP PUSH1 0x9 SLOAD PUSH1 0x6 PUSH1 0x0 CALLER PUSH20 0xFFFFFFFFFFFFFFFFFFFFFFFFFFFFFFFFFFFFFFFF AND PUSH20 0xFFFFFFFFFFFFFFFFFFFFFFFFFFFFFFFFFFFFFFFF AND DUP2 MSTORE PUSH1 0x20 ADD SWAP1 DUP2 MSTORE PUSH1 0x20 ADD PUSH1 0x0 KECCAK256 DUP2 SWAP1 SSTORE POP PUSH3 0xCFD JUMP JUMPDEST PUSH1 0x0 CALLER SWAP1 POP SWAP1 JUMP JUMPDEST PUSH1 0x0 PUSH1 0x5 PUSH1 0x0 SWAP1 SLOAD SWAP1 PUSH2 0x100 EXP SWAP1 DIV PUSH20 0xFFFFFFFFFFFFFFFFFFFFFFFFFFFFFFFFFFFFFFFF AND SWAP1 POP DUP2 PUSH1 0x5 PUSH1 0x0 PUSH2 0x100 EXP DUP2 SLOAD DUP2 PUSH20 0xFFFFFFFFFFFFFFFFFFFFFFFFFFFFFFFFFFFFFFFF MUL NOT AND SWAP1 DUP4 PUSH20 0xFFFFFFFFFFFFFFFFFFFFFFFFFFFFFFFFFFFFFFFF AND MUL OR SWAP1 SSTORE POP DUP2 PUSH20 0xFFFFFFFFFFFFFFFFFFFFFFFFFFFFFFFFFFFFFFFF AND DUP2 PUSH20 0xFFFFFFFFFFFFFFFFFFFFFFFFFFFFFFFFFFFFFFFF AND PUSH32 0x8BE0079C531659141344CD1FD0A4F28419497F9722A3DAAFE3B4186F6B6457E0 PUSH1 0x40 MLOAD PUSH1 0x40 MLOAD DUP1 SWAP2 SUB SWAP1 LOG3 POP POP JUMP JUMPDEST PUSH3 0x310 PUSH3 0x557 PUSH1 0x20 SHL PUSH1 0x20 SHR JUMP JUMPDEST PUSH1 0x0 PUSH20 0xFFFFFFFFFFFFFFFFFFFFFFFFFFFFFFFFFFFFFFFF AND DUP3 PUSH20 0xFFFFFFFFFFFFFFFFFFFFFFFFFFFFFFFFFFFFFFFF AND EQ ISZERO PUSH3 0x383 JUMPI PUSH1 0x40 MLOAD PUSH32 0x8C379A000000000000000000000000000000000000000000000000000000000 DUP2 MSTORE PUSH1 0x4 ADD PUSH3 0x37A SWAP1 PUSH3 0x931 JUMP JUMPDEST PUSH1 0x40 MLOAD DUP1 SWAP2 SUB SWAP1 REVERT JUMPDEST PUSH1 0xA SLOAD PUSH3 0x3AF DUP3 PUSH3 0x39B PUSH3 0x5E8 PUSH1 0x20 SHL PUSH1 0x20 SHR JUMP JUMPDEST PUSH3 0x5F2 PUSH1 0x20 SHL PUSH3 0xB83 OR SWAP1 SWAP2 SWAP1 PUSH1 0x20 SHR JUMP JUMPDEST GT ISZERO PUSH3 0x3F3 JUMPI PUSH1 0x40 MLOAD PUSH32 0x8C379A000000000000000000000000000000000000000000000000000000000 DUP2 MSTORE PUSH1 0x4 ADD PUSH3 0x3EA SWAP1 PUSH3 0x8ED JUMP JUMPDEST PUSH1 0x40 MLOAD DUP1 SWAP2 SUB SWAP1 REVERT JUMPDEST PUSH3 0x405 DUP3 DUP3 PUSH3 0x60A PUSH1 0x20 SHL PUSH1 0x20 SHR JUMP JUMPDEST PUSH3 0x419 PUSH1 0x0 DUP4 DUP4 PUSH3 0x783 PUSH1 0x20 SHL PUSH1 0x20 SHR JUMP JUMPDEST PUSH3 0x435 DUP2 PUSH1 0x9 SLOAD PUSH3 0x5F2 PUSH1 0x20 SHL PUSH3 0xB83 OR SWAP1 SWAP2 SWAP1 PUSH1 0x20 SHR JUMP JUMPDEST PUSH1 0x9 DUP2 SWAP1 SSTORE POP PUSH3 0x494 DUP2 PUSH1 0x6 PUSH1 0x0 DUP6 PUSH20 0xFFFFFFFFFFFFFFFFFFFFFFFFFFFFFFFFFFFFFFFF AND PUSH20 0xFFFFFFFFFFFFFFFFFFFFFFFFFFFFFFFFFFFFFFFF AND DUP2 MSTORE PUSH1 0x20 ADD SWAP1 DUP2 MSTORE PUSH1 0x20 ADD PUSH1 0x0 KECCAK256 SLOAD PUSH3 0x5F2 PUSH1 0x20 SHL PUSH3 0xB83 OR SWAP1 SWAP2 SWAP1 PUSH1 0x20 SHR JUMP JUMPDEST PUSH1 0x6 PUSH1 0x0 DUP5 PUSH20 0xFFFFFFFFFFFFFFFFFFFFFFFFFFFFFFFFFFFFFFFF AND PUSH20 0xFFFFFFFFFFFFFFFFFFFFFFFFFFFFFFFFFFFFFFFF AND DUP2 MSTORE PUSH1 0x20 ADD SWAP1 DUP2 MSTORE PUSH1 0x20 ADD PUSH1 0x0 KECCAK256 DUP2 SWAP1 SSTORE POP DUP2 PUSH20 0xFFFFFFFFFFFFFFFFFFFFFFFFFFFFFFFFFFFFFFFF AND PUSH1 0x0 PUSH20 0xFFFFFFFFFFFFFFFFFFFFFFFFFFFFFFFFFFFFFFFF AND PUSH32 0xDDF252AD1BE2C89B69C2B068FC378DAA952BA7F163C4A11628F55A4DF523B3EF DUP4 PUSH1 0x40 MLOAD PUSH3 0x537 SWAP2 SWAP1 PUSH3 0x953 JUMP JUMPDEST PUSH1 0x40 MLOAD DUP1 SWAP2 SUB SWAP1 LOG3 PUSH3 0x553 PUSH1 0x0 DUP4 DUP4 PUSH3 0x788 PUSH1 0x20 SHL PUSH1 0x20 SHR JUMP JUMPDEST POP POP JUMP JUMPDEST PUSH3 0x567 PUSH3 0x232 PUSH1 0x20 SHL PUSH1 0x20 SHR JUMP JUMPDEST PUSH20 0xFFFFFFFFFFFFFFFFFFFFFFFFFFFFFFFFFFFFFFFF AND PUSH3 0x58D PUSH3 0x78D PUSH1 0x20 SHL PUSH1 0x20 SHR JUMP JUMPDEST PUSH20 0xFFFFFFFFFFFFFFFFFFFFFFFFFFFFFFFFFFFFFFFF AND EQ PUSH3 0x5E6 JUMPI PUSH1 0x40 MLOAD PUSH32 0x8C379A000000000000000000000000000000000000000000000000000000000 DUP2 MSTORE PUSH1 0x4 ADD PUSH3 0x5DD SWAP1 PUSH3 0x90F JUMP JUMPDEST PUSH1 0x40 MLOAD DUP1 SWAP2 SUB SWAP1 REVERT JUMPDEST JUMP JUMPDEST PUSH1 0x0 PUSH1 0x9 SLOAD SWAP1 POP SWAP1 JUMP JUMPDEST PUSH1 0x0 DUP2 DUP4 PUSH3 0x602 SWAP2 SWAP1 PUSH3 0x981 JUMP JUMPDEST SWAP1 POP SWAP3 SWAP2 POP POP JUMP JUMPDEST PUSH1 0x0 PUSH20 0xFFFFFFFFFFFFFFFFFFFFFFFFFFFFFFFFFFFFFFFF AND DUP3 PUSH20 0xFFFFFFFFFFFFFFFFFFFFFFFFFFFFFFFFFFFFFFFF AND EQ ISZERO PUSH3 0x67D JUMPI PUSH1 0x40 MLOAD PUSH32 0x8C379A000000000000000000000000000000000000000000000000000000000 DUP2 MSTORE PUSH1 0x4 ADD PUSH3 0x674 SWAP1 PUSH3 0x931 JUMP JUMPDEST PUSH1 0x40 MLOAD DUP1 SWAP2 SUB SWAP1 REVERT JUMPDEST PUSH3 0x691 PUSH1 0x0 DUP4 DUP4 PUSH3 0x783 PUSH1 0x20 SHL PUSH1 0x20 SHR JUMP JUMPDEST DUP1 PUSH1 0x2 PUSH1 0x0 DUP3 DUP3 SLOAD PUSH3 0x6A5 SWAP2 SWAP1 PUSH3 0x981 JUMP JUMPDEST SWAP3 POP POP DUP2 SWAP1 SSTORE POP DUP1 PUSH1 0x0 DUP1 DUP5 PUSH20 0xFFFFFFFFFFFFFFFFFFFFFFFFFFFFFFFFFFFFFFFF AND PUSH20 0xFFFFFFFFFFFFFFFFFFFFFFFFFFFFFFFFFFFFFFFF AND DUP2 MSTORE PUSH1 0x20 ADD SWAP1 DUP2 MSTORE PUSH1 0x20 ADD PUSH1 0x0 KECCAK256 PUSH1 0x0 DUP3 DUP3 SLOAD PUSH3 0x6FC SWAP2 SWAP1 PUSH3 0x981 JUMP JUMPDEST SWAP3 POP POP DUP2 SWAP1 SSTORE POP DUP2 PUSH20 0xFFFFFFFFFFFFFFFFFFFFFFFFFFFFFFFFFFFFFFFF AND PUSH1 0x0 PUSH20 0xFFFFFFFFFFFFFFFFFFFFFFFFFFFFFFFFFFFFFFFF AND PUSH32 0xDDF252AD1BE2C89B69C2B068FC378DAA952BA7F163C4A11628F55A4DF523B3EF DUP4 PUSH1 0x40 MLOAD PUSH3 0x763 SWAP2 SWAP1 PUSH3 0x953 JUMP JUMPDEST PUSH1 0x40 MLOAD DUP1 SWAP2 SUB SWAP1 LOG3 PUSH3 0x77F PUSH1 0x0 DUP4 DUP4 PUSH3 0x788 PUSH1 0x20 SHL PUSH1 0x20 SHR JUMP JUMPDEST POP POP JUMP JUMPDEST POP POP POP JUMP JUMPDEST POP POP POP JUMP JUMPDEST PUSH1 0x0 PUSH1 0x5 PUSH1 0x0 SWAP1 SLOAD SWAP1 PUSH2 0x100 EXP SWAP1 DIV PUSH20 0xFFFFFFFFFFFFFFFFFFFFFFFFFFFFFFFFFFFFFFFF AND SWAP1 POP SWAP1 JUMP JUMPDEST DUP3 DUP1 SLOAD PUSH3 0x7C5 SWAP1 PUSH3 0xBE1 JUMP JUMPDEST SWAP1 PUSH1 0x0 MSTORE PUSH1 0x20 PUSH1 0x0 KECCAK256 SWAP1 PUSH1 0x1F ADD PUSH1 0x20 SWAP1 DIV DUP2 ADD SWAP3 DUP3 PUSH3 0x7E9 JUMPI PUSH1 0x0 DUP6 SSTORE PUSH3 0x835 JUMP JUMPDEST DUP3 PUSH1 0x1F LT PUSH3 0x804 JUMPI DUP1 MLOAD PUSH1 0xFF NOT AND DUP4 DUP1 ADD OR DUP6 SSTORE PUSH3 0x835 JUMP JUMPDEST DUP3 DUP1 ADD PUSH1 0x1 ADD DUP6 SSTORE DUP3 ISZERO PUSH3 0x835 JUMPI SWAP2 DUP3 ADD JUMPDEST DUP3 DUP2 GT ISZERO PUSH3 0x834 JUMPI DUP3 MLOAD DUP3 SSTORE SWAP2 PUSH1 0x20 ADD SWAP2 SWAP1 PUSH1 0x1 ADD SWAP1 PUSH3 0x817 JUMP JUMPDEST JUMPDEST POP SWAP1 POP PUSH3 0x844 SWAP2 SWAP1 PUSH3 0x848 JUMP JUMPDEST POP SWAP1 JUMP JUMPDEST JUMPDEST DUP1 DUP3 GT ISZERO PUSH3 0x863 JUMPI PUSH1 0x0 DUP2 PUSH1 0x0 SWAP1 SSTORE POP PUSH1 0x1 ADD PUSH3 0x849 JUMP JUMPDEST POP SWAP1 JUMP JUMPDEST PUSH1 0x0 PUSH3 0x876 PUSH1 0x16 DUP4 PUSH3 0x970 JUMP JUMPDEST SWAP2 POP PUSH3 0x883 DUP3 PUSH3 0xC82 JUMP JUMPDEST PUSH1 0x20 DUP3 ADD SWAP1 POP SWAP2 SWAP1 POP JUMP JUMPDEST PUSH1 0x0 PUSH3 0x89D PUSH1 0x20 DUP4 PUSH3 0x970 JUMP JUMPDEST SWAP2 POP PUSH3 0x8AA DUP3 PUSH3 0xCAB JUMP JUMPDEST PUSH1 0x20 DUP3 ADD SWAP1 POP SWAP2 SWAP1 POP JUMP JUMPDEST PUSH1 0x0 PUSH3 0x8C4 PUSH1 0x1F DUP4 PUSH3 0x970 JUMP JUMPDEST SWAP2 POP PUSH3 0x8D1 DUP3 PUSH3 0xCD4 JUMP JUMPDEST PUSH1 0x20 DUP3 ADD SWAP1 POP SWAP2 SWAP1 POP JUMP JUMPDEST PUSH3 0x8E7 DUP2 PUSH3 0xBD7 JUMP JUMPDEST DUP3 MSTORE POP POP JUMP JUMPDEST PUSH1 0x0 PUSH1 0x20 DUP3 ADD SWAP1 POP DUP2 DUP2 SUB PUSH1 0x0 DUP4 ADD MSTORE PUSH3 0x908 DUP2 PUSH3 0x867 JUMP JUMPDEST SWAP1 POP SWAP2 SWAP1 POP JUMP JUMPDEST PUSH1 0x0 PUSH1 0x20 DUP3 ADD SWAP1 POP DUP2 DUP2 SUB PUSH1 0x0 DUP4 ADD MSTORE PUSH3 0x92A DUP2 PUSH3 0x88E JUMP JUMPDEST SWAP1 POP SWAP2 SWAP1 POP JUMP JUMPDEST PUSH1 0x0 PUSH1 0x20 DUP3 ADD SWAP1 POP DUP2 DUP2 SUB PUSH1 0x0 DUP4 ADD MSTORE PUSH3 0x94C DUP2 PUSH3 0x8B5 JUMP JUMPDEST SWAP1 POP SWAP2 SWAP1 POP JUMP JUMPDEST PUSH1 0x0 PUSH1 0x20 DUP3 ADD SWAP1 POP PUSH3 0x96A PUSH1 0x0 DUP4 ADD DUP5 PUSH3 0x8DC JUMP JUMPDEST SWAP3 SWAP2 POP POP JUMP JUMPDEST PUSH1 0x0 DUP3 DUP3 MSTORE PUSH1 0x20 DUP3 ADD SWAP1 POP SWAP3 SWAP2 POP POP JUMP JUMPDEST PUSH1 0x0 PUSH3 0x98E DUP3 PUSH3 0xBD7 JUMP JUMPDEST SWAP2 POP PUSH3 0x99B DUP4 PUSH3 0xBD7 JUMP JUMPDEST SWAP3 POP DUP3 PUSH32 0xFFFFFFFFFFFFFFFFFFFFFFFFFFFFFFFFFFFFFFFFFFFFFFFFFFFFFFFFFFFFFFFF SUB DUP3 GT ISZERO PUSH3 0x9D3 JUMPI PUSH3 0x9D2 PUSH3 0xC17 JUMP JUMPDEST JUMPDEST DUP3 DUP3 ADD SWAP1 POP SWAP3 SWAP2 POP POP JUMP JUMPDEST PUSH1 0x0 DUP1 DUP3 SWAP2 POP DUP4 SWAP1 POP JUMPDEST PUSH1 0x1 DUP6 GT ISZERO PUSH3 0xA30 JUMPI DUP1 DUP7 DIV DUP2 GT ISZERO PUSH3 0xA08 JUMPI PUSH3 0xA07 PUSH3 0xC17 JUMP JUMPDEST JUMPDEST PUSH1 0x1 DUP6 AND ISZERO PUSH3 0xA18 JUMPI DUP1 DUP3 MUL SWAP2 POP JUMPDEST DUP1 DUP2 MUL SWAP1 POP PUSH3 0xA28 DUP6 PUSH3 0xC75 JUMP JUMPDEST SWAP5 POP PUSH3 0x9E8 JUMP JUMPDEST SWAP5 POP SWAP5 SWAP3 POP POP POP JUMP JUMPDEST PUSH1 0x0 PUSH3 0xA46 DUP3 PUSH3 0xBD7 JUMP JUMPDEST SWAP2 POP PUSH3 0xA53 DUP4 PUSH3 0xBD7 JUMP JUMPDEST SWAP3 POP PUSH3 0xA82 PUSH32 0xFFFFFFFFFFFFFFFFFFFFFFFFFFFFFFFFFFFFFFFFFFFFFFFFFFFFFFFFFFFFFFFF DUP5 DUP5 PUSH3 0xA8A JUMP JUMPDEST SWAP1 POP SWAP3 SWAP2 POP POP JUMP JUMPDEST PUSH1 0x0 DUP3 PUSH3 0xA9C JUMPI PUSH1 0x1 SWAP1 POP PUSH3 0xB6F JUMP JUMPDEST DUP2 PUSH3 0xAAC JUMPI PUSH1 0x0 SWAP1 POP PUSH3 0xB6F JUMP JUMPDEST DUP2 PUSH1 0x1 DUP2 EQ PUSH3 0xAC5 JUMPI PUSH1 0x2 DUP2 EQ PUSH3 0xAD0 JUMPI PUSH3 0xB06 JUMP JUMPDEST PUSH1 0x1 SWAP2 POP POP PUSH3 0xB6F JUMP JUMPDEST PUSH1 0xFF DUP5 GT ISZERO PUSH3 0xAE5 JUMPI PUSH3 0xAE4 PUSH3 0xC17 JUMP JUMPDEST JUMPDEST DUP4 PUSH1 0x2 EXP SWAP2 POP DUP5 DUP3 GT ISZERO PUSH3 0xAFF JUMPI PUSH3 0xAFE PUSH3 0xC17 JUMP JUMPDEST JUMPDEST POP PUSH3 0xB6F JUMP JUMPDEST POP PUSH1 0x20 DUP4 LT PUSH2 0x133 DUP4 LT AND PUSH1 0x4E DUP5 LT PUSH1 0xB DUP5 LT AND OR ISZERO PUSH3 0xB40 JUMPI DUP3 DUP3 EXP SWAP1 POP DUP4 DUP2 GT ISZERO PUSH3 0xB3A JUMPI PUSH3 0xB39 PUSH3 0xC17 JUMP JUMPDEST JUMPDEST PUSH3 0xB6F JUMP JUMPDEST PUSH3 0xB4F DUP5 DUP5 DUP5 PUSH1 0x1 PUSH3 0x9DE JUMP JUMPDEST SWAP3 POP SWAP1 POP DUP2 DUP5 DIV DUP2 GT ISZERO PUSH3 0xB69 JUMPI PUSH3 0xB68 PUSH3 0xC17 JUMP JUMPDEST JUMPDEST DUP2 DUP2 MUL SWAP1 POP JUMPDEST SWAP4 SWAP3 POP POP POP JUMP JUMPDEST PUSH1 0x0 PUSH3 0xB83 DUP3 PUSH3 0xBD7 JUMP JUMPDEST SWAP2 POP PUSH3 0xB90 DUP4 PUSH3 0xBD7 JUMP JUMPDEST SWAP3 POP DUP2 PUSH32 0xFFFFFFFFFFFFFFFFFFFFFFFFFFFFFFFFFFFFFFFFFFFFFFFFFFFFFFFFFFFFFFFF DIV DUP4 GT DUP3 ISZERO ISZERO AND ISZERO PUSH3 0xBCC JUMPI PUSH3 0xBCB PUSH3 0xC17 JUMP JUMPDEST JUMPDEST DUP3 DUP3 MUL SWAP1 POP SWAP3 SWAP2 POP POP JUMP JUMPDEST PUSH1 0x0 DUP2 SWAP1 POP SWAP2 SWAP1 POP JUMP JUMPDEST PUSH1 0x0 PUSH1 0x2 DUP3 DIV SWAP1 POP PUSH1 0x1 DUP3 AND DUP1 PUSH3 0xBFA JUMPI PUSH1 0x7F DUP3 AND SWAP2 POP JUMPDEST PUSH1 0x20 DUP3 LT DUP2 EQ ISZERO PUSH3 0xC11 JUMPI PUSH3 0xC10 PUSH3 0xC46 JUMP JUMPDEST JUMPDEST POP SWAP2 SWAP1 POP JUMP JUMPDEST PUSH32 0x4E487B7100000000000000000000000000000000000000000000000000000000 PUSH1 0x0 MSTORE PUSH1 0x11 PUSH1 0x4 MSTORE PUSH1 0x24 PUSH1 0x0 REVERT JUMPDEST PUSH32 0x4E487B7100000000000000000000000000000000000000000000000000000000 PUSH1 0x0 MSTORE PUSH1 0x22 PUSH1 0x4 MSTORE PUSH1 0x24 PUSH1 0x0 REVERT JUMPDEST PUSH1 0x0 DUP2 PUSH1 0x1 SHR SWAP1 POP SWAP2 SWAP1 POP JUMP JUMPDEST PUSH32 0x4D6178696D756D20737570706C79207265616368656400000000000000000000 PUSH1 0x0 DUP3 ADD MSTORE POP JUMP JUMPDEST PUSH32 0x4F776E61626C653A2063616C6C6572206973206E6F7420746865206F776E6572 PUSH1 0x0 DUP3 ADD MSTORE POP JUMP JUMPDEST PUSH32 0x45524332303A206D696E7420746F20746865207A65726F206164647265737300 PUSH1 0x0 DUP3 ADD MSTORE POP JUMP JUMPDEST PUSH2 0x220D DUP1 PUSH3 0xD0D PUSH1 0x0 CODECOPY PUSH1 0x0 RETURN INVALID PUSH1 0x80 PUSH1 0x40 MSTORE CALLVALUE DUP1 ISZERO PUSH2 0x10 JUMPI PUSH1 0x0 DUP1 REVERT JUMPDEST POP PUSH1 0x4 CALLDATASIZE LT PUSH2 0x121 JUMPI PUSH1 0x0 CALLDATALOAD PUSH1 0xE0 SHR DUP1 PUSH4 0x40C10F19 GT PUSH2 0xAD JUMPI DUP1 PUSH4 0xA457C2D7 GT PUSH2 0x71 JUMPI DUP1 PUSH4 0xA457C2D7 EQ PUSH2 0x30E JUMPI DUP1 PUSH4 0xA9059CBB EQ PUSH2 0x33E JUMPI DUP1 PUSH4 0xC3B2D337 EQ PUSH2 0x36E JUMPI DUP1 PUSH4 0xDD62ED3E EQ PUSH2 0x38C JUMPI DUP1 PUSH4 0xF2FDE38B EQ PUSH2 0x3BC JUMPI PUSH2 0x121 JUMP JUMPDEST DUP1 PUSH4 0x40C10F19 EQ PUSH2 0x26A JUMPI DUP1 PUSH4 0x70A08231 EQ PUSH2 0x286 JUMPI DUP1 PUSH4 0x79CC6790 EQ PUSH2 0x2B6 JUMPI DUP1 PUSH4 0x8DA5CB5B EQ PUSH2 0x2D2 JUMPI DUP1 PUSH4 0x95D89B41 EQ PUSH2 0x2F0 JUMPI PUSH2 0x121 JUMP JUMPDEST DUP1 PUSH4 0x313CE567 GT PUSH2 0xF4 JUMPI DUP1 PUSH4 0x313CE567 EQ PUSH2 0x1C2 JUMPI DUP1 PUSH4 0x32424AA3 EQ PUSH2 0x1E0 JUMPI DUP1 PUSH4 0x378DC3DC EQ PUSH2 0x1FE JUMPI DUP1 PUSH4 0x39509351 EQ PUSH2 0x21C JUMPI DUP1 PUSH4 0x3EE8DD7B EQ PUSH2 0x24C JUMPI PUSH2 0x121 JUMP JUMPDEST DUP1 PUSH4 0x6FDDE03 EQ PUSH2 0x126 JUMPI DUP1 PUSH4 0x95EA7B3 EQ PUSH2 0x144 JUMPI DUP1 PUSH4 0x18160DDD EQ PUSH2 0x174 JUMPI DUP1 PUSH4 0x23B872DD EQ PUSH2 0x192 JUMPI JUMPDEST PUSH1 0x0 DUP1 REVERT JUMPDEST PUSH2 0x12E PUSH2 0x3D8 JUMP JUMPDEST PUSH1 0x40 MLOAD PUSH2 0x13B SWAP2 SWAP1 PUSH2 0x189A JUMP JUMPDEST PUSH1 0x40 MLOAD DUP1 SWAP2 SUB SWAP1 RETURN JUMPDEST PUSH2 0x15E PUSH1 0x4 DUP1 CALLDATASIZE SUB DUP2 ADD SWAP1 PUSH2 0x159 SWAP2 SWAP1 PUSH2 0x15E8 JUMP JUMPDEST PUSH2 0x46A JUMP JUMPDEST PUSH1 0x40 MLOAD PUSH2 0x16B SWAP2 SWAP1 PUSH2 0x187F JUMP JUMPDEST PUSH1 0x40 MLOAD DUP1 SWAP2 SUB SWAP1 RETURN JUMPDEST PUSH2 0x17C PUSH2 0x48D JUMP JUMPDEST PUSH1 0x40 MLOAD PUSH2 0x189 SWAP2 SWAP1 PUSH2 0x1A5C JUMP JUMPDEST PUSH1 0x40 MLOAD DUP1 SWAP2 SUB SWAP1 RETURN JUMPDEST PUSH2 0x1AC PUSH1 0x4 DUP1 CALLDATASIZE SUB DUP2 ADD SWAP1 PUSH2 0x1A7 SWAP2 SWAP1 PUSH2 0x1595 JUMP JUMPDEST PUSH2 0x497 JUMP JUMPDEST PUSH1 0x40 MLOAD PUSH2 0x1B9 SWAP2 SWAP1 PUSH2 0x187F JUMP JUMPDEST PUSH1 0x40 MLOAD DUP1 SWAP2 SUB SWAP1 RETURN JUMPDEST PUSH2 0x1CA PUSH2 0x4C6 JUMP JUMPDEST PUSH1 0x40 MLOAD PUSH2 0x1D7 SWAP2 SWAP1 PUSH2 0x1A77 JUMP JUMPDEST PUSH1 0x40 MLOAD DUP1 SWAP2 SUB SWAP1 RETURN JUMPDEST PUSH2 0x1E8 PUSH2 0x4CF JUMP JUMPDEST PUSH1 0x40 MLOAD PUSH2 0x1F5 SWAP2 SWAP1 PUSH2 0x1A77 JUMP JUMPDEST PUSH1 0x40 MLOAD DUP1 SWAP2 SUB SWAP1 RETURN JUMPDEST PUSH2 0x206 PUSH2 0x4D4 JUMP JUMPDEST PUSH1 0x40 MLOAD PUSH2 0x213 SWAP2 SWAP1 PUSH2 0x1A5C JUMP JUMPDEST PUSH1 0x40 MLOAD DUP1 SWAP2 SUB SWAP1 RETURN JUMPDEST PUSH2 0x236 PUSH1 0x4 DUP1 CALLDATASIZE SUB DUP2 ADD SWAP1 PUSH2 0x231 SWAP2 SWAP1 PUSH2 0x15E8 JUMP JUMPDEST PUSH2 0x4FA JUMP JUMPDEST PUSH1 0x40 MLOAD PUSH2 0x243 SWAP2 SWAP1 PUSH2 0x187F JUMP JUMPDEST PUSH1 0x40 MLOAD DUP1 SWAP2 SUB SWAP1 RETURN JUMPDEST PUSH2 0x254 PUSH2 0x531 JUMP JUMPDEST PUSH1 0x40 MLOAD PUSH2 0x261 SWAP2 SWAP1 PUSH2 0x1A5C JUMP JUMPDEST PUSH1 0x40 MLOAD DUP1 SWAP2 SUB SWAP1 RETURN JUMPDEST PUSH2 0x284 PUSH1 0x4 DUP1 CALLDATASIZE SUB DUP2 ADD SWAP1 PUSH2 0x27F SWAP2 SWAP1 PUSH2 0x15E8 JUMP JUMPDEST PUSH2 0x53B JUMP JUMPDEST STOP JUMPDEST PUSH2 0x2A0 PUSH1 0x4 DUP1 CALLDATASIZE SUB DUP2 ADD SWAP1 PUSH2 0x29B SWAP2 SWAP1 PUSH2 0x1528 JUMP JUMPDEST PUSH2 0x74D JUMP JUMPDEST PUSH1 0x40 MLOAD PUSH2 0x2AD SWAP2 SWAP1 PUSH2 0x1A5C JUMP JUMPDEST PUSH1 0x40 MLOAD DUP1 SWAP2 SUB SWAP1 RETURN JUMPDEST PUSH2 0x2D0 PUSH1 0x4 DUP1 CALLDATASIZE SUB DUP2 ADD SWAP1 PUSH2 0x2CB SWAP2 SWAP1 PUSH2 0x15E8 JUMP JUMPDEST PUSH2 0x795 JUMP JUMPDEST STOP JUMPDEST PUSH2 0x2DA PUSH2 0x900 JUMP JUMPDEST PUSH1 0x40 MLOAD PUSH2 0x2E7 SWAP2 SWAP1 PUSH2 0x1864 JUMP JUMPDEST PUSH1 0x40 MLOAD DUP1 SWAP2 SUB SWAP1 RETURN JUMPDEST PUSH2 0x2F8 PUSH2 0x92A JUMP JUMPDEST PUSH1 0x40 MLOAD PUSH2 0x305 SWAP2 SWAP1 PUSH2 0x189A JUMP JUMPDEST PUSH1 0x40 MLOAD DUP1 SWAP2 SUB SWAP1 RETURN JUMPDEST PUSH2 0x328 PUSH1 0x4 DUP1 CALLDATASIZE SUB DUP2 ADD SWAP1 PUSH2 0x323 SWAP2 SWAP1 PUSH2 0x15E8 JUMP JUMPDEST PUSH2 0x9BC JUMP JUMPDEST PUSH1 0x40 MLOAD PUSH2 0x335 SWAP2 SWAP1 PUSH2 0x187F JUMP JUMPDEST PUSH1 0x40 MLOAD DUP1 SWAP2 SUB SWAP1 RETURN JUMPDEST PUSH2 0x358 PUSH1 0x4 DUP1 CALLDATASIZE SUB DUP2 ADD SWAP1 PUSH2 0x353 SWAP2 SWAP1 PUSH2 0x15E8 JUMP JUMPDEST PUSH2 0xA33 JUMP JUMPDEST PUSH1 0x40 MLOAD PUSH2 0x365 SWAP2 SWAP1 PUSH2 0x187F JUMP JUMPDEST PUSH1 0x40 MLOAD DUP1 SWAP2 SUB SWAP1 RETURN JUMPDEST PUSH2 0x376 PUSH2 0xA56 JUMP JUMPDEST PUSH1 0x40 MLOAD PUSH2 0x383 SWAP2 SWAP1 PUSH2 0x1A5C JUMP JUMPDEST PUSH1 0x40 MLOAD DUP1 SWAP2 SUB SWAP1 RETURN JUMPDEST PUSH2 0x3A6 PUSH1 0x4 DUP1 CALLDATASIZE SUB DUP2 ADD SWAP1 PUSH2 0x3A1 SWAP2 SWAP1 PUSH2 0x1555 JUMP JUMPDEST PUSH2 0xA78 JUMP JUMPDEST PUSH1 0x40 MLOAD PUSH2 0x3B3 SWAP2 SWAP1 PUSH2 0x1A5C JUMP JUMPDEST PUSH1 0x40 MLOAD DUP1 SWAP2 SUB SWAP1 RETURN JUMPDEST PUSH2 0x3D6 PUSH1 0x4 DUP1 CALLDATASIZE SUB DUP2 ADD SWAP1 PUSH2 0x3D1 SWAP2 SWAP1 PUSH2 0x1528 JUMP JUMPDEST PUSH2 0xAFF JUMP JUMPDEST STOP JUMPDEST PUSH1 0x60 PUSH1 0x3 DUP1 SLOAD PUSH2 0x3E7 SWAP1 PUSH2 0x1D8B JUMP JUMPDEST DUP1 PUSH1 0x1F ADD PUSH1 0x20 DUP1 SWAP2 DIV MUL PUSH1 0x20 ADD PUSH1 0x40 MLOAD SWAP1 DUP2 ADD PUSH1 0x40 MSTORE DUP1 SWAP3 SWAP2 SWAP1 DUP2 DUP2 MSTORE PUSH1 0x20 ADD DUP3 DUP1 SLOAD PUSH2 0x413 SWAP1 PUSH2 0x1D8B JUMP JUMPDEST DUP1 ISZERO PUSH2 0x460 JUMPI DUP1 PUSH1 0x1F LT PUSH2 0x435 JUMPI PUSH2 0x100 DUP1 DUP4 SLOAD DIV MUL DUP4 MSTORE SWAP2 PUSH1 0x20 ADD SWAP2 PUSH2 0x460 JUMP JUMPDEST DUP3 ADD SWAP2 SWAP1 PUSH1 0x0 MSTORE PUSH1 0x20 PUSH1 0x0 KECCAK256 SWAP1 JUMPDEST DUP2 SLOAD DUP2 MSTORE SWAP1 PUSH1 0x1 ADD SWAP1 PUSH1 0x20 ADD DUP1 DUP4 GT PUSH2 0x443 JUMPI DUP3 SWAP1 SUB PUSH1 0x1F AND DUP3 ADD SWAP2 JUMPDEST POP POP POP POP POP SWAP1 POP SWAP1 JUMP JUMPDEST PUSH1 0x0 DUP1 PUSH2 0x475 PUSH2 0xB99 JUMP JUMPDEST SWAP1 POP PUSH2 0x482 DUP2 DUP6 DUP6 PUSH2 0xBA1 JUMP JUMPDEST PUSH1 0x1 SWAP2 POP POP SWAP3 SWAP2 POP POP JUMP JUMPDEST PUSH1 0x0 PUSH1 0x9 SLOAD SWAP1 POP SWAP1 JUMP JUMPDEST PUSH1 0x0 DUP1 PUSH2 0x4A2 PUSH2 0xB99 JUMP JUMPDEST SWAP1 POP PUSH2 0x4AF DUP6 DUP3 DUP6 PUSH2 0xD6C JUMP JUMPDEST PUSH2 0x4BA DUP6 DUP6 DUP6 PUSH2 0xDF8 JUMP JUMPDEST PUSH1 0x1 SWAP2 POP POP SWAP4 SWAP3 POP POP POP JUMP JUMPDEST PUSH1 0x0 PUSH1 0x12 SWAP1 POP SWAP1 JUMP JUMPDEST PUSH1 0x12 DUP2 JUMP JUMPDEST PUSH1 0x0 PUSH1 0x12 PUSH1 0xFF AND PUSH1 0xA PUSH2 0x4E7 SWAP2 SWAP1 PUSH2 0x1B57 JUMP JUMPDEST PUSH3 0xF4240 PUSH2 0x4F5 SWAP2 SWAP1 PUSH2 0x1C75 JUMP JUMPDEST SWAP1 POP SWAP1 JUMP JUMPDEST PUSH1 0x0 DUP1 PUSH2 0x505 PUSH2 0xB99 JUMP JUMPDEST SWAP1 POP PUSH2 0x526 DUP2 DUP6 DUP6 PUSH2 0x517 DUP6 DUP10 PUSH2 0xA78 JUMP JUMPDEST PUSH2 0x521 SWAP2 SWAP1 PUSH2 0x1AAE JUMP JUMPDEST PUSH2 0xBA1 JUMP JUMPDEST PUSH1 0x1 SWAP2 POP POP SWAP3 SWAP2 POP POP JUMP JUMPDEST PUSH1 0x0 PUSH1 0xA SLOAD SWAP1 POP SWAP1 JUMP JUMPDEST PUSH2 0x543 PUSH2 0x1079 JUMP JUMPDEST PUSH1 0x0 PUSH20 0xFFFFFFFFFFFFFFFFFFFFFFFFFFFFFFFFFFFFFFFF AND DUP3 PUSH20 0xFFFFFFFFFFFFFFFFFFFFFFFFFFFFFFFFFFFFFFFF AND EQ ISZERO PUSH2 0x5B3 JUMPI PUSH1 0x40 MLOAD PUSH32 0x8C379A000000000000000000000000000000000000000000000000000000000 DUP2 MSTORE PUSH1 0x4 ADD PUSH2 0x5AA SWAP1 PUSH2 0x1A3C JUMP JUMPDEST PUSH1 0x40 MLOAD DUP1 SWAP2 SUB SWAP1 REVERT JUMPDEST PUSH1 0xA SLOAD PUSH2 0x5D0 DUP3 PUSH2 0x5C2 PUSH2 0x48D JUMP JUMPDEST PUSH2 0xB83 SWAP1 SWAP2 SWAP1 PUSH4 0xFFFFFFFF AND JUMP JUMPDEST GT ISZERO PUSH2 0x611 JUMPI PUSH1 0x40 MLOAD PUSH32 0x8C379A000000000000000000000000000000000000000000000000000000000 DUP2 MSTORE PUSH1 0x4 ADD PUSH2 0x608 SWAP1 PUSH2 0x197C JUMP JUMPDEST PUSH1 0x40 MLOAD DUP1 SWAP2 SUB SWAP1 REVERT JUMPDEST PUSH2 0x61B DUP3 DUP3 PUSH2 0x10F7 JUMP JUMPDEST PUSH2 0x627 PUSH1 0x0 DUP4 DUP4 PUSH2 0x1257 JUMP JUMPDEST PUSH2 0x63C DUP2 PUSH1 0x9 SLOAD PUSH2 0xB83 SWAP1 SWAP2 SWAP1 PUSH4 0xFFFFFFFF AND JUMP JUMPDEST PUSH1 0x9 DUP2 SWAP1 SSTORE POP PUSH2 0x694 DUP2 PUSH1 0x6 PUSH1 0x0 DUP6 PUSH20 0xFFFFFFFFFFFFFFFFFFFFFFFFFFFFFFFFFFFFFFFF AND PUSH20 0xFFFFFFFFFFFFFFFFFFFFFFFFFFFFFFFFFFFFFFFF AND DUP2 MSTORE PUSH1 0x20 ADD SWAP1 DUP2 MSTORE PUSH1 0x20 ADD PUSH1 0x0 KECCAK256 SLOAD PUSH2 0xB83 SWAP1 SWAP2 SWAP1 PUSH4 0xFFFFFFFF AND JUMP JUMPDEST PUSH1 0x6 PUSH1 0x0 DUP5 PUSH20 0xFFFFFFFFFFFFFFFFFFFFFFFFFFFFFFFFFFFFFFFF AND PUSH20 0xFFFFFFFFFFFFFFFFFFFFFFFFFFFFFFFFFFFFFFFF AND DUP2 MSTORE PUSH1 0x20 ADD SWAP1 DUP2 MSTORE PUSH1 0x20 ADD PUSH1 0x0 KECCAK256 DUP2 SWAP1 SSTORE POP DUP2 PUSH20 0xFFFFFFFFFFFFFFFFFFFFFFFFFFFFFFFFFFFFFFFF AND PUSH1 0x0 PUSH20 0xFFFFFFFFFFFFFFFFFFFFFFFFFFFFFFFFFFFFFFFF AND PUSH32 0xDDF252AD1BE2C89B69C2B068FC378DAA952BA7F163C4A11628F55A4DF523B3EF DUP4 PUSH1 0x40 MLOAD PUSH2 0x735 SWAP2 SWAP1 PUSH2 0x1A5C JUMP JUMPDEST PUSH1 0x40 MLOAD DUP1 SWAP2 SUB SWAP1 LOG3 PUSH2 0x749 PUSH1 0x0 DUP4 DUP4 PUSH2 0x125C JUMP JUMPDEST POP POP JUMP JUMPDEST PUSH1 0x0 DUP1 PUSH1 0x0 DUP4 PUSH20 0xFFFFFFFFFFFFFFFFFFFFFFFFFFFFFFFFFFFFFFFF AND PUSH20 0xFFFFFFFFFFFFFFFFFFFFFFFFFFFFFFFFFFFFFFFF AND DUP2 MSTORE PUSH1 0x20 ADD SWAP1 DUP2 MSTORE PUSH1 0x20 ADD PUSH1 0x0 KECCAK256 SLOAD SWAP1 POP SWAP2 SWAP1 POP JUMP JUMPDEST PUSH1 0x0 PUSH20 0xFFFFFFFFFFFFFFFFFFFFFFFFFFFFFFFFFFFFFFFF AND DUP3 PUSH20 0xFFFFFFFFFFFFFFFFFFFFFFFFFFFFFFFFFFFFFFFF AND EQ ISZERO PUSH2 0x805 JUMPI PUSH1 0x40 MLOAD PUSH32 0x8C379A000000000000000000000000000000000000000000000000000000000 DUP2 MSTORE PUSH1 0x4 ADD PUSH2 0x7FC SWAP1 PUSH2 0x1A3C JUMP JUMPDEST PUSH1 0x40 MLOAD DUP1 SWAP2 SUB SWAP1 REVERT JUMPDEST PUSH2 0x80F DUP3 DUP3 PUSH2 0x1261 JUMP JUMPDEST PUSH2 0x81B PUSH1 0x0 DUP4 DUP4 PUSH2 0x1257 JUMP JUMPDEST DUP1 PUSH1 0x9 PUSH1 0x0 DUP3 DUP3 SLOAD PUSH2 0x82D SWAP2 SWAP1 PUSH2 0x1CCF JUMP JUMPDEST SWAP3 POP POP DUP2 SWAP1 SSTORE POP DUP1 PUSH1 0x6 PUSH1 0x0 DUP5 PUSH20 0xFFFFFFFFFFFFFFFFFFFFFFFFFFFFFFFFFFFFFFFF AND PUSH20 0xFFFFFFFFFFFFFFFFFFFFFFFFFFFFFFFFFFFFFFFF AND DUP2 MSTORE PUSH1 0x20 ADD SWAP1 DUP2 MSTORE PUSH1 0x20 ADD PUSH1 0x0 KECCAK256 PUSH1 0x0 DUP3 DUP3 SLOAD PUSH2 0x883 SWAP2 SWAP1 PUSH2 0x1CCF JUMP JUMPDEST SWAP3 POP POP DUP2 SWAP1 SSTORE POP DUP2 PUSH20 0xFFFFFFFFFFFFFFFFFFFFFFFFFFFFFFFFFFFFFFFF AND PUSH1 0x0 PUSH20 0xFFFFFFFFFFFFFFFFFFFFFFFFFFFFFFFFFFFFFFFF AND PUSH32 0xDDF252AD1BE2C89B69C2B068FC378DAA952BA7F163C4A11628F55A4DF523B3EF DUP4 PUSH1 0x40 MLOAD PUSH2 0x8E8 SWAP2 SWAP1 PUSH2 0x1A5C JUMP JUMPDEST PUSH1 0x40 MLOAD DUP1 SWAP2 SUB SWAP1 LOG3 PUSH2 0x8FC PUSH1 0x0 DUP4 DUP4 PUSH2 0x125C JUMP JUMPDEST POP POP JUMP JUMPDEST PUSH1 0x0 PUSH1 0x5 PUSH1 0x0 SWAP1 SLOAD SWAP1 PUSH2 0x100 EXP SWAP1 DIV PUSH20 0xFFFFFFFFFFFFFFFFFFFFFFFFFFFFFFFFFFFFFFFF AND SWAP1 POP SWAP1 JUMP JUMPDEST PUSH1 0x60 PUSH1 0x4 DUP1 SLOAD PUSH2 0x939 SWAP1 PUSH2 0x1D8B JUMP JUMPDEST DUP1 PUSH1 0x1F ADD PUSH1 0x20 DUP1 SWAP2 DIV MUL PUSH1 0x20 ADD PUSH1 0x40 MLOAD SWAP1 DUP2 ADD PUSH1 0x40 MSTORE DUP1 SWAP3 SWAP2 SWAP1 DUP2 DUP2 MSTORE PUSH1 0x20 ADD DUP3 DUP1 SLOAD PUSH2 0x965 SWAP1 PUSH2 0x1D8B JUMP JUMPDEST DUP1 ISZERO PUSH2 0x9B2 JUMPI DUP1 PUSH1 0x1F LT PUSH2 0x987 JUMPI PUSH2 0x100 DUP1 DUP4 SLOAD DIV MUL DUP4 MSTORE SWAP2 PUSH1 0x20 ADD SWAP2 PUSH2 0x9B2 JUMP JUMPDEST DUP3 ADD SWAP2 SWAP1 PUSH1 0x0 MSTORE PUSH1 0x20 PUSH1 0x0 KECCAK256 SWAP1 JUMPDEST DUP2 SLOAD DUP2 MSTORE SWAP1 PUSH1 0x1 ADD SWAP1 PUSH1 0x20 ADD DUP1 DUP4 GT PUSH2 0x995 JUMPI DUP3 SWAP1 SUB PUSH1 0x1F AND DUP3 ADD SWAP2 JUMPDEST POP POP POP POP POP SWAP1 POP SWAP1 JUMP JUMPDEST PUSH1 0x0 DUP1 PUSH2 0x9C7 PUSH2 0xB99 JUMP JUMPDEST SWAP1 POP PUSH1 0x0 PUSH2 0x9D5 DUP3 DUP7 PUSH2 0xA78 JUMP JUMPDEST SWAP1 POP DUP4 DUP2 LT ISZERO PUSH2 0xA1A JUMPI PUSH1 0x40 MLOAD PUSH32 0x8C379A000000000000000000000000000000000000000000000000000000000 DUP2 MSTORE PUSH1 0x4 ADD PUSH2 0xA11 SWAP1 PUSH2 0x1A1C JUMP JUMPDEST PUSH1 0x40 MLOAD DUP1 SWAP2 SUB SWAP1 REVERT JUMPDEST PUSH2 0xA27 DUP3 DUP7 DUP7 DUP5 SUB PUSH2 0xBA1 JUMP JUMPDEST PUSH1 0x1 SWAP3 POP POP POP SWAP3 SWAP2 POP POP JUMP JUMPDEST PUSH1 0x0 DUP1 PUSH2 0xA3E PUSH2 0xB99 JUMP JUMPDEST SWAP1 POP PUSH2 0xA4B DUP2 DUP6 DUP6 PUSH2 0xDF8 JUMP JUMPDEST PUSH1 0x1 SWAP2 POP POP SWAP3 SWAP2 POP POP JUMP JUMPDEST PUSH1 0x12 PUSH1 0xFF AND PUSH1 0xA PUSH2 0xA67 SWAP2 SWAP1 PUSH2 0x1B57 JUMP JUMPDEST PUSH3 0xF4240 PUSH2 0xA75 SWAP2 SWAP1 PUSH2 0x1C75 JUMP JUMPDEST DUP2 JUMP JUMPDEST PUSH1 0x0 PUSH1 0x1 PUSH1 0x0 DUP5 PUSH20 0xFFFFFFFFFFFFFFFFFFFFFFFFFFFFFFFFFFFFFFFF AND PUSH20 0xFFFFFFFFFFFFFFFFFFFFFFFFFFFFFFFFFFFFFFFF AND DUP2 MSTORE PUSH1 0x20 ADD SWAP1 DUP2 MSTORE PUSH1 0x20 ADD PUSH1 0x0 KECCAK256 PUSH1 0x0 DUP4 PUSH20 0xFFFFFFFFFFFFFFFFFFFFFFFFFFFFFFFFFFFFFFFF AND PUSH20 0xFFFFFFFFFFFFFFFFFFFFFFFFFFFFFFFFFFFFFFFF AND DUP2 MSTORE PUSH1 0x20 ADD SWAP1 DUP2 MSTORE PUSH1 0x20 ADD PUSH1 0x0 KECCAK256 SLOAD SWAP1 POP SWAP3 SWAP2 POP POP JUMP JUMPDEST PUSH2 0xB07 PUSH2 0x1079 JUMP JUMPDEST PUSH1 0x0 PUSH20 0xFFFFFFFFFFFFFFFFFFFFFFFFFFFFFFFFFFFFFFFF AND DUP2 PUSH20 0xFFFFFFFFFFFFFFFFFFFFFFFFFFFFFFFFFFFFFFFF AND EQ ISZERO PUSH2 0xB77 JUMPI PUSH1 0x40 MLOAD PUSH32 0x8C379A000000000000000000000000000000000000000000000000000000000 DUP2 MSTORE PUSH1 0x4 ADD PUSH2 0xB6E SWAP1 PUSH2 0x18FC JUMP JUMPDEST PUSH1 0x40 MLOAD DUP1 SWAP2 SUB SWAP1 REVERT JUMPDEST PUSH2 0xB80 DUP2 PUSH2 0x1438 JUMP JUMPDEST POP JUMP JUMPDEST PUSH1 0x0 DUP2 DUP4 PUSH2 0xB91 SWAP2 SWAP1 PUSH2 0x1AAE JUMP JUMPDEST SWAP1 POP SWAP3 SWAP2 POP POP JUMP JUMPDEST PUSH1 0x0 CALLER SWAP1 POP SWAP1 JUMP JUMPDEST PUSH1 0x0 PUSH20 0xFFFFFFFFFFFFFFFFFFFFFFFFFFFFFFFFFFFFFFFF AND DUP4 PUSH20 0xFFFFFFFFFFFFFFFFFFFFFFFFFFFFFFFFFFFFFFFF AND EQ ISZERO PUSH2 0xC11 JUMPI PUSH1 0x40 MLOAD PUSH32 0x8C379A000000000000000000000000000000000000000000000000000000000 DUP2 MSTORE PUSH1 0x4 ADD PUSH2 0xC08 SWAP1 PUSH2 0x19FC JUMP JUMPDEST PUSH1 0x40 MLOAD DUP1 SWAP2 SUB SWAP1 REVERT JUMPDEST PUSH1 0x0 PUSH20 0xFFFFFFFFFFFFFFFFFFFFFFFFFFFFFFFFFFFFFFFF AND DUP3 PUSH20 0xFFFFFFFFFFFFFFFFFFFFFFFFFFFFFFFFFFFFFFFF AND EQ ISZERO PUSH2 0xC81 JUMPI PUSH1 0x40 MLOAD PUSH32 0x8C379A000000000000000000000000000000000000000000000000000000000 DUP2 MSTORE PUSH1 0x4 ADD PUSH2 0xC78 SWAP1 PUSH2 0x191C JUMP JUMPDEST PUSH1 0x40 MLOAD DUP1 SWAP2 SUB SWAP1 REVERT JUMPDEST DUP1 PUSH1 0x1 PUSH1 0x0 DUP6 PUSH20 0xFFFFFFFFFFFFFFFFFFFFFFFFFFFFFFFFFFFFFFFF AND PUSH20 0xFFFFFFFFFFFFFFFFFFFFFFFFFFFFFFFFFFFFFFFF AND DUP2 MSTORE PUSH1 0x20 ADD SWAP1 DUP2 MSTORE PUSH1 0x20 ADD PUSH1 0x0 KECCAK256 PUSH1 0x0 DUP5 PUSH20 0xFFFFFFFFFFFFFFFFFFFFFFFFFFFFFFFFFFFFFFFF AND PUSH20 0xFFFFFFFFFFFFFFFFFFFFFFFFFFFFFFFFFFFFFFFF AND DUP2 MSTORE PUSH1 0x20 ADD SWAP1 DUP2 MSTORE PUSH1 0x20 ADD PUSH1 0x0 KECCAK256 DUP2 SWAP1 SSTORE POP DUP2 PUSH20 0xFFFFFFFFFFFFFFFFFFFFFFFFFFFFFFFFFFFFFFFF AND DUP4 PUSH20 0xFFFFFFFFFFFFFFFFFFFFFFFFFFFFFFFFFFFFFFFF AND PUSH32 0x8C5BE1E5EBEC7D5BD14F71427D1E84F3DD0314C0F7B2291E5B200AC8C7C3B925 DUP4 PUSH1 0x40 MLOAD PUSH2 0xD5F SWAP2 SWAP1 PUSH2 0x1A5C JUMP JUMPDEST PUSH1 0x40 MLOAD DUP1 SWAP2 SUB SWAP1 LOG3 POP POP POP JUMP JUMPDEST PUSH1 0x0 PUSH2 0xD78 DUP5 DUP5 PUSH2 0xA78 JUMP JUMPDEST SWAP1 POP PUSH32 0xFFFFFFFFFFFFFFFFFFFFFFFFFFFFFFFFFFFFFFFFFFFFFFFFFFFFFFFFFFFFFFFF DUP2 EQ PUSH2 0xDF2 JUMPI DUP2 DUP2 LT ISZERO PUSH2 0xDE4 JUMPI PUSH1 0x40 MLOAD PUSH32 0x8C379A000000000000000000000000000000000000000000000000000000000 DUP2 MSTORE PUSH1 0x4 ADD PUSH2 0xDDB SWAP1 PUSH2 0x193C JUMP JUMPDEST PUSH1 0x40 MLOAD DUP1 SWAP2 SUB SWAP1 REVERT JUMPDEST PUSH2 0xDF1 DUP5 DUP5 DUP5 DUP5 SUB PUSH2 0xBA1 JUMP JUMPDEST JUMPDEST POP POP POP POP JUMP JUMPDEST PUSH1 0x0 PUSH20 0xFFFFFFFFFFFFFFFFFFFFFFFFFFFFFFFFFFFFFFFF AND DUP4 PUSH20 0xFFFFFFFFFFFFFFFFFFFFFFFFFFFFFFFFFFFFFFFF AND EQ ISZERO PUSH2 0xE68 JUMPI PUSH1 0x40 MLOAD PUSH32 0x8C379A000000000000000000000000000000000000000000000000000000000 DUP2 MSTORE PUSH1 0x4 ADD PUSH2 0xE5F SWAP1 PUSH2 0x19DC JUMP JUMPDEST PUSH1 0x40 MLOAD DUP1 SWAP2 SUB SWAP1 REVERT JUMPDEST PUSH1 0x0 PUSH20 0xFFFFFFFFFFFFFFFFFFFFFFFFFFFFFFFFFFFFFFFF AND DUP3 PUSH20 0xFFFFFFFFFFFFFFFFFFFFFFFFFFFFFFFFFFFFFFFF AND EQ ISZERO PUSH2 0xED8 JUMPI PUSH1 0x40 MLOAD PUSH32 0x8C379A000000000000000000000000000000000000000000000000000000000 DUP2 MSTORE PUSH1 0x4 ADD PUSH2 0xECF SWAP1 PUSH2 0x18BC JUMP JUMPDEST PUSH1 0x40 MLOAD DUP1 SWAP2 SUB SWAP1 REVERT JUMPDEST PUSH2 0xEE3 DUP4 DUP4 DUP4 PUSH2 0x1257 JUMP JUMPDEST PUSH1 0x0 DUP1 PUSH1 0x0 DUP6 PUSH20 0xFFFFFFFFFFFFFFFFFFFFFFFFFFFFFFFFFFFFFFFF AND PUSH20 0xFFFFFFFFFFFFFFFFFFFFFFFFFFFFFFFFFFFFFFFF AND DUP2 MSTORE PUSH1 0x20 ADD SWAP1 DUP2 MSTORE PUSH1 0x20 ADD PUSH1 0x0 KECCAK256 SLOAD SWAP1 POP DUP2 DUP2 LT ISZERO PUSH2 0xF69 JUMPI PUSH1 0x40 MLOAD PUSH32 0x8C379A000000000000000000000000000000000000000000000000000000000 DUP2 MSTORE PUSH1 0x4 ADD PUSH2 0xF60 SWAP1 PUSH2 0x195C JUMP JUMPDEST PUSH1 0x40 MLOAD DUP1 SWAP2 SUB SWAP1 REVERT JUMPDEST DUP2 DUP2 SUB PUSH1 0x0 DUP1 DUP7 PUSH20 0xFFFFFFFFFFFFFFFFFFFFFFFFFFFFFFFFFFFFFFFF AND PUSH20 0xFFFFFFFFFFFFFFFFFFFFFFFFFFFFFFFFFFFFFFFF AND DUP2 MSTORE PUSH1 0x20 ADD SWAP1 DUP2 MSTORE PUSH1 0x20 ADD PUSH1 0x0 KECCAK256 DUP2 SWAP1 SSTORE POP DUP2 PUSH1 0x0 DUP1 DUP6 PUSH20 0xFFFFFFFFFFFFFFFFFFFFFFFFFFFFFFFFFFFFFFFF AND PUSH20 0xFFFFFFFFFFFFFFFFFFFFFFFFFFFFFFFFFFFFFFFF AND DUP2 MSTORE PUSH1 0x20 ADD SWAP1 DUP2 MSTORE PUSH1 0x20 ADD PUSH1 0x0 KECCAK256 PUSH1 0x0 DUP3 DUP3 SLOAD PUSH2 0xFFC SWAP2 SWAP1 PUSH2 0x1AAE JUMP JUMPDEST SWAP3 POP POP DUP2 SWAP1 SSTORE POP DUP3 PUSH20 0xFFFFFFFFFFFFFFFFFFFFFFFFFFFFFFFFFFFFFFFF AND DUP5 PUSH20 0xFFFFFFFFFFFFFFFFFFFFFFFFFFFFFFFFFFFFFFFF AND PUSH32 0xDDF252AD1BE2C89B69C2B068FC378DAA952BA7F163C4A11628F55A4DF523B3EF DUP5 PUSH1 0x40 MLOAD PUSH2 0x1060 SWAP2 SWAP1 PUSH2 0x1A5C JUMP JUMPDEST PUSH1 0x40 MLOAD DUP1 SWAP2 SUB SWAP1 LOG3 PUSH2 0x1073 DUP5 DUP5 DUP5 PUSH2 0x125C JUMP JUMPDEST POP POP POP POP JUMP JUMPDEST PUSH2 0x1081 PUSH2 0xB99 JUMP JUMPDEST PUSH20 0xFFFFFFFFFFFFFFFFFFFFFFFFFFFFFFFFFFFFFFFF AND PUSH2 0x109F PUSH2 0x900 JUMP JUMPDEST PUSH20 0xFFFFFFFFFFFFFFFFFFFFFFFFFFFFFFFFFFFFFFFF AND EQ PUSH2 0x10F5 JUMPI PUSH1 0x40 MLOAD PUSH32 0x8C379A000000000000000000000000000000000000000000000000000000000 DUP2 MSTORE PUSH1 0x4 ADD PUSH2 0x10EC SWAP1 PUSH2 0x199C JUMP JUMPDEST PUSH1 0x40 MLOAD DUP1 SWAP2 SUB SWAP1 REVERT JUMPDEST JUMP JUMPDEST PUSH1 0x0 PUSH20 0xFFFFFFFFFFFFFFFFFFFFFFFFFFFFFFFFFFFFFFFF AND DUP3 PUSH20 0xFFFFFFFFFFFFFFFFFFFFFFFFFFFFFFFFFFFFFFFF AND EQ ISZERO PUSH2 0x1167 JUMPI PUSH1 0x40 MLOAD PUSH32 0x8C379A000000000000000000000000000000000000000000000000000000000 DUP2 MSTORE PUSH1 0x4 ADD PUSH2 0x115E SWAP1 PUSH2 0x1A3C JUMP JUMPDEST PUSH1 0x40 MLOAD DUP1 SWAP2 SUB SWAP1 REVERT JUMPDEST PUSH2 0x1173 PUSH1 0x0 DUP4 DUP4 PUSH2 0x1257 JUMP JUMPDEST DUP1 PUSH1 0x2 PUSH1 0x0 DUP3 DUP3 SLOAD PUSH2 0x1185 SWAP2 SWAP1 PUSH2 0x1AAE JUMP JUMPDEST SWAP3 POP POP DUP2 SWAP1 SSTORE POP DUP1 PUSH1 0x0 DUP1 DUP5 PUSH20 0xFFFFFFFFFFFFFFFFFFFFFFFFFFFFFFFFFFFFFFFF AND PUSH20 0xFFFFFFFFFFFFFFFFFFFFFFFFFFFFFFFFFFFFFFFF AND DUP2 MSTORE PUSH1 0x20 ADD SWAP1 DUP2 MSTORE PUSH1 0x20 ADD PUSH1 0x0 KECCAK256 PUSH1 0x0 DUP3 DUP3 SLOAD PUSH2 0x11DA SWAP2 SWAP1 PUSH2 0x1AAE JUMP JUMPDEST SWAP3 POP POP DUP2 SWAP1 SSTORE POP DUP2 PUSH20 0xFFFFFFFFFFFFFFFFFFFFFFFFFFFFFFFFFFFFFFFF AND PUSH1 0x0 PUSH20 0xFFFFFFFFFFFFFFFFFFFFFFFFFFFFFFFFFFFFFFFF AND PUSH32 0xDDF252AD1BE2C89B69C2B068FC378DAA952BA7F163C4A11628F55A4DF523B3EF DUP4 PUSH1 0x40 MLOAD PUSH2 0x123F SWAP2 SWAP1 PUSH2 0x1A5C JUMP JUMPDEST PUSH1 0x40 MLOAD DUP1 SWAP2 SUB SWAP1 LOG3 PUSH2 0x1253 PUSH1 0x0 DUP4 DUP4 PUSH2 0x125C JUMP JUMPDEST POP POP JUMP JUMPDEST POP POP POP JUMP JUMPDEST POP POP POP JUMP JUMPDEST PUSH1 0x0 PUSH20 0xFFFFFFFFFFFFFFFFFFFFFFFFFFFFFFFFFFFFFFFF AND DUP3 PUSH20 0xFFFFFFFFFFFFFFFFFFFFFFFFFFFFFFFFFFFFFFFF AND EQ ISZERO PUSH2 0x12D1 JUMPI PUSH1 0x40 MLOAD PUSH32 0x8C379A000000000000000000000000000000000000000000000000000000000 DUP2 MSTORE PUSH1 0x4 ADD PUSH2 0x12C8 SWAP1 PUSH2 0x19BC JUMP JUMPDEST PUSH1 0x40 MLOAD DUP1 SWAP2 SUB SWAP1 REVERT JUMPDEST PUSH2 0x12DD DUP3 PUSH1 0x0 DUP4 PUSH2 0x1257 JUMP JUMPDEST PUSH1 0x0 DUP1 PUSH1 0x0 DUP5 PUSH20 0xFFFFFFFFFFFFFFFFFFFFFFFFFFFFFFFFFFFFFFFF AND PUSH20 0xFFFFFFFFFFFFFFFFFFFFFFFFFFFFFFFFFFFFFFFF AND DUP2 MSTORE PUSH1 0x20 ADD SWAP1 DUP2 MSTORE PUSH1 0x20 ADD PUSH1 0x0 KECCAK256 SLOAD SWAP1 POP DUP2 DUP2 LT ISZERO PUSH2 0x1363 JUMPI PUSH1 0x40 MLOAD PUSH32 0x8C379A000000000000000000000000000000000000000000000000000000000 DUP2 MSTORE PUSH1 0x4 ADD PUSH2 0x135A SWAP1 PUSH2 0x18DC JUMP JUMPDEST PUSH1 0x40 MLOAD DUP1 SWAP2 SUB SWAP1 REVERT JUMPDEST DUP2 DUP2 SUB PUSH1 0x0 DUP1 DUP6 PUSH20 0xFFFFFFFFFFFFFFFFFFFFFFFFFFFFFFFFFFFFFFFF AND PUSH20 0xFFFFFFFFFFFFFFFFFFFFFFFFFFFFFFFFFFFFFFFF AND DUP2 MSTORE PUSH1 0x20 ADD SWAP1 DUP2 MSTORE PUSH1 0x20 ADD PUSH1 0x0 KECCAK256 DUP2 SWAP1 SSTORE POP DUP2 PUSH1 0x2 PUSH1 0x0 DUP3 DUP3 SLOAD PUSH2 0x13BA SWAP2 SWAP1 PUSH2 0x1CCF JUMP JUMPDEST SWAP3 POP POP DUP2 SWAP1 SSTORE POP PUSH1 0x0 PUSH20 0xFFFFFFFFFFFFFFFFFFFFFFFFFFFFFFFFFFFFFFFF AND DUP4 PUSH20 0xFFFFFFFFFFFFFFFFFFFFFFFFFFFFFFFFFFFFFFFF AND PUSH32 0xDDF252AD1BE2C89B69C2B068FC378DAA952BA7F163C4A11628F55A4DF523B3EF DUP5 PUSH1 0x40 MLOAD PUSH2 0x141F SWAP2 SWAP1 PUSH2 0x1A5C JUMP JUMPDEST PUSH1 0x40 MLOAD DUP1 SWAP2 SUB SWAP1 LOG3 PUSH2 0x1433 DUP4 PUSH1 0x0 DUP5 PUSH2 0x125C JUMP JUMPDEST POP POP POP JUMP JUMPDEST PUSH1 0x0 PUSH1 0x5 PUSH1 0x0 SWAP1 SLOAD SWAP1 PUSH2 0x100 EXP SWAP1 DIV PUSH20 0xFFFFFFFFFFFFFFFFFFFFFFFFFFFFFFFFFFFFFFFF AND SWAP1 POP DUP2 PUSH1 0x5 PUSH1 0x0 PUSH2 0x100 EXP DUP2 SLOAD DUP2 PUSH20 0xFFFFFFFFFFFFFFFFFFFFFFFFFFFFFFFFFFFFFFFF MUL NOT AND SWAP1 DUP4 PUSH20 0xFFFFFFFFFFFFFFFFFFFFFFFFFFFFFFFFFFFFFFFF AND MUL OR SWAP1 SSTORE POP DUP2 PUSH20 0xFFFFFFFFFFFFFFFFFFFFFFFFFFFFFFFFFFFFFFFF AND DUP2 PUSH20 0xFFFFFFFFFFFFFFFFFFFFFFFFFFFFFFFFFFFFFFFF AND PUSH32 0x8BE0079C531659141344CD1FD0A4F28419497F9722A3DAAFE3B4186F6B6457E0 PUSH1 0x40 MLOAD PUSH1 0x40 MLOAD DUP1 SWAP2 SUB SWAP1 LOG3 POP POP JUMP JUMPDEST PUSH1 0x0 DUP2 CALLDATALOAD SWAP1 POP PUSH2 0x150D DUP2 PUSH2 0x21A9 JUMP JUMPDEST SWAP3 SWAP2 POP POP JUMP JUMPDEST PUSH1 0x0 DUP2 CALLDATALOAD SWAP1 POP PUSH2 0x1522 DUP2 PUSH2 0x21C0 JUMP JUMPDEST SWAP3 SWAP2 POP POP JUMP JUMPDEST PUSH1 0x0 PUSH1 0x20 DUP3 DUP5 SUB SLT ISZERO PUSH2 0x153E JUMPI PUSH2 0x153D PUSH2 0x1E1B JUMP JUMPDEST JUMPDEST PUSH1 0x0 PUSH2 0x154C DUP5 DUP3 DUP6 ADD PUSH2 0x14FE JUMP JUMPDEST SWAP2 POP POP SWAP3 SWAP2 POP POP JUMP JUMPDEST PUSH1 0x0 DUP1 PUSH1 0x40 DUP4 DUP6 SUB SLT ISZERO PUSH2 0x156C JUMPI PUSH2 0x156B PUSH2 0x1E1B JUMP JUMPDEST JUMPDEST PUSH1 0x0 PUSH2 0x157A DUP6 DUP3 DUP7 ADD PUSH2 0x14FE JUMP JUMPDEST SWAP3 POP POP PUSH1 0x20 PUSH2 0x158B DUP6 DUP3 DUP7 ADD PUSH2 0x14FE JUMP JUMPDEST SWAP2 POP POP SWAP3 POP SWAP3 SWAP1 POP JUMP JUMPDEST PUSH1 0x0 DUP1 PUSH1 0x0 PUSH1 0x60 DUP5 DUP7 SUB SLT ISZERO PUSH2 0x15AE JUMPI PUSH2 0x15AD PUSH2 0x1E1B JUMP JUMPDEST JUMPDEST PUSH1 0x0 PUSH2 0x15BC DUP7 DUP3 DUP8 ADD PUSH2 0x14FE JUMP JUMPDEST SWAP4 POP POP PUSH1 0x20 PUSH2 0x15CD DUP7 DUP3 DUP8 ADD PUSH2 0x14FE JUMP JUMPDEST SWAP3 POP POP PUSH1 0x40 PUSH2 0x15DE DUP7 DUP3 DUP8 ADD PUSH2 0x1513 JUMP JUMPDEST SWAP2 POP POP SWAP3 POP SWAP3 POP SWAP3 JUMP JUMPDEST PUSH1 0x0 DUP1 PUSH1 0x40 DUP4 DUP6 SUB SLT ISZERO PUSH2 0x15FF JUMPI PUSH2 0x15FE PUSH2 0x1E1B JUMP JUMPDEST JUMPDEST PUSH1 0x0 PUSH2 0x160D DUP6 DUP3 DUP7 ADD PUSH2 0x14FE JUMP JUMPDEST SWAP3 POP POP PUSH1 0x20 PUSH2 0x161E DUP6 DUP3 DUP7 ADD PUSH2 0x1513 JUMP JUMPDEST SWAP2 POP POP SWAP3 POP SWAP3 SWAP1 POP JUMP JUMPDEST PUSH2 0x1631 DUP2 PUSH2 0x1D03 JUMP JUMPDEST DUP3 MSTORE POP POP JUMP JUMPDEST PUSH2 0x1640 DUP2 PUSH2 0x1D15 JUMP JUMPDEST DUP3 MSTORE POP POP JUMP JUMPDEST PUSH1 0x0 PUSH2 0x1651 DUP3 PUSH2 0x1A92 JUMP JUMPDEST PUSH2 0x165B DUP2 DUP6 PUSH2 0x1A9D JUMP JUMPDEST SWAP4 POP PUSH2 0x166B DUP2 DUP6 PUSH1 0x20 DUP7 ADD PUSH2 0x1D58 JUMP JUMPDEST PUSH2 0x1674 DUP2 PUSH2 0x1E20 JUMP JUMPDEST DUP5 ADD SWAP2 POP POP SWAP3 SWAP2 POP POP JUMP JUMPDEST PUSH1 0x0 PUSH2 0x168C PUSH1 0x23 DUP4 PUSH2 0x1A9D JUMP JUMPDEST SWAP2 POP PUSH2 0x1697 DUP3 PUSH2 0x1E3E JUMP JUMPDEST PUSH1 0x40 DUP3 ADD SWAP1 POP SWAP2 SWAP1 POP JUMP JUMPDEST PUSH1 0x0 PUSH2 0x16AF PUSH1 0x22 DUP4 PUSH2 0x1A9D JUMP JUMPDEST SWAP2 POP PUSH2 0x16BA DUP3 PUSH2 0x1E8D JUMP JUMPDEST PUSH1 0x40 DUP3 ADD SWAP1 POP SWAP2 SWAP1 POP JUMP JUMPDEST PUSH1 0x0 PUSH2 0x16D2 PUSH1 0x26 DUP4 PUSH2 0x1A9D JUMP JUMPDEST SWAP2 POP PUSH2 0x16DD DUP3 PUSH2 0x1EDC JUMP JUMPDEST PUSH1 0x40 DUP3 ADD SWAP1 POP SWAP2 SWAP1 POP JUMP JUMPDEST PUSH1 0x0 PUSH2 0x16F5 PUSH1 0x22 DUP4 PUSH2 0x1A9D JUMP JUMPDEST SWAP2 POP PUSH2 0x1700 DUP3 PUSH2 0x1F2B JUMP JUMPDEST PUSH1 0x40 DUP3 ADD SWAP1 POP SWAP2 SWAP1 POP JUMP JUMPDEST PUSH1 0x0 PUSH2 0x1718 PUSH1 0x1D DUP4 PUSH2 0x1A9D JUMP JUMPDEST SWAP2 POP PUSH2 0x1723 DUP3 PUSH2 0x1F7A JUMP JUMPDEST PUSH1 0x20 DUP3 ADD SWAP1 POP SWAP2 SWAP1 POP JUMP JUMPDEST PUSH1 0x0 PUSH2 0x173B PUSH1 0x26 DUP4 PUSH2 0x1A9D JUMP JUMPDEST SWAP2 POP PUSH2 0x1746 DUP3 PUSH2 0x1FA3 JUMP JUMPDEST PUSH1 0x40 DUP3 ADD SWAP1 POP SWAP2 SWAP1 POP JUMP JUMPDEST PUSH1 0x0 PUSH2 0x175E PUSH1 0x16 DUP4 PUSH2 0x1A9D JUMP JUMPDEST SWAP2 POP PUSH2 0x1769 DUP3 PUSH2 0x1FF2 JUMP JUMPDEST PUSH1 0x20 DUP3 ADD SWAP1 POP SWAP2 SWAP1 POP JUMP JUMPDEST PUSH1 0x0 PUSH2 0x1781 PUSH1 0x20 DUP4 PUSH2 0x1A9D JUMP JUMPDEST SWAP2 POP PUSH2 0x178C DUP3 PUSH2 0x201B JUMP JUMPDEST PUSH1 0x20 DUP3 ADD SWAP1 POP SWAP2 SWAP1 POP JUMP JUMPDEST PUSH1 0x0 PUSH2 0x17A4 PUSH1 0x21 DUP4 PUSH2 0x1A9D JUMP JUMPDEST SWAP2 POP PUSH2 0x17AF DUP3 PUSH2 0x2044 JUMP JUMPDEST PUSH1 0x40 DUP3 ADD SWAP1 POP SWAP2 SWAP1 POP JUMP JUMPDEST PUSH1 0x0 PUSH2 0x17C7 PUSH1 0x25 DUP4 PUSH2 0x1A9D JUMP JUMPDEST SWAP2 POP PUSH2 0x17D2 DUP3 PUSH2 0x2093 JUMP JUMPDEST PUSH1 0x40 DUP3 ADD SWAP1 POP SWAP2 SWAP1 POP JUMP JUMPDEST PUSH1 0x0 PUSH2 0x17EA PUSH1 0x24 DUP4 PUSH2 0x1A9D JUMP JUMPDEST SWAP2 POP PUSH2 0x17F5 DUP3 PUSH2 0x20E2 JUMP JUMPDEST PUSH1 0x40 DUP3 ADD SWAP1 POP SWAP2 SWAP1 POP JUMP JUMPDEST PUSH1 0x0 PUSH2 0x180D PUSH1 0x25 DUP4 PUSH2 0x1A9D JUMP JUMPDEST SWAP2 POP PUSH2 0x1818 DUP3 PUSH2 0x2131 JUMP JUMPDEST PUSH1 0x40 DUP3 ADD SWAP1 POP SWAP2 SWAP1 POP JUMP JUMPDEST PUSH1 0x0 PUSH2 0x1830 PUSH1 0x1F DUP4 PUSH2 0x1A9D JUMP JUMPDEST SWAP2 POP PUSH2 0x183B DUP3 PUSH2 0x2180 JUMP JUMPDEST PUSH1 0x20 DUP3 ADD SWAP1 POP SWAP2 SWAP1 POP JUMP JUMPDEST PUSH2 0x184F DUP2 PUSH2 0x1D41 JUMP JUMPDEST DUP3 MSTORE POP POP JUMP JUMPDEST PUSH2 0x185E DUP2 PUSH2 0x1D4B JUMP JUMPDEST DUP3 MSTORE POP POP JUMP JUMPDEST PUSH1 0x0 PUSH1 0x20 DUP3 ADD SWAP1 POP PUSH2 0x1879 PUSH1 0x0 DUP4 ADD DUP5 PUSH2 0x1628 JUMP JUMPDEST SWAP3 SWAP2 POP POP JUMP JUMPDEST PUSH1 0x0 PUSH1 0x20 DUP3 ADD SWAP1 POP PUSH2 0x1894 PUSH1 0x0 DUP4 ADD DUP5 PUSH2 0x1637 JUMP JUMPDEST SWAP3 SWAP2 POP POP JUMP JUMPDEST PUSH1 0x0 PUSH1 0x20 DUP3 ADD SWAP1 POP DUP2 DUP2 SUB PUSH1 0x0 DUP4 ADD MSTORE PUSH2 0x18B4 DUP2 DUP5 PUSH2 0x1646 JUMP JUMPDEST SWAP1 POP SWAP3 SWAP2 POP POP JUMP JUMPDEST PUSH1 0x0 PUSH1 0x20 DUP3 ADD SWAP1 POP DUP2 DUP2 SUB PUSH1 0x0 DUP4 ADD MSTORE PUSH2 0x18D5 DUP2 PUSH2 0x167F JUMP JUMPDEST SWAP1 POP SWAP2 SWAP1 POP JUMP JUMPDEST PUSH1 0x0 PUSH1 0x20 DUP3 ADD SWAP1 POP DUP2 DUP2 SUB PUSH1 0x0 DUP4 ADD MSTORE PUSH2 0x18F5 DUP2 PUSH2 0x16A2 JUMP JUMPDEST SWAP1 POP SWAP2 SWAP1 POP JUMP JUMPDEST PUSH1 0x0 PUSH1 0x20 DUP3 ADD SWAP1 POP DUP2 DUP2 SUB PUSH1 0x0 DUP4 ADD MSTORE PUSH2 0x1915 DUP2 PUSH2 0x16C5 JUMP JUMPDEST SWAP1 POP SWAP2 SWAP1 POP JUMP JUMPDEST PUSH1 0x0 PUSH1 0x20 DUP3 ADD SWAP1 POP DUP2 DUP2 SUB PUSH1 0x0 DUP4 ADD MSTORE PUSH2 0x1935 DUP2 PUSH2 0x16E8 JUMP JUMPDEST SWAP1 POP SWAP2 SWAP1 POP JUMP JUMPDEST PUSH1 0x0 PUSH1 0x20 DUP3 ADD SWAP1 POP DUP2 DUP2 SUB PUSH1 0x0 DUP4 ADD MSTORE PUSH2 0x1955 DUP2 PUSH2 0x170B JUMP JUMPDEST SWAP1 POP SWAP2 SWAP1 POP JUMP JUMPDEST PUSH1 0x0 PUSH1 0x20 DUP3 ADD SWAP1 POP DUP2 DUP2 SUB PUSH1 0x0 DUP4 ADD MSTORE PUSH2 0x1975 DUP2 PUSH2 0x172E JUMP JUMPDEST SWAP1 POP SWAP2 SWAP1 POP JUMP JUMPDEST PUSH1 0x0 PUSH1 0x20 DUP3 ADD SWAP1 POP DUP2 DUP2 SUB PUSH1 0x0 DUP4 ADD MSTORE PUSH2 0x1995 DUP2 PUSH2 0x1751 JUMP JUMPDEST SWAP1 POP SWAP2 SWAP1 POP JUMP JUMPDEST PUSH1 0x0 PUSH1 0x20 DUP3 ADD SWAP1 POP DUP2 DUP2 SUB PUSH1 0x0 DUP4 ADD MSTORE PUSH2 0x19B5 DUP2 PUSH2 0x1774 JUMP JUMPDEST SWAP1 POP SWAP2 SWAP1 POP JUMP JUMPDEST PUSH1 0x0 PUSH1 0x20 DUP3 ADD SWAP1 POP DUP2 DUP2 SUB PUSH1 0x0 DUP4 ADD MSTORE PUSH2 0x19D5 DUP2 PUSH2 0x1797 JUMP JUMPDEST SWAP1 POP SWAP2 SWAP1 POP JUMP JUMPDEST PUSH1 0x0 PUSH1 0x20 DUP3 ADD SWAP1 POP DUP2 DUP2 SUB PUSH1 0x0 DUP4 ADD MSTORE PUSH2 0x19F5 DUP2 PUSH2 0x17BA JUMP JUMPDEST SWAP1 POP SWAP2 SWAP1 POP JUMP JUMPDEST PUSH1 0x0 PUSH1 0x20 DUP3 ADD SWAP1 POP DUP2 DUP2 SUB PUSH1 0x0 DUP4 ADD MSTORE PUSH2 0x1A15 DUP2 PUSH2 0x17DD JUMP JUMPDEST SWAP1 POP SWAP2 SWAP1 POP JUMP JUMPDEST PUSH1 0x0 PUSH1 0x20 DUP3 ADD SWAP1 POP DUP2 DUP2 SUB PUSH1 0x0 DUP4 ADD MSTORE PUSH2 0x1A35 DUP2 PUSH2 0x1800 JUMP JUMPDEST SWAP1 POP SWAP2 SWAP1 POP JUMP JUMPDEST PUSH1 0x0 PUSH1 0x20 DUP3 ADD SWAP1 POP DUP2 DUP2 SUB PUSH1 0x0 DUP4 ADD MSTORE PUSH2 0x1A55 DUP2 PUSH2 0x1823 JUMP JUMPDEST SWAP1 POP SWAP2 SWAP1 POP JUMP JUMPDEST PUSH1 0x0 PUSH1 0x20 DUP3 ADD SWAP1 POP PUSH2 0x1A71 PUSH1 0x0 DUP4 ADD DUP5 PUSH2 0x1846 JUMP JUMPDEST SWAP3 SWAP2 POP POP JUMP JUMPDEST PUSH1 0x0 PUSH1 0x20 DUP3 ADD SWAP1 POP PUSH2 0x1A8C PUSH1 0x0 DUP4 ADD DUP5 PUSH2 0x1855 JUMP JUMPDEST SWAP3 SWAP2 POP POP JUMP JUMPDEST PUSH1 0x0 DUP2 MLOAD SWAP1 POP SWAP2 SWAP1 POP JUMP JUMPDEST PUSH1 0x0 DUP3 DUP3 MSTORE PUSH1 0x20 DUP3 ADD SWAP1 POP SWAP3 SWAP2 POP POP JUMP JUMPDEST PUSH1 0x0 PUSH2 0x1AB9 DUP3 PUSH2 0x1D41 JUMP JUMPDEST SWAP2 POP PUSH2 0x1AC4 DUP4 PUSH2 0x1D41 JUMP JUMPDEST SWAP3 POP DUP3 PUSH32 0xFFFFFFFFFFFFFFFFFFFFFFFFFFFFFFFFFFFFFFFFFFFFFFFFFFFFFFFFFFFFFFFF SUB DUP3 GT ISZERO PUSH2 0x1AF9 JUMPI PUSH2 0x1AF8 PUSH2 0x1DBD JUMP JUMPDEST JUMPDEST DUP3 DUP3 ADD SWAP1 POP SWAP3 SWAP2 POP POP JUMP JUMPDEST PUSH1 0x0 DUP1 DUP3 SWAP2 POP DUP4 SWAP1 POP JUMPDEST PUSH1 0x1 DUP6 GT ISZERO PUSH2 0x1B4E JUMPI DUP1 DUP7 DIV DUP2 GT ISZERO PUSH2 0x1B2A JUMPI PUSH2 0x1B29 PUSH2 0x1DBD JUMP JUMPDEST JUMPDEST PUSH1 0x1 DUP6 AND ISZERO PUSH2 0x1B39 JUMPI DUP1 DUP3 MUL SWAP2 POP JUMPDEST DUP1 DUP2 MUL SWAP1 POP PUSH2 0x1B47 DUP6 PUSH2 0x1E31 JUMP JUMPDEST SWAP5 POP PUSH2 0x1B0E JUMP JUMPDEST SWAP5 POP SWAP5 SWAP3 POP POP POP JUMP JUMPDEST PUSH1 0x0 PUSH2 0x1B62 DUP3 PUSH2 0x1D41 JUMP JUMPDEST SWAP2 POP PUSH2 0x1B6D DUP4 PUSH2 0x1D41 JUMP JUMPDEST SWAP3 POP PUSH2 0x1B9A PUSH32 0xFFFFFFFFFFFFFFFFFFFFFFFFFFFFFFFFFFFFFFFFFFFFFFFFFFFFFFFFFFFFFFFF DUP5 DUP5 PUSH2 0x1BA2 JUMP JUMPDEST SWAP1 POP SWAP3 SWAP2 POP POP JUMP JUMPDEST PUSH1 0x0 DUP3 PUSH2 0x1BB2 JUMPI PUSH1 0x1 SWAP1 POP PUSH2 0x1C6E JUMP JUMPDEST DUP2 PUSH2 0x1BC0 JUMPI PUSH1 0x0 SWAP1 POP PUSH2 0x1C6E JUMP JUMPDEST DUP2 PUSH1 0x1 DUP2 EQ PUSH2 0x1BD6 JUMPI PUSH1 0x2 DUP2 EQ PUSH2 0x1BE0 JUMPI PUSH2 0x1C0F JUMP JUMPDEST PUSH1 0x1 SWAP2 POP POP PUSH2 0x1C6E JUMP JUMPDEST PUSH1 0xFF DUP5 GT ISZERO PUSH2 0x1BF2 JUMPI PUSH2 0x1BF1 PUSH2 0x1DBD JUMP JUMPDEST JUMPDEST DUP4 PUSH1 0x2 EXP SWAP2 POP DUP5 DUP3 GT ISZERO PUSH2 0x1C09 JUMPI PUSH2 0x1C08 PUSH2 0x1DBD JUMP JUMPDEST JUMPDEST POP PUSH2 0x1C6E JUMP JUMPDEST POP PUSH1 0x20 DUP4 LT PUSH2 0x133 DUP4 LT AND PUSH1 0x4E DUP5 LT PUSH1 0xB DUP5 LT AND OR ISZERO PUSH2 0x1C44 JUMPI DUP3 DUP3 EXP SWAP1 POP DUP4 DUP2 GT ISZERO PUSH2 0x1C3F JUMPI PUSH2 0x1C3E PUSH2 0x1DBD JUMP JUMPDEST JUMPDEST PUSH2 0x1C6E JUMP JUMPDEST PUSH2 0x1C51 DUP5 DUP5 DUP5 PUSH1 0x1 PUSH2 0x1B04 JUMP JUMPDEST SWAP3 POP SWAP1 POP DUP2 DUP5 DIV DUP2 GT ISZERO PUSH2 0x1C68 JUMPI PUSH2 0x1C67 PUSH2 0x1DBD JUMP JUMPDEST JUMPDEST DUP2 DUP2 MUL SWAP1 POP JUMPDEST SWAP4 SWAP3 POP POP POP JUMP JUMPDEST PUSH1 0x0 PUSH2 0x1C80 DUP3 PUSH2 0x1D41 JUMP JUMPDEST SWAP2 POP PUSH2 0x1C8B DUP4 PUSH2 0x1D41 JUMP JUMPDEST SWAP3 POP DUP2 PUSH32 0xFFFFFFFFFFFFFFFFFFFFFFFFFFFFFFFFFFFFFFFFFFFFFFFFFFFFFFFFFFFFFFFF DIV DUP4 GT DUP3 ISZERO ISZERO AND ISZERO PUSH2 0x1CC4 JUMPI PUSH2 0x1CC3 PUSH2 0x1DBD JUMP JUMPDEST JUMPDEST DUP3 DUP3 MUL SWAP1 POP SWAP3 SWAP2 POP POP JUMP JUMPDEST PUSH1 0x0 PUSH2 0x1CDA DUP3 PUSH2 0x1D41 JUMP JUMPDEST SWAP2 POP PUSH2 0x1CE5 DUP4 PUSH2 0x1D41 JUMP JUMPDEST SWAP3 POP DUP3 DUP3 LT ISZERO PUSH2 0x1CF8 JUMPI PUSH2 0x1CF7 PUSH2 0x1DBD JUMP JUMPDEST JUMPDEST DUP3 DUP3 SUB SWAP1 POP SWAP3 SWAP2 POP POP JUMP JUMPDEST PUSH1 0x0 PUSH2 0x1D0E DUP3 PUSH2 0x1D21 JUMP JUMPDEST SWAP1 POP SWAP2 SWAP1 POP JUMP JUMPDEST PUSH1 0x0 DUP2 ISZERO ISZERO SWAP1 POP SWAP2 SWAP1 POP JUMP JUMPDEST PUSH1 0x0 PUSH20 0xFFFFFFFFFFFFFFFFFFFFFFFFFFFFFFFFFFFFFFFF DUP3 AND SWAP1 POP SWAP2 SWAP1 POP JUMP JUMPDEST PUSH1 0x0 DUP2 SWAP1 POP SWAP2 SWAP1 POP JUMP JUMPDEST PUSH1 0x0 PUSH1 0xFF DUP3 AND SWAP1 POP SWAP2 SWAP1 POP JUMP JUMPDEST PUSH1 0x0 JUMPDEST DUP4 DUP2 LT ISZERO PUSH2 0x1D76 JUMPI DUP1 DUP3 ADD MLOAD DUP2 DUP5 ADD MSTORE PUSH1 0x20 DUP2 ADD SWAP1 POP PUSH2 0x1D5B JUMP JUMPDEST DUP4 DUP2 GT ISZERO PUSH2 0x1D85 JUMPI PUSH1 0x0 DUP5 DUP5 ADD MSTORE JUMPDEST POP POP POP POP JUMP JUMPDEST PUSH1 0x0 PUSH1 0x2 DUP3 DIV SWAP1 POP PUSH1 0x1 DUP3 AND DUP1 PUSH2 0x1DA3 JUMPI PUSH1 0x7F DUP3 AND SWAP2 POP JUMPDEST PUSH1 0x20 DUP3 LT DUP2 EQ ISZERO PUSH2 0x1DB7 JUMPI PUSH2 0x1DB6 PUSH2 0x1DEC JUMP JUMPDEST JUMPDEST POP SWAP2 SWAP1 POP JUMP JUMPDEST PUSH32 0x4E487B7100000000000000000000000000000000000000000000000000000000 PUSH1 0x0 MSTORE PUSH1 0x11 PUSH1 0x4 MSTORE PUSH1 0x24 PUSH1 0x0 REVERT JUMPDEST PUSH32 0x4E487B7100000000000000000000000000000000000000000000000000000000 PUSH1 0x0 MSTORE PUSH1 0x22 PUSH1 0x4 MSTORE PUSH1 0x24 PUSH1 0x0 REVERT JUMPDEST PUSH1 0x0 DUP1 REVERT JUMPDEST PUSH1 0x0 PUSH1 0x1F NOT PUSH1 0x1F DUP4 ADD AND SWAP1 POP SWAP2 SWAP1 POP JUMP JUMPDEST PUSH1 0x0 DUP2 PUSH1 0x1 SHR SWAP1 POP SWAP2 SWAP1 POP JUMP JUMPDEST PUSH32 0x45524332303A207472616E7366657220746F20746865207A65726F2061646472 PUSH1 0x0 DUP3 ADD MSTORE PUSH32 0x6573730000000000000000000000000000000000000000000000000000000000 PUSH1 0x20 DUP3 ADD MSTORE POP JUMP JUMPDEST PUSH32 0x45524332303A206275726E20616D6F756E7420657863656564732062616C616E PUSH1 0x0 DUP3 ADD MSTORE PUSH32 0x6365000000000000000000000000000000000000000000000000000000000000 PUSH1 0x20 DUP3 ADD MSTORE POP JUMP JUMPDEST PUSH32 0x4F776E61626C653A206E6577206F776E657220697320746865207A65726F2061 PUSH1 0x0 DUP3 ADD MSTORE PUSH32 0x6464726573730000000000000000000000000000000000000000000000000000 PUSH1 0x20 DUP3 ADD MSTORE POP JUMP JUMPDEST PUSH32 0x45524332303A20617070726F766520746F20746865207A65726F206164647265 PUSH1 0x0 DUP3 ADD MSTORE PUSH32 0x7373000000000000000000000000000000000000000000000000000000000000 PUSH1 0x20 DUP3 ADD MSTORE POP JUMP JUMPDEST PUSH32 0x45524332303A20696E73756666696369656E7420616C6C6F77616E6365000000 PUSH1 0x0 DUP3 ADD MSTORE POP JUMP JUMPDEST PUSH32 0x45524332303A207472616E7366657220616D6F756E7420657863656564732062 PUSH1 0x0 DUP3 ADD MSTORE PUSH32 0x616C616E63650000000000000000000000000000000000000000000000000000 PUSH1 0x20 DUP3 ADD MSTORE POP JUMP JUMPDEST PUSH32 0x4D6178696D756D20737570706C79207265616368656400000000000000000000 PUSH1 0x0 DUP3 ADD MSTORE POP JUMP JUMPDEST PUSH32 0x4F776E61626C653A2063616C6C6572206973206E6F7420746865206F776E6572 PUSH1 0x0 DUP3 ADD MSTORE POP JUMP JUMPDEST PUSH32 0x45524332303A206275726E2066726F6D20746865207A65726F20616464726573 PUSH1 0x0 DUP3 ADD MSTORE PUSH32 0x7300000000000000000000000000000000000000000000000000000000000000 PUSH1 0x20 DUP3 ADD MSTORE POP JUMP JUMPDEST PUSH32 0x45524332303A207472616E736665722066726F6D20746865207A65726F206164 PUSH1 0x0 DUP3 ADD MSTORE PUSH32 0x6472657373000000000000000000000000000000000000000000000000000000 PUSH1 0x20 DUP3 ADD MSTORE POP JUMP JUMPDEST PUSH32 0x45524332303A20617070726F76652066726F6D20746865207A65726F20616464 PUSH1 0x0 DUP3 ADD MSTORE PUSH32 0x7265737300000000000000000000000000000000000000000000000000000000 PUSH1 0x20 DUP3 ADD MSTORE POP JUMP JUMPDEST PUSH32 0x45524332303A2064656372656173656420616C6C6F77616E63652062656C6F77 PUSH1 0x0 DUP3 ADD MSTORE PUSH32 0x207A65726F000000000000000000000000000000000000000000000000000000 PUSH1 0x20 DUP3 ADD MSTORE POP JUMP JUMPDEST PUSH32 0x45524332303A206D696E7420746F20746865207A65726F206164647265737300 PUSH1 0x0 DUP3 ADD MSTORE POP JUMP JUMPDEST PUSH2 0x21B2 DUP2 PUSH2 0x1D03 JUMP JUMPDEST DUP2 EQ PUSH2 0x21BD JUMPI PUSH1 0x0 DUP1 REVERT JUMPDEST POP JUMP JUMPDEST PUSH2 0x21C9 DUP2 PUSH2 0x1D41 JUMP JUMPDEST DUP2 EQ PUSH2 0x21D4 JUMPI PUSH1 0x0 DUP1 REVERT JUMPDEST POP JUMP INVALID LOG2 PUSH5 0x6970667358 0x22 SLT KECCAK256 0xA5 0xB8 GASLIMIT PUSH15 0x78E8DAEDA9F7D41ED62A17C7E0A0EA POP NUMBER SWAP12 GT CALL POP COINBASE 0xCD SGT 0xD9 CHAINID DIV 0xC3 PUSH5 0x736F6C6343 STOP ADDMOD SMOD STOP CALLER "
				},
				"gasEstimates": {
					"creation": {
						"codeDepositCost": "1743400",
						"executionCost": "infinite",
						"totalCost": "infinite"
					},
					"external": {
						"_decimals()": "380",
						"_initialSupply()": "infinite",
						"allowance(address,address)": "infinite",
						"approve(address,uint256)": "infinite",
						"balanceOf(address)": "2886",
						"burnFrom(address,uint256)": "infinite",
						"decimals()": "366",
						"decreaseAllowance(address,uint256)": "infinite",
						"increaseAllowance(address,uint256)": "infinite",
						"initialSupply()": "infinite",
						"maximusupply()": "2548",
						"mint(address,uint256)": "infinite",
						"name()": "infinite",
						"owner()": "2611",
						"symbol()": "infinite",
						"totalSupply()": "2505",
						"transfer(address,uint256)": "infinite",
						"transferFrom(address,address,uint256)": "infinite",
						"transferOwnership(address)": "30857"
					}
				},
				"methodIdentifiers": {
					"_decimals()": "32424aa3",
					"_initialSupply()": "c3b2d337",
					"allowance(address,address)": "dd62ed3e",
					"approve(address,uint256)": "095ea7b3",
					"balanceOf(address)": "70a08231",
					"burnFrom(address,uint256)": "79cc6790",
					"decimals()": "313ce567",
					"decreaseAllowance(address,uint256)": "a457c2d7",
					"increaseAllowance(address,uint256)": "39509351",
					"initialSupply()": "378dc3dc",
					"maximusupply()": "3ee8dd7b",
					"mint(address,uint256)": "40c10f19",
					"name()": "06fdde03",
					"owner()": "8da5cb5b",
					"symbol()": "95d89b41",
					"totalSupply()": "18160ddd",
					"transfer(address,uint256)": "a9059cbb",
					"transferFrom(address,address,uint256)": "23b872dd",
					"transferOwnership(address)": "f2fde38b"
				}
			},
			"storageLayout": {
				"storage": [
					{
						"astId": 306,
						"contract": "Desktop/web3/ERC20/AREVEAToken/AREVEAToken.sol:AREVEAToken",
						"label": "_balances",
						"offset": 0,
						"slot": "0",
						"type": "t_mapping(t_address,t_uint256)"
					},
					{
						"astId": 312,
						"contract": "Desktop/web3/ERC20/AREVEAToken/AREVEAToken.sol:AREVEAToken",
						"label": "_allowances",
						"offset": 0,
						"slot": "1",
						"type": "t_mapping(t_address,t_mapping(t_address,t_uint256))"
					},
					{
						"astId": 314,
						"contract": "Desktop/web3/ERC20/AREVEAToken/AREVEAToken.sol:AREVEAToken",
						"label": "_totalSupply",
						"offset": 0,
						"slot": "2",
						"type": "t_uint256"
					},
					{
						"astId": 316,
						"contract": "Desktop/web3/ERC20/AREVEAToken/AREVEAToken.sol:AREVEAToken",
						"label": "_name",
						"offset": 0,
						"slot": "3",
						"type": "t_string_storage"
					},
					{
						"astId": 318,
						"contract": "Desktop/web3/ERC20/AREVEAToken/AREVEAToken.sol:AREVEAToken",
						"label": "_symbol",
						"offset": 0,
						"slot": "4",
						"type": "t_string_storage"
					},
					{
						"astId": 987,
						"contract": "Desktop/web3/ERC20/AREVEAToken/AREVEAToken.sol:AREVEAToken",
						"label": "_owner",
						"offset": 0,
						"slot": "5",
						"type": "t_address"
					},
					{
						"astId": 17,
						"contract": "Desktop/web3/ERC20/AREVEAToken/AREVEAToken.sol:AREVEAToken",
						"label": "_balances",
						"offset": 0,
						"slot": "6",
						"type": "t_mapping(t_address,t_uint256)"
					},
					{
						"astId": 23,
						"contract": "Desktop/web3/ERC20/AREVEAToken/AREVEAToken.sol:AREVEAToken",
						"label": "_allowances",
						"offset": 0,
						"slot": "7",
						"type": "t_mapping(t_address,t_mapping(t_address,t_uint256))"
					},
					{
						"astId": 26,
						"contract": "Desktop/web3/ERC20/AREVEAToken/AREVEAToken.sol:AREVEAToken",
						"label": "_owner",
						"offset": 0,
						"slot": "8",
						"type": "t_address"
					},
					{
						"astId": 28,
						"contract": "Desktop/web3/ERC20/AREVEAToken/AREVEAToken.sol:AREVEAToken",
						"label": "_totalSupply",
						"offset": 0,
						"slot": "9",
						"type": "t_uint256"
					},
					{
						"astId": 53,
						"contract": "Desktop/web3/ERC20/AREVEAToken/AREVEAToken.sol:AREVEAToken",
						"label": "_maximusupply",
						"offset": 0,
						"slot": "10",
						"type": "t_uint256"
					}
				],
				"types": {
					"t_address": {
						"encoding": "inplace",
						"label": "address",
						"numberOfBytes": "20"
					},
					"t_mapping(t_address,t_mapping(t_address,t_uint256))": {
						"encoding": "mapping",
						"key": "t_address",
						"label": "mapping(address => mapping(address => uint256))",
						"numberOfBytes": "32",
						"value": "t_mapping(t_address,t_uint256)"
					},
					"t_mapping(t_address,t_uint256)": {
						"encoding": "mapping",
						"key": "t_address",
						"label": "mapping(address => uint256)",
						"numberOfBytes": "32",
						"value": "t_uint256"
					},
					"t_string_storage": {
						"encoding": "bytes",
						"label": "string",
						"numberOfBytes": "32"
					},
					"t_uint256": {
						"encoding": "inplace",
						"label": "uint256",
						"numberOfBytes": "32"
					}
				}
			},
			"userdoc": {
				"kind": "user",
				"methods": {},
				"notice": "It does crypto related mint, burn, transfer services ",
				"version": 1
			}
		}
	}
}